{
  "_format": "hh-sol-artifact-1",
  "contractName": "AaveAssetManager",
  "sourceName": "contracts/AaveAssetManager.sol",
  "abi": [
    {
      "inputs": [
        {
          "internalType": "contract IPolicyPool",
          "name": "policyPool_",
          "type": "address"
        },
        {
          "internalType": "contract ILendingPoolAddressesProvider",
          "name": "aaveAddrProv_",
          "type": "address"
        },
        {
          "internalType": "contract IUniswapV2Router02",
          "name": "swapRouter_",
          "type": "address"
        }
      ],
      "stateMutability": "nonpayable",
      "type": "constructor"
    },
    {
      "anonymous": false,
      "inputs": [
        {
          "indexed": false,
          "internalType": "address",
          "name": "previousAdmin",
          "type": "address"
        },
        {
          "indexed": false,
          "internalType": "address",
          "name": "newAdmin",
          "type": "address"
        }
      ],
      "name": "AdminChanged",
      "type": "event"
    },
    {
      "anonymous": false,
      "inputs": [
        {
          "indexed": true,
          "internalType": "address",
          "name": "beacon",
          "type": "address"
        }
      ],
      "name": "BeaconUpgraded",
      "type": "event"
    },
    {
      "anonymous": false,
      "inputs": [
        {
          "indexed": false,
          "internalType": "bool",
          "name": "positive",
          "type": "bool"
        },
        {
          "indexed": false,
          "internalType": "uint256",
          "name": "amount",
          "type": "uint256"
        }
      ],
      "name": "EarningsDistributed",
      "type": "event"
    },
    {
      "anonymous": false,
      "inputs": [
        {
          "indexed": true,
          "internalType": "enum IPolicyPoolConfig.GovernanceActions",
          "name": "action",
          "type": "uint8"
        },
        {
          "indexed": false,
          "internalType": "uint256",
          "name": "value",
          "type": "uint256"
        }
      ],
      "name": "GovernanceAction",
      "type": "event"
    },
    {
      "anonymous": false,
      "inputs": [
        {
          "indexed": false,
          "internalType": "uint256",
          "name": "amount",
          "type": "uint256"
        }
      ],
      "name": "MoneyDeinvested",
      "type": "event"
    },
    {
      "anonymous": false,
      "inputs": [
        {
          "indexed": false,
          "internalType": "uint256",
          "name": "amount",
          "type": "uint256"
        }
      ],
      "name": "MoneyInvested",
      "type": "event"
    },
    {
      "anonymous": false,
      "inputs": [
        {
          "indexed": false,
          "internalType": "address",
          "name": "account",
          "type": "address"
        }
      ],
      "name": "Paused",
      "type": "event"
    },
    {
      "anonymous": false,
      "inputs": [
        {
          "indexed": false,
          "internalType": "uint256",
          "name": "rewardIn",
          "type": "uint256"
        },
        {
          "indexed": false,
          "internalType": "uint256",
          "name": "currencyOut",
          "type": "uint256"
        }
      ],
      "name": "RewardSwapped",
      "type": "event"
    },
    {
      "anonymous": false,
      "inputs": [
        {
          "indexed": false,
          "internalType": "address",
          "name": "account",
          "type": "address"
        }
      ],
      "name": "Unpaused",
      "type": "event"
    },
    {
      "anonymous": false,
      "inputs": [
        {
          "indexed": true,
          "internalType": "address",
          "name": "implementation",
          "type": "address"
        }
      ],
      "name": "Upgraded",
      "type": "event"
    },
    {
      "inputs": [],
      "name": "GUARDIAN_ROLE",
      "outputs": [
        {
          "internalType": "bytes32",
          "name": "",
          "type": "bytes32"
        }
      ],
      "stateMutability": "view",
      "type": "function"
    },
    {
      "inputs": [],
      "name": "LEVEL1_ROLE",
      "outputs": [
        {
          "internalType": "bytes32",
          "name": "",
          "type": "bytes32"
        }
      ],
      "stateMutability": "view",
      "type": "function"
    },
    {
      "inputs": [],
      "name": "LEVEL2_ROLE",
      "outputs": [
        {
          "internalType": "bytes32",
          "name": "",
          "type": "bytes32"
        }
      ],
      "stateMutability": "view",
      "type": "function"
    },
    {
      "inputs": [],
      "name": "LEVEL3_ROLE",
      "outputs": [
        {
          "internalType": "bytes32",
          "name": "",
          "type": "bytes32"
        }
      ],
      "stateMutability": "view",
      "type": "function"
    },
    {
      "inputs": [],
      "name": "SWAP_REWARDS_ROLE",
      "outputs": [
        {
          "internalType": "bytes32",
          "name": "",
          "type": "bytes32"
        }
      ],
      "stateMutability": "view",
      "type": "function"
    },
    {
      "inputs": [],
      "name": "TWEAK_EXPIRATION",
      "outputs": [
        {
          "internalType": "uint40",
          "name": "",
          "type": "uint40"
        }
      ],
      "stateMutability": "view",
      "type": "function"
    },
    {
      "inputs": [],
      "name": "aToken",
      "outputs": [
        {
          "internalType": "contract IAToken",
          "name": "",
          "type": "address"
        }
      ],
      "stateMutability": "view",
      "type": "function"
    },
    {
      "inputs": [],
      "name": "checkpoint",
      "outputs": [],
      "stateMutability": "nonpayable",
      "type": "function"
    },
    {
      "inputs": [],
      "name": "claimRewardsMin",
      "outputs": [
        {
          "internalType": "uint256",
          "name": "",
          "type": "uint256"
        }
      ],
      "stateMutability": "view",
      "type": "function"
    },
    {
      "inputs": [],
      "name": "currency",
      "outputs": [
        {
          "internalType": "contract IERC20Metadata",
          "name": "",
          "type": "address"
        }
      ],
      "stateMutability": "view",
      "type": "function"
    },
    {
      "inputs": [],
      "name": "deinvestAll",
      "outputs": [],
      "stateMutability": "nonpayable",
      "type": "function"
    },
    {
      "inputs": [],
      "name": "distributeEarnings",
      "outputs": [],
      "stateMutability": "nonpayable",
      "type": "function"
    },
    {
      "inputs": [],
      "name": "getInvestmentValue",
      "outputs": [
        {
          "internalType": "uint256",
          "name": "",
          "type": "uint256"
        }
      ],
      "stateMutability": "view",
      "type": "function"
    },
    {
      "inputs": [
        {
          "internalType": "uint256",
          "name": "liquidityMin_",
          "type": "uint256"
        },
        {
          "internalType": "uint256",
          "name": "liquidityMiddle_",
          "type": "uint256"
        },
        {
          "internalType": "uint256",
          "name": "liquidityMax_",
          "type": "uint256"
        },
        {
          "internalType": "uint256",
          "name": "claimRewardsMin_",
          "type": "uint256"
        },
        {
          "internalType": "uint256",
          "name": "reinvestRewardsMin_",
          "type": "uint256"
        },
        {
          "internalType": "uint256",
          "name": "maxSlippage_",
          "type": "uint256"
        }
      ],
      "name": "initialize",
      "outputs": [],
      "stateMutability": "nonpayable",
      "type": "function"
    },
    {
      "inputs": [],
      "name": "lastTweak",
      "outputs": [
        {
          "internalType": "uint40",
          "name": "",
          "type": "uint40"
        },
        {
          "internalType": "uint56",
          "name": "",
          "type": "uint56"
        }
      ],
      "stateMutability": "view",
      "type": "function"
    },
    {
      "inputs": [],
      "name": "lendingPool",
      "outputs": [
        {
          "internalType": "contract ILendingPool",
          "name": "",
          "type": "address"
        }
      ],
      "stateMutability": "view",
      "type": "function"
    },
    {
      "inputs": [],
      "name": "liquidityMax",
      "outputs": [
        {
          "internalType": "uint256",
          "name": "",
          "type": "uint256"
        }
      ],
      "stateMutability": "view",
      "type": "function"
    },
    {
      "inputs": [],
      "name": "liquidityMiddle",
      "outputs": [
        {
          "internalType": "uint256",
          "name": "",
          "type": "uint256"
        }
      ],
      "stateMutability": "view",
      "type": "function"
    },
    {
      "inputs": [],
      "name": "liquidityMin",
      "outputs": [
        {
          "internalType": "uint256",
          "name": "",
          "type": "uint256"
        }
      ],
      "stateMutability": "view",
      "type": "function"
    },
    {
      "inputs": [],
      "name": "maxSlippage",
      "outputs": [
        {
          "internalType": "uint256",
          "name": "",
          "type": "uint256"
        }
      ],
      "stateMutability": "view",
      "type": "function"
    },
    {
      "inputs": [],
      "name": "pause",
      "outputs": [],
      "stateMutability": "nonpayable",
      "type": "function"
    },
    {
      "inputs": [],
      "name": "paused",
      "outputs": [
        {
          "internalType": "bool",
          "name": "",
          "type": "bool"
        }
      ],
      "stateMutability": "view",
      "type": "function"
    },
    {
      "inputs": [],
      "name": "policyPool",
      "outputs": [
        {
          "internalType": "contract IPolicyPool",
          "name": "",
          "type": "address"
        }
      ],
      "stateMutability": "view",
      "type": "function"
    },
    {
      "inputs": [],
      "name": "priceOracle",
      "outputs": [
        {
          "internalType": "contract IPriceOracle",
          "name": "",
          "type": "address"
        }
      ],
      "stateMutability": "view",
      "type": "function"
    },
    {
      "inputs": [],
      "name": "rebalance",
      "outputs": [],
      "stateMutability": "nonpayable",
      "type": "function"
    },
    {
      "inputs": [
        {
          "internalType": "uint256",
          "name": "paymentAmount",
          "type": "uint256"
        }
      ],
      "name": "refillWallet",
      "outputs": [],
      "stateMutability": "nonpayable",
      "type": "function"
    },
    {
      "inputs": [],
      "name": "reinvestRewardToken",
      "outputs": [],
      "stateMutability": "nonpayable",
      "type": "function"
    },
    {
      "inputs": [],
      "name": "reinvestRewardsMin",
      "outputs": [
        {
          "internalType": "uint256",
          "name": "",
          "type": "uint256"
        }
      ],
      "stateMutability": "view",
      "type": "function"
    },
    {
      "inputs": [],
      "name": "rewardAToken",
      "outputs": [
        {
          "internalType": "contract IAToken",
          "name": "",
          "type": "address"
        }
      ],
      "stateMutability": "view",
      "type": "function"
    },
    {
      "inputs": [],
      "name": "rewardToken",
      "outputs": [
        {
          "internalType": "contract IERC20Metadata",
          "name": "",
          "type": "address"
        }
      ],
      "stateMutability": "view",
      "type": "function"
    },
    {
      "inputs": [
        {
          "internalType": "uint256",
          "name": "newValue",
          "type": "uint256"
        }
      ],
      "name": "setClaimRewardsMin",
      "outputs": [],
      "stateMutability": "nonpayable",
      "type": "function"
    },
    {
      "inputs": [
        {
          "internalType": "uint256",
          "name": "newValue",
          "type": "uint256"
        }
      ],
      "name": "setLiquidityMax",
      "outputs": [],
      "stateMutability": "nonpayable",
      "type": "function"
    },
    {
      "inputs": [
        {
          "internalType": "uint256",
          "name": "newValue",
          "type": "uint256"
        }
      ],
      "name": "setLiquidityMiddle",
      "outputs": [],
      "stateMutability": "nonpayable",
      "type": "function"
    },
    {
      "inputs": [
        {
          "internalType": "uint256",
          "name": "newValue",
          "type": "uint256"
        }
      ],
      "name": "setLiquidityMin",
      "outputs": [],
      "stateMutability": "nonpayable",
      "type": "function"
    },
    {
      "inputs": [
        {
          "internalType": "uint256",
          "name": "min",
          "type": "uint256"
        },
        {
          "internalType": "uint256",
          "name": "middle",
          "type": "uint256"
        },
        {
          "internalType": "uint256",
          "name": "max",
          "type": "uint256"
        }
      ],
      "name": "setLiquidityMultiple",
      "outputs": [],
      "stateMutability": "nonpayable",
      "type": "function"
    },
    {
      "inputs": [
        {
          "internalType": "uint256",
          "name": "newValue",
          "type": "uint256"
        }
      ],
      "name": "setMaxSlippage",
      "outputs": [],
      "stateMutability": "nonpayable",
      "type": "function"
    },
    {
      "inputs": [
        {
          "internalType": "uint256",
          "name": "newValue",
          "type": "uint256"
        }
      ],
      "name": "setReinvestRewardsMin",
      "outputs": [],
      "stateMutability": "nonpayable",
      "type": "function"
    },
    {
      "inputs": [
        {
          "internalType": "uint256",
          "name": "amount",
          "type": "uint256"
        }
      ],
      "name": "swapRewards",
      "outputs": [
        {
          "internalType": "uint256",
          "name": "",
          "type": "uint256"
        },
        {
          "internalType": "uint256",
          "name": "",
          "type": "uint256"
        }
      ],
      "stateMutability": "nonpayable",
      "type": "function"
    },
    {
      "inputs": [],
      "name": "totalInvestable",
      "outputs": [
        {
          "internalType": "uint256",
          "name": "",
          "type": "uint256"
        }
      ],
      "stateMutability": "view",
      "type": "function"
    },
    {
      "inputs": [],
      "name": "unclaimedRewards",
      "outputs": [
        {
          "internalType": "uint256",
          "name": "",
          "type": "uint256"
        }
      ],
      "stateMutability": "view",
      "type": "function"
    },
    {
      "inputs": [],
      "name": "unpause",
      "outputs": [],
      "stateMutability": "nonpayable",
      "type": "function"
    },
    {
      "inputs": [
        {
          "internalType": "address",
          "name": "newImplementation",
          "type": "address"
        }
      ],
      "name": "upgradeTo",
      "outputs": [],
      "stateMutability": "nonpayable",
      "type": "function"
    },
    {
      "inputs": [
        {
          "internalType": "address",
          "name": "newImplementation",
          "type": "address"
        },
        {
          "internalType": "bytes",
          "name": "data",
          "type": "bytes"
        }
      ],
      "name": "upgradeToAndCall",
      "outputs": [],
      "stateMutability": "payable",
      "type": "function"
    }
  ],
  "bytecode": "0x6101606040523060601b6080523480156200001957600080fd5b5060405162005f4438038062005f448339810160408190526200003c91620003ce565b6001600160601b0319606084811b821660a05283811b821660c05282901b16610140526040516321f8a72160e01b8152600160f81b60048201526000906001600160a01b038416906321f8a7219060240160206040518083038186803b158015620000a657600080fd5b505afa158015620000bb573d6000803e3d6000fd5b505050506040513d601f19601f82011682018060405250810190620000e19190620003a7565b90506000816001600160a01b031663d2493b6c866001600160a01b031663e5a6b10f6040518163ffffffff1660e01b815260040160206040518083038186803b1580156200012e57600080fd5b505afa15801562000143573d6000803e3d6000fd5b505050506040513d601f19601f82011682018060405250810190620001699190620003a7565b6040516001600160e01b031960e084901b1681526001600160a01b03909116600482015260240160606040518083038186803b158015620001a957600080fd5b505afa158015620001be573d6000803e3d6000fd5b505050506040513d601f19601f82011682018060405250810190620001e49190620003ce565b50509050806001600160a01b031660e0816001600160a01b031660601b815250506000816001600160a01b03166375d264136040518163ffffffff1660e01b815260040160206040518083038186803b1580156200024157600080fd5b505afa15801562000256573d6000803e3d6000fd5b505050506040513d601f19601f820116820180604052508101906200027c9190620003a7565b6001600160a01b03166399248ea76040518163ffffffff1660e01b815260040160206040518083038186803b158015620002b557600080fd5b505afa158015620002ca573d6000803e3d6000fd5b505050506040513d601f19601f82011682018060405250810190620002f09190620003a7565b606081901b6001600160601b031916610120526040516334924edb60e21b81526001600160a01b03808316600483015291925060009185169063d2493b6c9060240160606040518083038186803b1580156200034b57600080fd5b505afa15801562000360573d6000803e3d6000fd5b505050506040513d601f19601f82011682018060405250810190620003869190620003ce565b505060601b6001600160601b03191661010052506200043b95505050505050565b600060208284031215620003ba57600080fd5b8151620003c78162000422565b9392505050565b600080600060608486031215620003e457600080fd5b8351620003f18162000422565b6020850151909350620004048162000422565b6040850151909250620004178162000422565b809150509250925092565b6001600160a01b03811681146200043857600080fd5b50565b60805160601c60a05160601c60c05160601c60e05160601c6101005160601c6101205160601c6101405160601c61593b62000609600039600081816126e4015281816137a8015261384f0152600081816107660152818161133a01528181611dae01528181612f83015281816140f6015281816141a3015261427201526000818161056e015281816112a001528181612436015281816135ec0152613d4d01526000818161065701528181611202015281816123d50152818161257b0152613ceb015260008181610d030152611f42015260008181610424015281816107ce015281816108650152818161091401528181610a3e01528181610aad01528181610bfb01528181610f1a01528181611034015281816114c70152818161161a01528181611731015281816118fc01528181611b9001528181611ca701528181611fb901528181612179015281816121df0152818161228e0152818161236a0152818161263f015281816127af01528181612ab801528181612d7d015281816139e401528181613a9301528181613c1301528181613ee70152818161404e0152818161422701526149ea015260008181610e2a01528181610e6a015281816113fc015261143c015261593b6000f3fe60806040526004361061025c5760003560e01c806366bcb77111610144578063a59a9973116100b6578063e5a6b10f1161007a578063e5a6b10f1461070e578063f67b2bad14610723578063f7c618c114610757578063f85f91b41461078a578063f9c4fd1b1461079f578063fba75b94146107b457600080fd5b8063a59a99731461067b578063aba01a2a14610690578063c2c4c5c1146106b0578063cec16f3f146106c5578063dc3b352c146106da57600080fd5b80638456cb59116101085780638456cb59146105d457806385a5a1ae146105e95780638c04166f146106095780638d7ddd901461061e5780639eb7165b14610633578063a0c1f15e1461064857600080fd5b806366bcb7711461051557806376577eae1461054a5780637afa33311461055f5780637d7c2a1c146105925780637ed5acfa146105a757600080fd5b806343f68a49116101dd5780634f1ef286116101a15780634f1ef2861461045d578063548d49ee146104705780635a89c5ac146104905780635b494dd5146104b05780635c975abb146104d25780635e5415ed146104f557600080fd5b806343f68a4914610399578063468a8c9f146103b95780634a47a3e0146103f35780634d15eb03146104155780634dd93bd31461044857600080fd5b80632630c12f116102245780632630c12f146103025780632d7aa82b1461032f5780633659cfe61461034f5780633b6612c81461036f5780633f4ba83a1461038457600080fd5b8063054001151461026157806307b6ed84146102895780631014a0c21461029e5780631a2afb1d146102c057806324ea54f4146102e0575b600080fd5b34801561026d57600080fd5b506102766107c9565b6040519081526020015b60405180910390f35b34801561029557600080fd5b5060cf54610276565b3480156102aa57600080fd5b506102be6102b93660046151e7565b610a3b565b005b3480156102cc57600080fd5b506102be6102db3660046151e7565b610bdb565b3480156102ec57600080fd5b506102766000805160206158e683398151915281565b34801561030e57600080fd5b50610317610cff565b6040516001600160a01b039091168152602001610280565b34801561033b57600080fd5b506102be61034a366004615245565b610d97565b34801561035b57600080fd5b506102be61036a366004615036565b610e1f565b34801561037b57600080fd5b5060cc54610276565b34801561039057600080fd5b506102be610ee8565b3480156103a557600080fd5b506102be6103b43660046151e7565b611014565b3480156103c557600080fd5b5060c9546040805164ffffffffff83168152600160281b90920466ffffffffffffff16602083015201610280565b3480156103ff57600080fd5b506102766000805160206158c683398151915281565b34801561042157600080fd5b507f0000000000000000000000000000000000000000000000000000000000000000610317565b34801561045457600080fd5b506102766111fd565b6102be61046b366004615070565b6113f1565b34801561047c57600080fd5b506102be61048b366004615219565b6114a7565b34801561049c57600080fd5b506102be6104ab3660046151e7565b6115fa565b3480156104bc57600080fd5b5061027660008051602061587f83398151915281565b3480156104de57600080fd5b5060975460ff166040519015158152602001610280565b34801561050157600080fd5b506102be6105103660046151e7565b611711565b34801561052157600080fd5b506105356105303660046151e7565b6118d6565b60408051928352602083019190915201610280565b34801561055657600080fd5b506102be611b0c565b34801561056b57600080fd5b507f0000000000000000000000000000000000000000000000000000000000000000610317565b34801561059e57600080fd5b506102be611b41565b3480156105b357600080fd5b506105be6201518081565b60405164ffffffffff9091168152602001610280565b3480156105e057600080fd5b506102be611b7f565b3480156105f557600080fd5b506102be6106043660046151e7565b611c87565b34801561061557600080fd5b5060d054610276565b34801561062a57600080fd5b5060ca54610276565b34801561063f57600080fd5b506102be611d9e565b34801561065457600080fd5b507f0000000000000000000000000000000000000000000000000000000000000000610317565b34801561068757600080fd5b50610317611f3e565b34801561069c57600080fd5b506102be6106ab3660046151e7565b611f99565b3480156106bc57600080fd5b506102be612166565b3480156106d157600080fd5b506102be612176565b3480156106e657600080fd5b506102767fed3e8296abddb00b3f563f774140321369479c87c471890eb52f2e412b5de74c81565b34801561071a57600080fd5b50610317612366565b34801561072f57600080fd5b506102767fbf372ca3ebecfe59ac256f17697941bbe63302aced610e8b0e3646f743c7beb281565b34801561076357600080fd5b507f0000000000000000000000000000000000000000000000000000000000000000610317565b34801561079657600080fd5b506102766123c1565b3480156107ab57600080fd5b5060cb54610276565b3480156107c057600080fd5b5060ce54610276565b6000807f00000000000000000000000000000000000000000000000000000000000000006001600160a01b03166365e29c7e6040518163ffffffff1660e01b815260040160206040518083038186803b15801561082557600080fd5b505afa158015610839573d6000803e3d6000fd5b505050506040513d601f19601f8201168201806040525081019061085d9190615200565b90506000805b7f00000000000000000000000000000000000000000000000000000000000000006001600160a01b031663dea167d56040518163ffffffff1660e01b815260040160206040518083038186803b1580156108bc57600080fd5b505afa1580156108d0573d6000803e3d6000fd5b505050506040513d601f19601f820116820180604052508101906108f49190615200565b811015610a295760405163b0ec4bcf60e01b8152600481018290526000907f00000000000000000000000000000000000000000000000000000000000000006001600160a01b03169063b0ec4bcf9060240160206040518083038186803b15801561095e57600080fd5b505afa158015610972573d6000803e3d6000fd5b505050506040513d601f19601f820116820180604052508101906109969190615053565b9050806001600160a01b03166365e29c7e6040518163ffffffff1660e01b815260040160206040518083038186803b1580156109d157600080fd5b505afa1580156109e5573d6000803e3d6000fd5b505050506040513d601f19601f82011682018060405250810190610a099190615200565b610a139084615623565b9250508080610a21906157f6565b915050610863565b50610a348183615623565b9250505090565b337f00000000000000000000000000000000000000000000000000000000000000006001600160a01b031614610a8c5760405162461bcd60e51b8152600401610a839061555c565b60405180910390fd5b6000610a96612366565b6040516370a0823160e01b81526001600160a01b037f00000000000000000000000000000000000000000000000000000000000000008116600483015291909116906370a082319060240160206040518083038186803b158015610af957600080fd5b505afa158015610b0d573d6000803e3d6000fd5b505050506040513d601f19601f82011682018060405250810190610b319190615200565b9050818110610b985760405162461bcd60e51b815260206004820152602d60248201527f4e6f206e65656420746f20726566696c6c207468652077616c6c657420666f7260448201526c081d1a1a5cc81c185e5b595b9d609a1b6064820152608401610a83565b6000610ba26111fd565b905060008260cb5485610bb59190615623565b610bbf919061576a565b905081811115610bcc5750805b610bd581612576565b50505050565b6000805160206158c683398151915260008051602061587f8339815191527f00000000000000000000000000000000000000000000000000000000000000006001600160a01b03166379502c556040518163ffffffff1660e01b815260040160206040518083038186803b158015610c5257600080fd5b505afa158015610c66573d6000803e3d6000fd5b505050506040513d601f19601f82011682018060405250810190610c8a9190615053565b6001600160a01b031663c5b8f5cf8383336040518463ffffffff1660e01b8152600401610cb9939291906153b8565b60006040518083038186803b158015610cd157600080fd5b505afa158015610ce5573d6000803e3d6000fd5b50505050610cf283612809565b610cfa6128bd565b505050565b60007f00000000000000000000000000000000000000000000000000000000000000006001600160a01b031663fca513a86040518163ffffffff1660e01b815260040160206040518083038186803b158015610d5a57600080fd5b505afa158015610d6e573d6000803e3d6000fd5b505050506040513d601f19601f82011682018060405250810190610d929190615053565b905090565b600054610100900460ff1680610db0575060005460ff16155b610dcc5760405162461bcd60e51b8152600401610a83906154cc565b600054610100900460ff16158015610dee576000805461ffff19166101011790555b610df9878787612932565b610e048484846129b3565b8015610e16576000805461ff00191690555b50505050505050565b306001600160a01b037f0000000000000000000000000000000000000000000000000000000000000000161415610e685760405162461bcd60e51b8152600401610a839061540a565b7f00000000000000000000000000000000000000000000000000000000000000006001600160a01b0316610e9a612a58565b6001600160a01b031614610ec05760405162461bcd60e51b8152600401610a8390615456565b610ec981612a86565b60408051600080825260208201909252610ee591839190612ba2565b50565b6000805160206158e68339815191527fbf372ca3ebecfe59ac256f17697941bbe63302aced610e8b0e3646f743c7beb27f00000000000000000000000000000000000000000000000000000000000000006001600160a01b03166379502c556040518163ffffffff1660e01b815260040160206040518083038186803b158015610f7157600080fd5b505afa158015610f85573d6000803e3d6000fd5b505050506040513d601f19601f82011682018060405250810190610fa99190615053565b6001600160a01b031663c5b8f5cf8383336040518463ffffffff1660e01b8152600401610fd8939291906153b8565b60006040518083038186803b158015610ff057600080fd5b505afa158015611004573d6000803e3d6000fd5b50505050611010612ce6565b5050565b6000805160206158c683398151915260008051602061587f8339815191527f00000000000000000000000000000000000000000000000000000000000000006001600160a01b03166379502c556040518163ffffffff1660e01b815260040160206040518083038186803b15801561108b57600080fd5b505afa15801561109f573d6000803e3d6000fd5b505050506040513d601f19601f820116820180604052508101906110c39190615053565b6001600160a01b031663c5b8f5cf8383336040518463ffffffff1660e01b81526004016110f2939291906153b8565b60006040518083038186803b15801561110a57600080fd5b505afa15801561111e573d6000803e3d6000fd5b5050505067016345785d8a000083111561114a5760405162461bcd60e51b8152600401610a839061551a565b60006111636000805160206158c6833981519152612d79565b159050801580611186575061118660d054856af8277896582678ac000000612e92565b6111ec5760405162461bcd60e51b815260206004820152603160248201527f547765616b2065786365656465643a206d6178536c69707061676520747765616044820152706b73206f6e6c7920757020746f2033302560781b6064820152608401610a83565b60d0849055610bd560188583612f1b565b6000807f00000000000000000000000000000000000000000000000000000000000000006040516370a0823160e01b81523060048201526001600160a01b0391909116906370a082319060240160206040518083038186803b15801561126257600080fd5b505afa158015611276573d6000803e3d6000fd5b505050506040513d601f19601f8201168201806040525081019061129a9190615200565b905060007f00000000000000000000000000000000000000000000000000000000000000006040516370a0823160e01b81523060048201526001600160a01b0391909116906370a082319060240160206040518083038186803b15801561130057600080fd5b505afa158015611314573d6000803e3d6000fd5b505050506040513d601f19601f820116820180604052508101906113389190615200565b7f00000000000000000000000000000000000000000000000000000000000000006040516370a0823160e01b81523060048201526001600160a01b0391909116906370a082319060240160206040518083038186803b15801561139a57600080fd5b505afa1580156113ae573d6000803e3d6000fd5b505050506040513d601f19601f820116820180604052508101906113d29190615200565b6113dc9190615623565b90506113e781612f74565b610a349083615623565b306001600160a01b037f000000000000000000000000000000000000000000000000000000000000000016141561143a5760405162461bcd60e51b8152600401610a839061540a565b7f00000000000000000000000000000000000000000000000000000000000000006001600160a01b031661146c612a58565b6001600160a01b0316146114925760405162461bcd60e51b8152600401610a8390615456565b61149b82612a86565b61101082826001612ba2565b6000805160206158c683398151915260008051602061587f8339815191527f00000000000000000000000000000000000000000000000000000000000000006001600160a01b03166379502c556040518163ffffffff1660e01b815260040160206040518083038186803b15801561151e57600080fd5b505afa158015611532573d6000803e3d6000fd5b505050506040513d601f19601f820116820180604052508101906115569190615053565b6001600160a01b031663c5b8f5cf8383336040518463ffffffff1660e01b8152600401611585939291906153b8565b60006040518083038186803b15801561159d57600080fd5b505afa1580156115b1573d6000803e3d6000fd5b5050505060001985146115c7576115c785612809565b60001984146115d9576115d9846133bf565b60001983146115eb576115eb83613476565b6115f36128bd565b5050505050565b6000805160206158c683398151915260008051602061587f8339815191527f00000000000000000000000000000000000000000000000000000000000000006001600160a01b03166379502c556040518163ffffffff1660e01b815260040160206040518083038186803b15801561167157600080fd5b505afa158015611685573d6000803e3d6000fd5b505050506040513d601f19601f820116820180604052508101906116a99190615053565b6001600160a01b031663c5b8f5cf8383336040518463ffffffff1660e01b81526004016116d8939291906153b8565b60006040518083038186803b1580156116f057600080fd5b505afa158015611704573d6000803e3d6000fd5b50505050610cf283613476565b6000805160206158c683398151915260008051602061587f8339815191527f00000000000000000000000000000000000000000000000000000000000000006001600160a01b03166379502c556040518163ffffffff1660e01b815260040160206040518083038186803b15801561178857600080fd5b505afa15801561179c573d6000803e3d6000fd5b505050506040513d601f19601f820116820180604052508101906117c09190615053565b6001600160a01b031663c5b8f5cf8383336040518463ffffffff1660e01b81526004016117ef939291906153b8565b60006040518083038186803b15801561180757600080fd5b505afa15801561181b573d6000803e3d6000fd5b5050505060006118386000805160206158c6833981519152612d79565b15905080158061185b575061185b60ce54856af8277896582678ac000000612e92565b6118c55760405162461bcd60e51b815260206004820152603560248201527f547765616b2065786365656465643a20636c61696d526577617264734d696e20604482015274747765616b73206f6e6c7920757020746f2033302560581b6064820152608401610a83565b60ce849055610bd560168583612f1b565b6000807fed3e8296abddb00b3f563f774140321369479c87c471890eb52f2e412b5de74c7f00000000000000000000000000000000000000000000000000000000000000006001600160a01b03166379502c556040518163ffffffff1660e01b815260040160206040518083038186803b15801561195357600080fd5b505afa158015611967573d6000803e3d6000fd5b505050506040513d601f19601f8201168201806040525081019061198b9190615053565b6040516312d9a6ad60e01b8152600481018390523360248201526001600160a01b0391909116906312d9a6ad9060440160006040518083038186803b1580156119d357600080fd5b505afa1580156119e7573d6000803e3d6000fd5b505050506000806119f8863061352a565b915091506000611a06611f3e565b90506000611a12612366565b60405163095ea7b360e01b81526001600160a01b038481166004830152602482018690529192509082169063095ea7b390604401602060405180830381600087803b158015611a6057600080fd5b505af1158015611a74573d6000803e3d6000fd5b505050506040513d601f19601f82011682018060405250810190611a9891906151c5565b5060405163e8eda9df60e01b81526001600160a01b0383169063e8eda9df90611acc9084908790309060009060040161532e565b600060405180830381600087803b158015611ae657600080fd5b505af1158015611afa573d6000803e3d6000fd5b50959850939650505050505050915091565b60975460ff1615611b2f5760405162461bcd60e51b8152600401610a83906154a2565b611b3f611b3a6111fd565b61396b565b565b60975460ff1615611b645760405162461bcd60e51b8152600401610a83906154a2565b611b6e6000613cbf565b50611b77613ea3565b611b3f611d9e565b6000805160206158e68339815191527f00000000000000000000000000000000000000000000000000000000000000006001600160a01b03166379502c556040518163ffffffff1660e01b815260040160206040518083038186803b158015611be757600080fd5b505afa158015611bfb573d6000803e3d6000fd5b505050506040513d601f19601f82011682018060405250810190611c1f9190615053565b6040516312d9a6ad60e01b8152600481018390523360248201526001600160a01b0391909116906312d9a6ad9060440160006040518083038186803b158015611c6757600080fd5b505afa158015611c7b573d6000803e3d6000fd5b50505050610ee5613fc8565b6000805160206158c683398151915260008051602061587f8339815191527f00000000000000000000000000000000000000000000000000000000000000006001600160a01b03166379502c556040518163ffffffff1660e01b815260040160206040518083038186803b158015611cfe57600080fd5b505afa158015611d12573d6000803e3d6000fd5b505050506040513d601f19601f82011682018060405250810190611d369190615053565b6001600160a01b031663c5b8f5cf8383336040518463ffffffff1660e01b8152600401611d65939291906153b8565b60006040518083038186803b158015611d7d57600080fd5b505afa158015611d91573d6000803e3d6000fd5b50505050610cf2836133bf565b6000611da8611f3e565b905060007f00000000000000000000000000000000000000000000000000000000000000006040516370a0823160e01b81523060048201529091506000906001600160a01b038316906370a082319060240160206040518083038186803b158015611e1257600080fd5b505afa158015611e26573d6000803e3d6000fd5b505050506040513d601f19601f82011682018060405250810190611e4a9190615200565b905060cf548111611e5a57505050565b60405163095ea7b360e01b81526001600160a01b0384811660048301526024820183905283169063095ea7b390604401602060405180830381600087803b158015611ea457600080fd5b505af1158015611eb8573d6000803e3d6000fd5b505050506040513d601f19601f82011682018060405250810190611edc91906151c5565b5060405163e8eda9df60e01b81526001600160a01b0384169063e8eda9df90611f109085908590309060009060040161532e565b600060405180830381600087803b158015611f2a57600080fd5b505af1158015610e16573d6000803e3d6000fd5b60007f00000000000000000000000000000000000000000000000000000000000000006001600160a01b0316630261bf8b6040518163ffffffff1660e01b815260040160206040518083038186803b158015610d5a57600080fd5b6000805160206158c683398151915260008051602061587f8339815191527f00000000000000000000000000000000000000000000000000000000000000006001600160a01b03166379502c556040518163ffffffff1660e01b815260040160206040518083038186803b15801561201057600080fd5b505afa158015612024573d6000803e3d6000fd5b505050506040513d601f19601f820116820180604052508101906120489190615053565b6001600160a01b031663c5b8f5cf8383336040518463ffffffff1660e01b8152600401612077939291906153b8565b60006040518083038186803b15801561208f57600080fd5b505afa1580156120a3573d6000803e3d6000fd5b5050505060006120c06000805160206158c6833981519152612d79565b1590508015806120e357506120e360cf54856af8277896582678ac000000612e92565b6121555760405162461bcd60e51b815260206004820152603860248201527f547765616b2065786365656465643a207265696e76657374526577617264734d60448201527f696e20747765616b73206f6e6c7920757020746f2033302500000000000000006064820152608401610a83565b60cf849055610bd560178583612f1b565b61216e611b0c565b611b3f611b41565b337f00000000000000000000000000000000000000000000000000000000000000006001600160a01b0316146121be5760405162461bcd60e51b8152600401610a839061555c565b60006121c8612366565b6040516370a0823160e01b81526001600160a01b037f00000000000000000000000000000000000000000000000000000000000000008116600483015291909116906370a082319060240160206040518083038186803b15801561222b57600080fd5b505afa15801561223f573d6000803e3d6000fd5b505050506040513d601f19601f820116820180604052508101906122639190615200565b905061226d614020565b6000612277612366565b6040516370a0823160e01b81526001600160a01b037f00000000000000000000000000000000000000000000000000000000000000008116600483015291909116906370a082319060240160206040518083038186803b1580156122da57600080fd5b505afa1580156122ee573d6000803e3d6000fd5b505050506040513d601f19601f820116820180604052508101906123129190615200565b9050612321611b3a838361576a565b600060cd557fb82d4e0870bf4ae7236ad1de74d6612d04d1b805b47d98c2f40088a193d87c65612351838361576a565b60405190815260200160405180910390a15050565b60007f00000000000000000000000000000000000000000000000000000000000000006001600160a01b031663e5a6b10f6040518163ffffffff1660e01b815260040160206040518083038186803b158015610d5a57600080fd5b6040805160028082526060820183526000927f00000000000000000000000000000000000000000000000000000000000000009284929091602083019080368337019050509050818160008151811061241c5761241c61583d565b6001600160a01b03909216602092830291909101909101527f0000000000000000000000000000000000000000000000000000000000000000816001815181106124685761246861583d565b60200260200101906001600160a01b031690816001600160a01b031681525050816001600160a01b03166375d264136040518163ffffffff1660e01b815260040160206040518083038186803b1580156124c157600080fd5b505afa1580156124d5573d6000803e3d6000fd5b505050506040513d601f19601f820116820180604052508101906124f99190615053565b6001600160a01b0316638b599f2682306040518363ffffffff1660e01b815260040161252692919061535b565b60206040518083038186803b15801561253e57600080fd5b505afa158015612552573d6000803e3d6000fd5b505050506040513d601f19601f82011682018060405250810190610a349190615200565b8080807f00000000000000000000000000000000000000000000000000000000000000006040516370a0823160e01b81523060048201526001600160a01b0391909116906370a082319060240160206040518083038186803b1580156125db57600080fd5b505afa1580156125ef573d6000803e3d6000fd5b505050506040513d601f19601f820116820180604052508101906126139190615200565b101561261e57506000195b612626611f3e565b6001600160a01b03166369328dec61263c612366565b837f00000000000000000000000000000000000000000000000000000000000000006040518463ffffffff1660e01b815260040161267c9392919061530b565b602060405180830381600087803b15801561269657600080fd5b505af11580156126aa573d6000803e3d6000fd5b505050506040513d601f19601f820116820180604052508101906126ce9190615200565b6126d8908361576a565b915081156127f75760007f00000000000000000000000000000000000000000000000000000000000000006001600160a01b0316631f00ca748461271a61424b565b6040518363ffffffff1660e01b815260040161273792919061559d565b60006040518083038186803b15801561274f57600080fd5b505afa158015612763573d6000803e3d6000fd5b505050506040513d6000823e601f3d908101601f1916820160405261278b9190810190615118565b60008151811061279d5761279d61583d565b6020026020010151905060006127d3827f000000000000000000000000000000000000000000000000000000000000000061352a565b915050838110156127ef576127e8818561576a565b93506127f4565b600093505b50505b610cfa612804838561576a565b6142fc565b60006128226000805160206158c6833981519152612d79565b159050801580612845575061284560ca54836af8277896582678ac000000614355565b6128ac5760405162461bcd60e51b815260206004820152603260248201527f547765616b2065786365656465643a206c69717569646974794d696e20747765604482015271616b73206f6e6c7920757020746f2033302560701b6064820152608401610a83565b60ca82905561101060138383612f1b565b60cb5460ca54111580156128d5575060cc5460cb5411155b611b3f5760405162461bcd60e51b815260206004820152602860248201527f56616c69646174696f6e3a204c6971756964697479206c696d69747320617265604482015267081a5b9d985b1a5960c21b6064820152608401610a83565b600054610100900460ff168061294b575060005460ff16155b6129675760405162461bcd60e51b8152600401610a83906154cc565b600054610100900460ff16158015612989576000805461ffff19166101011790555b6129916143d0565b61299c84848461444b565b8015610bd5576000805461ff001916905550505050565b600054610100900460ff16806129cc575060005460ff16155b6129e85760405162461bcd60e51b8152600401610a83906154cc565b600054610100900460ff16158015612a0a576000805461ffff19166101011790555b60ce84905560cf83905567016345785d8a0000821115612a3c5760405162461bcd60e51b8152600401610a839061551a565b60d08290558015610bd5576000805461ff001916905550505050565b7f360894a13ba1a3210667c828492db98dca3e2076cc3735a920a3ca505d382bbc546001600160a01b031690565b6000805160206158e68339815191527fbf372ca3ebecfe59ac256f17697941bbe63302aced610e8b0e3646f743c7beb27f00000000000000000000000000000000000000000000000000000000000000006001600160a01b03166379502c556040518163ffffffff1660e01b815260040160206040518083038186803b158015612b0f57600080fd5b505afa158015612b23573d6000803e3d6000fd5b505050506040513d601f19601f82011682018060405250810190612b479190615053565b6001600160a01b031663c5b8f5cf8383336040518463ffffffff1660e01b8152600401612b76939291906153b8565b60006040518083038186803b158015612b8e57600080fd5b505afa158015610e16573d6000803e3d6000fd5b6000612bac612a58565b9050612bb7846144b9565b600083511180612bc45750815b15612bd557612bd3848461455e565b505b7f4910fdfa16fed3260ed0e7147f7cc6da11a60208b5b9406d12a635614ffd9143805460ff166115f357805460ff191660011781556040516001600160a01b0383166024820152612c5490869060440160408051601f198184030181529190526020810180516001600160e01b0316631b2ce7f360e11b17905261455e565b50805460ff19168155612c65612a58565b6001600160a01b0316826001600160a01b031614612cdd5760405162461bcd60e51b815260206004820152602f60248201527f45524331393637557067726164653a207570677261646520627265616b73206660448201526e75727468657220757067726164657360881b6064820152608401610a83565b6115f385614649565b60975460ff16612d2f5760405162461bcd60e51b815260206004820152601460248201527314185d5cd8589b194e881b9bdd081c185d5cd95960621b6044820152606401610a83565b6097805460ff191690557f5db9ee0a495bf2e6ff9c91a7834c1ba4fdd244a5e8aa4e537bd38aeae4b073aa335b6040516001600160a01b03909116815260200160405180910390a1565b60007f00000000000000000000000000000000000000000000000000000000000000006001600160a01b03166379502c556040518163ffffffff1660e01b815260040160206040518083038186803b158015612dd457600080fd5b505afa158015612de8573d6000803e3d6000fd5b505050506040513d601f19601f82011682018060405250810190612e0c9190615053565b604051632474521560e21b8152600481018490523360248201526001600160a01b0391909116906391d148549060440160206040518083038186803b158015612e5457600080fd5b505afa158015612e68573d6000803e3d6000fd5b505050506040513d601f19601f82011682018060405250810190612e8c91906151c5565b92915050565b600082841415612ea457506001612f14565b83612ebb5750670de0b6b3a7640000811015612f14565b82612ec857506000612f14565b82841015612ef75781670de0b6b3a7640000612ee48587614689565b612eee919061576a565b11159050612f14565b81612f028486614689565b612eee90670de0b6b3a764000061576a565b9392505050565b8015612f2a57612f2a83614789565b82601b811115612f3c57612f3c615827565b6040518381527f7bc647fe5043209e2019aa3503b79c1b0dd83eb61c56013d373a7584ff6bfb139060200160405180910390a2505050565b600080612f7f610cff565b90507f00000000000000000000000000000000000000000000000000000000000000006000612fac612366565b60405163b3596f0760e01b81526001600160a01b0380831660048301529192506000916130af919086169063b3596f079060240160206040518083038186803b158015612ff857600080fd5b505afa15801561300c573d6000803e3d6000fd5b505050506040513d601f19601f820116820180604052508101906130309190615200565b60405163b3596f0760e01b81526001600160a01b03868116600483015287169063b3596f079060240160206040518083038186803b15801561307157600080fd5b505afa158015613085573d6000803e3d6000fd5b505050506040513d601f19601f820116820180604052508101906130a99190615200565b90614689565b9050816001600160a01b031663313ce5676040518163ffffffff1660e01b815260040160206040518083038186803b1580156130ea57600080fd5b505afa1580156130fe573d6000803e3d6000fd5b505050506040513d601f19601f820116820180604052508101906131229190615288565b60ff16836001600160a01b031663313ce5676040518163ffffffff1660e01b815260040160206040518083038186803b15801561315e57600080fd5b505afa158015613172573d6000803e3d6000fd5b505050506040513d601f19601f820116820180604052508101906131969190615288565b60ff1611156132a757816001600160a01b031663313ce5676040518163ffffffff1660e01b815260040160206040518083038186803b1580156131d857600080fd5b505afa1580156131ec573d6000803e3d6000fd5b505050506040513d601f19601f820116820180604052508101906132109190615288565b836001600160a01b031663313ce5676040518163ffffffff1660e01b815260040160206040518083038186803b15801561324957600080fd5b505afa15801561325d573d6000803e3d6000fd5b505050506040513d601f19601f820116820180604052508101906132819190615288565b61328b91906157a7565b61329690600a6156a0565b6132a0908261563b565b90506133ab565b816001600160a01b031663313ce5676040518163ffffffff1660e01b815260040160206040518083038186803b1580156132e057600080fd5b505afa1580156132f4573d6000803e3d6000fd5b505050506040513d601f19601f820116820180604052508101906133189190615288565b836001600160a01b031663313ce5676040518163ffffffff1660e01b815260040160206040518083038186803b15801561335157600080fd5b505afa158015613365573d6000803e3d6000fd5b505050506040513d601f19601f820116820180604052508101906133899190615288565b61339391906157a7565b61339e90600a6156a0565b6133a8908261574b565b90505b6133b586826148f2565b9695505050505050565b60006133d86000805160206158c6833981519152612d79565b1590508015806133fb57506133fb60cb54836af8277896582678ac000000614355565b6134655760405162461bcd60e51b815260206004820152603560248201527f547765616b2065786365656465643a206c69717569646974794d6964646c6520604482015274747765616b73206f6e6c7920757020746f2033302560581b6064820152608401610a83565b60cb82905561101060148383612f1b565b600061348f6000805160206158c6833981519152612d79565b1590508015806134b257506134b260cc54836af8277896582678ac000000614355565b6135195760405162461bcd60e51b815260206004820152603260248201527f547765616b2065786365656465643a206c69717569646974794d617820747765604482015271616b73206f6e6c7920757020746f2033302560701b6064820152608401610a83565b60cc82905561101060158383612f1b565b600080600061353761424b565b905060008160008151811061354e5761354e61583d565b60209081029190910101516040516370a0823160e01b81523060048201526001600160a01b03909116906370a082319060240160206040518083038186803b15801561359957600080fd5b505afa1580156135ad573d6000803e3d6000fd5b505050506040513d601f19601f820116820180604052508101906135d19190615200565b9050858110156137445760006135e7828861576a565b9050807f00000000000000000000000000000000000000000000000000000000000000006040516370a0823160e01b81523060048201526001600160a01b0391909116906370a082319060240160206040518083038186803b15801561364c57600080fd5b505afa158015613660573d6000803e3d6000fd5b505050506040513d601f19601f820116820180604052508101906136849190615200565b101561368f57506000195b613697611f3e565b6001600160a01b03166369328dec846000815181106136b8576136b861583d565b602002602001015183306040518463ffffffff1660e01b81526004016136e09392919061530b565b602060405180830381600087803b1580156136fa57600080fd5b505af115801561370e573d6000803e3d6000fd5b505050506040513d601f19601f820116820180604052508101906137329190615200565b61373c9083615623565b915050613747565b50845b600061377160d054670de0b6b3a7640000613762919061576a565b61376b84612f74565b906148f2565b9050826000815181106137865761378661583d565b602090810291909101015160405163095ea7b360e01b81526001600160a01b037f000000000000000000000000000000000000000000000000000000000000000081166004830152602482018590529091169063095ea7b390604401602060405180830381600087803b1580156137fc57600080fd5b505af1158015613810573d6000803e3d6000fd5b505050506040513d601f19601f8201168201806040525081019061383491906151c5565b506040516338ed173960e01b81526000906001600160a01b037f000000000000000000000000000000000000000000000000000000000000000016906338ed17399061388c908690869089908d9042906004016155b6565b600060405180830381600087803b1580156138a657600080fd5b505af11580156138ba573d6000803e3d6000fd5b505050506040513d6000823e601f3d908101601f191682016040526138e29190810190615118565b90507f63b0a0ad718a7c8cb64e4057058462c7495069b51821314a190b025aba7d501983826001815181106139195761391961583d565b6020026020010151604051613938929190918252602082015260400190565b60405180910390a182816001815181106139545761395461583d565b602002602001015195509550505050509250929050565b60975460ff161561398e5760405162461bcd60e51b8152600401610a83906154a2565b60008060cd548311156139b35760cd546139a8908461576a565b9050600191506139d2565b60cd54831015610cfa578260cd546139cb919061576a565b9050600091505b60006139dc6107c9565b90508160005b7f00000000000000000000000000000000000000000000000000000000000000006001600160a01b031663dea167d56040518163ffffffff1660e01b815260040160206040518083038186803b158015613a3b57600080fd5b505afa158015613a4f573d6000803e3d6000fd5b505050506040513d601f19601f82011682018060405250810190613a739190615200565b811015613bee5760405163b0ec4bcf60e01b8152600481018290526000907f00000000000000000000000000000000000000000000000000000000000000006001600160a01b03169063b0ec4bcf9060240160206040518083038186803b158015613add57600080fd5b505afa158015613af1573d6000803e3d6000fd5b505050506040513d601f19601f82011682018060405250810190613b159190615053565b90506000613b60613b5986846001600160a01b03166365e29c7e6040518163ffffffff1660e01b815260040160206040518083038186803b15801561307157600080fd5b87906148f2565b90508015613bd95760405163ab60016960e01b81526004810182905287151560248201526001600160a01b0383169063ab60016990604401600060405180830381600087803b158015613bb257600080fd5b505af1158015613bc6573d6000803e3d6000fd5b505050508084613bd6919061576a565b93505b50508080613be6906157f6565b9150506139e2565b508015613c785760405163ab60016960e01b81526004810182905284151560248201527f00000000000000000000000000000000000000000000000000000000000000006001600160a01b03169063ab60016990604401600060405180830381600087803b158015613c5f57600080fd5b505af1158015613c73573d6000803e3d6000fd5b505050505b60cd859055604080518515158152602081018590527f91a6cbd27bc7cdd21da57fbb08ebfaf5cece633ca7dd5f1741bff39f4be3ad4f910160405180910390a15050505050565b60008180613cd5575060ce54613cd36123c1565b115b15613e9b576040805160028082526060820183527f00000000000000000000000000000000000000000000000000000000000000009260009291906020830190803683370190505090508181600081518110613d3357613d3361583d565b6001600160a01b03909216602092830291909101909101527f000000000000000000000000000000000000000000000000000000000000000081600181518110613d7f57613d7f61583d565b60200260200101906001600160a01b031690816001600160a01b031681525050816001600160a01b03166375d264136040518163ffffffff1660e01b815260040160206040518083038186803b158015613dd857600080fd5b505afa158015613dec573d6000803e3d6000fd5b505050506040513d601f19601f82011682018060405250810190613e109190615053565b6001600160a01b0316633111e7b382600019306040518463ffffffff1660e01b8152600401613e4193929190615385565b602060405180830381600087803b158015613e5b57600080fd5b505af1158015613e6f573d6000803e3d6000fd5b505050506040513d601f19601f82011682018060405250810190613e939190615200565b949350505050565b506000919050565b60975460ff1615613ec65760405162461bcd60e51b8152600401610a83906154a2565b6000613ed0612366565b6040516370a0823160e01b81526001600160a01b037f00000000000000000000000000000000000000000000000000000000000000008116600483015291909116906370a082319060240160206040518083038186803b158015613f3357600080fd5b505afa158015613f47573d6000803e3d6000fd5b505050506040513d601f19601f82011682018060405250810190613f6b9190615200565b905060cc54811115613f8d57610ee560cb5482613f88919061576a565b6149c3565b60ca54811015610ee5576000613fb7613fa46111fd565b8360cb54613fb2919061576a565b614b01565b905080156110105761101081612576565b60975460ff1615613feb5760405162461bcd60e51b8152600401610a83906154a2565b6097805460ff191660011790557f62e78cea01bee320cd4e420270b5ea74000d11b0c9f74754ebdbfc544b05a258612d5c3390565b61402a6001613cbf565b50614033611f3e565b6001600160a01b03166369328dec614049612366565b6000197f00000000000000000000000000000000000000000000000000000000000000006040518463ffffffff1660e01b815260040161408b9392919061530b565b602060405180830381600087803b1580156140a557600080fd5b505af11580156140b9573d6000803e3d6000fd5b505050506040513d601f19601f820116820180604052508101906140dd9190615200565b506140e6611f3e565b6001600160a01b03166369328dec7f0000000000000000000000000000000000000000000000000000000000000000600019306040518463ffffffff1660e01b81526004016141379392919061530b565b602060405180830381600087803b15801561415157600080fd5b505af1158015614165573d6000803e3d6000fd5b505050506040513d601f19601f820116820180604052508101906141899190615200565b506040516370a0823160e01b8152306004820152611010907f00000000000000000000000000000000000000000000000000000000000000006001600160a01b0316906370a082319060240160206040518083038186803b1580156141ed57600080fd5b505afa158015614201573d6000803e3d6000fd5b505050506040513d601f19601f820116820180604052508101906142259190615200565b7f000000000000000000000000000000000000000000000000000000000000000061352a565b604080516002808252606080830184529260009291906020830190803683370190505090507f0000000000000000000000000000000000000000000000000000000000000000816000815181106142a4576142a461583d565b60200260200101906001600160a01b031690816001600160a01b0316815250506142cc612366565b816001815181106142df576142df61583d565b6001600160a01b0390921660209283029190910190910152919050565b61430860cd5482614b01565b60cd6000828254614319919061576a565b90915550506040518181527fb82d4e0870bf4ae7236ad1de74d6612d04d1b805b47d98c2f40088a193d87c65906020015b60405180910390a150565b60008284141561436757506001612f14565b8361438257506b033b2e3c9fd0803ce8000000811015612f14565b8261438f57506000612f14565b828410156143af57816b033b2e3c9fd0803ce8000000612ee48587614b17565b816143ba8486614b17565b612eee906b033b2e3c9fd0803ce800000061576a565b600054610100900460ff16806143e9575060005460ff16155b6144055760405162461bcd60e51b8152600401610a83906154cc565b600054610100900460ff16158015614427576000805461ffff19166101011790555b61442f614c0b565b614437614c72565b8015610ee5576000805461ff001916905550565b600054610100900460ff1680614464575060005460ff16155b6144805760405162461bcd60e51b8152600401610a83906154cc565b600054610100900460ff161580156144a2576000805461ffff19166101011790555b60ca84905560cb83905560cc82905561299c6128bd565b803b61451d5760405162461bcd60e51b815260206004820152602d60248201527f455243313936373a206e657720696d706c656d656e746174696f6e206973206e60448201526c1bdd08184818dbdb9d1c9858dd609a1b6064820152608401610a83565b7f360894a13ba1a3210667c828492db98dca3e2076cc3735a920a3ca505d382bbc80546001600160a01b0319166001600160a01b0392909216919091179055565b6060823b6145bd5760405162461bcd60e51b815260206004820152602660248201527f416464726573733a2064656c65676174652063616c6c20746f206e6f6e2d636f6044820152651b9d1c9858dd60d21b6064820152608401610a83565b600080846001600160a01b0316846040516145d891906152ef565b600060405180830381855af49150503d8060008114614613576040519150601f19603f3d011682016040523d82523d6000602084013e614618565b606091505b5091509150614640828260405180606001604052806027815260200161589f60279139614cd9565b95945050505050565b614652816144b9565b6040516001600160a01b038216907fbc7cd75a20ee27fd9adebab32041f755214dbc6bffa90cc0225b39da2e5c2d3b90600090a250565b6000816146d85760405162461bcd60e51b815260206004820152601860248201527f7761644469763a204469766973696f6e206279207a65726f00000000000000006044820152606401610a83565b60006146e560028461563b565b9050670de0b6b3a76400006146fc8260001961576a565b614706919061563b565b8411156147615760405162461bcd60e51b8152602060048201526024808201527f7761644469763a204d617468204d756c7469706c69636174696f6e204f766572604482015263666c6f7760e01b6064820152608401610a83565b8281614775670de0b6b3a76400008761574b565b61477f9190615623565b613e93919061563b565b6000600182601b81111561479f5761479f615827565b6147a991906157a7565b60c954600160ff929092169190911b915062015180906147d09064ffffffffff1642615781565b64ffffffffff1611156148125760c9805466ffffffffffffff8316600160281b026bffffffffffffffffffffffff1990911664ffffffffff4216171790555050565b60c954600160281b9004811666ffffffffffffff166148745760c9805464ffffffffff421664ffffffffff1966ffffffffffffff808616600160281b808604929092161702166bffffffffffffffffffffffff19909216919091171790555050565b60405162461bcd60e51b815260206004820152604760248201527f596f7520616c726561647920747765616b6564207468697320706172616d657460448201527f657220726563656e746c792e2057616974206265666f726520747765616b696e606482015266339030b3b0b4b760c91b608482015260a401610a83565b60008215806148ff575081155b1561490c57506000612e8c565b816149206002670de0b6b3a764000061563b565b61492c9060001961576a565b614936919061563b565b8311156149915760405162461bcd60e51b8152602060048201526024808201527f7761644d756c3a204d617468204d756c7469706c69636174696f6e204f766572604482015263666c6f7760e01b6064820152608401610a83565b670de0b6b3a76400006149a560028261563b565b6149af848661574b565b6149b99190615623565b612f14919061563b565b60006149cd611f3e565b905060006149d9612366565b9050614a106001600160a01b0382167f00000000000000000000000000000000000000000000000000000000000000003086614d12565b60405163095ea7b360e01b81526001600160a01b0383811660048301526024820185905282169063095ea7b390604401602060405180830381600087803b158015614a5a57600080fd5b505af1158015614a6e573d6000803e3d6000fd5b505050506040513d601f19601f82011682018060405250810190614a9291906151c5565b5060405163e8eda9df60e01b81526001600160a01b0383169063e8eda9df90614ac69084908790309060009060040161532e565b600060405180830381600087803b158015614ae057600080fd5b505af1158015614af4573d6000803e3d6000fd5b50505050610cfa83614d6c565b6000818310614b105781612f14565b5090919050565b600081614b665760405162461bcd60e51b815260206004820152601860248201527f7261794469763a204469766973696f6e206279207a65726f00000000000000006044820152606401610a83565b6000614b7360028461563b565b90506b033b2e3c9fd0803ce8000000614b8e8260001961576a565b614b98919061563b565b841115614bf35760405162461bcd60e51b8152602060048201526024808201527f7261794469763a204d617468204d756c7469706c69636174696f6e204f766572604482015263666c6f7760e01b6064820152608401610a83565b82816147756b033b2e3c9fd0803ce80000008761574b565b600054610100900460ff1680614c24575060005460ff16155b614c405760405162461bcd60e51b8152600401610a83906154cc565b600054610100900460ff16158015614c62576000805461ffff19166101011790555b614c6a614db3565b614437614db3565b600054610100900460ff1680614c8b575060005460ff16155b614ca75760405162461bcd60e51b8152600401610a83906154cc565b600054610100900460ff16158015614cc9576000805461ffff19166101011790555b614cd1614db3565b614437614e1d565b60608315614ce8575081612f14565b825115614cf85782518084602001fd5b8160405162461bcd60e51b8152600401610a8391906153d7565b604080516001600160a01b0385811660248301528416604482015260648082018490528251808303909101815260849091019091526020810180516001600160e01b03166323b872dd60e01b179052610bd5908590614e92565b8060cd6000828254614d7e9190615623565b90915550506040518181527f0f0cdeac88e111e1dd9b9f043e8c671053dedfbaeccabfb144fd51a4f870fcf49060200161434a565b600054610100900460ff1680614dcc575060005460ff16155b614de85760405162461bcd60e51b8152600401610a83906154cc565b600054610100900460ff16158015614437576000805461ffff19166101011790558015610ee5576000805461ff001916905550565b600054610100900460ff1680614e36575060005460ff16155b614e525760405162461bcd60e51b8152600401610a83906154cc565b600054610100900460ff16158015614e74576000805461ffff19166101011790555b6097805460ff191690558015610ee5576000805461ff001916905550565b6000614ee7826040518060400160405280602081526020017f5361666545524332303a206c6f772d6c6576656c2063616c6c206661696c6564815250856001600160a01b0316614f649092919063ffffffff16565b805190915015610cfa5780806020019051810190614f0591906151c5565b610cfa5760405162461bcd60e51b815260206004820152602a60248201527f5361666545524332303a204552433230206f7065726174696f6e20646964206e6044820152691bdd081cdd58d8d9595960b21b6064820152608401610a83565b6060613e93848460008585843b614fbd5760405162461bcd60e51b815260206004820152601d60248201527f416464726573733a2063616c6c20746f206e6f6e2d636f6e74726163740000006044820152606401610a83565b600080866001600160a01b03168587604051614fd991906152ef565b60006040518083038185875af1925050503d8060008114615016576040519150601f19603f3d011682016040523d82523d6000602084013e61501b565b606091505b509150915061502b828286614cd9565b979650505050505050565b60006020828403121561504857600080fd5b8135612f1481615869565b60006020828403121561506557600080fd5b8151612f1481615869565b6000806040838503121561508357600080fd5b823561508e81615869565b915060208381013567ffffffffffffffff808211156150ac57600080fd5b818601915086601f8301126150c057600080fd5b8135818111156150d2576150d2615853565b6150e4601f8201601f191685016155f2565b915080825287848285010111156150fa57600080fd5b80848401858401376000848284010152508093505050509250929050565b6000602080838503121561512b57600080fd5b825167ffffffffffffffff8082111561514357600080fd5b818501915085601f83011261515757600080fd5b81518181111561516957615169615853565b8060051b915061517a8483016155f2565b8181528481019084860184860187018a101561519557600080fd5b600095505b838610156151b857805183526001959095019491860191860161519a565b5098975050505050505050565b6000602082840312156151d757600080fd5b81518015158114612f1457600080fd5b6000602082840312156151f957600080fd5b5035919050565b60006020828403121561521257600080fd5b5051919050565b60008060006060848603121561522e57600080fd5b505081359360208301359350604090920135919050565b60008060008060008060c0878903121561525e57600080fd5b505084359660208601359650604086013595606081013595506080810135945060a0013592509050565b60006020828403121561529a57600080fd5b815160ff81168114612f1457600080fd5b600081518084526020808501945080840160005b838110156152e45781516001600160a01b0316875295820195908201906001016152bf565b509495945050505050565b600082516153018184602087016157ca565b9190910192915050565b6001600160a01b0393841681526020810192909252909116604082015260600190565b6001600160a01b03948516815260208101939093529216604082015261ffff909116606082015260800190565b60408152600061536e60408301856152ab565b905060018060a01b03831660208301529392505050565b60608152600061539860608301866152ab565b6020830194909452506001600160a01b0391909116604090910152919050565b92835260208301919091526001600160a01b0316604082015260600190565b60208152600082518060208401526153f68160408501602087016157ca565b601f01601f19169190910160400192915050565b6020808252602c908201527f46756e6374696f6e206d7573742062652063616c6c6564207468726f7567682060408201526b19195b1959d85d1958d85b1b60a21b606082015260800190565b6020808252602c908201527f46756e6374696f6e206d7573742062652063616c6c6564207468726f7567682060408201526b6163746976652070726f787960a01b606082015260800190565b60208082526010908201526f14185d5cd8589b194e881c185d5cd95960821b604082015260600190565b6020808252602e908201527f496e697469616c697a61626c653a20636f6e747261637420697320616c72656160408201526d191e481a5b9a5d1a585b1a5e995960921b606082015260800190565b60208082526022908201527f6d6178536c6970706167652063616e2774206265206d6f7265207468616e2031604082015261302560f01b606082015260800190565b60208082526021908201527f5468652063616c6c6572206d7573742062652074686520506f6c696379506f6f6040820152601b60fa1b606082015260800190565b828152604060208201526000613e9360408301846152ab565b85815284602082015260a0604082015260006155d560a08301866152ab565b6001600160a01b0394909416606083015250608001529392505050565b604051601f8201601f1916810167ffffffffffffffff8111828210171561561b5761561b615853565b604052919050565b6000821982111561563657615636615811565b500190565b60008261565857634e487b7160e01b600052601260045260246000fd5b500490565b600181815b8085111561569857816000190482111561567e5761567e615811565b8085161561568b57918102915b93841c9390800290615662565b509250929050565b6000612f1460ff8416836000826156b957506001612e8c565b816156c657506000612e8c565b81600181146156dc57600281146156e657615702565b6001915050612e8c565b60ff8411156156f7576156f7615811565b50506001821b612e8c565b5060208310610133831016604e8410600b8410161715615725575081810a612e8c565b61572f838361565d565b806000190482111561574357615743615811565b029392505050565b600081600019048311821515161561576557615765615811565b500290565b60008282101561577c5761577c615811565b500390565b600064ffffffffff8381169083168181101561579f5761579f615811565b039392505050565b600060ff821660ff8416808210156157c1576157c1615811565b90039392505050565b60005b838110156157e55781810151838201526020016157cd565b83811115610bd55750506000910152565b600060001982141561580a5761580a615811565b5060010190565b634e487b7160e01b600052601160045260246000fd5b634e487b7160e01b600052602160045260246000fd5b634e487b7160e01b600052603260045260246000fd5b634e487b7160e01b600052604160045260246000fd5b6001600160a01b0381168114610ee557600080fdfe5ec196419322369c6bac572d883f4d990ae5ec82f7d93cdf89b85dbb05b63c27416464726573733a206c6f772d6c6576656c2064656c65676174652063616c6c206661696c6564a82e22387fca439f316d78ca566f383218ab8ae1b3e830178c9c82cbd16749c055435dd261a4b9b3364963f7738a7a662ad9c84396d64be3365284bb7f0a5041a2646970667358221220459b146afcdc9f15dd0a18f9fd2d10a0fa038b588391c990bc89dc1e6f98356f64736f6c63430008060033",
  "linkReferences": {},
  "deployedLinkReferences": {}
}