{
  "_format": "hh-sol-artifact-1",
  "contractName": "FreeGrantInsolvencyHook",
  "sourceName": "contracts/mocks/FreeGrantInsolvencyHook.sol",
  "abi": [
    {
      "inputs": [
        {
          "internalType": "contract IPolicyPool",
          "name": "policyPool_",
          "type": "address"
        }
      ],
      "stateMutability": "nonpayable",
      "type": "constructor"
    },
    {
      "anonymous": false,
      "inputs": [
        {
          "indexed": false,
          "internalType": "uint256",
          "name": "amount",
          "type": "uint256"
        }
      ],
      "name": "OutOfCashGranted",
      "type": "event"
    },
    {
      "inputs": [],
      "name": "cashGranted",
      "outputs": [
        {
          "internalType": "uint256",
          "name": "",
          "type": "uint256"
        }
      ],
      "stateMutability": "view",
      "type": "function"
    },
    {
      "inputs": [
        {
          "internalType": "contract IEToken",
          "name": "eToken",
          "type": "address"
        },
        {
          "internalType": "uint256",
          "name": "paymentAmount",
          "type": "uint256"
        }
      ],
      "name": "insolventEToken",
      "outputs": [],
      "stateMutability": "nonpayable",
      "type": "function"
    },
    {
      "inputs": [
        {
          "internalType": "uint256",
          "name": "paymentAmount",
          "type": "uint256"
        }
      ],
      "name": "outOfCash",
      "outputs": [],
      "stateMutability": "nonpayable",
      "type": "function"
    },
    {
      "inputs": [],
      "name": "policyPool",
      "outputs": [
        {
          "internalType": "contract IPolicyPool",
          "name": "",
          "type": "address"
        }
      ],
      "stateMutability": "view",
      "type": "function"
    }
  ],
  "bytecode": "0x608060405234801561001057600080fd5b506040516104c13803806104c183398101604081905261002f91610054565b600080546001600160a01b0319166001600160a01b0392909216919091179055610084565b60006020828403121561006657600080fd5b81516001600160a01b038116811461007d57600080fd5b9392505050565b61042e806100936000396000f3fe608060405234801561001057600080fd5b506004361061004c5760003560e01c80634d15eb03146100515780639950de5014610071578063c5cc79ae14610085578063ee842dda1461009c575b600080fd5b6000546040516001600160a01b0390911681526020015b60405180910390f35b61008361007f366004610375565b5050565b005b61008e60015481565b604051908152602001610068565b6100836100aa3660046103a1565b6000546001600160a01b031633146101125760405162461bcd60e51b815260206004820152602160248201527f5468652063616c6c6572206d7573742062652074686520506f6c696379506f6f6044820152601b60fa1b606482015260840160405180910390fd5b60008060009054906101000a90046001600160a01b03166001600160a01b031663e5a6b10f6040518163ffffffff1660e01b815260040160206040518083038186803b15801561016157600080fd5b505afa158015610175573d6000803e3d6000fd5b505050506040513d601f19601f820116820180604052508101906101999190610358565b6040516340c10f1960e01b8152306004820152602481018490529091506001600160a01b038216906340c10f1990604401600060405180830381600087803b1580156101e457600080fd5b505af11580156101f8573d6000803e3d6000fd5b505060005460405163095ea7b360e01b81526001600160a01b03918216600482015260248101869052908416925063095ea7b39150604401602060405180830381600087803b15801561024a57600080fd5b505af115801561025e573d6000803e3d6000fd5b505050506040513d601f19601f82011682018060405250810190610282919061032f565b506000546040516381ced71f60e01b8152600481018490526001600160a01b03909116906381ced71f90602401600060405180830381600087803b1580156102c957600080fd5b505af11580156102dd573d6000803e3d6000fd5b5050505081600160008282546102f391906103ba565b90915550506040518281527fbd74595718bce69dfe31366c1c3c32bb9354762d4b49d8ca1eeb04007fc19f759060200160405180910390a15050565b60006020828403121561034157600080fd5b8151801515811461035157600080fd5b9392505050565b60006020828403121561036a57600080fd5b8151610351816103e0565b6000806040838503121561038857600080fd5b8235610393816103e0565b946020939093013593505050565b6000602082840312156103b357600080fd5b5035919050565b600082198211156103db57634e487b7160e01b600052601160045260246000fd5b500190565b6001600160a01b03811681146103f557600080fd5b5056fea26469706673582212201f39f9a098a03a260a976b142f50326145290698d5d23ec2b5216eda403d419264736f6c63430008060033",
  "linkReferences": {},
  "deployedLinkReferences": {}
}