{
  "_format": "hh-sol-artifact-1",
  "contractName": "LinkTokenMock",
  "sourceName": "contracts/mocks/LinkTokenMock.sol",
  "abi": [
    {
      "inputs": [
        {
          "internalType": "string",
          "name": "name_",
          "type": "string"
        },
        {
          "internalType": "string",
          "name": "symbol_",
          "type": "string"
        },
        {
          "internalType": "uint256",
          "name": "initialSupply",
          "type": "uint256"
        }
      ],
      "stateMutability": "nonpayable",
      "type": "constructor"
    },
    {
      "anonymous": false,
      "inputs": [
        {
          "indexed": true,
          "internalType": "address",
          "name": "owner",
          "type": "address"
        },
        {
          "indexed": true,
          "internalType": "address",
          "name": "spender",
          "type": "address"
        },
        {
          "indexed": false,
          "internalType": "uint256",
          "name": "value",
          "type": "uint256"
        }
      ],
      "name": "Approval",
      "type": "event"
    },
    {
      "anonymous": false,
      "inputs": [
        {
          "indexed": true,
          "internalType": "address",
          "name": "from",
          "type": "address"
        },
        {
          "indexed": true,
          "internalType": "address",
          "name": "to",
          "type": "address"
        },
        {
          "indexed": false,
          "internalType": "uint256",
          "name": "value",
          "type": "uint256"
        }
      ],
      "name": "Transfer",
      "type": "event"
    },
    {
      "inputs": [
        {
          "internalType": "address",
          "name": "owner",
          "type": "address"
        },
        {
          "internalType": "address",
          "name": "spender",
          "type": "address"
        }
      ],
      "name": "allowance",
      "outputs": [
        {
          "internalType": "uint256",
          "name": "",
          "type": "uint256"
        }
      ],
      "stateMutability": "view",
      "type": "function"
    },
    {
      "inputs": [
        {
          "internalType": "address",
          "name": "spender",
          "type": "address"
        },
        {
          "internalType": "uint256",
          "name": "amount",
          "type": "uint256"
        }
      ],
      "name": "approve",
      "outputs": [
        {
          "internalType": "bool",
          "name": "",
          "type": "bool"
        }
      ],
      "stateMutability": "nonpayable",
      "type": "function"
    },
    {
      "inputs": [
        {
          "internalType": "address",
          "name": "account",
          "type": "address"
        }
      ],
      "name": "balanceOf",
      "outputs": [
        {
          "internalType": "uint256",
          "name": "",
          "type": "uint256"
        }
      ],
      "stateMutability": "view",
      "type": "function"
    },
    {
      "inputs": [],
      "name": "decimals",
      "outputs": [
        {
          "internalType": "uint8",
          "name": "",
          "type": "uint8"
        }
      ],
      "stateMutability": "view",
      "type": "function"
    },
    {
      "inputs": [
        {
          "internalType": "address",
          "name": "spender",
          "type": "address"
        },
        {
          "internalType": "uint256",
          "name": "subtractedValue",
          "type": "uint256"
        }
      ],
      "name": "decreaseAllowance",
      "outputs": [
        {
          "internalType": "bool",
          "name": "",
          "type": "bool"
        }
      ],
      "stateMutability": "nonpayable",
      "type": "function"
    },
    {
      "inputs": [
        {
          "internalType": "address",
          "name": "spender",
          "type": "address"
        },
        {
          "internalType": "uint256",
          "name": "addedValue",
          "type": "uint256"
        }
      ],
      "name": "increaseAllowance",
      "outputs": [
        {
          "internalType": "bool",
          "name": "",
          "type": "bool"
        }
      ],
      "stateMutability": "nonpayable",
      "type": "function"
    },
    {
      "inputs": [],
      "name": "lastTransferData",
      "outputs": [
        {
          "internalType": "bytes",
          "name": "",
          "type": "bytes"
        }
      ],
      "stateMutability": "view",
      "type": "function"
    },
    {
      "inputs": [],
      "name": "lastTransferTo",
      "outputs": [
        {
          "internalType": "address",
          "name": "",
          "type": "address"
        }
      ],
      "stateMutability": "view",
      "type": "function"
    },
    {
      "inputs": [],
      "name": "lastTransferValue",
      "outputs": [
        {
          "internalType": "uint256",
          "name": "",
          "type": "uint256"
        }
      ],
      "stateMutability": "view",
      "type": "function"
    },
    {
      "inputs": [],
      "name": "name",
      "outputs": [
        {
          "internalType": "string",
          "name": "",
          "type": "string"
        }
      ],
      "stateMutability": "view",
      "type": "function"
    },
    {
      "inputs": [],
      "name": "symbol",
      "outputs": [
        {
          "internalType": "string",
          "name": "",
          "type": "string"
        }
      ],
      "stateMutability": "view",
      "type": "function"
    },
    {
      "inputs": [],
      "name": "totalSupply",
      "outputs": [
        {
          "internalType": "uint256",
          "name": "",
          "type": "uint256"
        }
      ],
      "stateMutability": "view",
      "type": "function"
    },
    {
      "inputs": [
        {
          "internalType": "address",
          "name": "recipient",
          "type": "address"
        },
        {
          "internalType": "uint256",
          "name": "amount",
          "type": "uint256"
        }
      ],
      "name": "transfer",
      "outputs": [
        {
          "internalType": "bool",
          "name": "",
          "type": "bool"
        }
      ],
      "stateMutability": "nonpayable",
      "type": "function"
    },
    {
      "inputs": [
        {
          "internalType": "address",
          "name": "to",
          "type": "address"
        },
        {
          "internalType": "uint256",
          "name": "value",
          "type": "uint256"
        },
        {
          "internalType": "bytes",
          "name": "data",
          "type": "bytes"
        }
      ],
      "name": "transferAndCall",
      "outputs": [
        {
          "internalType": "bool",
          "name": "success",
          "type": "bool"
        }
      ],
      "stateMutability": "nonpayable",
      "type": "function"
    },
    {
      "inputs": [
        {
          "internalType": "address",
          "name": "sender",
          "type": "address"
        },
        {
          "internalType": "address",
          "name": "recipient",
          "type": "address"
        },
        {
          "internalType": "uint256",
          "name": "amount",
          "type": "uint256"
        }
      ],
      "name": "transferFrom",
      "outputs": [
        {
          "internalType": "bool",
          "name": "",
          "type": "bool"
        }
      ],
      "stateMutability": "nonpayable",
      "type": "function"
    }
  ],
  "bytecode": "0x60806040523480156200001157600080fd5b5060405162000f1538038062000f158339810160408190526200003491620002c6565b8251839083906200004d90600390602085019062000169565b5080516200006390600490602084019062000169565b5050506200007833826200008160201b60201c565b505050620003b3565b6001600160a01b038216620000dc5760405162461bcd60e51b815260206004820152601f60248201527f45524332303a206d696e7420746f20746865207a65726f206164647265737300604482015260640160405180910390fd5b8060026000828254620000f0919062000339565b90915550506001600160a01b038216600090815260208190526040812080548392906200011f90849062000339565b90915550506040518181526001600160a01b038316906000907fddf252ad1be2c89b69c2b068fc378daa952ba7f163c4a11628f55a4df523b3ef9060200160405180910390a35050565b828054620001779062000360565b90600052602060002090601f0160209004810192826200019b5760008555620001e6565b82601f10620001b657805160ff1916838001178555620001e6565b82800160010185558215620001e6579182015b82811115620001e6578251825591602001919060010190620001c9565b50620001f4929150620001f8565b5090565b5b80821115620001f45760008155600101620001f9565b600082601f8301126200022157600080fd5b81516001600160401b03808211156200023e576200023e6200039d565b604051601f8301601f19908116603f011681019082821181831017156200026957620002696200039d565b816040528381526020925086838588010111156200028657600080fd5b600091505b83821015620002aa57858201830151818301840152908201906200028b565b83821115620002bc5760008385830101525b9695505050505050565b600080600060608486031215620002dc57600080fd5b83516001600160401b0380821115620002f457600080fd5b62000302878388016200020f565b945060208601519150808211156200031957600080fd5b5062000328868287016200020f565b925050604084015190509250925092565b600082198211156200035b57634e487b7160e01b600052601160045260246000fd5b500190565b600181811c908216806200037557607f821691505b602082108114156200039757634e487b7160e01b600052602260045260246000fd5b50919050565b634e487b7160e01b600052604160045260246000fd5b610b5280620003c36000396000f3fe608060405234801561001057600080fd5b50600436106100f55760003560e01c806370a0823111610097578063a457c2d711610066578063a457c2d7146101f9578063a9059cbb1461020c578063dd62ed3e1461021f578063e82262861461025857600080fd5b806370a082311461019557806384c09a3c146101be5780638fbaf1cc146101e957806395d89b41146101f157600080fd5b806323b872dd116100d357806323b872dd1461014d578063313ce56714610160578063395093511461016f5780634000aea01461018257600080fd5b806306fdde03146100fa578063095ea7b31461011857806318160ddd1461013b575b600080fd5b610102610261565b60405161010f9190610aa8565b60405180910390f35b61012b6101263660046109aa565b6102f3565b604051901515815260200161010f565b6002545b60405190815260200161010f565b61012b61015b36600461096e565b610309565b6040516012815260200161010f565b61012b61017d3660046109aa565b6103b8565b61012b6101903660046109d4565b6103f4565b61013f6101a3366004610919565b6001600160a01b031660009081526020819052604090205490565b6005546101d1906001600160a01b031681565b6040516001600160a01b03909116815260200161010f565b61010261042e565b6101026104bc565b61012b6102073660046109aa565b6104cb565b61012b61021a3660046109aa565b610564565b61013f61022d36600461093b565b6001600160a01b03918216600090815260016020908152604080832093909416825291909152205490565b61013f60065481565b60606003805461027090610ae1565b80601f016020809104026020016040519081016040528092919081815260200182805461029c90610ae1565b80156102e95780601f106102be576101008083540402835291602001916102e9565b820191906000526020600020905b8154815290600101906020018083116102cc57829003601f168201915b5050505050905090565b6000610300338484610571565b50600192915050565b6000610316848484610695565b6001600160a01b0384166000908152600160209081526040808320338452909152902054828110156103a05760405162461bcd60e51b815260206004820152602860248201527f45524332303a207472616e7366657220616d6f756e74206578636565647320616044820152676c6c6f77616e636560c01b60648201526084015b60405180910390fd5b6103ad8533858403610571565b506001949350505050565b3360008181526001602090815260408083206001600160a01b038716845290915281205490916103009185906103ef908690610abb565b610571565b600580546001600160a01b0319166001600160a01b0386161790556006839055600061042260078484610864565b50600195945050505050565b6007805461043b90610ae1565b80601f016020809104026020016040519081016040528092919081815260200182805461046790610ae1565b80156104b45780601f10610489576101008083540402835291602001916104b4565b820191906000526020600020905b81548152906001019060200180831161049757829003601f168201915b505050505081565b60606004805461027090610ae1565b3360009081526001602090815260408083206001600160a01b03861684529091528120548281101561054d5760405162461bcd60e51b815260206004820152602560248201527f45524332303a2064656372656173656420616c6c6f77616e63652062656c6f77604482015264207a65726f60d81b6064820152608401610397565b61055a3385858403610571565b5060019392505050565b6000610300338484610695565b6001600160a01b0383166105d35760405162461bcd60e51b8152602060048201526024808201527f45524332303a20617070726f76652066726f6d20746865207a65726f206164646044820152637265737360e01b6064820152608401610397565b6001600160a01b0382166106345760405162461bcd60e51b815260206004820152602260248201527f45524332303a20617070726f766520746f20746865207a65726f206164647265604482015261737360f01b6064820152608401610397565b6001600160a01b0383811660008181526001602090815260408083209487168084529482529182902085905590518481527f8c5be1e5ebec7d5bd14f71427d1e84f3dd0314c0f7b2291e5b200ac8c7c3b925910160405180910390a3505050565b6001600160a01b0383166106f95760405162461bcd60e51b815260206004820152602560248201527f45524332303a207472616e736665722066726f6d20746865207a65726f206164604482015264647265737360d81b6064820152608401610397565b6001600160a01b03821661075b5760405162461bcd60e51b815260206004820152602360248201527f45524332303a207472616e7366657220746f20746865207a65726f206164647260448201526265737360e81b6064820152608401610397565b6001600160a01b038316600090815260208190526040902054818110156107d35760405162461bcd60e51b815260206004820152602660248201527f45524332303a207472616e7366657220616d6f756e7420657863656564732062604482015265616c616e636560d01b6064820152608401610397565b6001600160a01b0380851660009081526020819052604080822085850390559185168152908120805484929061080a908490610abb565b92505081905550826001600160a01b0316846001600160a01b03167fddf252ad1be2c89b69c2b068fc378daa952ba7f163c4a11628f55a4df523b3ef8460405161085691815260200190565b60405180910390a350505050565b82805461087090610ae1565b90600052602060002090601f01602090048101928261089257600085556108d8565b82601f106108ab5782800160ff198235161785556108d8565b828001600101855582156108d8579182015b828111156108d85782358255916020019190600101906108bd565b506108e49291506108e8565b5090565b5b808211156108e457600081556001016108e9565b80356001600160a01b038116811461091457600080fd5b919050565b60006020828403121561092b57600080fd5b610934826108fd565b9392505050565b6000806040838503121561094e57600080fd5b610957836108fd565b9150610965602084016108fd565b90509250929050565b60008060006060848603121561098357600080fd5b61098c846108fd565b925061099a602085016108fd565b9150604084013590509250925092565b600080604083850312156109bd57600080fd5b6109c6836108fd565b946020939093013593505050565b600080600080606085870312156109ea57600080fd5b6109f3856108fd565b935060208501359250604085013567ffffffffffffffff80821115610a1757600080fd5b818701915087601f830112610a2b57600080fd5b813581811115610a3a57600080fd5b886020828501011115610a4c57600080fd5b95989497505060200194505050565b6000815180845260005b81811015610a8157602081850181015186830182015201610a65565b81811115610a93576000602083870101525b50601f01601f19169290920160200192915050565b6020815260006109346020830184610a5b565b60008219821115610adc57634e487b7160e01b600052601160045260246000fd5b500190565b600181811c90821680610af557607f821691505b60208210811415610b1657634e487b7160e01b600052602260045260246000fd5b5091905056fea26469706673582212209e408b02aebcd97ef0c2066d087b838c9ef879424ba67cf854e9e379598ae6ed64736f6c63430008060033",
  "linkReferences": {},
  "deployedLinkReferences": {}
}