{
  "_format": "hh-sol-artifact-1",
  "contractName": "PolicyPool",
  "sourceName": "contracts/PolicyPool.sol",
  "abi": [
    {
      "inputs": [
        {
          "internalType": "contract IPolicyPoolConfig",
          "name": "config_",
          "type": "address"
        },
        {
          "internalType": "contract IPolicyNFT",
          "name": "policyNFT_",
          "type": "address"
        },
        {
          "internalType": "contract IERC20Metadata",
          "name": "currency_",
          "type": "address"
        }
      ],
      "stateMutability": "nonpayable",
      "type": "constructor"
    },
    {
      "anonymous": false,
      "inputs": [
        {
          "indexed": false,
          "internalType": "address",
          "name": "previousAdmin",
          "type": "address"
        },
        {
          "indexed": false,
          "internalType": "address",
          "name": "newAdmin",
          "type": "address"
        }
      ],
      "name": "AdminChanged",
      "type": "event"
    },
    {
      "anonymous": false,
      "inputs": [
        {
          "indexed": true,
          "internalType": "address",
          "name": "beacon",
          "type": "address"
        }
      ],
      "name": "BeaconUpgraded",
      "type": "event"
    },
    {
      "anonymous": false,
      "inputs": [
        {
          "indexed": true,
          "internalType": "contract IEToken",
          "name": "eToken",
          "type": "address"
        },
        {
          "indexed": false,
          "internalType": "enum DataTypes.ETokenStatus",
          "name": "newStatus",
          "type": "uint8"
        }
      ],
      "name": "ETokenStatusChanged",
      "type": "event"
    },
    {
      "anonymous": false,
      "inputs": [
        {
          "indexed": true,
          "internalType": "contract IRiskModule",
          "name": "riskModule",
          "type": "address"
        },
        {
          "components": [
            {
              "internalType": "uint256",
              "name": "id",
              "type": "uint256"
            },
            {
              "internalType": "uint256",
              "name": "payout",
              "type": "uint256"
            },
            {
              "internalType": "uint256",
              "name": "premium",
              "type": "uint256"
            },
            {
              "internalType": "uint256",
              "name": "scr",
              "type": "uint256"
            },
            {
              "internalType": "uint256",
              "name": "lossProb",
              "type": "uint256"
            },
            {
              "internalType": "uint256",
              "name": "purePremium",
              "type": "uint256"
            },
            {
              "internalType": "uint256",
              "name": "premiumForEnsuro",
              "type": "uint256"
            },
            {
              "internalType": "uint256",
              "name": "premiumForRm",
              "type": "uint256"
            },
            {
              "internalType": "uint256",
              "name": "premiumForLps",
              "type": "uint256"
            },
            {
              "internalType": "contract IRiskModule",
              "name": "riskModule",
              "type": "address"
            },
            {
              "internalType": "uint40",
              "name": "start",
              "type": "uint40"
            },
            {
              "internalType": "uint40",
              "name": "expiration",
              "type": "uint40"
            }
          ],
          "indexed": false,
          "internalType": "struct Policy.PolicyData",
          "name": "policy",
          "type": "tuple"
        }
      ],
      "name": "NewPolicy",
      "type": "event"
    },
    {
      "anonymous": false,
      "inputs": [
        {
          "indexed": false,
          "internalType": "address",
          "name": "account",
          "type": "address"
        }
      ],
      "name": "Paused",
      "type": "event"
    },
    {
      "anonymous": false,
      "inputs": [
        {
          "indexed": true,
          "internalType": "contract IRiskModule",
          "name": "riskModule",
          "type": "address"
        },
        {
          "indexed": true,
          "internalType": "uint256",
          "name": "policyId",
          "type": "uint256"
        }
      ],
      "name": "PolicyRebalanced",
      "type": "event"
    },
    {
      "anonymous": false,
      "inputs": [
        {
          "indexed": true,
          "internalType": "contract IRiskModule",
          "name": "riskModule",
          "type": "address"
        },
        {
          "indexed": true,
          "internalType": "uint256",
          "name": "policyId",
          "type": "uint256"
        },
        {
          "indexed": false,
          "internalType": "uint256",
          "name": "payout",
          "type": "uint256"
        }
      ],
      "name": "PolicyResolved",
      "type": "event"
    },
    {
      "anonymous": false,
      "inputs": [
        {
          "indexed": false,
          "internalType": "address",
          "name": "account",
          "type": "address"
        }
      ],
      "name": "Unpaused",
      "type": "event"
    },
    {
      "anonymous": false,
      "inputs": [
        {
          "indexed": true,
          "internalType": "address",
          "name": "implementation",
          "type": "address"
        }
      ],
      "name": "Upgraded",
      "type": "event"
    },
    {
      "anonymous": false,
      "inputs": [
        {
          "indexed": false,
          "internalType": "bool",
          "name": "moneyIn",
          "type": "bool"
        },
        {
          "indexed": false,
          "internalType": "uint256",
          "name": "value",
          "type": "uint256"
        }
      ],
      "name": "WonPremiumsInOut",
      "type": "event"
    },
    {
      "inputs": [],
      "name": "GUARDIAN_ROLE",
      "outputs": [
        {
          "internalType": "bytes32",
          "name": "",
          "type": "bytes32"
        }
      ],
      "stateMutability": "view",
      "type": "function"
    },
    {
      "inputs": [],
      "name": "LEVEL1_ROLE",
      "outputs": [
        {
          "internalType": "bytes32",
          "name": "",
          "type": "bytes32"
        }
      ],
      "stateMutability": "view",
      "type": "function"
    },
    {
      "inputs": [],
      "name": "LEVEL2_ROLE",
      "outputs": [
        {
          "internalType": "bytes32",
          "name": "",
          "type": "bytes32"
        }
      ],
      "stateMutability": "view",
      "type": "function"
    },
    {
      "inputs": [],
      "name": "LEVEL3_ROLE",
      "outputs": [
        {
          "internalType": "bytes32",
          "name": "",
          "type": "bytes32"
        }
      ],
      "stateMutability": "view",
      "type": "function"
    },
    {
      "inputs": [],
      "name": "MAX_ETOKENS",
      "outputs": [
        {
          "internalType": "uint256",
          "name": "",
          "type": "uint256"
        }
      ],
      "stateMutability": "view",
      "type": "function"
    },
    {
      "inputs": [],
      "name": "NEGLIGIBLE_AMOUNT",
      "outputs": [
        {
          "internalType": "uint256",
          "name": "",
          "type": "uint256"
        }
      ],
      "stateMutability": "view",
      "type": "function"
    },
    {
      "inputs": [],
      "name": "REBALANCE_ROLE",
      "outputs": [
        {
          "internalType": "bytes32",
          "name": "",
          "type": "bytes32"
        }
      ],
      "stateMutability": "view",
      "type": "function"
    },
    {
      "inputs": [],
      "name": "WITHDRAW_WON_PREMIUMS_ROLE",
      "outputs": [
        {
          "internalType": "bytes32",
          "name": "",
          "type": "bytes32"
        }
      ],
      "stateMutability": "view",
      "type": "function"
    },
    {
      "inputs": [],
      "name": "activePurePremiums",
      "outputs": [
        {
          "internalType": "uint256",
          "name": "",
          "type": "uint256"
        }
      ],
      "stateMutability": "view",
      "type": "function"
    },
    {
      "inputs": [
        {
          "internalType": "contract IEToken",
          "name": "eToken",
          "type": "address"
        }
      ],
      "name": "addEToken",
      "outputs": [],
      "stateMutability": "nonpayable",
      "type": "function"
    },
    {
      "inputs": [
        {
          "internalType": "uint256",
          "name": "amount",
          "type": "uint256"
        },
        {
          "internalType": "bool",
          "name": "positive",
          "type": "bool"
        }
      ],
      "name": "assetEarnings",
      "outputs": [],
      "stateMutability": "nonpayable",
      "type": "function"
    },
    {
      "inputs": [],
      "name": "borrowedActivePP",
      "outputs": [
        {
          "internalType": "uint256",
          "name": "",
          "type": "uint256"
        }
      ],
      "stateMutability": "view",
      "type": "function"
    },
    {
      "inputs": [
        {
          "internalType": "contract IEToken",
          "name": "eToken",
          "type": "address"
        },
        {
          "internalType": "enum DataTypes.ETokenStatus",
          "name": "newStatus",
          "type": "uint8"
        }
      ],
      "name": "changeETokenStatus",
      "outputs": [],
      "stateMutability": "nonpayable",
      "type": "function"
    },
    {
      "inputs": [],
      "name": "config",
      "outputs": [
        {
          "internalType": "contract IPolicyPoolConfig",
          "name": "",
          "type": "address"
        }
      ],
      "stateMutability": "view",
      "type": "function"
    },
    {
      "inputs": [],
      "name": "currency",
      "outputs": [
        {
          "internalType": "contract IERC20Metadata",
          "name": "",
          "type": "address"
        }
      ],
      "stateMutability": "view",
      "type": "function"
    },
    {
      "inputs": [
        {
          "internalType": "contract IEToken",
          "name": "eToken",
          "type": "address"
        },
        {
          "internalType": "uint256",
          "name": "amount",
          "type": "uint256"
        }
      ],
      "name": "deposit",
      "outputs": [],
      "stateMutability": "nonpayable",
      "type": "function"
    },
    {
      "inputs": [
        {
          "components": [
            {
              "internalType": "uint256",
              "name": "id",
              "type": "uint256"
            },
            {
              "internalType": "uint256",
              "name": "payout",
              "type": "uint256"
            },
            {
              "internalType": "uint256",
              "name": "premium",
              "type": "uint256"
            },
            {
              "internalType": "uint256",
              "name": "scr",
              "type": "uint256"
            },
            {
              "internalType": "uint256",
              "name": "lossProb",
              "type": "uint256"
            },
            {
              "internalType": "uint256",
              "name": "purePremium",
              "type": "uint256"
            },
            {
              "internalType": "uint256",
              "name": "premiumForEnsuro",
              "type": "uint256"
            },
            {
              "internalType": "uint256",
              "name": "premiumForRm",
              "type": "uint256"
            },
            {
              "internalType": "uint256",
              "name": "premiumForLps",
              "type": "uint256"
            },
            {
              "internalType": "contract IRiskModule",
              "name": "riskModule",
              "type": "address"
            },
            {
              "internalType": "uint40",
              "name": "start",
              "type": "uint40"
            },
            {
              "internalType": "uint40",
              "name": "expiration",
              "type": "uint40"
            }
          ],
          "internalType": "struct Policy.PolicyData",
          "name": "policy",
          "type": "tuple"
        }
      ],
      "name": "expirePolicy",
      "outputs": [],
      "stateMutability": "nonpayable",
      "type": "function"
    },
    {
      "inputs": [
        {
          "internalType": "uint256",
          "name": "index",
          "type": "uint256"
        }
      ],
      "name": "getETokenAt",
      "outputs": [
        {
          "internalType": "contract IEToken",
          "name": "",
          "type": "address"
        }
      ],
      "stateMutability": "view",
      "type": "function"
    },
    {
      "inputs": [],
      "name": "getETokenCount",
      "outputs": [
        {
          "internalType": "uint256",
          "name": "",
          "type": "uint256"
        }
      ],
      "stateMutability": "view",
      "type": "function"
    },
    {
      "inputs": [
        {
          "internalType": "contract IEToken",
          "name": "eToken",
          "type": "address"
        }
      ],
      "name": "getETokenStatus",
      "outputs": [
        {
          "internalType": "enum DataTypes.ETokenStatus",
          "name": "",
          "type": "uint8"
        }
      ],
      "stateMutability": "view",
      "type": "function"
    },
    {
      "inputs": [],
      "name": "getInvestable",
      "outputs": [
        {
          "internalType": "uint256",
          "name": "",
          "type": "uint256"
        }
      ],
      "stateMutability": "view",
      "type": "function"
    },
    {
      "inputs": [
        {
          "internalType": "uint256",
          "name": "policyId",
          "type": "uint256"
        },
        {
          "internalType": "contract IEToken",
          "name": "etoken",
          "type": "address"
        }
      ],
      "name": "getPolicyFund",
      "outputs": [
        {
          "internalType": "uint256",
          "name": "",
          "type": "uint256"
        }
      ],
      "stateMutability": "view",
      "type": "function"
    },
    {
      "inputs": [
        {
          "internalType": "uint256",
          "name": "policyId",
          "type": "uint256"
        },
        {
          "internalType": "uint256",
          "name": "index",
          "type": "uint256"
        }
      ],
      "name": "getPolicyFundAt",
      "outputs": [
        {
          "internalType": "contract IEToken",
          "name": "",
          "type": "address"
        },
        {
          "internalType": "uint256",
          "name": "",
          "type": "uint256"
        }
      ],
      "stateMutability": "view",
      "type": "function"
    },
    {
      "inputs": [
        {
          "internalType": "uint256",
          "name": "policyId",
          "type": "uint256"
        }
      ],
      "name": "getPolicyFundCount",
      "outputs": [
        {
          "internalType": "uint256",
          "name": "",
          "type": "uint256"
        }
      ],
      "stateMutability": "view",
      "type": "function"
    },
    {
      "inputs": [],
      "name": "initialize",
      "outputs": [],
      "stateMutability": "nonpayable",
      "type": "function"
    },
    {
      "inputs": [
        {
          "components": [
            {
              "internalType": "uint256",
              "name": "id",
              "type": "uint256"
            },
            {
              "internalType": "uint256",
              "name": "payout",
              "type": "uint256"
            },
            {
              "internalType": "uint256",
              "name": "premium",
              "type": "uint256"
            },
            {
              "internalType": "uint256",
              "name": "scr",
              "type": "uint256"
            },
            {
              "internalType": "uint256",
              "name": "lossProb",
              "type": "uint256"
            },
            {
              "internalType": "uint256",
              "name": "purePremium",
              "type": "uint256"
            },
            {
              "internalType": "uint256",
              "name": "premiumForEnsuro",
              "type": "uint256"
            },
            {
              "internalType": "uint256",
              "name": "premiumForRm",
              "type": "uint256"
            },
            {
              "internalType": "uint256",
              "name": "premiumForLps",
              "type": "uint256"
            },
            {
              "internalType": "contract IRiskModule",
              "name": "riskModule",
              "type": "address"
            },
            {
              "internalType": "uint40",
              "name": "start",
              "type": "uint40"
            },
            {
              "internalType": "uint40",
              "name": "expiration",
              "type": "uint40"
            }
          ],
          "internalType": "struct Policy.PolicyData",
          "name": "policy",
          "type": "tuple"
        },
        {
          "internalType": "address",
          "name": "customer",
          "type": "address"
        },
        {
          "internalType": "uint96",
          "name": "internalId",
          "type": "uint96"
        }
      ],
      "name": "newPolicy",
      "outputs": [
        {
          "internalType": "uint256",
          "name": "",
          "type": "uint256"
        }
      ],
      "stateMutability": "nonpayable",
      "type": "function"
    },
    {
      "inputs": [],
      "name": "pause",
      "outputs": [],
      "stateMutability": "nonpayable",
      "type": "function"
    },
    {
      "inputs": [],
      "name": "paused",
      "outputs": [
        {
          "internalType": "bool",
          "name": "",
          "type": "bool"
        }
      ],
      "stateMutability": "view",
      "type": "function"
    },
    {
      "inputs": [],
      "name": "policyNFT",
      "outputs": [
        {
          "internalType": "address",
          "name": "",
          "type": "address"
        }
      ],
      "stateMutability": "view",
      "type": "function"
    },
    {
      "inputs": [],
      "name": "purePremiums",
      "outputs": [
        {
          "internalType": "uint256",
          "name": "",
          "type": "uint256"
        }
      ],
      "stateMutability": "view",
      "type": "function"
    },
    {
      "inputs": [
        {
          "components": [
            {
              "internalType": "uint256",
              "name": "id",
              "type": "uint256"
            },
            {
              "internalType": "uint256",
              "name": "payout",
              "type": "uint256"
            },
            {
              "internalType": "uint256",
              "name": "premium",
              "type": "uint256"
            },
            {
              "internalType": "uint256",
              "name": "scr",
              "type": "uint256"
            },
            {
              "internalType": "uint256",
              "name": "lossProb",
              "type": "uint256"
            },
            {
              "internalType": "uint256",
              "name": "purePremium",
              "type": "uint256"
            },
            {
              "internalType": "uint256",
              "name": "premiumForEnsuro",
              "type": "uint256"
            },
            {
              "internalType": "uint256",
              "name": "premiumForRm",
              "type": "uint256"
            },
            {
              "internalType": "uint256",
              "name": "premiumForLps",
              "type": "uint256"
            },
            {
              "internalType": "contract IRiskModule",
              "name": "riskModule",
              "type": "address"
            },
            {
              "internalType": "uint40",
              "name": "start",
              "type": "uint40"
            },
            {
              "internalType": "uint40",
              "name": "expiration",
              "type": "uint40"
            }
          ],
          "internalType": "struct Policy.PolicyData",
          "name": "policy",
          "type": "tuple"
        }
      ],
      "name": "rebalancePolicy",
      "outputs": [],
      "stateMutability": "nonpayable",
      "type": "function"
    },
    {
      "inputs": [
        {
          "internalType": "uint256",
          "name": "amount",
          "type": "uint256"
        }
      ],
      "name": "receiveGrant",
      "outputs": [],
      "stateMutability": "nonpayable",
      "type": "function"
    },
    {
      "inputs": [
        {
          "internalType": "contract IEToken",
          "name": "eToken",
          "type": "address"
        }
      ],
      "name": "removeEToken",
      "outputs": [],
      "stateMutability": "nonpayable",
      "type": "function"
    },
    {
      "inputs": [
        {
          "internalType": "contract IEToken",
          "name": "eToken",
          "type": "address"
        }
      ],
      "name": "repayETokenLoan",
      "outputs": [
        {
          "internalType": "uint256",
          "name": "",
          "type": "uint256"
        }
      ],
      "stateMutability": "nonpayable",
      "type": "function"
    },
    {
      "inputs": [
        {
          "components": [
            {
              "internalType": "uint256",
              "name": "id",
              "type": "uint256"
            },
            {
              "internalType": "uint256",
              "name": "payout",
              "type": "uint256"
            },
            {
              "internalType": "uint256",
              "name": "premium",
              "type": "uint256"
            },
            {
              "internalType": "uint256",
              "name": "scr",
              "type": "uint256"
            },
            {
              "internalType": "uint256",
              "name": "lossProb",
              "type": "uint256"
            },
            {
              "internalType": "uint256",
              "name": "purePremium",
              "type": "uint256"
            },
            {
              "internalType": "uint256",
              "name": "premiumForEnsuro",
              "type": "uint256"
            },
            {
              "internalType": "uint256",
              "name": "premiumForRm",
              "type": "uint256"
            },
            {
              "internalType": "uint256",
              "name": "premiumForLps",
              "type": "uint256"
            },
            {
              "internalType": "contract IRiskModule",
              "name": "riskModule",
              "type": "address"
            },
            {
              "internalType": "uint40",
              "name": "start",
              "type": "uint40"
            },
            {
              "internalType": "uint40",
              "name": "expiration",
              "type": "uint40"
            }
          ],
          "internalType": "struct Policy.PolicyData",
          "name": "policy",
          "type": "tuple"
        },
        {
          "internalType": "uint256",
          "name": "payout",
          "type": "uint256"
        }
      ],
      "name": "resolvePolicy",
      "outputs": [],
      "stateMutability": "nonpayable",
      "type": "function"
    },
    {
      "inputs": [
        {
          "components": [
            {
              "internalType": "uint256",
              "name": "id",
              "type": "uint256"
            },
            {
              "internalType": "uint256",
              "name": "payout",
              "type": "uint256"
            },
            {
              "internalType": "uint256",
              "name": "premium",
              "type": "uint256"
            },
            {
              "internalType": "uint256",
              "name": "scr",
              "type": "uint256"
            },
            {
              "internalType": "uint256",
              "name": "lossProb",
              "type": "uint256"
            },
            {
              "internalType": "uint256",
              "name": "purePremium",
              "type": "uint256"
            },
            {
              "internalType": "uint256",
              "name": "premiumForEnsuro",
              "type": "uint256"
            },
            {
              "internalType": "uint256",
              "name": "premiumForRm",
              "type": "uint256"
            },
            {
              "internalType": "uint256",
              "name": "premiumForLps",
              "type": "uint256"
            },
            {
              "internalType": "contract IRiskModule",
              "name": "riskModule",
              "type": "address"
            },
            {
              "internalType": "uint40",
              "name": "start",
              "type": "uint40"
            },
            {
              "internalType": "uint40",
              "name": "expiration",
              "type": "uint40"
            }
          ],
          "internalType": "struct Policy.PolicyData",
          "name": "policy",
          "type": "tuple"
        },
        {
          "internalType": "bool",
          "name": "customerWon",
          "type": "bool"
        }
      ],
      "name": "resolvePolicyFullPayout",
      "outputs": [],
      "stateMutability": "nonpayable",
      "type": "function"
    },
    {
      "inputs": [
        {
          "internalType": "contract IAssetManager",
          "name": "newAssetManager",
          "type": "address"
        }
      ],
      "name": "setAssetManager",
      "outputs": [],
      "stateMutability": "nonpayable",
      "type": "function"
    },
    {
      "inputs": [],
      "name": "totalETokenSupply",
      "outputs": [
        {
          "internalType": "uint256",
          "name": "",
          "type": "uint256"
        }
      ],
      "stateMutability": "view",
      "type": "function"
    },
    {
      "inputs": [],
      "name": "unpause",
      "outputs": [],
      "stateMutability": "nonpayable",
      "type": "function"
    },
    {
      "inputs": [
        {
          "internalType": "address",
          "name": "newImplementation",
          "type": "address"
        }
      ],
      "name": "upgradeTo",
      "outputs": [],
      "stateMutability": "nonpayable",
      "type": "function"
    },
    {
      "inputs": [
        {
          "internalType": "address",
          "name": "newImplementation",
          "type": "address"
        },
        {
          "internalType": "bytes",
          "name": "data",
          "type": "bytes"
        }
      ],
      "name": "upgradeToAndCall",
      "outputs": [],
      "stateMutability": "payable",
      "type": "function"
    },
    {
      "inputs": [
        {
          "internalType": "contract IEToken",
          "name": "eToken",
          "type": "address"
        },
        {
          "internalType": "uint256",
          "name": "amount",
          "type": "uint256"
        }
      ],
      "name": "withdraw",
      "outputs": [
        {
          "internalType": "uint256",
          "name": "",
          "type": "uint256"
        }
      ],
      "stateMutability": "nonpayable",
      "type": "function"
    },
    {
      "inputs": [
        {
          "internalType": "uint256",
          "name": "amount",
          "type": "uint256"
        }
      ],
      "name": "withdrawWonPremiums",
      "outputs": [
        {
          "internalType": "uint256",
          "name": "",
          "type": "uint256"
        }
      ],
      "stateMutability": "nonpayable",
      "type": "function"
    },
    {
      "inputs": [],
      "name": "wonPurePremiums",
      "outputs": [
        {
          "internalType": "uint256",
          "name": "",
          "type": "uint256"
        }
      ],
      "stateMutability": "view",
      "type": "function"
    }
  ],
  "bytecode": "0x6101206040523060601b6080523480156200001957600080fd5b50604051620061f1380380620061f18339810160408190526200003c9162000105565b6001600160601b0319606084811b821660c05283811b82166101005282901b1660e0526040805163313ce56760e01b815290516003916001600160a01b0384169163313ce56791600480820192602092909190829003018186803b158015620000a457600080fd5b505afa158015620000b9573d6000803e3d6000fd5b505050506040513d601f19601f82011682018060405250810190620000df919062000159565b620000eb91906200028f565b620000f890600a620001ce565b60a05250620002e4915050565b6000806000606084860312156200011b57600080fd5b83516200012881620002cb565b60208501519093506200013b81620002cb565b60408501519092506200014e81620002cb565b809150509250925092565b6000602082840312156200016c57600080fd5b815160ff811681146200017e57600080fd5b9392505050565b600181815b80851115620001c6578160001904821115620001aa57620001aa620002b5565b80851615620001b857918102915b93841c93908002906200018a565b509250929050565b60006200017e60ff841683600082620001ea5750600162000289565b81620001f95750600062000289565b81600181146200021257600281146200021d576200023d565b600191505062000289565b60ff841115620002315762000231620002b5565b50506001821b62000289565b5060208310610133831016604e8410600b841016171562000262575081810a62000289565b6200026e838362000185565b8060001904821115620002855762000285620002b5565b0290505b92915050565b600060ff821660ff841680821015620002ac57620002ac620002b5565b90039392505050565b634e487b7160e01b600052601160045260246000fd5b6001600160a01b0381168114620002e157600080fd5b50565b60805160601c60a05160c05160601c60e05160601c6101005160601c615d966200045b600039600081816106bb01528181610a5e015281816137f90152613f7f0152600081816107c401528181610ae001528181610bac01528181610cf30152818161133e015281816114b4015281816115d301528181611acb01528181613cc00152614b510152600081816105560152818161096e01528181610b0e015281816110bb01528181611128015281816111bc0152818161125b0152818161136d0152818161177601528181611b6501528181611c1701528181611cef01528181611ea20152818161225b015281816124050152818161294501528181612a3c01528181612c5a015281816132e50152818161366e015281816136ec0152818161395101528181613a0401528181613b000152613bb301526000818161039f01528181612d4c01528181612d800152614391015260008181610fb201528181610ff20152818161168d01526116cd0152615d966000f3fe6080604052600436106102675760003560e01c806379502c5511610144578063b0ec4bcf116100b6578063dea167d51161007a578063dea167d5146107a0578063e5a6b10f146107b5578063e823584a146107e8578063f3fef3a3146107fd578063f67b2bad1461081d578063fcbb17fe1461083f57600080fd5b8063b0ec4bcf146106df578063b63d382e146106ff578063b77ddfea1461071f578063ca143d1814610734578063ce937e7b1461076157600080fd5b80638a9defff116101085780638a9defff146105f85780638ca23bc91461061857806398e88ca81461064c5780639e556b2b1461066c578063ab6001691461068c578063af02808a146106ac57600080fd5b806379502c55146105475780638129fc1c1461058e57806381ced71f146105a35780638456cb59146105c3578063846253d1146105d857600080fd5b806343060237116101dd5780635680e145116101a15780635680e145146104725780635b494dd5146104a65780635c975abb146104da57806363c0f4b1146104fd57806365b710081461051257806365e29c7e1461053257600080fd5b806343060237146103d657806347e7ef24146103f65780634a47a3e0146104165780634f1ef2861461044a578063536c9a431461045d57600080fd5b806324ea54f41161022f57806324ea54f41461031657806326ccbd22146103385780632a2be82d1461034d5780633659cfe61461036d578063396512fd1461038d5780633f4ba83a146103c157600080fd5b8063066dda0e1461026c57806319704a3a1461028e5780631a548a27146102c15780631c5c4aea146102d6578063220c262b146102f6575b600080fd5b34801561027857600080fd5b5061028c610287366004615770565b61085f565b005b34801561029a57600080fd5b506102ae6102a93660046157e9565b6108ba565b6040519081526020015b60405180910390f35b3480156102cd57600080fd5b5060ce546102ae565b3480156102e257600080fd5b506102ae6102f1366004615847565b610d68565b34801561030257600080fd5b506102ae61031136600461589e565b610d85565b34801561032257600080fd5b506102ae600080516020615d4183398151915281565b34801561034457600080fd5b506102ae610dc7565b34801561035957600080fd5b506102ae6103683660046155eb565b610deb565b34801561037957600080fd5b5061028c6103883660046155eb565b610fa7565b34801561039957600080fd5b506102ae7f000000000000000000000000000000000000000000000000000000000000000081565b3480156103cd57600080fd5b5061028c611070565b3480156103e257600080fd5b5061028c6103f13660046155eb565b61111d565b34801561040257600080fd5b5061028c610411366004615727565b611530565b34801561042257600080fd5b506102ae7fa82e22387fca439f316d78ca566f383218ab8ae1b3e830178c9c82cbd16749c081565b61028c610458366004615625565b611682565b34801561046957600080fd5b5060d0546102ae565b34801561047e57600080fd5b506102ae7f2c09deb013d6a86a9063c95b5e2b10937d1128a3937347eb7e00408ed9fb1a9c81565b3480156104b257600080fd5b506102ae7f5ec196419322369c6bac572d883f4d990ae5ec82f7d93cdf89b85dbb05b63c2781565b3480156104e657600080fd5b5060335460ff1660405190151581526020016102b8565b34801561050957600080fd5b506102ae600a81565b34801561051e57600080fd5b5061028c61052d3660046155eb565b611738565b34801561053e57600080fd5b506102ae611955565b34801561055357600080fd5b507f00000000000000000000000000000000000000000000000000000000000000005b6040516001600160a01b0390911681526020016102b8565b34801561059a57600080fd5b5061028c611a3b565b3480156105af57600080fd5b5061028c6105be366004615847565b611abe565b3480156105cf57600080fd5b5061028c611b39565b3480156105e457600080fd5b506102ae6105f3366004615847565b611bcf565b34801561060457600080fd5b5061028c610613366004615753565b611dc5565b34801561062457600080fd5b506102ae7fa23b11d346b90fc279e0a917152caf41f3c1247b12211b7cbc0e0e3f8b79405781565b34801561065857600080fd5b5061028c610667366004615753565b611e64565b34801561067857600080fd5b5061028c61068736600461579f565b61221c565b34801561069857600080fd5b5061028c6106a7366004615879565b612259565b3480156106b857600080fd5b507f0000000000000000000000000000000000000000000000000000000000000000610576565b3480156106eb57600080fd5b506105766106fa366004615847565b61239b565b34801561070b57600080fd5b5061028c61071a3660046155eb565b6123d9565b34801561072b57600080fd5b506102ae612688565b34801561074057600080fd5b5061075461074f3660046155eb565b612745565b6040516102b8919061591c565b34801561076d57600080fd5b5061078161077c3660046158c3565b612752565b604080516001600160a01b0390931683526020830191909152016102b8565b3480156107ac57600080fd5b506102ae612778565b3480156107c157600080fd5b507f0000000000000000000000000000000000000000000000000000000000000000610576565b3480156107f457600080fd5b5060cf546102ae565b34801561080957600080fd5b506102ae610818366004615727565b612784565b34801561082957600080fd5b506102ae600080516020615cfa83398151915281565b34801561084b57600080fd5b5061028c61085a3660046156ea565b6128fa565b60335460ff161561088b5760405162461bcd60e51b815260040161088290615a0f565b60405180910390fd5b6108b661089d368490038401846157cc565b826108a95760006108af565b83602001355b6000612b68565b5050565b60006108c860335460ff1690565b156108e55760405162461bcd60e51b815260040161088290615a0f565b6101208401516001600160a01b038116331461094f5760405162461bcd60e51b815260206004820152602360248201527f4f6e6c792074686520524d2063616e20637265617465206e657720706f6c696360448201526269657360e81b6064820152608401610882565b604051635dfdc5d760e11b81526001600160a01b0382811660048301527f0000000000000000000000000000000000000000000000000000000000000000169063bbfb8bae9060240160006040518083038186803b1580156109b057600080fd5b505afa1580156109c4573d6000803e3d6000fd5b50505050826bffffffffffffffffffffffff166060826001600160a01b0316901b6109ef9190615b8b565b85526109fa85612f11565b8551600090815260cc602052604081209190915560a086015160ce805491929091610a26908490615b8b565b90915550610a35905085612f41565b8451604051632851206560e21b81526001600160a01b03868116600483015260248201929092527f00000000000000000000000000000000000000000000000000000000000000009091169063a144819490604401600060405180830381600087803b158015610aa457600080fd5b505af1158015610ab8573d6000803e3d6000fd5b50505050610b0884308761010001518860a00151610ad69190615b8b565b6001600160a01b037f0000000000000000000000000000000000000000000000000000000000000000169291906130ff565b610bd4847f00000000000000000000000000000000000000000000000000000000000000006001600160a01b03166361d027b36040518163ffffffff1660e01b815260040160206040518083038186803b158015610b6557600080fd5b505afa158015610b79573d6000803e3d6000fd5b505050506040513d601f19601f82011682018060405250810190610b9d9190615608565b60c08801516001600160a01b037f0000000000000000000000000000000000000000000000000000000000000000169291906130ff565b60008560e00151118015610c6a5750806001600160a01b031663521eb2736040518163ffffffff1660e01b815260040160206040518083038186803b158015610c1c57600080fd5b505afa158015610c30573d6000803e3d6000fd5b505050506040513d601f19601f82011682018060405250810190610c549190615608565b6001600160a01b0316846001600160a01b031614155b15610d1b57610d1b84826001600160a01b031663521eb2736040518163ffffffff1660e01b815260040160206040518083038186803b158015610cac57600080fd5b505afa158015610cc0573d6000803e3d6000fd5b505050506040513d601f19601f82011682018060405250810190610ce49190615608565b60e08801516001600160a01b037f0000000000000000000000000000000000000000000000000000000000000000169291906130ff565b806001600160a01b03167ff8da20dc84e4c9850943fcd1a0587142b2bac3fef70840ccee41f5edd22bc47786604051610d549190615a87565b60405180910390a2505082515b9392505050565b600081815260cd60205260408120610d7f90613170565b92915050565b600082815260cd6020526040812081908190610da1908561317b565b915091508115610db4579150610d7f9050565b600092505050610d7f565b505092915050565b600060cf5460d05460ce54610ddc9190615b8b565b610de69190615be4565b905090565b6000610df960335460ff1690565b15610e165760405162461bcd60e51b815260040161088290615a0f565b600080610e2460c985613197565b91509150818015610e6157506001816003811115610e4457610e44615c7e565b1480610e6157506002816003811115610e5f57610e5f615c7e565b145b610ea45760405162461bcd60e51b815260206004820152601460248201527365546f6b656e206973206e6f742061637469766560601b6044820152606401610882565b6000846001600160a01b03166352a2783b6040518163ffffffff1660e01b815260040160206040518083038186803b158015610edf57600080fd5b505afa158015610ef3573d6000803e3d6000fd5b505050506040513d601f19601f82011682018060405250810190610f179190615860565b90506000610f24826131ca565b90506001600160a01b038616631c0f4f81610f3f8385615be4565b6040518263ffffffff1660e01b8152600401610f5d91815260200190565b600060405180830381600087803b158015610f7757600080fd5b505af1158015610f8b573d6000803e3d6000fd5b505050508082610f9b9190615be4565b9450505050505b919050565b306001600160a01b037f0000000000000000000000000000000000000000000000000000000000000000161415610ff05760405162461bcd60e51b815260040161088290615977565b7f00000000000000000000000000000000000000000000000000000000000000006001600160a01b031661102261326c565b6001600160a01b0316146110485760405162461bcd60e51b8152600401610882906159c3565b6110518161329a565b6040805160008082526020820190925261106d91839190613344565b50565b60405163c5b8f5cf60e01b8152600080516020615d4183398151915260048201819052600080516020615cfa8339815191526024830181905233604484015290916001600160a01b037f0000000000000000000000000000000000000000000000000000000000000000169063c5b8f5cf9060640160006040518083038186803b1580156110fd57600080fd5b505afa158015611111573d6000803e3d6000fd5b505050506108b6613488565b336001600160a01b037f000000000000000000000000000000000000000000000000000000000000000016146111af5760405162461bcd60e51b815260206004820152603160248201527f4f6e6c792074686520506f6c696379506f6f6c436f6e6669672063616e20636860448201527030b733b29030b9b9b2ba26b0b730b3b2b960791b6064820152608401610882565b60006001600160a01b03167f00000000000000000000000000000000000000000000000000000000000000006001600160a01b03166394217ad16040518163ffffffff1660e01b815260040160206040518083038186803b15801561121357600080fd5b505afa158015611227573d6000803e3d6000fd5b505050506040513d601f19601f8201168201806040525081019061124b9190615608565b6001600160a01b03161461147e577f00000000000000000000000000000000000000000000000000000000000000006001600160a01b03166394217ad16040518163ffffffff1660e01b815260040160206040518083038186803b1580156112b257600080fd5b505afa1580156112c6573d6000803e3d6000fd5b505050506040513d601f19601f820116820180604052508101906112ea9190615608565b6001600160a01b031663cec16f3f6040518163ffffffff1660e01b8152600401600060405180830381600087803b15801561132457600080fd5b505af1158015611338573d6000803e3d6000fd5b505050507f00000000000000000000000000000000000000000000000000000000000000006001600160a01b031663095ea7b37f00000000000000000000000000000000000000000000000000000000000000006001600160a01b03166394217ad16040518163ffffffff1660e01b815260040160206040518083038186803b1580156113c457600080fd5b505afa1580156113d8573d6000803e3d6000fd5b505050506040513d601f19601f820116820180604052508101906113fc9190615608565b6040516001600160e01b031960e084901b1681526001600160a01b03909116600482015260006024820152604401602060405180830381600087803b15801561144457600080fd5b505af1158015611458573d6000803e3d6000fd5b505050506040513d601f19601f8201168201806040525081019061147c91906156cd565b505b6001600160a01b0381161561106d5760405163095ea7b360e01b81526001600160a01b03828116600483015260001960248301527f0000000000000000000000000000000000000000000000000000000000000000169063095ea7b390604401602060405180830381600087803b1580156114f857600080fd5b505af115801561150c573d6000803e3d6000fd5b505050506040513d601f19601f820116820180604052508101906108b691906156cd565b60335460ff16156115535760405162461bcd60e51b815260040161088290615a0f565b60008061156160c985613197565b915091508180156115835750600181600381111561158157611581615c7e565b145b6115c65760405162461bcd60e51b815260206004820152601460248201527365546f6b656e206973206e6f742061637469766560601b6044820152606401610882565b6115fb6001600160a01b037f0000000000000000000000000000000000000000000000000000000000000000163330866130ff565b6040516311f9fbc960e21b8152336004820152602481018490526001600160a01b038516906347e7ef2490604401602060405180830381600087803b15801561164357600080fd5b505af1158015611657573d6000803e3d6000fd5b505050506040513d601f19601f8201168201806040525081019061167b9190615860565b5050505050565b306001600160a01b037f00000000000000000000000000000000000000000000000000000000000000001614156116cb5760405162461bcd60e51b815260040161088290615977565b7f00000000000000000000000000000000000000000000000000000000000000006001600160a01b03166116fd61326c565b6001600160a01b0316146117235760405162461bcd60e51b8152600401610882906159c3565b61172c8261329a565b6108b682826001613344565b6040516312d9a6ad60e01b81527f5ec196419322369c6bac572d883f4d990ae5ec82f7d93cdf89b85dbb05b63c2760048201819052336024830152907f00000000000000000000000000000000000000000000000000000000000000006001600160a01b0316906312d9a6ad9060440160006040518083038186803b1580156117c057600080fd5b505afa1580156117d4573d6000803e3d6000fd5b50600292506117e1915050565b6117ec60c98461351b565b60038111156117fd576117fd615c7e565b146118425760405162461bcd60e51b815260206004820152601560248201527411551bdad95b881b9bdd0819195c1c9958d85d1959605a1b6044820152606401610882565b816001600160a01b03166318160ddd6040518163ffffffff1660e01b815260040160206040518083038186803b15801561187b57600080fd5b505afa15801561188f573d6000803e3d6000fd5b505050506040513d601f19601f820116820180604052508101906118b39190615860565b1561190f5760405162461bcd60e51b815260206004820152602660248201527f45546f6b656e20686173206c69717569646974792c2063616e27742062652072604482015265195b5bdd995960d21b6064820152608401610882565b816001600160a01b03167f84b036748e342a63da09ea533edd13275c8f2eb94ba67374cd3c7f4d6461d52c6000604051611949919061591c565b60405180910390a25050565b600080805b61196460c9613170565b811015611a0c57600061197860c983613538565b509050806001600160a01b03166352a2783b6040518163ffffffff1660e01b815260040160206040518083038186803b1580156119b457600080fd5b505afa1580156119c8573d6000803e3d6000fd5b505050506040513d601f19601f820116820180604052508101906119ec9190615860565b6119f69084615b8b565b9250508080611a0490615c4d565b91505061195a565b506000611a17610dc7565b905081811115611a3257611a2b8282615be4565b9250505090565b60009250505090565b600054610100900460ff1680611a54575060005460ff16155b611a705760405162461bcd60e51b815260040161088290615a39565b600054610100900460ff16158015611a92576000805461ffff19166101011790555b611a9a613547565b611aa26135ae565b611aaa613615565b801561106d576000805461ff001916905550565b611af36001600160a01b037f0000000000000000000000000000000000000000000000000000000000000000163330846130ff565b611afc8161387e565b6040805160018152602081018390527fd60d524f1cae273480bb0a4ddfb992b6ac0b61c8e12ffbe2e4e31463f9e90199910160405180910390a150565b6040516312d9a6ad60e01b8152600080516020615d4183398151915260048201819052336024830152907f00000000000000000000000000000000000000000000000000000000000000006001600160a01b0316906312d9a6ad9060440160006040518083038186803b158015611baf57600080fd5b505afa158015611bc3573d6000803e3d6000fd5b5050505061106d6138e3565b6040516312d9a6ad60e01b81527fa23b11d346b90fc279e0a917152caf41f3c1247b12211b7cbc0e0e3f8b794057600482018190523360248301526000916001600160a01b037f000000000000000000000000000000000000000000000000000000000000000016906312d9a6ad9060440160006040518083038186803b158015611c5957600080fd5b505afa158015611c6d573d6000803e3d6000fd5b5050505060d054831115611c815760d05492505b60008311611cd15760405162461bcd60e51b815260206004820152601760248201527f4e6f207072656d69756d7320746f2077697468647261770000000000000000006044820152606401610882565b8260d06000828254611ce39190615be4565b92505081905550611d847f00000000000000000000000000000000000000000000000000000000000000006001600160a01b03166361d027b36040518163ffffffff1660e01b815260040160206040518083038186803b158015611d4657600080fd5b505afa158015611d5a573d6000803e3d6000fd5b505050506040513d601f19601f82011682018060405250810190611d7e9190615608565b8461393b565b6040805160008152602081018590527fd60d524f1cae273480bb0a4ddfb992b6ac0b61c8e12ffbe2e4e31463f9e90199910160405180910390a15090919050565b60335460ff1615611de85760405162461bcd60e51b815260040161088290615a0f565b42611dfb610180830161016084016158e5565b64ffffffffff161115611e495760405162461bcd60e51b8152602060048201526016602482015275141bdb1a58de481b9bdd08195e1c1a5c9959081e595d60521b6044820152606401610882565b61106d611e5b368390038301836157cc565b60006001612b68565b6040516312d9a6ad60e01b81527f2c09deb013d6a86a9063c95b5e2b10937d1128a3937347eb7e00408ed9fb1a9c60048201819052336024830152907f00000000000000000000000000000000000000000000000000000000000000006001600160a01b0316906312d9a6ad9060440160006040518083038186803b158015611eec57600080fd5b505afa158015611f00573d6000803e3d6000fd5b50505050611f1060335460ff1690565b15611f2d5760405162461bcd60e51b815260040161088290615a0f565b611f44611f3f368490038401846157cc565b613ce7565b8135600090815260cd6020526040812090805b611f6160c9613170565b8110156121ab57600080611f7660c984613538565b909250905060008080611f89888661317b565b915091508115612013576001600160a01b038516634438bcbb611fb9611fb4368e90038e018e6157cc565b613d4d565b836040518363ffffffff1660e01b8152600401611fe0929190918252602082015260400190565b600060405180830381600087803b158015611ffa57600080fd5b505af115801561200e573d6000803e3d6000fd5b505050505b600184600381111561202757612027615c7e565b1480156120e557506001600160a01b03851663334871546120506101408d016101208e016155eb565b6120626101808e016101608f016158e5565b6040516001600160e01b031960e085901b1681526001600160a01b03909216600483015264ffffffffff16602482015260440160206040518083038186803b1580156120ad57600080fd5b505afa1580156120c1573d6000803e3d6000fd5b505050506040513d601f19601f820116820180604052508101906120e591906156cd565b1561215e57846001600160a01b031663e5ae143f6040518163ffffffff1660e01b815260040160206040518083038186803b15801561212357600080fd5b505afa158015612137573d6000803e3d6000fd5b505050506040513d601f19601f8201168201806040525081019061215b9190615860565b92505b8261217a578115612175576121738886613da7565b505b612193565b612185888685613db3565b506121908388615b8b565b96505b505050505080806121a390615c4d565b915050611f57565b506121cd60608501356121c6611fb4368890038801886157cc565b8385613dc8565b83356121e1610140860161012087016155eb565b6001600160a01b03167f5b6693e57e2edc10453988a22e50a605795daee9a5dde66f5267b0dee0a6b60660405160405180910390a350505050565b60335460ff161561223f5760405162461bcd60e51b815260040161088290615a0f565b6108b6612251368490038401846157cc565b826000612b68565b7f00000000000000000000000000000000000000000000000000000000000000006001600160a01b03166394217ad16040518163ffffffff1660e01b815260040160206040518083038186803b1580156122b257600080fd5b505afa1580156122c6573d6000803e3d6000fd5b505050506040513d601f19601f820116820180604052508101906122ea9190615608565b6001600160a01b0316336001600160a01b03161461235b5760405162461bcd60e51b815260206004820152602860248201527f4f6e6c792061737365744d616e616765722063616e2063616c6c207468697320604482015267333ab731ba34b7b760c11b6064820152608401610882565b60335460ff161561237e5760405162461bcd60e51b815260040161088290615a0f565b801561238d576108b68261387e565b612396826131ca565b505050565b600080806123aa60c985613538565b909250905060008160038111156123c3576123c3615c7e565b146123cf575092915050565b5060009392505050565b6040516312d9a6ad60e01b8152600080516020615cfa83398151915260048201819052336024830152907f00000000000000000000000000000000000000000000000000000000000000006001600160a01b0316906312d9a6ad9060440160006040518083038186803b15801561244f57600080fd5b505afa158015612463573d6000803e3d6000fd5b50505050600a61247360c9613170565b106124ca5760405162461bcd60e51b815260206004820152602160248201527f4d6178696d756d206e756d626572206f662045546f6b656e73207265616368656044820152601960fa1b6064820152608401610882565b6124d560c983613f1b565b156125225760405162461bcd60e51b815260206004820152601a60248201527f65546f6b656e20616c726561647920696e2074686520706f6f6c0000000000006044820152606401610882565b6001600160a01b03821661256f5760405162461bcd60e51b815260206004820152601460248201527365546f6b656e2063616e2774206265207a65726f60601b6044820152606401610882565b306001600160a01b0316826001600160a01b0316634d15eb036040518163ffffffff1660e01b815260040160206040518083038186803b1580156125b257600080fd5b505afa1580156125c6573d6000803e3d6000fd5b505050506040513d601f19601f820116820180604052508101906125ea9190615608565b6001600160a01b0316146126405760405162461bcd60e51b815260206004820152601e60248201527f45546f6b656e206e6f74206c696e6b656420746f207468697320706f6f6c00006044820152606401610882565b61264d60c9836001613f27565b50816001600160a01b03167f84b036748e342a63da09ea533edd13275c8f2eb94ba67374cd3c7f4d6461d52c6001604051611949919061591c565b600080805b61269760c9613170565b81101561273f5760006126ab60c983613538565b509050806001600160a01b03166318160ddd6040518163ffffffff1660e01b815260040160206040518083038186803b1580156126e757600080fd5b505afa1580156126fb573d6000803e3d6000fd5b505050506040513d601f19601f8201168201806040525081019061271f9190615860565b6127299084615b8b565b925050808061273790615c4d565b91505061268d565b50919050565b6000610d7f60c98361351b565b600082815260cd60205260408120819061276c9084613f45565b915091505b9250929050565b6000610de660c9613170565b600061279260335460ff1690565b156127af5760405162461bcd60e51b815260040161088290615a0f565b6000806127bd60c986613197565b915091508180156127fa575060018160038111156127dd576127dd615c7e565b14806127fa575060028160038111156127f8576127f8615c7e565b145b6128585760405162461bcd60e51b815260206004820152602960248201527f65546f6b656e206e6f7420666f756e64206f7220776974686472617773206e6f6044820152681d08185b1b1bddd95960ba1b6064820152608401610882565b60405163f3fef3a360e01b8152336004820181905260248201869052906000906001600160a01b0388169063f3fef3a390604401602060405180830381600087803b1580156128a657600080fd5b505af11580156128ba573d6000803e3d6000fd5b505050506040513d601f19601f820116820180604052508101906128de9190615860565b905080156128f0576128f0828261393b565b9695505050505050565b60405163c5b8f5cf60e01b8152600080516020615d4183398151915260048201819052600080516020615cfa8339815191526024830181905233604484015290916001600160a01b037f0000000000000000000000000000000000000000000000000000000000000000169063c5b8f5cf9060640160006040518083038186803b15801561298757600080fd5b505afa15801561299b573d6000803e3d6000fd5b505050506129b38460c9613f1b90919063ffffffff16565b6129f75760405162461bcd60e51b8152602060048201526015602482015274149a5cdac8135bd91d5b19481b9bdd08199bdd5b99605a1b6044820152606401610882565b6003836003811115612a0b57612a0b615c7e565b141580612abe5750604051632474521560e21b8152600080516020615d4183398151915260048201523360248201527f00000000000000000000000000000000000000000000000000000000000000006001600160a01b0316906391d148549060440160206040518083038186803b158015612a8657600080fd5b505afa158015612a9a573d6000803e3d6000fd5b505050506040513d601f19601f82011682018060405250810190612abe91906156cd565b612b145760405162461bcd60e51b815260206004820152602160248201527f4f6e6c7920475541524449414e2063616e2073757370656e642065546f6b656e6044820152607360f81b6064820152608401610882565b612b2060c98585613f27565b50836001600160a01b03167f84b036748e342a63da09ea533edd13275c8f2eb94ba67374cd3c7f4d6461d52c84604051612b5a919061591c565b60405180910390a250505050565b612b7183613ce7565b6101208301518180612b8b57506001600160a01b03811633145b612bd75760405162461bcd60e51b815260206004820181905260248201527f4f6e6c792074686520524d2063616e207265736f6c766520706f6c69636965736044820152606401610882565b821580612bef57504284610160015164ffffffffff16115b612c3b5760405162461bcd60e51b815260206004820152601860248201527f43616e277420706179206578706972656420706f6c69637900000000000000006044820152606401610882565b6040516310f199ef60e31b81526001600160a01b0382811660048301527f0000000000000000000000000000000000000000000000000000000000000000169063878ccf789060240160006040518083038186803b158015612c9c57600080fd5b505afa158015612cb0573d6000803e3d6000fd5b505050508360200151831115612d015760405162461bcd60e51b81526020600482015260166024820152751c185e5bdd5d080f881c1bdb1a58de4b9c185e5bdd5d60521b6044820152606401610882565b600080841190508460a0015160ce6000828254612d1e9190615be4565b909155506000905080612d32878488613f54565b915091508215612e0b576000612d4888846140ae565b90507f0000000000000000000000000000000000000000000000000000000000000000811115612d7e57612d7b816142ba565b90505b7f0000000000000000000000000000000000000000000000000000000000000000811115612e055760405162461bcd60e51b815260206004820152602e60248201527f446f6e2774206b6e6f7720776865726520746f2074616b65207468652072657360448201526d74206f6620746865206d6f6e657960901b6064820152608401610882565b50612e18565b612e1587826143d9565b90505b612e218161387e565b6060870151604051634e5de6c960e11b815260048101919091526001600160a01b03851690639cbbcd9290602401600060405180830381600087803b158015612e6957600080fd5b505af1158015612e7d573d6000803e3d6000fd5b5050505086600001518761012001516001600160a01b03167f54f4a270ea08f88dc23b2520d6b063fecb24d956c4496f447926d736338f545e88604051612ec691815260200190565b60405180910390a38651600090815260cc602090815260408083208390558951835260cd909152812090818181818181612f0082826154db565b505050505050505050505050505050565b600081604051602001612f249190615a87565b604051602081830303815290604052805190602001209050919050565b8051600090815260cd60205260408120815b612f5d60c9613170565b8110156130e657600080612f7260c984613538565b90925090506001816003811115612f8b57612f8b615c7e565b14612f975750506130d4565b610120860151610160870151604051630cd21c5560e21b81526001600160a01b03928316600482015264ffffffffff90911660248201529083169063334871549060440160206040518083038186803b158015612ff357600080fd5b505afa158015613007573d6000803e3d6000fd5b505050506040513d601f19601f8201168201806040525081019061302b91906156cd565b6130365750506130d4565b6000826001600160a01b031663e5ae143f6040518163ffffffff1660e01b815260040160206040518083038186803b15801561307157600080fd5b505afa158015613085573d6000803e3d6000fd5b505050506040513d601f19601f820116820180604052508101906130a99190615860565b9050806130b8575050506130d4565b6130c28187615b8b565b95506130cf858483613db3565b505050505b806130de81615c4d565b915050612f53565b5061239683606001516130f885613d4d565b8484613dc8565b6040516001600160a01b038085166024830152831660448201526064810182905261316a9085906323b872dd60e01b906084015b60408051601f198184030181529190526020810180516001600160e01b03166001600160e01b0319909316929092179091526146bb565b50505050565b6000610d7f8261478d565b600080808061318a8686614798565b9097909650945050505050565b60008080806131a68686614798565b91509150818160038111156131bd576131bd615c7e565b9350935050509250929050565b600060d05482116131f4578160d060008282546131e79190615be4565b9091555060009392505050565b60d054156132115760d0546132099083615be4565b600060d05591505b60cf5460ce5411156132685760cf5460ce5461322d9190615be4565b8211613245578160cf60008282546131e79190615b8b565b60cf5460ce546132559190615be4565b61325f9083615be4565b60ce5460cf5591505b5090565b7f360894a13ba1a3210667c828492db98dca3e2076cc3735a920a3ca505d382bbc546001600160a01b031690565b60405163c5b8f5cf60e01b8152600080516020615d4183398151915260048201819052600080516020615cfa8339815191526024830181905233604484015290916001600160a01b037f0000000000000000000000000000000000000000000000000000000000000000169063c5b8f5cf9060640160006040518083038186803b15801561332757600080fd5b505afa15801561333b573d6000803e3d6000fd5b50505050505050565b600061334e61326c565b9050613359846147db565b6000835111806133665750815b15613377576133758484614880565b505b7f4910fdfa16fed3260ed0e7147f7cc6da11a60208b5b9406d12a635614ffd9143805460ff1661167b57805460ff191660011781556040516001600160a01b03831660248201526133f690869060440160408051601f198184030181529190526020810180516001600160e01b0316631b2ce7f360e11b179052614880565b50805460ff1916815561340761326c565b6001600160a01b0316826001600160a01b03161461347f5760405162461bcd60e51b815260206004820152602f60248201527f45524331393637557067726164653a207570677261646520627265616b73206660448201526e75727468657220757067726164657360881b6064820152608401610882565b61167b8561496b565b60335460ff166134d15760405162461bcd60e51b815260206004820152601460248201527314185d5cd8589b194e881b9bdd081c185d5cd95960621b6044820152606401610882565b6033805460ff191690557f5db9ee0a495bf2e6ff9c91a7834c1ba4fdd244a5e8aa4e537bd38aeae4b073aa335b6040516001600160a01b03909116815260200160405180910390a1565b600061352783836149ab565b6003811115610d6157610d61615c7e565b60008080806131a68686614a25565b600054610100900460ff1680613560575060005460ff16155b61357c5760405162461bcd60e51b815260040161088290615a39565b600054610100900460ff1615801561359e576000805461ffff19166101011790555b6135a6614a5a565b611aaa614a5a565b600054610100900460ff16806135c7575060005460ff16155b6135e35760405162461bcd60e51b815260040161088290615a39565b600054610100900460ff16158015613605576000805461ffff19166101011790555b61360d614a5a565b611aaa614ac4565b600054610100900460ff168061362e575060005460ff16155b61364a5760405162461bcd60e51b815260040161088290615a39565b600054610100900460ff1615801561366c576000805461ffff19166101011790555b7f00000000000000000000000000000000000000000000000000000000000000006001600160a01b031663948cb7196040518163ffffffff1660e01b8152600401600060405180830381600087803b1580156136c757600080fd5b505af11580156136db573d6000803e3d6000fd5b5050505060006001600160a01b03167f00000000000000000000000000000000000000000000000000000000000000006001600160a01b03166394217ad16040518163ffffffff1660e01b815260040160206040518083038186803b15801561374357600080fd5b505afa158015613757573d6000803e3d6000fd5b505050506040513d601f19601f8201168201806040525081019061377b9190615608565b6001600160a01b0316146137f75760405162461bcd60e51b815260206004820152603a60248201527f41737365744d616e616765722063616e277420626520736574206265666f726560448201527f20506f6c696379506f6f6c20696e697469616c697a6174696f6e0000000000006064820152608401610882565b7f00000000000000000000000000000000000000000000000000000000000000006001600160a01b031663948cb7196040518163ffffffff1660e01b8152600401600060405180830381600087803b15801561385257600080fd5b505af1158015613866573d6000803e3d6000fd5b50505050801561106d576000805461ff001916905550565b806138865750565b8060cf54106138ac578060cf60008282546138a19190615be4565b9091555061106d9050565b60cf54156138c95760cf546138c19082615be4565b600060cf5590505b8060d060008282546138db9190615b8b565b909155505050565b60335460ff16156139065760405162461bcd60e51b815260040161088290615a0f565b6033805460ff191660011790557f62e78cea01bee320cd4e420270b5ea74000d11b0c9f74754ebdbfc544b05a2586134fe3390565b80613944575050565b60006001600160a01b03167f00000000000000000000000000000000000000000000000000000000000000006001600160a01b03166394217ad16040518163ffffffff1660e01b815260040160206040518083038186803b1580156139a857600080fd5b505afa1580156139bc573d6000803e3d6000fd5b505050506040513d601f19601f820116820180604052508101906139e09190615608565b6001600160a01b0316141580156139fd5750806139fb614b39565b105b15613af3577f00000000000000000000000000000000000000000000000000000000000000006001600160a01b03166394217ad16040518163ffffffff1660e01b815260040160206040518083038186803b158015613a5b57600080fd5b505afa158015613a6f573d6000803e3d6000fd5b505050506040513d601f19601f82011682018060405250810190613a939190615608565b6001600160a01b0316631014a0c2826040518263ffffffff1660e01b8152600401613ac091815260200190565b600060405180830381600087803b158015613ada57600080fd5b505af1158015613aee573d6000803e3d6000fd5b505050505b60006001600160a01b03167f00000000000000000000000000000000000000000000000000000000000000006001600160a01b0316631455cd286040518163ffffffff1660e01b815260040160206040518083038186803b158015613b5757600080fd5b505afa158015613b6b573d6000803e3d6000fd5b505050506040513d601f19601f82011682018060405250810190613b8f9190615608565b6001600160a01b031614158015613bac575080613baa614b39565b105b15613cb3577f00000000000000000000000000000000000000000000000000000000000000006001600160a01b0316631455cd286040518163ffffffff1660e01b815260040160206040518083038186803b158015613c0a57600080fd5b505afa158015613c1e573d6000803e3d6000fd5b505050506040513d601f19601f82011682018060405250810190613c429190615608565b6001600160a01b031663ee842dda613c58614b39565b613c629084615be4565b6040518263ffffffff1660e01b8152600401613c8091815260200190565b600060405180830381600087803b158015613c9a57600080fd5b505af1158015613cae573d6000803e3d6000fd5b505050505b6108b66001600160a01b037f0000000000000000000000000000000000000000000000000000000000000000168383614bd3565b805115801590613d0e57508051600090815260cc6020526040902054613d0c82612f11565b145b61106d5760405162461bcd60e51b815260206004820152601060248201526f141bdb1a58de481b9bdd08199bdd5b9960821b6044820152606401610882565b6000610d7f613da28360600151846101400151856101600151613d709190615bfb565b64ffffffffff16613d819190615bc5565b610100850151613d9c906a1a1601fc4ea7109e000000614c03565b90614cd4565b614dd4565b6000610d618383614e52565b6000613dc0848484614e79565b949350505050565b83821015613e265760405162461bcd60e51b815260206004820152602560248201527f4e6f7420656e6f75676874206f6365616e20746f20636f7665722074686520706044820152646f6c69637960d81b6064820152608401610882565b8360005b613e3383613170565b811015613f135760008080613e488685613f45565b915091506001613e5787613170565b613e619190615be4565b841015613e7d57613e7687613d9c8b84614c03565b9250613e81565b8492505b60405163837c83a360e01b815260048101899052602481018490526001600160a01b0383169063837c83a390604401600060405180830381600087803b158015613eca57600080fd5b505af1158015613ede573d6000803e3d6000fd5b50613ef0925088915084905085613db3565b50613efb8386615be4565b94505050508080613f0b90615c4d565b915050613e2a565b505050505050565b6000610d618383614ea0565b6000613dc08484846003811115613f4057613f40615c7e565b614e79565b600080808061318a8686614a25565b6000806000806000861561404e5787516040516331a9108f60e11b815261400c916001600160a01b037f00000000000000000000000000000000000000000000000000000000000000001691636352211e91613fb69160040190815260200190565b60206040518083038186803b158015613fce57600080fd5b505afa158015613fe2573d6000803e3d6000fd5b505050506040513d601f19601f820116820180604052508101906140069190615608565b8761393b565b858860a00151111561402f57858860a001516140289190615be4565b91506140a1565b6140478860a00151876140429190615be4565b6131ca565b92506140a1565b8760a00151915060ce5460cf5411156140a15761407a60ce5460cf546140749190615be4565b83614eac565b90508060cf600082825461408e9190615be4565b9091555061409e90508183615be4565b91505b5090969095509350505050565b600080806140bb85613d4d565b90506000806140c987614ebb565b8851600090815260cd602052604081209294509092505b6140e982613170565b8110156142ad576000806140fd8484613f45565b604051634438bcbb60e01b8152600481018a90526024810182905291935091506001600160a01b03831690634438bcbb90604401600060405180830381600087803b15801561414b57600080fd5b505af115801561415f573d6000803e3d6000fd5b50505060608c015161417391508290614cd4565b90506001600160a01b03821663aa69d74b61418e8784614c03565b6040516001600160e01b031960e084901b16815260048101919091528815156024820152604401600060405180830381600087803b1580156141cf57600080fd5b505af11580156141e3573d6000803e3d6000fd5b5050505060008a11156142985760006141fc8b83614c03565b604051630c1ceca560e21b815260048101829052600160248201529091506001600160a01b03841690633073b29490604401602060405180830381600087803b15801561424857600080fd5b505af115801561425c573d6000803e3d6000fd5b505050506040513d601f19601f820116820180604052508101906142809190615860565b61428a9082615be4565b614294908a615b8b565b9850505b505080806142a590615c4d565b9150506140e0565b5093979650505050505050565b6000805b6142c860c9613170565b8110156143d2576000806142dd60c984613538565b909250905060018160038111156142f6576142f6615c7e565b146143025750506143c0565b604051630c1ceca560e21b815260048101869052600060248201526001600160a01b03831690633073b29490604401602060405180830381600087803b15801561434b57600080fd5b505af115801561435f573d6000803e3d6000fd5b505050506040513d601f19601f820116820180604052508101906143839190615860565b61438d9086615be4565b94507f000000000000000000000000000000000000000000000000000000000000000085116143bd5750506143d2565b50505b806143ca81615c4d565b9150506142be565b5090919050565b6000806143e584613d4d565b90506000806143f386614ebb565b8751600090815260cd602052604081209294509092505b61441382613170565b8110156146af576000806144278484613f45565b604051634438bcbb60e01b8152600481018a90526024810182905291935091506001600160a01b03831690634438bcbb90604401600060405180830381600087803b15801561447557600080fd5b505af1158015614489573d6000803e3d6000fd5b50505060608b015161449d91508290614cd4565b90506001600160a01b03821663aa69d74b6144b88784614c03565b6040516001600160e01b031960e084901b16815260048101919091528815156024820152604401600060405180830381600087803b1580156144f957600080fd5b505af115801561450d573d6000803e3d6000fd5b5050505060008911801561459157506000826001600160a01b03166352a2783b6040518163ffffffff1660e01b815260040160206040518083038186803b15801561455757600080fd5b505afa15801561456b573d6000803e3d6000fd5b505050506040513d601f19601f8201168201806040525081019061458f9190615860565b115b1561469a5760a08a01516000906145a89083614c03565b905061462d8a614628856001600160a01b03166352a2783b6040518163ffffffff1660e01b815260040160206040518083038186803b1580156145ea57600080fd5b505afa1580156145fe573d6000803e3d6000fd5b505050506040513d601f19601f820116820180604052508101906146229190615860565b84614eac565b614eac565b604051631c0f4f8160e01b8152600481018290529091506001600160a01b03841690631c0f4f8190602401600060405180830381600087803b15801561467257600080fd5b505af1158015614686573d6000803e3d6000fd5b50505050808a6146969190615be4565b9950505b505080806146a790615c4d565b91505061440a565b50949695505050505050565b6000614710826040518060400160405280602081526020017f5361666545524332303a206c6f772d6c6576656c2063616c6c206661696c6564815250856001600160a01b0316614f079092919063ffffffff16565b805190915015612396578080602001905181019061472e91906156cd565b6123965760405162461bcd60e51b815260206004820152602a60248201527f5361666545524332303a204552433230206f7065726174696f6e20646964206e6044820152691bdd081cdd58d8d9595960b21b6064820152608401610882565b6000610d7f82614f16565b6001600160a01b03811660009081526002830160205260408120548190806147d0576147c48585614ea0565b60009250925050612771565b600192509050612771565b803b61483f5760405162461bcd60e51b815260206004820152602d60248201527f455243313936373a206e657720696d706c656d656e746174696f6e206973206e60448201526c1bdd08184818dbdb9d1c9858dd609a1b6064820152608401610882565b7f360894a13ba1a3210667c828492db98dca3e2076cc3735a920a3ca505d382bbc80546001600160a01b0319166001600160a01b0392909216919091179055565b6060823b6148df5760405162461bcd60e51b815260206004820152602660248201527f416464726573733a2064656c65676174652063616c6c20746f206e6f6e2d636f6044820152651b9d1c9858dd60d21b6064820152608401610882565b600080846001600160a01b0316846040516148fa9190615900565b600060405180830381855af49150503d8060008114614935576040519150601f19603f3d011682016040523d82523d6000602084013e61493a565b606091505b50915091506149628282604051806060016040528060278152602001615d1a60279139614f20565b95945050505050565b614974816147db565b6040516001600160a01b038216907fbc7cd75a20ee27fd9adebab32041f755214dbc6bffa90cc0225b39da2e5c2d3b90600090a250565b6001600160a01b0381166000908152600283016020526040812054801515806149d957506149d98484614ea0565b610d615760405162461bcd60e51b815260206004820152601e60248201527f456e756d657261626c654d61703a206e6f6e6578697374656e74206b657900006044820152606401610882565b60008080614a338585614f59565b6001600160a01b038116600090815260029690960160205260409095205494959350505050565b600054610100900460ff1680614a73575060005460ff16155b614a8f5760405162461bcd60e51b815260040161088290615a39565b600054610100900460ff16158015611aaa576000805461ffff1916610101179055801561106d576000805461ff001916905550565b600054610100900460ff1680614add575060005460ff16155b614af95760405162461bcd60e51b815260040161088290615a39565b600054610100900460ff16158015614b1b576000805461ffff19166101011790555b6033805460ff19169055801561106d576000805461ff001916905550565b6040516370a0823160e01b81523060048201526000907f00000000000000000000000000000000000000000000000000000000000000006001600160a01b0316906370a082319060240160206040518083038186803b158015614b9b57600080fd5b505afa158015614baf573d6000803e3d6000fd5b505050506040513d601f19601f82011682018060405250810190610de69190615860565b6040516001600160a01b03831660248201526044810182905261239690849063a9059cbb60e01b90606401613133565b6000821580614c10575081155b15614c1d57506000610d7f565b81614c316002670de0b6b3a7640000615ba3565b614c3d90600019615be4565b614c479190615ba3565b831115614ca25760405162461bcd60e51b8152602060048201526024808201527f7761644d756c3a204d617468204d756c7469706c69636174696f6e204f766572604482015263666c6f7760e01b6064820152608401610882565b670de0b6b3a7640000614cb6600282615ba3565b614cc08486615bc5565b614cca9190615b8b565b610d619190615ba3565b600081614d235760405162461bcd60e51b815260206004820152601860248201527f7761644469763a204469766973696f6e206279207a65726f00000000000000006044820152606401610882565b6000614d30600284615ba3565b9050670de0b6b3a7640000614d4782600019615be4565b614d519190615ba3565b841115614dac5760405162461bcd60e51b8152602060048201526024808201527f7761644469763a204d617468204d756c7469706c69636174696f6e204f766572604482015263666c6f7760e01b6064820152608401610882565b8281614dc0670de0b6b3a764000087615bc5565b614dca9190615b8b565b613dc09190615ba3565b600080614de5633b9aca0084615bc5565b905082614df6633b9aca0083615ba3565b14610d7f5760405162461bcd60e51b815260206004820152602660248201527f776164546f5261643a204d617468204d756c7469706c69636174696f6e204f766044820152656572666c6f7760d01b6064820152608401610882565b6001600160a01b03811660009081526002830160205260408120819055610d618383614f65565b6001600160a01b03821660009081526002840160205260408120829055613dc08484614f7a565b6000610d618383614f8f565b60008183106143d25781610d61565b6000806000614ec984614fb1565b90508084610100015110614ef457600181856101000151614eea9190615be4565b9250925050915091565b600084610100015182614eea9190615be4565b6060613dc08484600085615018565b6000610d7f825490565b60608315614f2f575081610d61565b825115614f3f5782518084602001fd5b8160405162461bcd60e51b81526004016108829190615944565b6000610d618383615140565b6000610d61836001600160a01b03841661516a565b6000610d61836001600160a01b03841661525d565b6001600160a01b03811660009081526001830160205260408120541515610d61565b60008082610140015164ffffffffff1642614fcc9190615be4565b9050610d616150136e0612d847b578e7643c28ac0000000061500d614ff087613d4d565b614ffa9086615bc5565b6150078860600151614dd4565b906152ac565b90615367565b61545b565b6060824710156150795760405162461bcd60e51b815260206004820152602660248201527f416464726573733a20696e73756666696369656e742062616c616e636520666f6044820152651c8818d85b1b60d21b6064820152608401610882565b843b6150c75760405162461bcd60e51b815260206004820152601d60248201527f416464726573733a2063616c6c20746f206e6f6e2d636f6e74726163740000006044820152606401610882565b600080866001600160a01b031685876040516150e39190615900565b60006040518083038185875af1925050503d8060008114615120576040519150601f19603f3d011682016040523d82523d6000602084013e615125565b606091505b5091509150615135828286614f20565b979650505050505050565b600082600001828154811061515757615157615caa565b9060005260206000200154905092915050565b6000818152600183016020526040812054801561525357600061518e600183615be4565b85549091506000906151a290600190615be4565b90508181146152075760008660000182815481106151c2576151c2615caa565b90600052602060002001549050808760000184815481106151e5576151e5615caa565b6000918252602080832090910192909255918252600188019052604090208390555b855486908061521857615218615c94565b600190038181906000526020600020016000905590558560010160008681526020019081526020016000206000905560019350505050610d7f565b6000915050610d7f565b60008181526001830160205260408120546152a457508154600181810184556000848152602080822090930184905584548482528286019093526040902091909155610d7f565b506000610d7f565b60008215806152b9575081155b156152c657506000610d7f565b816152de60026b033b2e3c9fd0803ce8000000615ba3565b6152ea90600019615be4565b6152f49190615ba3565b83111561534f5760405162461bcd60e51b8152602060048201526024808201527f7261794d756c3a204d617468204d756c7469706c69636174696f6e204f766572604482015263666c6f7760e01b6064820152608401610882565b6b033b2e3c9fd0803ce8000000614cb6600282615ba3565b6000816153b65760405162461bcd60e51b815260206004820152601860248201527f7261794469763a204469766973696f6e206279207a65726f00000000000000006044820152606401610882565b60006153c3600284615ba3565b90506b033b2e3c9fd0803ce80000006153de82600019615be4565b6153e89190615ba3565b8411156154435760405162461bcd60e51b8152602060048201526024808201527f7261794469763a204d617468204d756c7469706c69636174696f6e204f766572604482015263666c6f7760e01b6064820152608401610882565b8281614dc06b033b2e3c9fd0803ce800000087615bc5565b60008061546d6002633b9aca00615ba3565b9050600061547b8483615b8b565b9050818110156154cd5760405162461bcd60e51b815260206004820181905260248201527f726179546f5761643a204d617468204164646974696f6e204f766572666c6f776044820152606401610882565b613dc0633b9aca0082615ba3565b508054600082559060005260206000209081019061106d91905b8082111561326857600081556001016154f5565b8035610fa281615cd6565b6000610180828403121561273f57600080fd5b6000610180828403121561553a57600080fd5b615542615b30565b9050813581526020820135602082015260408201356040820152606082013560608201526080820135608082015260a082013560a082015260c082013560c082015260e082013560e08201526101008083013581830152506101206155a8818401615509565b908201526101406155ba8382016155d6565b908201526101606155cc8382016155d6565b9082015292915050565b803564ffffffffff81168114610fa257600080fd5b6000602082840312156155fd57600080fd5b8135610d6181615cd6565b60006020828403121561561a57600080fd5b8151610d6181615cd6565b6000806040838503121561563857600080fd5b823561564381615cd6565b915060208381013567ffffffffffffffff8082111561566157600080fd5b818601915086601f83011261567557600080fd5b81358181111561568757615687615cc0565b615699601f8201601f19168501615b5a565b915080825287848285010111156156af57600080fd5b80848401858401376000848284010152508093505050509250929050565b6000602082840312156156df57600080fd5b8151610d6181615ceb565b600080604083850312156156fd57600080fd5b823561570881615cd6565b915060208301356004811061571c57600080fd5b809150509250929050565b6000806040838503121561573a57600080fd5b823561574581615cd6565b946020939093013593505050565b6000610180828403121561576657600080fd5b610d618383615514565b6000806101a0838503121561578457600080fd5b61578e8484615514565b915061018083013561571c81615ceb565b6000806101a083850312156157b357600080fd5b6157bd8484615514565b94610180939093013593505050565b600061018082840312156157df57600080fd5b610d618383615527565b60008060006101c084860312156157ff57600080fd5b6158098585615527565b925061018084013561581a81615cd6565b91506101a08401356bffffffffffffffffffffffff8116811461583c57600080fd5b809150509250925092565b60006020828403121561585957600080fd5b5035919050565b60006020828403121561587257600080fd5b5051919050565b6000806040838503121561588c57600080fd5b82359150602083013561571c81615ceb565b600080604083850312156158b157600080fd5b82359150602083013561571c81615cd6565b600080604083850312156158d657600080fd5b50508035926020909101359150565b6000602082840312156158f757600080fd5b610d61826155d6565b60008251615912818460208701615c21565b9190910192915050565b602081016004831061593e57634e487b7160e01b600052602160045260246000fd5b91905290565b6020815260008251806020840152615963816040850160208701615c21565b601f01601f19169190910160400192915050565b6020808252602c908201527f46756e6374696f6e206d7573742062652063616c6c6564207468726f7567682060408201526b19195b1959d85d1958d85b1b60a21b606082015260800190565b6020808252602c908201527f46756e6374696f6e206d7573742062652063616c6c6564207468726f7567682060408201526b6163746976652070726f787960a01b606082015260800190565b60208082526010908201526f14185d5cd8589b194e881c185d5cd95960821b604082015260600190565b6020808252602e908201527f496e697469616c697a61626c653a20636f6e747261637420697320616c72656160408201526d191e481a5b9a5d1a585b1a5e995960921b606082015260800190565b600061018082019050825182526020830151602083015260408301516040830152606083015160608301526080830151608083015260a083015160a083015260c083015160c083015260e083015160e083015261010080840151818401525061012080840151615b01828501826001600160a01b03169052565b50506101408381015164ffffffffff81168483015250506101608381015164ffffffffff811684830152610dbf565b604051610180810167ffffffffffffffff81118282101715615b5457615b54615cc0565b60405290565b604051601f8201601f1916810167ffffffffffffffff81118282101715615b8357615b83615cc0565b604052919050565b60008219821115615b9e57615b9e615c68565b500190565b600082615bc057634e487b7160e01b600052601260045260246000fd5b500490565b6000816000190483118215151615615bdf57615bdf615c68565b500290565b600082821015615bf657615bf6615c68565b500390565b600064ffffffffff83811690831681811015615c1957615c19615c68565b039392505050565b60005b83811015615c3c578181015183820152602001615c24565b8381111561316a5750506000910152565b6000600019821415615c6157615c61615c68565b5060010190565b634e487b7160e01b600052601160045260246000fd5b634e487b7160e01b600052602160045260246000fd5b634e487b7160e01b600052603160045260246000fd5b634e487b7160e01b600052603260045260246000fd5b634e487b7160e01b600052604160045260246000fd5b6001600160a01b038116811461106d57600080fd5b801515811461106d57600080fdfebf372ca3ebecfe59ac256f17697941bbe63302aced610e8b0e3646f743c7beb2416464726573733a206c6f772d6c6576656c2064656c65676174652063616c6c206661696c656455435dd261a4b9b3364963f7738a7a662ad9c84396d64be3365284bb7f0a5041a2646970667358221220eb7da8adcd6741dc69a736303a3d35277d231ab7976f9ab6cd0b58df48cb48b164736f6c63430008060033",
  "linkReferences": {},
  "deployedLinkReferences": {}
}