{
  "_format": "hh-sol-artifact-1",
  "contractName": "TrustfulRiskModule",
  "sourceName": "contracts/TrustfulRiskModule.sol",
  "abi": [
    {
      "inputs": [
        {
          "internalType": "contract IPolicyPool",
          "name": "policyPool_",
          "type": "address"
        }
      ],
      "stateMutability": "nonpayable",
      "type": "constructor"
    },
    {
      "anonymous": false,
      "inputs": [
        {
          "indexed": false,
          "internalType": "address",
          "name": "previousAdmin",
          "type": "address"
        },
        {
          "indexed": false,
          "internalType": "address",
          "name": "newAdmin",
          "type": "address"
        }
      ],
      "name": "AdminChanged",
      "type": "event"
    },
    {
      "anonymous": false,
      "inputs": [
        {
          "indexed": true,
          "internalType": "address",
          "name": "beacon",
          "type": "address"
        }
      ],
      "name": "BeaconUpgraded",
      "type": "event"
    },
    {
      "anonymous": false,
      "inputs": [
        {
          "indexed": true,
          "internalType": "enum IPolicyPoolConfig.GovernanceActions",
          "name": "action",
          "type": "uint8"
        },
        {
          "indexed": false,
          "internalType": "uint256",
          "name": "value",
          "type": "uint256"
        }
      ],
      "name": "GovernanceAction",
      "type": "event"
    },
    {
      "anonymous": false,
      "inputs": [
        {
          "indexed": false,
          "internalType": "address",
          "name": "account",
          "type": "address"
        }
      ],
      "name": "Paused",
      "type": "event"
    },
    {
      "anonymous": false,
      "inputs": [
        {
          "indexed": true,
          "internalType": "bytes32",
          "name": "role",
          "type": "bytes32"
        },
        {
          "indexed": true,
          "internalType": "bytes32",
          "name": "previousAdminRole",
          "type": "bytes32"
        },
        {
          "indexed": true,
          "internalType": "bytes32",
          "name": "newAdminRole",
          "type": "bytes32"
        }
      ],
      "name": "RoleAdminChanged",
      "type": "event"
    },
    {
      "anonymous": false,
      "inputs": [
        {
          "indexed": true,
          "internalType": "bytes32",
          "name": "role",
          "type": "bytes32"
        },
        {
          "indexed": true,
          "internalType": "address",
          "name": "account",
          "type": "address"
        },
        {
          "indexed": true,
          "internalType": "address",
          "name": "sender",
          "type": "address"
        }
      ],
      "name": "RoleGranted",
      "type": "event"
    },
    {
      "anonymous": false,
      "inputs": [
        {
          "indexed": true,
          "internalType": "bytes32",
          "name": "role",
          "type": "bytes32"
        },
        {
          "indexed": true,
          "internalType": "address",
          "name": "account",
          "type": "address"
        },
        {
          "indexed": true,
          "internalType": "address",
          "name": "sender",
          "type": "address"
        }
      ],
      "name": "RoleRevoked",
      "type": "event"
    },
    {
      "anonymous": false,
      "inputs": [
        {
          "indexed": false,
          "internalType": "address",
          "name": "account",
          "type": "address"
        }
      ],
      "name": "Unpaused",
      "type": "event"
    },
    {
      "anonymous": false,
      "inputs": [
        {
          "indexed": true,
          "internalType": "address",
          "name": "implementation",
          "type": "address"
        }
      ],
      "name": "Upgraded",
      "type": "event"
    },
    {
      "inputs": [],
      "name": "DEFAULT_ADMIN_ROLE",
      "outputs": [
        {
          "internalType": "bytes32",
          "name": "",
          "type": "bytes32"
        }
      ],
      "stateMutability": "view",
      "type": "function"
    },
    {
      "inputs": [],
      "name": "GUARDIAN_ROLE",
      "outputs": [
        {
          "internalType": "bytes32",
          "name": "",
          "type": "bytes32"
        }
      ],
      "stateMutability": "view",
      "type": "function"
    },
    {
      "inputs": [],
      "name": "LEVEL1_ROLE",
      "outputs": [
        {
          "internalType": "bytes32",
          "name": "",
          "type": "bytes32"
        }
      ],
      "stateMutability": "view",
      "type": "function"
    },
    {
      "inputs": [],
      "name": "LEVEL2_ROLE",
      "outputs": [
        {
          "internalType": "bytes32",
          "name": "",
          "type": "bytes32"
        }
      ],
      "stateMutability": "view",
      "type": "function"
    },
    {
      "inputs": [],
      "name": "LEVEL3_ROLE",
      "outputs": [
        {
          "internalType": "bytes32",
          "name": "",
          "type": "bytes32"
        }
      ],
      "stateMutability": "view",
      "type": "function"
    },
    {
      "inputs": [],
      "name": "PRICER_ROLE",
      "outputs": [
        {
          "internalType": "bytes32",
          "name": "",
          "type": "bytes32"
        }
      ],
      "stateMutability": "view",
      "type": "function"
    },
    {
      "inputs": [],
      "name": "RESOLVER_ROLE",
      "outputs": [
        {
          "internalType": "bytes32",
          "name": "",
          "type": "bytes32"
        }
      ],
      "stateMutability": "view",
      "type": "function"
    },
    {
      "inputs": [],
      "name": "RM_PROVIDER_ROLE",
      "outputs": [
        {
          "internalType": "bytes32",
          "name": "",
          "type": "bytes32"
        }
      ],
      "stateMutability": "view",
      "type": "function"
    },
    {
      "inputs": [],
      "name": "TWEAK_EXPIRATION",
      "outputs": [
        {
          "internalType": "uint40",
          "name": "",
          "type": "uint40"
        }
      ],
      "stateMutability": "view",
      "type": "function"
    },
    {
      "inputs": [],
      "name": "currency",
      "outputs": [
        {
          "internalType": "contract IERC20Metadata",
          "name": "",
          "type": "address"
        }
      ],
      "stateMutability": "view",
      "type": "function"
    },
    {
      "inputs": [],
      "name": "ensuroFee",
      "outputs": [
        {
          "internalType": "uint256",
          "name": "",
          "type": "uint256"
        }
      ],
      "stateMutability": "view",
      "type": "function"
    },
    {
      "inputs": [
        {
          "internalType": "uint256",
          "name": "payout",
          "type": "uint256"
        },
        {
          "internalType": "uint256",
          "name": "lossProb",
          "type": "uint256"
        },
        {
          "internalType": "uint40",
          "name": "expiration",
          "type": "uint40"
        }
      ],
      "name": "getMinimumPremium",
      "outputs": [
        {
          "internalType": "uint256",
          "name": "",
          "type": "uint256"
        }
      ],
      "stateMutability": "view",
      "type": "function"
    },
    {
      "inputs": [
        {
          "internalType": "bytes32",
          "name": "role",
          "type": "bytes32"
        }
      ],
      "name": "getRoleAdmin",
      "outputs": [
        {
          "internalType": "bytes32",
          "name": "",
          "type": "bytes32"
        }
      ],
      "stateMutability": "view",
      "type": "function"
    },
    {
      "inputs": [
        {
          "internalType": "bytes32",
          "name": "role",
          "type": "bytes32"
        },
        {
          "internalType": "address",
          "name": "account",
          "type": "address"
        }
      ],
      "name": "grantRole",
      "outputs": [],
      "stateMutability": "nonpayable",
      "type": "function"
    },
    {
      "inputs": [
        {
          "internalType": "bytes32",
          "name": "role",
          "type": "bytes32"
        },
        {
          "internalType": "address",
          "name": "account",
          "type": "address"
        }
      ],
      "name": "hasRole",
      "outputs": [
        {
          "internalType": "bool",
          "name": "",
          "type": "bool"
        }
      ],
      "stateMutability": "view",
      "type": "function"
    },
    {
      "inputs": [
        {
          "internalType": "string",
          "name": "name_",
          "type": "string"
        },
        {
          "internalType": "uint256",
          "name": "scrPercentage_",
          "type": "uint256"
        },
        {
          "internalType": "uint256",
          "name": "ensuroFee_",
          "type": "uint256"
        },
        {
          "internalType": "uint256",
          "name": "scrInterestRate_",
          "type": "uint256"
        },
        {
          "internalType": "uint256",
          "name": "maxScrPerPolicy_",
          "type": "uint256"
        },
        {
          "internalType": "uint256",
          "name": "scrLimit_",
          "type": "uint256"
        },
        {
          "internalType": "address",
          "name": "wallet_",
          "type": "address"
        }
      ],
      "name": "initialize",
      "outputs": [],
      "stateMutability": "nonpayable",
      "type": "function"
    },
    {
      "inputs": [],
      "name": "lastTweak",
      "outputs": [
        {
          "internalType": "uint40",
          "name": "",
          "type": "uint40"
        },
        {
          "internalType": "uint56",
          "name": "",
          "type": "uint56"
        }
      ],
      "stateMutability": "view",
      "type": "function"
    },
    {
      "inputs": [],
      "name": "maxScrPerPolicy",
      "outputs": [
        {
          "internalType": "uint256",
          "name": "",
          "type": "uint256"
        }
      ],
      "stateMutability": "view",
      "type": "function"
    },
    {
      "inputs": [],
      "name": "moc",
      "outputs": [
        {
          "internalType": "uint256",
          "name": "",
          "type": "uint256"
        }
      ],
      "stateMutability": "view",
      "type": "function"
    },
    {
      "inputs": [],
      "name": "name",
      "outputs": [
        {
          "internalType": "string",
          "name": "",
          "type": "string"
        }
      ],
      "stateMutability": "view",
      "type": "function"
    },
    {
      "inputs": [
        {
          "internalType": "uint256",
          "name": "payout",
          "type": "uint256"
        },
        {
          "internalType": "uint256",
          "name": "premium",
          "type": "uint256"
        },
        {
          "internalType": "uint256",
          "name": "lossProb",
          "type": "uint256"
        },
        {
          "internalType": "uint40",
          "name": "expiration",
          "type": "uint40"
        },
        {
          "internalType": "address",
          "name": "customer",
          "type": "address"
        },
        {
          "internalType": "uint96",
          "name": "internalId",
          "type": "uint96"
        }
      ],
      "name": "newPolicy",
      "outputs": [
        {
          "internalType": "uint256",
          "name": "",
          "type": "uint256"
        }
      ],
      "stateMutability": "nonpayable",
      "type": "function"
    },
    {
      "inputs": [],
      "name": "pause",
      "outputs": [],
      "stateMutability": "nonpayable",
      "type": "function"
    },
    {
      "inputs": [],
      "name": "paused",
      "outputs": [
        {
          "internalType": "bool",
          "name": "",
          "type": "bool"
        }
      ],
      "stateMutability": "view",
      "type": "function"
    },
    {
      "inputs": [],
      "name": "policyPool",
      "outputs": [
        {
          "internalType": "contract IPolicyPool",
          "name": "",
          "type": "address"
        }
      ],
      "stateMutability": "view",
      "type": "function"
    },
    {
      "inputs": [
        {
          "internalType": "uint256",
          "name": "scrAmount",
          "type": "uint256"
        }
      ],
      "name": "releaseScr",
      "outputs": [],
      "stateMutability": "nonpayable",
      "type": "function"
    },
    {
      "inputs": [
        {
          "internalType": "bytes32",
          "name": "role",
          "type": "bytes32"
        },
        {
          "internalType": "address",
          "name": "account",
          "type": "address"
        }
      ],
      "name": "renounceRole",
      "outputs": [],
      "stateMutability": "nonpayable",
      "type": "function"
    },
    {
      "inputs": [
        {
          "components": [
            {
              "internalType": "uint256",
              "name": "id",
              "type": "uint256"
            },
            {
              "internalType": "uint256",
              "name": "payout",
              "type": "uint256"
            },
            {
              "internalType": "uint256",
              "name": "premium",
              "type": "uint256"
            },
            {
              "internalType": "uint256",
              "name": "scr",
              "type": "uint256"
            },
            {
              "internalType": "uint256",
              "name": "lossProb",
              "type": "uint256"
            },
            {
              "internalType": "uint256",
              "name": "purePremium",
              "type": "uint256"
            },
            {
              "internalType": "uint256",
              "name": "premiumForEnsuro",
              "type": "uint256"
            },
            {
              "internalType": "uint256",
              "name": "premiumForRm",
              "type": "uint256"
            },
            {
              "internalType": "uint256",
              "name": "premiumForLps",
              "type": "uint256"
            },
            {
              "internalType": "contract IRiskModule",
              "name": "riskModule",
              "type": "address"
            },
            {
              "internalType": "uint40",
              "name": "start",
              "type": "uint40"
            },
            {
              "internalType": "uint40",
              "name": "expiration",
              "type": "uint40"
            }
          ],
          "internalType": "struct Policy.PolicyData",
          "name": "policy",
          "type": "tuple"
        },
        {
          "internalType": "uint256",
          "name": "payout",
          "type": "uint256"
        }
      ],
      "name": "resolvePolicy",
      "outputs": [],
      "stateMutability": "nonpayable",
      "type": "function"
    },
    {
      "inputs": [
        {
          "components": [
            {
              "internalType": "uint256",
              "name": "id",
              "type": "uint256"
            },
            {
              "internalType": "uint256",
              "name": "payout",
              "type": "uint256"
            },
            {
              "internalType": "uint256",
              "name": "premium",
              "type": "uint256"
            },
            {
              "internalType": "uint256",
              "name": "scr",
              "type": "uint256"
            },
            {
              "internalType": "uint256",
              "name": "lossProb",
              "type": "uint256"
            },
            {
              "internalType": "uint256",
              "name": "purePremium",
              "type": "uint256"
            },
            {
              "internalType": "uint256",
              "name": "premiumForEnsuro",
              "type": "uint256"
            },
            {
              "internalType": "uint256",
              "name": "premiumForRm",
              "type": "uint256"
            },
            {
              "internalType": "uint256",
              "name": "premiumForLps",
              "type": "uint256"
            },
            {
              "internalType": "contract IRiskModule",
              "name": "riskModule",
              "type": "address"
            },
            {
              "internalType": "uint40",
              "name": "start",
              "type": "uint40"
            },
            {
              "internalType": "uint40",
              "name": "expiration",
              "type": "uint40"
            }
          ],
          "internalType": "struct Policy.PolicyData",
          "name": "policy",
          "type": "tuple"
        },
        {
          "internalType": "bool",
          "name": "customerWon",
          "type": "bool"
        }
      ],
      "name": "resolvePolicyFullPayout",
      "outputs": [],
      "stateMutability": "nonpayable",
      "type": "function"
    },
    {
      "inputs": [
        {
          "internalType": "bytes32",
          "name": "role",
          "type": "bytes32"
        },
        {
          "internalType": "address",
          "name": "account",
          "type": "address"
        }
      ],
      "name": "revokeRole",
      "outputs": [],
      "stateMutability": "nonpayable",
      "type": "function"
    },
    {
      "inputs": [],
      "name": "scrInterestRate",
      "outputs": [
        {
          "internalType": "uint256",
          "name": "",
          "type": "uint256"
        }
      ],
      "stateMutability": "view",
      "type": "function"
    },
    {
      "inputs": [],
      "name": "scrLimit",
      "outputs": [
        {
          "internalType": "uint256",
          "name": "",
          "type": "uint256"
        }
      ],
      "stateMutability": "view",
      "type": "function"
    },
    {
      "inputs": [],
      "name": "scrPercentage",
      "outputs": [
        {
          "internalType": "uint256",
          "name": "",
          "type": "uint256"
        }
      ],
      "stateMutability": "view",
      "type": "function"
    },
    {
      "inputs": [
        {
          "internalType": "uint256",
          "name": "newEnsuroFee",
          "type": "uint256"
        }
      ],
      "name": "setEnsuroFee",
      "outputs": [],
      "stateMutability": "nonpayable",
      "type": "function"
    },
    {
      "inputs": [
        {
          "internalType": "uint256",
          "name": "newMaxScrPerPolicy",
          "type": "uint256"
        }
      ],
      "name": "setMaxScrPerPolicy",
      "outputs": [],
      "stateMutability": "nonpayable",
      "type": "function"
    },
    {
      "inputs": [
        {
          "internalType": "uint256",
          "name": "newMoc",
          "type": "uint256"
        }
      ],
      "name": "setMoc",
      "outputs": [],
      "stateMutability": "nonpayable",
      "type": "function"
    },
    {
      "inputs": [
        {
          "internalType": "uint256",
          "name": "newScrInterestRate",
          "type": "uint256"
        }
      ],
      "name": "setScrInterestRate",
      "outputs": [],
      "stateMutability": "nonpayable",
      "type": "function"
    },
    {
      "inputs": [
        {
          "internalType": "uint256",
          "name": "newScrLimit",
          "type": "uint256"
        }
      ],
      "name": "setScrLimit",
      "outputs": [],
      "stateMutability": "nonpayable",
      "type": "function"
    },
    {
      "inputs": [
        {
          "internalType": "uint256",
          "name": "newScrPercentage",
          "type": "uint256"
        }
      ],
      "name": "setScrPercentage",
      "outputs": [],
      "stateMutability": "nonpayable",
      "type": "function"
    },
    {
      "inputs": [
        {
          "internalType": "address",
          "name": "wallet_",
          "type": "address"
        }
      ],
      "name": "setWallet",
      "outputs": [],
      "stateMutability": "nonpayable",
      "type": "function"
    },
    {
      "inputs": [
        {
          "internalType": "bytes4",
          "name": "interfaceId",
          "type": "bytes4"
        }
      ],
      "name": "supportsInterface",
      "outputs": [
        {
          "internalType": "bool",
          "name": "",
          "type": "bool"
        }
      ],
      "stateMutability": "view",
      "type": "function"
    },
    {
      "inputs": [],
      "name": "totalScr",
      "outputs": [
        {
          "internalType": "uint256",
          "name": "",
          "type": "uint256"
        }
      ],
      "stateMutability": "view",
      "type": "function"
    },
    {
      "inputs": [],
      "name": "unpause",
      "outputs": [],
      "stateMutability": "nonpayable",
      "type": "function"
    },
    {
      "inputs": [
        {
          "internalType": "address",
          "name": "newImplementation",
          "type": "address"
        }
      ],
      "name": "upgradeTo",
      "outputs": [],
      "stateMutability": "nonpayable",
      "type": "function"
    },
    {
      "inputs": [
        {
          "internalType": "address",
          "name": "newImplementation",
          "type": "address"
        },
        {
          "internalType": "bytes",
          "name": "data",
          "type": "bytes"
        }
      ],
      "name": "upgradeToAndCall",
      "outputs": [],
      "stateMutability": "payable",
      "type": "function"
    },
    {
      "inputs": [],
      "name": "wallet",
      "outputs": [
        {
          "internalType": "address",
          "name": "",
          "type": "address"
        }
      ],
      "stateMutability": "view",
      "type": "function"
    }
  ],
  "bytecode": "0x60c06040523060601b6080523480156200001857600080fd5b5060405162004ac338038062004ac38339810160408190526200003b9162000051565b60601b6001600160601b03191660a05262000083565b6000602082840312156200006457600080fd5b81516001600160a01b03811681146200007c57600080fd5b9392505050565b60805160601c60a05160601c61498162000142600039600081816104a7015281816108fe01528181610a1f01528181610bee01528181610f1f015281816111a6015281816113ba015281816114b901528181611510015281816116f1015281816118fc015281816119b001528181611b9101528181611d7601528181611f81015281816125ec015281816129e401528181612a920152612c86015260008181610e4101528181610e810152818161106801526110a801526149816000f3fe6080604052600436106102725760003560e01c80636f0dbe6f1161014f578063b9ea870a116100c1578063deaa59df1161007a578063deaa59df1461078e578063e5a6b10f146107ae578063e61735c0146107c3578063f33323a4146107e3578063f67b2bad14610803578063fbb812791461082557600080fd5b8063b9ea870a146106ec578063bf8e934d1461070c578063ca996de314610722578063d44499a814610738578063d547741f1461074e578063dab5d88d1461076e57600080fd5b806391d148541161011357806391d148541461062d5780639cbbcd921461064d5780639d90724d1461066d5780639e556b2b14610683578063a217fddf146106a3578063a9a24f27146106b857600080fd5b80636f0dbe6f1461057757806378fab260146105975780637ed5acfa146105cb5780638456cb59146105f85780638bac3a241461060d57600080fd5b8063406f7f6f116101e85780634f1ef286116101ac5780634f1ef286146104df578063521eb273146104f257806353428253146105115780635b494dd5146105275780635c975abb146105495780635d505fe71461056157600080fd5b8063406f7f6f1461040557806341ea6a0f14610425578063468a8c9f1461043b5780634a47a3e0146104765780634d15eb031461049857600080fd5b8063248a9ca31161023a578063248a9ca31461033057806324ea54f41461036e5780632f2ff15d1461039057806336568abe146103b05780633659cfe6146103d05780633f4ba83a146103f057600080fd5b806301ffc9a714610277578063066dda0e146102ac57806306fdde03146102ce578063089a8504146102f057806322875d6314610310575b600080fd5b34801561028357600080fd5b50610297610292366004614153565b610859565b60405190151581526020015b60405180910390f35b3480156102b857600080fd5b506102cc6102c7366004614230565b610890565b005b3480156102da57600080fd5b506102e361096c565b6040516102a391906144a9565b3480156102fc57600080fd5b506102cc61030b36600461410a565b6109ff565b34801561031c57600080fd5b506102cc61032b36600461410a565b610bce565b34801561033c57600080fd5b5061036061034b36600461410a565b600090815260c9602052604090206001015490565b6040519081526020016102a3565b34801561037a57600080fd5b5061036060008051602061492c83398151915281565b34801561039c57600080fd5b506102cc6103ab366004614123565b610d92565b3480156103bc57600080fd5b506102cc6103cb366004614123565b610db8565b3480156103dc57600080fd5b506102cc6103eb36600461406c565b610e36565b3480156103fc57600080fd5b506102cc610eff565b34801561041157600080fd5b506103606104203660046142a5565b611015565b34801561043157600080fd5b5061013454610360565b34801561044757600080fd5b5061012d546040805164ffffffffff83168152600160281b90920466ffffffffffffff166020830152016102a3565b34801561048257600080fd5b5061036060008051602061490c83398151915281565b3480156104a457600080fd5b507f00000000000000000000000000000000000000000000000000000000000000005b6040516001600160a01b0390911681526020016102a3565b6102cc6104ed366004614089565b61105d565b3480156104fe57600080fd5b50610136546001600160a01b03166104c7565b34801561051d57600080fd5b5061013054610360565b34801561053357600080fd5b506103606000805160206148c583398151915281565b34801561055557600080fd5b5060fb5460ff16610297565b34801561056d57600080fd5b5061013354610360565b34801561058357600080fd5b506102cc61059236600461419a565b611113565b3480156105a357600080fd5b506103607f92a19c77d2ea87c7f81d50c74403cb2f401780f3ad919571121efe2bdb427eb181565b3480156105d757600080fd5b506105e26201518081565b60405164ffffffffff90911681526020016102a3565b34801561060457600080fd5b506102cc611195565b34801561061957600080fd5b5061036061062836600461431b565b61129d565b34801561063957600080fd5b50610297610648366004614123565b61138c565b34801561065957600080fd5b506102cc61066836600461410a565b6113b7565b34801561067957600080fd5b5061013254610360565b34801561068f57600080fd5b506102cc61069e36600461425f565b611454565b3480156106af57600080fd5b50610360600081565b3480156106c457600080fd5b506103607f0df0a8869cf58168a14cd7ac426ff1b8c6ff5d5c800c6f44803f3431dcb3bad181565b3480156106f857600080fd5b506102cc61070736600461410a565b6114f0565b34801561071857600080fd5b5061012f54610360565b34801561072e57600080fd5b5061013554610360565b34801561074457600080fd5b5061013154610360565b34801561075a57600080fd5b506102cc610769366004614123565b6116ab565b34801561077a57600080fd5b506102cc61078936600461410a565b6116d1565b34801561079a57600080fd5b506102cc6107a936600461406c565b611898565b3480156107ba57600080fd5b506104c76118f8565b3480156107cf57600080fd5b506102cc6107de36600461410a565b611990565b3480156107ef57600080fd5b506102cc6107fe36600461410a565b611b55565b34801561080f57600080fd5b506103606000805160206148a583398151915281565b34801561083157600080fd5b506103607fc6823861ee2bb2198ce6b1fd6faf4c8f44f745bc804aca4a762f67e0d507fd8a81565b60006001600160e01b03198216637965db0b60e01b148061088a57506301ffc9a760e01b6001600160e01b03198316145b92915050565b7f92a19c77d2ea87c7f81d50c74403cb2f401780f3ad919571121efe2bdb427eb16108bb8133611f19565b60fb5460ff16156108e75760405162461bcd60e51b81526004016108de90614574565b60405180910390fd5b604051630336ed0760e11b81526001600160a01b037f0000000000000000000000000000000000000000000000000000000000000000169063066dda0e9061093590869086906004016145ec565b600060405180830381600087803b15801561094f57600080fd5b505af1158015610963573d6000803e3d6000fd5b50505050505050565b606061012e805461097c906147f4565b80601f01602080910402602001604051908101604052809291908181526020018280546109a8906147f4565b80156109f55780601f106109ca576101008083540402835291602001916109f5565b820191906000526020600020905b8154815290600101906020018083116109d857829003601f168201915b5050505050905090565b60008051602061490c8339815191526000805160206148c58339815191527f00000000000000000000000000000000000000000000000000000000000000006001600160a01b03166379502c556040518163ffffffff1660e01b815260040160206040518083038186803b158015610a7657600080fd5b505afa158015610a8a573d6000803e3d6000fd5b505050506040513d601f19601f82011682018060405250810190610aae919061417d565b6001600160a01b031663c5b8f5cf8383336040518463ffffffff1660e01b8152600401610add9392919061448a565b60006040518083038186803b158015610af557600080fd5b505afa158015610b09573d6000803e3d6000fd5b505050506000610b2660008051602061490c833981519152611f7d565b159050801580610b4a5750610b4a61013154856af8277896582678ac000000612090565b610bae5760405162461bcd60e51b815260206004820152602f60248201527f547765616b2065786365656465643a20656e7375726f46656520747765616b7360448201526e206f6e6c7920757020746f2033302560881b60648201526084016108de565b610131849055610bc0600a858361211b565b50610bc9612174565b505050565b60008051602061490c8339815191526000805160206148c58339815191527f00000000000000000000000000000000000000000000000000000000000000006001600160a01b03166379502c556040518163ffffffff1660e01b815260040160206040518083038186803b158015610c4557600080fd5b505afa158015610c59573d6000803e3d6000fd5b505050506040513d601f19601f82011682018060405250810190610c7d919061417d565b6001600160a01b031663c5b8f5cf8383336040518463ffffffff1660e01b8152600401610cac9392919061448a565b60006040518083038186803b158015610cc457600080fd5b505afa158015610cd8573d6000803e3d6000fd5b505050506000610cf560008051602061490c833981519152611f7d565b159050801580610d165750610d166101335485670429d069189e0000612442565b610d805760405162461bcd60e51b815260206004820152603560248201527f547765616b2065786365656465643a206d6178536372506572506f6c69637920604482015274747765616b73206f6e6c7920757020746f2033302560581b60648201526084016108de565b610133849055610bc0600b858361211b565b600082815260c96020526040902060010154610dae8133611f19565b610bc983836124b1565b6001600160a01b0381163314610e285760405162461bcd60e51b815260206004820152602f60248201527f416363657373436f6e74726f6c3a2063616e206f6e6c792072656e6f756e636560448201526e103937b632b9903337b91039b2b63360891b60648201526084016108de565b610e328282612537565b5050565b306001600160a01b037f0000000000000000000000000000000000000000000000000000000000000000161415610e7f5760405162461bcd60e51b81526004016108de906144dc565b7f00000000000000000000000000000000000000000000000000000000000000006001600160a01b0316610eb161259e565b6001600160a01b031614610ed75760405162461bcd60e51b81526004016108de90614528565b610ee0816125cc565b60408051600080825260208201909252610efc918391906126d6565b50565b60008051602061492c8339815191526000805160206148a58339815191527f00000000000000000000000000000000000000000000000000000000000000006001600160a01b03166379502c556040518163ffffffff1660e01b815260040160206040518083038186803b158015610f7657600080fd5b505afa158015610f8a573d6000803e3d6000fd5b505050506040513d601f19601f82011682018060405250810190610fae919061417d565b6001600160a01b031663c5b8f5cf8383336040518463ffffffff1660e01b8152600401610fdd9392919061448a565b60006040518083038186803b158015610ff557600080fd5b505afa158015611009573d6000803e3d6000fd5b50505050610e32612821565b60007fc6823861ee2bb2198ce6b1fd6faf4c8f44f745bc804aca4a762f67e0d507fd8a6110428133611f19565b6110508888888888886128b4565b5198975050505050505050565b306001600160a01b037f00000000000000000000000000000000000000000000000000000000000000001614156110a65760405162461bcd60e51b81526004016108de906144dc565b7f00000000000000000000000000000000000000000000000000000000000000006001600160a01b03166110d861259e565b6001600160a01b0316146110fe5760405162461bcd60e51b81526004016108de90614528565b611107826125cc565b610e32828260016126d6565b600054610100900460ff168061112c575060005460ff16155b6111485760405162461bcd60e51b81526004016108de9061459e565b600054610100900460ff1615801561116a576000805461ffff19166101011790555b61117988888888888888612d1f565b801561118b576000805461ff00191690555b5050505050505050565b60008051602061492c8339815191527f00000000000000000000000000000000000000000000000000000000000000006001600160a01b03166379502c556040518163ffffffff1660e01b815260040160206040518083038186803b1580156111fd57600080fd5b505afa158015611211573d6000803e3d6000fd5b505050506040513d601f19601f82011682018060405250810190611235919061417d565b6040516312d9a6ad60e01b8152600481018390523360248201526001600160a01b0391909116906312d9a6ad9060440160006040518083038186803b15801561127d57600080fd5b505afa158015611291573d6000803e3d6000fd5b50505050610efc612d95565b6000806112ce6112c96112ba6112b36101305490565b8790612ded565b6112c388612ec4565b90612ded565b612f42565b90506000816112ea6112e36112c961012f5490565b8890612fca565b6112f49190614751565b905060006113346112c96e0612d847b578e7643c28ac0000000061131f4264ffffffffff8a16614751565b610132545b61132e9190614732565b9061307d565b905060006113428383612fca565b905060006113666113566112c96101315490565b61136084886146f8565b90612fca565b90508161137382876146f8565b61137d91906146f8565b955050505050505b9392505050565b600091825260c9602090815260408084206001600160a01b0393909316845291905290205460ff1690565b337f00000000000000000000000000000000000000000000000000000000000000006001600160a01b0316146114395760405162461bcd60e51b815260206004820152602160248201527f5468652063616c6c6572206d7573742062652074686520506f6c696379506f6f6044820152601b60fa1b60648201526084016108de565b80610135600082825461144c9190614751565b909155505050565b7f92a19c77d2ea87c7f81d50c74403cb2f401780f3ad919571121efe2bdb427eb161147f8133611f19565b60fb5460ff16156114a25760405162461bcd60e51b81526004016108de90614574565b604051639e556b2b60e01b81526001600160a01b037f00000000000000000000000000000000000000000000000000000000000000001690639e556b2b90610935908690869060040161460b565b60008051602061490c8339815191526000805160206148c58339815191527f00000000000000000000000000000000000000000000000000000000000000006001600160a01b03166379502c556040518163ffffffff1660e01b815260040160206040518083038186803b15801561156757600080fd5b505afa15801561157b573d6000803e3d6000fd5b505050506040513d601f19601f8201168201806040525081019061159f919061417d565b6001600160a01b031663c5b8f5cf8383336040518463ffffffff1660e01b81526004016115ce9392919061448a565b60006040518083038186803b1580156115e657600080fd5b505afa1580156115fa573d6000803e3d6000fd5b50505050600061161760008051602061490c833981519152611f7d565b15905080158061163b575061163b61013054856a52b7d2dcc80cd2e4000000612090565b6116995760405162461bcd60e51b815260206004820152602960248201527f547765616b2065786365656465643a206d6f6320747765616b73206f6e6c7920604482015268757020746f2031302560b81b60648201526084016108de565b610130849055610bc06008858361211b565b600082815260c960205260409020600101546116c78133611f19565b610bc98383612537565b60008051602061490c8339815191526000805160206148c58339815191527f00000000000000000000000000000000000000000000000000000000000000006001600160a01b03166379502c556040518163ffffffff1660e01b815260040160206040518083038186803b15801561174857600080fd5b505afa15801561175c573d6000803e3d6000fd5b505050506040513d601f19601f82011682018060405250810190611780919061417d565b6001600160a01b031663c5b8f5cf8383336040518463ffffffff1660e01b81526004016117af9392919061448a565b60006040518083038186803b1580156117c757600080fd5b505afa1580156117db573d6000803e3d6000fd5b5050505060006117f860008051602061490c833981519152611f7d565b15905080158061181c575061181c61013254856af8277896582678ac000000612090565b6118865760405162461bcd60e51b815260206004820152603560248201527f547765616b2065786365656465643a20736372496e7465726573745261746520604482015274747765616b73206f6e6c7920757020746f2033302560581b60648201526084016108de565b610132849055610bc06009858361211b565b7f0df0a8869cf58168a14cd7ac426ff1b8c6ff5d5c800c6f44803f3431dcb3bad16118c38133611f19565b61013680546001600160a01b0319166001600160a01b0384169081179091556118f090600f90600061211b565b610e32612174565b60007f00000000000000000000000000000000000000000000000000000000000000006001600160a01b031663e5a6b10f6040518163ffffffff1660e01b815260040160206040518083038186803b15801561195357600080fd5b505afa158015611967573d6000803e3d6000fd5b505050506040513d601f19601f8201168201806040525081019061198b919061417d565b905090565b60008051602061490c8339815191526000805160206148c58339815191527f00000000000000000000000000000000000000000000000000000000000000006001600160a01b03166379502c556040518163ffffffff1660e01b815260040160206040518083038186803b158015611a0757600080fd5b505afa158015611a1b573d6000803e3d6000fd5b505050506040513d601f19601f82011682018060405250810190611a3f919061417d565b6001600160a01b031663c5b8f5cf8383336040518463ffffffff1660e01b8152600401611a6e9392919061448a565b60006040518083038186803b158015611a8657600080fd5b505afa158015611a9a573d6000803e3d6000fd5b505050506000611ab760008051602061490c833981519152611f7d565b159050801580611adb5750611adb61012f54856a52b7d2dcc80cd2e4000000612090565b611b435760405162461bcd60e51b815260206004820152603360248201527f547765616b2065786365656465643a2073637250657263656e7461676520747760448201527265616b73206f6e6c7920757020746f2031302560681b60648201526084016108de565b61012f849055610bc06007858361211b565b6000805160206148a583398151915260008051602061490c8339815191526000805160206148c5833981519152611b8b83611f7d565b611c80577f00000000000000000000000000000000000000000000000000000000000000006001600160a01b03166379502c556040518163ffffffff1660e01b815260040160206040518083038186803b158015611be857600080fd5b505afa158015611bfc573d6000803e3d6000fd5b505050506040513d601f19601f82011682018060405250810190611c20919061417d565b6001600160a01b031663c5b8f5cf8383336040518463ffffffff1660e01b8152600401611c4f9392919061448a565b60006040518083038186803b158015611c6757600080fd5b505afa158015611c7b573d6000803e3d6000fd5b505050505b6000611c9960008051602061490c833981519152611f7d565b158015611cba5750611cb86000805160206148a5833981519152611f7d565b155b9050801580611cda5750611cda610134548667016345785d8a0000612442565b611d3d5760405162461bcd60e51b815260206004820152602e60248201527f547765616b2065786365656465643a207363724c696d697420747765616b732060448201526d6f6e6c7920757020746f2031302560901b60648201526084016108de565b6101345485111580611d615750611d616000805160206148a5833981519152611f7d565b80611e07575084611e0567016345785d8a00007f00000000000000000000000000000000000000000000000000000000000000006001600160a01b031663b77ddfea6040518163ffffffff1660e01b815260040160206040518083038186803b158015611dcd57600080fd5b505afa158015611de1573d6000803e3d6000fd5b505050506040513d601f19601f82011682018060405250810190611360919061428c565b115b611e8e5760405162461bcd60e51b815260206004820152604c60248201527f547765616b2065786365656465643a20496e6372656173652c203e3d3130252060448201527f6f662074686520746f74616c206c69717569646974792c20726571756972657360648201526b204c4556454c315f524f4c4560a01b608482015260a4016108de565b61013554851015611ef85760405162461bcd60e51b815260206004820152602e60248201527f43616e27742073657420534352206c657373207468616e2063757272656e742060448201526d29a1a91030b63637b1b0ba34b7b760911b60648201526084016108de565b610134859055611f0a600c868361211b565b50611f13612174565b50505050565b611f23828261138c565b610e3257611f3b816001600160a01b03166014613183565b611f46836020613183565b604051602001611f57929190614415565b60408051601f198184030181529082905262461bcd60e51b82526108de916004016144a9565b60007f00000000000000000000000000000000000000000000000000000000000000006001600160a01b03166379502c556040518163ffffffff1660e01b815260040160206040518083038186803b158015611fd857600080fd5b505afa158015611fec573d6000803e3d6000fd5b505050506040513d601f19601f82011682018060405250810190612010919061417d565b604051632474521560e21b8152600481018490523360248201526001600160a01b0391909116906391d148549060440160206040518083038186803b15801561205857600080fd5b505afa15801561206c573d6000803e3d6000fd5b505050506040513d601f19601f8201168201806040525081019061088a91906140ed565b6000828414156120a257506001611385565b836120bc5750676765c793fa10079d601b1b811015611385565b826120c957506000611385565b828410156120fb5781676765c793fa10079d601b1b6120e8858761307d565b6120f29190614751565b11159050611385565b81612106848661307d565b6120f290676765c793fa10079d601b1b614751565b801561212a5761212a8361331f565b82601b81111561213c5761213c61483f565b6040518381527f7bc647fe5043209e2019aa3503b79c1b0dd83eb61c56013d373a7584ff6bfb139060200160405180910390a2505050565b676765c793fa10079d601b1b61012f54111580156121955750600061012f54115b6121ef5760405162461bcd60e51b815260206004820152602560248201527f56616c69646174696f6e3a2073637250657263656e74616765206d757374206260448201526465203c3d3160d81b60648201526084016108de565b612205676765c793fa10079d601b1b6002614732565b610130541115801561222f57506122286002676765c793fa10079d601b1b614710565b6101305410155b61227b5760405162461bcd60e51b815260206004820181905260248201527f56616c69646174696f6e3a206d6f63206d757374206265205b302e352c20325d60448201526064016108de565b676765c793fa10079d601b1b6101315411156122e45760405162461bcd60e51b815260206004820152602260248201527f56616c69646174696f6e3a20656e7375726f466565206d757374206265203c3d604482015261203160f01b60648201526084016108de565b676765c793fa10079d601b1b61013254111561235a5760405162461bcd60e51b815260206004820152602f60248201527f56616c69646174696f6e3a20736372496e74657265737452617465206d75737460448201526e206265203c3d20312028313030252960881b60648201526084016108de565b610135546101345410156123d65760405162461bcd60e51b815260206004820152603760248201527f56616c69646174696f6e3a207363724c696d69742063616e2774206265206c6560448201527f7373207468616e2061637475616c20746f74616c53637200000000000000000060648201526084016108de565b610136546001600160a01b03166124405760405162461bcd60e51b815260206004820152602860248201527f56616c69646174696f6e3a2057616c6c65742063616e2774206265207a65726f604482015267206164647265737360c01b60648201526084016108de565b565b60008284141561245457506001611385565b8361246b5750670de0b6b3a7640000811015611385565b8261247857506000611385565b828410156124945781670de0b6b3a76400006120e8858761348c565b8161249f848661348c565b6120f290670de0b6b3a7640000614751565b6124bb828261138c565b610e3257600082815260c9602090815260408083206001600160a01b03851684529091529020805460ff191660011790556124f33390565b6001600160a01b0316816001600160a01b0316837f2f8788117e7eff1d82e926ec794901d17c78024a50270940304540a733656f0d60405160405180910390a45050565b612541828261138c565b15610e3257600082815260c9602090815260408083206001600160a01b0385168085529252808320805460ff1916905551339285917ff6391f5c32d9c69d2a47ea670b442974b53935d1edc7fd64eb21e047a839171b9190a45050565b7f360894a13ba1a3210667c828492db98dca3e2076cc3735a920a3ca505d382bbc546001600160a01b031690565b60008051602061492c8339815191526000805160206148a58339815191527f00000000000000000000000000000000000000000000000000000000000000006001600160a01b03166379502c556040518163ffffffff1660e01b815260040160206040518083038186803b15801561264357600080fd5b505afa158015612657573d6000803e3d6000fd5b505050506040513d601f19601f8201168201806040525081019061267b919061417d565b6001600160a01b031663c5b8f5cf8383336040518463ffffffff1660e01b81526004016126aa9392919061448a565b60006040518083038186803b1580156126c257600080fd5b505afa158015610963573d6000803e3d6000fd5b60006126e061259e565b90506126eb84613578565b6000835111806126f85750815b1561270957612707848461361d565b505b7f4910fdfa16fed3260ed0e7147f7cc6da11a60208b5b9406d12a635614ffd9143805460ff1661281a57805460ff191660011781556040516001600160a01b038316602482015261278890869060440160408051601f198184030181529190526020810180516001600160e01b0316631b2ce7f360e11b17905261361d565b50805460ff1916815561279961259e565b6001600160a01b0316826001600160a01b0316146128115760405162461bcd60e51b815260206004820152602f60248201527f45524331393637557067726164653a207570677261646520627265616b73206660448201526e75727468657220757067726164657360881b60648201526084016108de565b61281a85613708565b5050505050565b60fb5460ff1661286a5760405162461bcd60e51b815260206004820152601460248201527314185d5cd8589b194e881b9bdd081c185d5cd95960621b60448201526064016108de565b60fb805460ff191690557f5db9ee0a495bf2e6ff9c91a7834c1ba4fdd244a5e8aa4e537bd38aeae4b073aa335b6040516001600160a01b03909116815260200160405180910390a1565b6128bc613ea7565b60fb5460ff16156128df5760405162461bcd60e51b81526004016108de90614574565b86861061292e5760405162461bcd60e51b815260206004820181905260248201527f5072656d69756d206d757374206265206c657373207468616e207061796f757460448201526064016108de565b4264ffffffffff168464ffffffffff161161298b5760405162461bcd60e51b815260206004820181905260248201527f45787069726174696f6e206d75737420626520696e207468652066757475726560448201526064016108de565b6001600160a01b0383166129e15760405162461bcd60e51b815260206004820152601e60248201527f437573746f6d65722063616e2774206265207a65726f2061646472657373000060448201526064016108de565b857f00000000000000000000000000000000000000000000000000000000000000006001600160a01b031663e5a6b10f6040518163ffffffff1660e01b815260040160206040518083038186803b158015612a3b57600080fd5b505afa158015612a4f573d6000803e3d6000fd5b505050506040513d601f19601f82011682018060405250810190612a73919061417d565b604051636eb1769f60e11b81526001600160a01b0386811660048301527f000000000000000000000000000000000000000000000000000000000000000081166024830152919091169063dd62ed3e9060440160206040518083038186803b158015612ade57600080fd5b505afa158015612af2573d6000803e3d6000fd5b505050506040513d601f19601f82011682018060405250810190612b16919061428c565b1015612b7a5760405162461bcd60e51b815260206004820152602d60248201527f596f75206d75737420616c6c6f7720454e5355524f20746f207472616e73666560448201526c7220746865207072656d69756d60981b60648201526084016108de565b6000612b8930888a8989613748565b90506101335481606001511115612bfa5760405162461bcd60e51b815260206004820152602f60248201527f5269736b4d6f64756c653a20534352206973206d6f7265207468616e206d617860448201526e696d756d2070657220706f6c69637960881b60648201526084016108de565b80606001516101356000828254612c1191906146f8565b909155505061013454610135541115612c6c5760405162461bcd60e51b815260206004820152601e60248201527f5269736b4d6f64756c653a20534352206c696d6974206578636565646564000060448201526064016108de565b604051630cb8251d60e11b81526000906001600160a01b037f000000000000000000000000000000000000000000000000000000000000000016906319704a3a90612cbf90859089908990600401614628565b602060405180830381600087803b158015612cd957600080fd5b505af1158015612ced573d6000803e3d6000fd5b505050506040513d601f19601f82011682018060405250810190612d11919061428c565b825250979650505050505050565b600054610100900460ff1680612d38575060005460ff16155b612d545760405162461bcd60e51b81526004016108de9061459e565b600054610100900460ff16158015612d76576000805461ffff19166101011790555b612d7e613b06565b612d86613b89565b61117988888888888888613bf0565b60fb5460ff1615612db85760405162461bcd60e51b81526004016108de90614574565b60fb805460ff191660011790557f62e78cea01bee320cd4e420270b5ea74000d11b0c9f74754ebdbfc544b05a2586128973390565b6000821580612dfa575081155b15612e075750600061088a565b81612e1e6002676765c793fa10079d601b1b614710565b612e2a90600019614751565b612e349190614710565b831115612e8f5760405162461bcd60e51b8152602060048201526024808201527f7261794d756c3a204d617468204d756c7469706c69636174696f6e204f766572604482015263666c6f7760e01b60648201526084016108de565b676765c793fa10079d601b1b612ea6600282614710565b612eb08486614732565b612eba91906146f8565b6113859190614710565b600080612ed5633b9aca0084614732565b905082612ee6633b9aca0083614710565b1461088a5760405162461bcd60e51b815260206004820152602660248201527f776164546f5261643a204d617468204d756c7469706c69636174696f6e204f766044820152656572666c6f7760d01b60648201526084016108de565b600080612f546002633b9aca00614710565b90506000612f6284836146f8565b905081811015612fb45760405162461bcd60e51b815260206004820181905260248201527f726179546f5761643a204d617468204164646974696f6e204f766572666c6f7760448201526064016108de565b612fc2633b9aca0082614710565b949350505050565b6000821580612fd7575081155b15612fe45750600061088a565b81612ff86002670de0b6b3a7640000614710565b61300490600019614751565b61300e9190614710565b8311156130695760405162461bcd60e51b8152602060048201526024808201527f7761644d756c3a204d617468204d756c7469706c69636174696f6e204f766572604482015263666c6f7760e01b60648201526084016108de565b670de0b6b3a7640000612ea6600282614710565b6000816130cc5760405162461bcd60e51b815260206004820152601860248201527f7261794469763a204469766973696f6e206279207a65726f000000000000000060448201526064016108de565b60006130d9600284614710565b9050676765c793fa10079d601b1b6130f382600019614751565b6130fd9190614710565b8411156131585760405162461bcd60e51b8152602060048201526024808201527f7261794469763a204d617468204d756c7469706c69636174696f6e204f766572604482015263666c6f7760e01b60648201526084016108de565b828161316f676765c793fa10079d601b1b87614732565b61317991906146f8565b612fc29190614710565b60606000613192836002614732565b61319d9060026146f8565b67ffffffffffffffff8111156131b5576131b561486b565b6040519080825280601f01601f1916602001820160405280156131df576020820181803683370190505b509050600360fc1b816000815181106131fa576131fa614855565b60200101906001600160f81b031916908160001a905350600f60fb1b8160018151811061322957613229614855565b60200101906001600160f81b031916908160001a905350600061324d846002614732565b6132589060016146f8565b90505b60018111156132d0576f181899199a1a9b1b9c1cb0b131b232b360811b85600f166010811061328c5761328c614855565b1a60f81b8282815181106132a2576132a2614855565b60200101906001600160f81b031916908160001a90535060049490941c936132c9816147dd565b905061325b565b5083156113855760405162461bcd60e51b815260206004820181905260248201527f537472696e67733a20686578206c656e67746820696e73756666696369656e7460448201526064016108de565b6000600182601b8111156133355761333561483f565b61333f919061478e565b61012d54600160ff929092169190911b915062015180906133679064ffffffffff1642614768565b64ffffffffff1611156133aa5761012d805466ffffffffffffff8316600160281b026bffffffffffffffffffffffff1990911664ffffffffff4216171790555050565b61012d54600160281b9004811666ffffffffffffff1661340e5761012d805464ffffffffff421664ffffffffff1966ffffffffffffff808616600160281b808604929092161702166bffffffffffffffffffffffff19909216919091171790555050565b60405162461bcd60e51b815260206004820152604760248201527f596f7520616c726561647920747765616b6564207468697320706172616d657460448201527f657220726563656e746c792e2057616974206265666f726520747765616b696e606482015266339030b3b0b4b760c91b608482015260a4016108de565b6000816134db5760405162461bcd60e51b815260206004820152601860248201527f7761644469763a204469766973696f6e206279207a65726f000000000000000060448201526064016108de565b60006134e8600284614710565b9050670de0b6b3a76400006134ff82600019614751565b6135099190614710565b8411156135645760405162461bcd60e51b8152602060048201526024808201527f7761644469763a204d617468204d756c7469706c69636174696f6e204f766572604482015263666c6f7760e01b60648201526084016108de565b828161316f670de0b6b3a764000087614732565b803b6135dc5760405162461bcd60e51b815260206004820152602d60248201527f455243313936373a206e657720696d706c656d656e746174696f6e206973206e60448201526c1bdd08184818dbdb9d1c9858dd609a1b60648201526084016108de565b7f360894a13ba1a3210667c828492db98dca3e2076cc3735a920a3ca505d382bbc80546001600160a01b0319166001600160a01b0392909216919091179055565b6060823b61367c5760405162461bcd60e51b815260206004820152602660248201527f416464726573733a2064656c65676174652063616c6c20746f206e6f6e2d636f6044820152651b9d1c9858dd60d21b60648201526084016108de565b600080846001600160a01b03168460405161369791906143f9565b600060405180830381855af49150503d80600081146136d2576040519150601f19603f3d011682016040523d82523d6000602084013e6136d7565b606091505b50915091506136ff82826040518060600160405280602781526020016148e560279139613cc0565b95945050505050565b61371181613578565b6040516001600160a01b038216907fbc7cd75a20ee27fd9adebab32041f755214dbc6bffa90cc0225b39da2e5c2d3b90600090a250565b613750613ea7565b838511156137ab5760405162461bcd60e51b815260206004820152602260248201527f5072656d69756d2063616e6e6f74206265206d6f7265207468616e207061796f6044820152611d5d60f21b60648201526084016108de565b6137b3613ea7565b6001600160a01b038716610120820181905260408083018890526020808401889052608084018790528151635342825360e01b81529151613853936112c9936112ba939192635342825392600480840193919291829003018186803b15801561381b57600080fd5b505afa15801561382f573d6000803e3d6000fd5b505050506040513d601f19601f820116820180604052508101906112b3919061428c565b8160a00181815250508060a001516138df6138d8896001600160a01b031663bf8e934d6040518163ffffffff1660e01b815260040160206040518083038186803b1580156138a057600080fd5b505afa1580156138b4573d6000803e3d6000fd5b505050506040513d601f19601f820116820180604052508101906112c9919061428c565b8790612fca565b6138e99190614751565b606082018190526139305760405162461bcd60e51b81526020600482015260116024820152705343522063616e2774206265207a65726f60781b60448201526064016108de565b64ffffffffff428116610140830181905290841661016083018190526139f6916139eb916112c9916e0612d847b578e7643c28ac00000000916139739190614768565b64ffffffffff168b6001600160a01b0316639d90724d6040518163ffffffff1660e01b815260040160206040518083038186803b1580156139b357600080fd5b505afa1580156139c7573d6000803e3d6000fd5b505050506040513d601f19601f82011682018060405250810190611324919061428c565b606083015190612fca565b81610100018181525050613a54613a3f886001600160a01b031663d44499a86040518163ffffffff1660e01b815260040160206040518083038186803b1580156138a057600080fd5b8261010001518360a0015161136091906146f8565b60c0820181905261010082015160a08301518892613a71916146f8565b613a7b91906146f8565b1115613ac95760405162461bcd60e51b815260206004820152601960248201527f5072656d69756d206c657373207468616e206d696e696d756d0000000000000060448201526064016108de565b60c081015161010082015160a0830151613ae39089614751565b613aed9190614751565b613af79190614751565b60e08201529695505050505050565b600054610100900460ff1680613b1f575060005460ff16155b613b3b5760405162461bcd60e51b81526004016108de9061459e565b600054610100900460ff16158015613b5d576000805461ffff19166101011790555b613b65613cf9565b613b6d613cf9565b613b75613cf9565b8015610efc576000805461ff001916905550565b600054610100900460ff1680613ba2575060005460ff16155b613bbe5760405162461bcd60e51b81526004016108de9061459e565b600054610100900460ff16158015613be0576000805461ffff19166101011790555b613be8613d63565b613b75613dc1565b600054610100900460ff1680613c09575060005460ff16155b613c255760405162461bcd60e51b81526004016108de9061459e565b600054610100900460ff16158015613c47576000805461ffff19166101011790555b8751613c5b9061012e9060208b0190613f1f565b5061012f879055676765c793fa10079d601b1b61013055610131869055610132859055610133849055610134839055600061013581905561013680546001600160a01b0319166001600160a01b038516179055613cb89033613e28565b611179612174565b60608315613ccf575081611385565b825115613cdf5782518084602001fd5b8160405162461bcd60e51b81526004016108de91906144a9565b600054610100900460ff1680613d12575060005460ff16155b613d2e5760405162461bcd60e51b81526004016108de9061459e565b600054610100900460ff16158015613b75576000805461ffff19166101011790558015610efc576000805461ff001916905550565b600054610100900460ff1680613d7c575060005460ff16155b613d985760405162461bcd60e51b81526004016108de9061459e565b600054610100900460ff16158015613b65576000805461ffff1916610101179055613b6d613cf9565b600054610100900460ff1680613dda575060005460ff16155b613df65760405162461bcd60e51b81526004016108de9061459e565b600054610100900460ff16158015613e18576000805461ffff19166101011790555b613e20613cf9565b613b75613e32565b610e3282826124b1565b600054610100900460ff1680613e4b575060005460ff16155b613e675760405162461bcd60e51b81526004016108de9061459e565b600054610100900460ff16158015613e89576000805461ffff19166101011790555b60fb805460ff191690558015610efc576000805461ff001916905550565b60405180610180016040528060008152602001600081526020016000815260200160008152602001600081526020016000815260200160008152602001600081526020016000815260200160006001600160a01b03168152602001600064ffffffffff168152602001600064ffffffffff1681525090565b828054613f2b906147f4565b90600052602060002090601f016020900481019282613f4d5760008555613f93565b82601f10613f6657805160ff1916838001178555613f93565b82800160010185558215613f93579182015b82811115613f93578251825591602001919060010190613f78565b50613f9f929150613fa3565b5090565b5b80821115613f9f5760008155600101613fa4565b600067ffffffffffffffff80841115613fd357613fd361486b565b604051601f8501601f19908116603f01168101908282118183101715613ffb57613ffb61486b565b8160405280935085815286868601111561401457600080fd5b858560208301376000602087830101525050509392505050565b803561403981614881565b919050565b6000610180828403121561405157600080fd5b50919050565b803564ffffffffff8116811461403957600080fd5b60006020828403121561407e57600080fd5b813561138581614881565b6000806040838503121561409c57600080fd5b82356140a781614881565b9150602083013567ffffffffffffffff8111156140c357600080fd5b8301601f810185136140d457600080fd5b6140e385823560208401613fb8565b9150509250929050565b6000602082840312156140ff57600080fd5b815161138581614896565b60006020828403121561411c57600080fd5b5035919050565b6000806040838503121561413657600080fd5b82359150602083013561414881614881565b809150509250929050565b60006020828403121561416557600080fd5b81356001600160e01b03198116811461138557600080fd5b60006020828403121561418f57600080fd5b815161138581614881565b600080600080600080600060e0888a0312156141b557600080fd5b873567ffffffffffffffff8111156141cc57600080fd5b8801601f81018a136141dd57600080fd5b6141ec8a823560208401613fb8565b9750506020880135955060408801359450606088013593506080880135925060a0880135915060c088013561422081614881565b8091505092959891949750929550565b6000806101a0838503121561424457600080fd5b61424e848461403e565b915061018083013561414881614896565b6000806101a0838503121561427357600080fd5b61427d848461403e565b94610180939093013593505050565b60006020828403121561429e57600080fd5b5051919050565b60008060008060008060c087890312156142be57600080fd5b8635955060208701359450604087013593506142dc60608801614057565b925060808701356142ec81614881565b915060a08701356bffffffffffffffffffffffff8116811461430d57600080fd5b809150509295509295509295565b60008060006060848603121561433057600080fd5b833592506020840135915061434760408501614057565b90509250925092565b803582526020810135602083015260408101356040830152606081013560608301526080810135608083015260a081013560a083015260c081013560c083015260e081013560e08301526101008082013581840152506101206143b481830161402e565b6001600160a01b0316908301526101406143cf828201614057565b64ffffffffff16908301526101606143e8828201614057565b64ffffffffff811684830152611f13565b6000825161440b8184602087016147b1565b9190910192915050565b7f416363657373436f6e74726f6c3a206163636f756e742000000000000000000081526000835161444d8160178501602088016147b1565b7001034b99036b4b9b9b4b733903937b6329607d1b601791840191820152835161447e8160288401602088016147b1565b01602801949350505050565b92835260208301919091526001600160a01b0316604082015260600190565b60208152600082518060208401526144c88160408501602087016147b1565b601f01601f19169190910160400192915050565b6020808252602c908201527f46756e6374696f6e206d7573742062652063616c6c6564207468726f7567682060408201526b19195b1959d85d1958d85b1b60a21b606082015260800190565b6020808252602c908201527f46756e6374696f6e206d7573742062652063616c6c6564207468726f7567682060408201526b6163746976652070726f787960a01b606082015260800190565b60208082526010908201526f14185d5cd8589b194e881c185d5cd95960821b604082015260600190565b6020808252602e908201527f496e697469616c697a61626c653a20636f6e747261637420697320616c72656160408201526d191e481a5b9a5d1a585b1a5e995960921b606082015260800190565b6101a081016145fb8285614350565b8215156101808301529392505050565b6101a0810161461a8285614350565b826101808301529392505050565b60006101c082019050845182526020850151602083015260408501516040830152606085015160608301526080850151608083015260a085015160a083015260c085015160c083015260e085015160e0830152610100808601518184015250610120808601516146a2828501826001600160a01b03169052565b50506101408581015164ffffffffff81168483015250506101608581015164ffffffffff81168483015250506001600160a01b0384166101808301526bffffffffffffffffffffffff83166101a0830152612fc2565b6000821982111561470b5761470b614829565b500190565b60008261472d57634e487b7160e01b600052601260045260246000fd5b500490565b600081600019048311821515161561474c5761474c614829565b500290565b60008282101561476357614763614829565b500390565b600064ffffffffff8381169083168181101561478657614786614829565b039392505050565b600060ff821660ff8416808210156147a8576147a8614829565b90039392505050565b60005b838110156147cc5781810151838201526020016147b4565b83811115611f135750506000910152565b6000816147ec576147ec614829565b506000190190565b600181811c9082168061480857607f821691505b6020821081141561405157634e487b7160e01b600052602260045260246000fd5b634e487b7160e01b600052601160045260246000fd5b634e487b7160e01b600052602160045260246000fd5b634e487b7160e01b600052603260045260246000fd5b634e487b7160e01b600052604160045260246000fd5b6001600160a01b0381168114610efc57600080fd5b8015158114610efc57600080fdfebf372ca3ebecfe59ac256f17697941bbe63302aced610e8b0e3646f743c7beb25ec196419322369c6bac572d883f4d990ae5ec82f7d93cdf89b85dbb05b63c27416464726573733a206c6f772d6c6576656c2064656c65676174652063616c6c206661696c6564a82e22387fca439f316d78ca566f383218ab8ae1b3e830178c9c82cbd16749c055435dd261a4b9b3364963f7738a7a662ad9c84396d64be3365284bb7f0a5041a264697066735822122046947c64d4d1934c1810c1cea7782861ddf32a52d050fd312cbf306ea1e8f10b64736f6c63430008060033",
  "linkReferences": {},
  "deployedLinkReferences": {}
}