{
  "_format": "hh-sol-artifact-1",
  "contractName": "EToken",
  "sourceName": "contracts/EToken.sol",
  "abi": [
    {
      "inputs": [
        {
          "internalType": "contract IPolicyPool",
          "name": "policyPool_",
          "type": "address"
        }
      ],
      "stateMutability": "nonpayable",
      "type": "constructor"
    },
    {
      "anonymous": false,
      "inputs": [
        {
          "indexed": false,
          "internalType": "address",
          "name": "previousAdmin",
          "type": "address"
        },
        {
          "indexed": false,
          "internalType": "address",
          "name": "newAdmin",
          "type": "address"
        }
      ],
      "name": "AdminChanged",
      "type": "event"
    },
    {
      "anonymous": false,
      "inputs": [
        {
          "indexed": true,
          "internalType": "address",
          "name": "owner",
          "type": "address"
        },
        {
          "indexed": true,
          "internalType": "address",
          "name": "spender",
          "type": "address"
        },
        {
          "indexed": false,
          "internalType": "uint256",
          "name": "value",
          "type": "uint256"
        }
      ],
      "name": "Approval",
      "type": "event"
    },
    {
      "anonymous": false,
      "inputs": [
        {
          "indexed": true,
          "internalType": "address",
          "name": "beacon",
          "type": "address"
        }
      ],
      "name": "BeaconUpgraded",
      "type": "event"
    },
    {
      "anonymous": false,
      "inputs": [
        {
          "indexed": true,
          "internalType": "enum IPolicyPoolConfig.GovernanceActions",
          "name": "action",
          "type": "uint8"
        },
        {
          "indexed": false,
          "internalType": "uint256",
          "name": "value",
          "type": "uint256"
        }
      ],
      "name": "GovernanceAction",
      "type": "event"
    },
    {
      "anonymous": false,
      "inputs": [
        {
          "indexed": false,
          "internalType": "address",
          "name": "account",
          "type": "address"
        }
      ],
      "name": "Paused",
      "type": "event"
    },
    {
      "anonymous": false,
      "inputs": [
        {
          "indexed": false,
          "internalType": "uint256",
          "name": "value",
          "type": "uint256"
        }
      ],
      "name": "PoolLoan",
      "type": "event"
    },
    {
      "anonymous": false,
      "inputs": [
        {
          "indexed": false,
          "internalType": "uint256",
          "name": "value",
          "type": "uint256"
        }
      ],
      "name": "PoolLoanRepaid",
      "type": "event"
    },
    {
      "anonymous": false,
      "inputs": [
        {
          "indexed": false,
          "internalType": "uint256",
          "name": "interestRate",
          "type": "uint256"
        },
        {
          "indexed": false,
          "internalType": "uint256",
          "name": "value",
          "type": "uint256"
        }
      ],
      "name": "SCRLocked",
      "type": "event"
    },
    {
      "anonymous": false,
      "inputs": [
        {
          "indexed": false,
          "internalType": "uint256",
          "name": "interestRate",
          "type": "uint256"
        },
        {
          "indexed": false,
          "internalType": "uint256",
          "name": "value",
          "type": "uint256"
        }
      ],
      "name": "SCRUnlocked",
      "type": "event"
    },
    {
      "anonymous": false,
      "inputs": [
        {
          "indexed": true,
          "internalType": "address",
          "name": "from",
          "type": "address"
        },
        {
          "indexed": true,
          "internalType": "address",
          "name": "to",
          "type": "address"
        },
        {
          "indexed": false,
          "internalType": "uint256",
          "name": "value",
          "type": "uint256"
        }
      ],
      "name": "Transfer",
      "type": "event"
    },
    {
      "anonymous": false,
      "inputs": [
        {
          "indexed": false,
          "internalType": "address",
          "name": "account",
          "type": "address"
        }
      ],
      "name": "Unpaused",
      "type": "event"
    },
    {
      "anonymous": false,
      "inputs": [
        {
          "indexed": true,
          "internalType": "address",
          "name": "implementation",
          "type": "address"
        }
      ],
      "name": "Upgraded",
      "type": "event"
    },
    {
      "inputs": [],
      "name": "GUARDIAN_ROLE",
      "outputs": [
        {
          "internalType": "bytes32",
          "name": "",
          "type": "bytes32"
        }
      ],
      "stateMutability": "view",
      "type": "function"
    },
    {
      "inputs": [],
      "name": "LEVEL1_ROLE",
      "outputs": [
        {
          "internalType": "bytes32",
          "name": "",
          "type": "bytes32"
        }
      ],
      "stateMutability": "view",
      "type": "function"
    },
    {
      "inputs": [],
      "name": "LEVEL2_ROLE",
      "outputs": [
        {
          "internalType": "bytes32",
          "name": "",
          "type": "bytes32"
        }
      ],
      "stateMutability": "view",
      "type": "function"
    },
    {
      "inputs": [],
      "name": "LEVEL3_ROLE",
      "outputs": [
        {
          "internalType": "bytes32",
          "name": "",
          "type": "bytes32"
        }
      ],
      "stateMutability": "view",
      "type": "function"
    },
    {
      "inputs": [],
      "name": "MIN_SCALE",
      "outputs": [
        {
          "internalType": "uint256",
          "name": "",
          "type": "uint256"
        }
      ],
      "stateMutability": "view",
      "type": "function"
    },
    {
      "inputs": [],
      "name": "TWEAK_EXPIRATION",
      "outputs": [
        {
          "internalType": "uint40",
          "name": "",
          "type": "uint40"
        }
      ],
      "stateMutability": "view",
      "type": "function"
    },
    {
      "inputs": [],
      "name": "acceptAllRMs",
      "outputs": [
        {
          "internalType": "bool",
          "name": "",
          "type": "bool"
        }
      ],
      "stateMutability": "view",
      "type": "function"
    },
    {
      "inputs": [
        {
          "internalType": "address",
          "name": "riskModule",
          "type": "address"
        },
        {
          "internalType": "uint40",
          "name": "policyExpiration",
          "type": "uint40"
        }
      ],
      "name": "accepts",
      "outputs": [
        {
          "internalType": "bool",
          "name": "",
          "type": "bool"
        }
      ],
      "stateMutability": "view",
      "type": "function"
    },
    {
      "inputs": [
        {
          "internalType": "address",
          "name": "owner",
          "type": "address"
        },
        {
          "internalType": "address",
          "name": "spender",
          "type": "address"
        }
      ],
      "name": "allowance",
      "outputs": [
        {
          "internalType": "uint256",
          "name": "",
          "type": "uint256"
        }
      ],
      "stateMutability": "view",
      "type": "function"
    },
    {
      "inputs": [
        {
          "internalType": "address",
          "name": "spender",
          "type": "address"
        },
        {
          "internalType": "uint256",
          "name": "amount",
          "type": "uint256"
        }
      ],
      "name": "approve",
      "outputs": [
        {
          "internalType": "bool",
          "name": "",
          "type": "bool"
        }
      ],
      "stateMutability": "nonpayable",
      "type": "function"
    },
    {
      "inputs": [
        {
          "internalType": "uint256",
          "name": "amount",
          "type": "uint256"
        },
        {
          "internalType": "bool",
          "name": "positive",
          "type": "bool"
        }
      ],
      "name": "assetEarnings",
      "outputs": [],
      "stateMutability": "nonpayable",
      "type": "function"
    },
    {
      "inputs": [
        {
          "internalType": "address",
          "name": "account",
          "type": "address"
        }
      ],
      "name": "balanceOf",
      "outputs": [
        {
          "internalType": "uint256",
          "name": "",
          "type": "uint256"
        }
      ],
      "stateMutability": "view",
      "type": "function"
    },
    {
      "inputs": [],
      "name": "currency",
      "outputs": [
        {
          "internalType": "contract IERC20Metadata",
          "name": "",
          "type": "address"
        }
      ],
      "stateMutability": "view",
      "type": "function"
    },
    {
      "inputs": [],
      "name": "decimals",
      "outputs": [
        {
          "internalType": "uint8",
          "name": "",
          "type": "uint8"
        }
      ],
      "stateMutability": "view",
      "type": "function"
    },
    {
      "inputs": [
        {
          "internalType": "address",
          "name": "spender",
          "type": "address"
        },
        {
          "internalType": "uint256",
          "name": "subtractedValue",
          "type": "uint256"
        }
      ],
      "name": "decreaseAllowance",
      "outputs": [
        {
          "internalType": "bool",
          "name": "",
          "type": "bool"
        }
      ],
      "stateMutability": "nonpayable",
      "type": "function"
    },
    {
      "inputs": [
        {
          "internalType": "address",
          "name": "provider",
          "type": "address"
        },
        {
          "internalType": "uint256",
          "name": "amount",
          "type": "uint256"
        }
      ],
      "name": "deposit",
      "outputs": [
        {
          "internalType": "uint256",
          "name": "",
          "type": "uint256"
        }
      ],
      "stateMutability": "nonpayable",
      "type": "function"
    },
    {
      "inputs": [
        {
          "internalType": "uint256",
          "name": "amount",
          "type": "uint256"
        },
        {
          "internalType": "bool",
          "name": "positive",
          "type": "bool"
        }
      ],
      "name": "discreteEarning",
      "outputs": [],
      "stateMutability": "nonpayable",
      "type": "function"
    },
    {
      "inputs": [],
      "name": "expirationPeriod",
      "outputs": [
        {
          "internalType": "uint40",
          "name": "",
          "type": "uint40"
        }
      ],
      "stateMutability": "view",
      "type": "function"
    },
    {
      "inputs": [
        {
          "internalType": "bool",
          "name": "updated",
          "type": "bool"
        }
      ],
      "name": "getCurrentScale",
      "outputs": [
        {
          "internalType": "uint256",
          "name": "",
          "type": "uint256"
        }
      ],
      "stateMutability": "view",
      "type": "function"
    },
    {
      "inputs": [],
      "name": "getInvestable",
      "outputs": [
        {
          "internalType": "uint256",
          "name": "",
          "type": "uint256"
        }
      ],
      "stateMutability": "view",
      "type": "function"
    },
    {
      "inputs": [],
      "name": "getPoolLoan",
      "outputs": [
        {
          "internalType": "uint256",
          "name": "",
          "type": "uint256"
        }
      ],
      "stateMutability": "view",
      "type": "function"
    },
    {
      "inputs": [
        {
          "internalType": "address",
          "name": "spender",
          "type": "address"
        },
        {
          "internalType": "uint256",
          "name": "addedValue",
          "type": "uint256"
        }
      ],
      "name": "increaseAllowance",
      "outputs": [
        {
          "internalType": "bool",
          "name": "",
          "type": "bool"
        }
      ],
      "stateMutability": "nonpayable",
      "type": "function"
    },
    {
      "inputs": [
        {
          "internalType": "string",
          "name": "name_",
          "type": "string"
        },
        {
          "internalType": "string",
          "name": "symbol_",
          "type": "string"
        },
        {
          "internalType": "uint40",
          "name": "expirationPeriod_",
          "type": "uint40"
        },
        {
          "internalType": "uint256",
          "name": "liquidityRequirement_",
          "type": "uint256"
        },
        {
          "internalType": "uint256",
          "name": "maxUtilizationRate_",
          "type": "uint256"
        },
        {
          "internalType": "uint256",
          "name": "poolLoanInterestRate_",
          "type": "uint256"
        }
      ],
      "name": "initialize",
      "outputs": [],
      "stateMutability": "nonpayable",
      "type": "function"
    },
    {
      "inputs": [
        {
          "internalType": "address",
          "name": "riskModule",
          "type": "address"
        }
      ],
      "name": "isAcceptException",
      "outputs": [
        {
          "internalType": "bool",
          "name": "",
          "type": "bool"
        }
      ],
      "stateMutability": "view",
      "type": "function"
    },
    {
      "inputs": [],
      "name": "lastTweak",
      "outputs": [
        {
          "internalType": "uint40",
          "name": "",
          "type": "uint40"
        },
        {
          "internalType": "uint56",
          "name": "",
          "type": "uint56"
        }
      ],
      "stateMutability": "view",
      "type": "function"
    },
    {
      "inputs": [
        {
          "internalType": "uint256",
          "name": "amount",
          "type": "uint256"
        },
        {
          "internalType": "bool",
          "name": "fromOcean",
          "type": "bool"
        }
      ],
      "name": "lendToPool",
      "outputs": [
        {
          "internalType": "uint256",
          "name": "",
          "type": "uint256"
        }
      ],
      "stateMutability": "nonpayable",
      "type": "function"
    },
    {
      "inputs": [],
      "name": "liquidityRequirement",
      "outputs": [
        {
          "internalType": "uint256",
          "name": "",
          "type": "uint256"
        }
      ],
      "stateMutability": "view",
      "type": "function"
    },
    {
      "inputs": [
        {
          "internalType": "uint256",
          "name": "policyInterestRate",
          "type": "uint256"
        },
        {
          "internalType": "uint256",
          "name": "scrAmount",
          "type": "uint256"
        }
      ],
      "name": "lockScr",
      "outputs": [],
      "stateMutability": "nonpayable",
      "type": "function"
    },
    {
      "inputs": [],
      "name": "maxUtilizationRate",
      "outputs": [
        {
          "internalType": "uint256",
          "name": "",
          "type": "uint256"
        }
      ],
      "stateMutability": "view",
      "type": "function"
    },
    {
      "inputs": [],
      "name": "name",
      "outputs": [
        {
          "internalType": "string",
          "name": "",
          "type": "string"
        }
      ],
      "stateMutability": "view",
      "type": "function"
    },
    {
      "inputs": [],
      "name": "ocean",
      "outputs": [
        {
          "internalType": "uint256",
          "name": "",
          "type": "uint256"
        }
      ],
      "stateMutability": "view",
      "type": "function"
    },
    {
      "inputs": [],
      "name": "oceanForNewScr",
      "outputs": [
        {
          "internalType": "uint256",
          "name": "",
          "type": "uint256"
        }
      ],
      "stateMutability": "view",
      "type": "function"
    },
    {
      "inputs": [],
      "name": "pause",
      "outputs": [],
      "stateMutability": "nonpayable",
      "type": "function"
    },
    {
      "inputs": [],
      "name": "paused",
      "outputs": [
        {
          "internalType": "bool",
          "name": "",
          "type": "bool"
        }
      ],
      "stateMutability": "view",
      "type": "function"
    },
    {
      "inputs": [],
      "name": "policyPool",
      "outputs": [
        {
          "internalType": "contract IPolicyPool",
          "name": "",
          "type": "address"
        }
      ],
      "stateMutability": "view",
      "type": "function"
    },
    {
      "inputs": [],
      "name": "poolLoanInterestRate",
      "outputs": [
        {
          "internalType": "uint256",
          "name": "",
          "type": "uint256"
        }
      ],
      "stateMutability": "view",
      "type": "function"
    },
    {
      "inputs": [
        {
          "internalType": "uint256",
          "name": "amount",
          "type": "uint256"
        }
      ],
      "name": "repayPoolLoan",
      "outputs": [],
      "stateMutability": "nonpayable",
      "type": "function"
    },
    {
      "inputs": [],
      "name": "scr",
      "outputs": [
        {
          "internalType": "uint256",
          "name": "",
          "type": "uint256"
        }
      ],
      "stateMutability": "view",
      "type": "function"
    },
    {
      "inputs": [],
      "name": "scrInterestRate",
      "outputs": [
        {
          "internalType": "uint256",
          "name": "",
          "type": "uint256"
        }
      ],
      "stateMutability": "view",
      "type": "function"
    },
    {
      "inputs": [
        {
          "internalType": "bool",
          "name": "acceptAllRMs_",
          "type": "bool"
        }
      ],
      "name": "setAcceptAllRMs",
      "outputs": [],
      "stateMutability": "nonpayable",
      "type": "function"
    },
    {
      "inputs": [
        {
          "internalType": "address",
          "name": "riskModule",
          "type": "address"
        },
        {
          "internalType": "bool",
          "name": "isException",
          "type": "bool"
        }
      ],
      "name": "setAcceptException",
      "outputs": [],
      "stateMutability": "nonpayable",
      "type": "function"
    },
    {
      "inputs": [
        {
          "internalType": "uint256",
          "name": "newRate",
          "type": "uint256"
        }
      ],
      "name": "setLiquidityRequirement",
      "outputs": [],
      "stateMutability": "nonpayable",
      "type": "function"
    },
    {
      "inputs": [
        {
          "internalType": "uint256",
          "name": "newRate",
          "type": "uint256"
        }
      ],
      "name": "setMaxUtilizationRate",
      "outputs": [],
      "stateMutability": "nonpayable",
      "type": "function"
    },
    {
      "inputs": [
        {
          "internalType": "uint256",
          "name": "newRate",
          "type": "uint256"
        }
      ],
      "name": "setPoolLoanInterestRate",
      "outputs": [],
      "stateMutability": "nonpayable",
      "type": "function"
    },
    {
      "inputs": [],
      "name": "symbol",
      "outputs": [
        {
          "internalType": "string",
          "name": "",
          "type": "string"
        }
      ],
      "stateMutability": "view",
      "type": "function"
    },
    {
      "inputs": [],
      "name": "tokenInterestRate",
      "outputs": [
        {
          "internalType": "uint256",
          "name": "",
          "type": "uint256"
        }
      ],
      "stateMutability": "view",
      "type": "function"
    },
    {
      "inputs": [],
      "name": "totalSupply",
      "outputs": [
        {
          "internalType": "uint256",
          "name": "",
          "type": "uint256"
        }
      ],
      "stateMutability": "view",
      "type": "function"
    },
    {
      "inputs": [],
      "name": "totalWithdrawable",
      "outputs": [
        {
          "internalType": "uint256",
          "name": "",
          "type": "uint256"
        }
      ],
      "stateMutability": "view",
      "type": "function"
    },
    {
      "inputs": [
        {
          "internalType": "address",
          "name": "recipient",
          "type": "address"
        },
        {
          "internalType": "uint256",
          "name": "amount",
          "type": "uint256"
        }
      ],
      "name": "transfer",
      "outputs": [
        {
          "internalType": "bool",
          "name": "",
          "type": "bool"
        }
      ],
      "stateMutability": "nonpayable",
      "type": "function"
    },
    {
      "inputs": [
        {
          "internalType": "address",
          "name": "sender",
          "type": "address"
        },
        {
          "internalType": "address",
          "name": "recipient",
          "type": "address"
        },
        {
          "internalType": "uint256",
          "name": "amount",
          "type": "uint256"
        }
      ],
      "name": "transferFrom",
      "outputs": [
        {
          "internalType": "bool",
          "name": "",
          "type": "bool"
        }
      ],
      "stateMutability": "nonpayable",
      "type": "function"
    },
    {
      "inputs": [
        {
          "internalType": "uint256",
          "name": "policyInterestRate",
          "type": "uint256"
        },
        {
          "internalType": "uint256",
          "name": "scrAmount",
          "type": "uint256"
        }
      ],
      "name": "unlockScr",
      "outputs": [],
      "stateMutability": "nonpayable",
      "type": "function"
    },
    {
      "inputs": [],
      "name": "unpause",
      "outputs": [],
      "stateMutability": "nonpayable",
      "type": "function"
    },
    {
      "inputs": [
        {
          "internalType": "address",
          "name": "newImplementation",
          "type": "address"
        }
      ],
      "name": "upgradeTo",
      "outputs": [],
      "stateMutability": "nonpayable",
      "type": "function"
    },
    {
      "inputs": [
        {
          "internalType": "address",
          "name": "newImplementation",
          "type": "address"
        },
        {
          "internalType": "bytes",
          "name": "data",
          "type": "bytes"
        }
      ],
      "name": "upgradeToAndCall",
      "outputs": [],
      "stateMutability": "payable",
      "type": "function"
    },
    {
      "inputs": [],
      "name": "utilizationRate",
      "outputs": [
        {
          "internalType": "uint256",
          "name": "",
          "type": "uint256"
        }
      ],
      "stateMutability": "view",
      "type": "function"
    },
    {
      "inputs": [
        {
          "internalType": "address",
          "name": "provider",
          "type": "address"
        },
        {
          "internalType": "uint256",
          "name": "amount",
          "type": "uint256"
        }
      ],
      "name": "withdraw",
      "outputs": [
        {
          "internalType": "uint256",
          "name": "",
          "type": "uint256"
        }
      ],
      "stateMutability": "nonpayable",
      "type": "function"
    }
  ],
  "bytecode": "0x60c06040523060601b6080523480156200001857600080fd5b50604051620053b6380380620053b68339810160408190526200003b9162000051565b60601b6001600160601b03191660a05262000083565b6000602082840312156200006457600080fd5b81516001600160a01b03811681146200007c57600080fd5b9392505050565b60805160601c60a05160601c61524a6200016c6000396000818161061801528181610bab01528181610d3001528181610eae0152818161104f015281816113030152818161140001528181611580015281816115ec015281816116fd0152818161191e01528181611bdb01528181611e91015281816120640152818161216c015281816123f50152818161244e0152818161265f015281816127ab0152818161296401528181612a99015281816133a4015281816138070152818161413d015261424f0152600081816111dc0152818161121c01528181611ae40152611b24015261524a6000f3fe60806040526004361061036b5760003560e01c806365e29c7e116101c6578063a6ec335f116100f7578063bd7f6cd811610095578063e5a6b10f1161006f578063e5a6b10f146109ee578063e5ae143f14610a03578063f3fef3a314610a18578063f67b2bad14610a3857600080fd5b8063bd7f6cd814610973578063dd62ed3e14610993578063dfcb48bd146109d957600080fd5b8063ab600169116100d1578063ab600169146108fe578063ac226a8a1461091e578063b5df472e1461093e578063ba4e8df51461095e57600080fd5b8063a6ec335f146108a9578063a9059cbb146108be578063aa69d74b146108de57600080fd5b8063837c83a31161016457806393e9ddb41161013e57806393e9ddb41461083f57806395d89b411461085f5780639d90724d14610874578063a457c2d71461088957600080fd5b8063837c83a3146107ee5780638456cb591461080e5780638897cad31461082357600080fd5b8063706ad35d116101a0578063706ad35d1461076557806370a082311461078157806379d989fb146107a15780637ed5acfa146107c157600080fd5b806365e29c7e146107265780636c321c8a1461073b5780636c6f45421461075057600080fd5b80633f4ba83a116102a05780634f1ef2861161023e57806352cf2a6b1161021857806352cf2a6b146106b75780635b494dd5146106d75780635c975abb146106f957806360a92d1c1461071157600080fd5b80634f1ef286146106705780635292edc71461068357806352a2783b146106a257600080fd5b806347e7ef241161027a57806347e7ef24146105c75780634a47a3e0146105e75780634d15eb03146106095780634d87d0ac1461065057600080fd5b80633f4ba83a146105585780634438bcbb1461056d578063468a8c9f1461058d57600080fd5b806323b872dd1161030d578063313ce567116102e7578063313ce567146104d157806333487154146104f85780633659cfe614610518578063395093511461053857600080fd5b806323b872dd1461046f57806324ea54f41461048f5780633073b294146104b157600080fd5b80630f154864116103495780630f154864146103ea578063159ec2df1461042357806318160ddd146104385780631c0f4f811461044d57600080fd5b80630600a8651461037057806306fdde0314610398578063095ea7b3146103ba575b600080fd5b34801561037c57600080fd5b50610385610a6c565b6040519081526020015b60405180910390f35b3480156103a457600080fd5b506103ad610adf565b60405161038f9190614e0b565b3480156103c657600080fd5b506103da6103d5366004614bec565b610b71565b604051901515815260200161038f565b3480156103f657600080fd5b506103da610405366004614ac3565b6001600160a01b0316600090815260db602052604090205460ff1690565b34801561042f57600080fd5b5060d454610385565b34801561044457600080fd5b50610385610b88565b34801561045957600080fd5b5061046d610468366004614d34565b610ba8565b005b34801561047b57600080fd5b506103da61048a366004614b19565b610c77565b34801561049b57600080fd5b506103856000805160206151f583398151915281565b3480156104bd57600080fd5b506103856104cc366004614d66565b610d2b565b3480156104dd57600080fd5b506104e661104b565b60405160ff909116815260200161038f565b34801561050457600080fd5b506103da610513366004614c18565b61114e565b34801561052457600080fd5b5061046d610533366004614ac3565b6111d1565b34801561054457600080fd5b506103da610553366004614bec565b61129a565b34801561056457600080fd5b5061046d6112d1565b34801561057957600080fd5b5061046d610588366004614d8b565b6113fd565b34801561059957600080fd5b5060c9546040805164ffffffffff83168152600160281b90920466ffffffffffffff1660208301520161038f565b3480156105d357600080fd5b506103856105e2366004614bec565b61157b565b3480156105f357600080fd5b506103856000805160206151d583398151915281565b34801561061557600080fd5b507f00000000000000000000000000000000000000000000000000000000000000005b6040516001600160a01b03909116815260200161038f565b34801561065c57600080fd5b5061046d61066b366004614d34565b6118fe565b61046d61067e366004614b88565b611ad9565b34801561068f57600080fd5b5060da54600160281b900460ff166103da565b3480156106ae57600080fd5b50610385611b8f565b3480156106c357600080fd5b5061046d6106d2366004614d34565b611bbb565b3480156106e357600080fd5b5061038560008051602061518e83398151915281565b34801561070557600080fd5b5060975460ff166103da565b34801561071d57600080fd5b5060d854610385565b34801561073257600080fd5b50610385611d88565b34801561074757600080fd5b50610385611db1565b34801561075c57600080fd5b5060d254610385565b34801561077157600080fd5b5061038567016345785d8a000081565b34801561078d57600080fd5b5061038561079c366004614ac3565b611e33565b3480156107ad57600080fd5b506103856107bc366004614c4d565b611e71565b3480156107cd57600080fd5b506107d86201518081565b60405164ffffffffff909116815260200161038f565b3480156107fa57600080fd5b5061046d610809366004614d8b565b611e8e565b34801561081a57600080fd5b5061046d612053565b34801561082f57600080fd5b5060cf5464ffffffffff166107d8565b34801561084b57600080fd5b5061046d61085a366004614c4d565b61215b565b34801561086b57600080fd5b506103ad61229b565b34801561088057600080fd5b5060d354610385565b34801561089557600080fd5b506103da6108a4366004614bec565b6122aa565b3480156108b557600080fd5b50610385612346565b3480156108ca57600080fd5b506103da6108d9366004614bec565b6123e5565b3480156108ea57600080fd5b5061046d6108f9366004614d66565b6123f2565b34801561090a57600080fd5b5061046d610919366004614d66565b61244c565b34801561092a57600080fd5b5061046d610939366004614ca4565b6125c6565b34801561094a57600080fd5b5061046d610959366004614b5a565b61264e565b34801561096a57600080fd5b5060d554610385565b34801561097f57600080fd5b5061046d61098e366004614d34565b61278b565b34801561099f57600080fd5b506103856109ae366004614ae0565b6001600160a01b03918216600090815260cb6020908152604080832093909416825291909152205490565b3480156109e557600080fd5b5060d654610385565b3480156109fa57600080fd5b50610638612960565b348015610a0f57600080fd5b506103856129f3565b348015610a2457600080fd5b50610385610a33366004614bec565b612a94565b348015610a4457600080fd5b506103857fbf372ca3ebecfe59ac256f17697941bbe63302aced610e8b0e3646f743c7beb281565b600080610ab0610aab60d554610aa560d354610a90676765c793fa10079d601b1b90565b610a9a9190614fdb565b610aa560d254612b74565b90612bf2565b612cc9565b90506000610abc610b88565b9050818110610ad657610acf828261505d565b9250505090565b60009250505090565b606060cd8054610aee906150ed565b80601f0160208091040260200160405190810160405280929190818152602001828054610b1a906150ed565b8015610b675780601f10610b3c57610100808354040283529160200191610b67565b820191906000526020600020905b815481529060010190602001808311610b4a57829003601f168201915b5050505050905090565b6000610b7e338484612d51565b5060015b92915050565b6000610ba3610aab610b98612e79565b610aa560cc54612b74565b905090565b337f00000000000000000000000000000000000000000000000000000000000000006001600160a01b031614610bf95760405162461bcd60e51b8152600401610bf090614f4e565b60405180910390fd5b610c01612ef0565b610c2b610aab60d954610c2584610c16611b8f565b610c20919061505d565b612b74565b90612f2b565b60d755610c36613031565b610c41816001613095565b6040518181527fa222d62c2f9d6477588b0ac3ff7d73534b85c9382fbc1393aa5fbfd01f444f7e9060200160405180910390a150565b6000610c84848484613114565b6001600160a01b038416600090815260cb6020908152604080832033845290915290205482811015610d0a5760405162461bcd60e51b815260206004820152602960248201527f45546f6b656e3a207472616e7366657220616d6f756e74206578636565647320604482015268616c6c6f77616e636560b81b6064820152608401610bf0565b610d1e8533610d19868561505d565b612d51565b60019150505b9392505050565b6000337f00000000000000000000000000000000000000000000000000000000000000006001600160a01b031614610d755760405162461bcd60e51b8152600401610bf090614f4e565b818015610d885750610d85612346565b83115b15610d9857610d95612346565b92505b81158015610dac5750610da9610b88565b83115b15610dbc57610db9610b88565b92505b610dc4613308565b831115610de157610dd3613308565b925082610de1575081610b82565b60d754610e185760d7839055676765c793fa10079d601b1b60d95560da805464ffffffffff19164264ffffffffff16179055610e49565b610e20612ef0565b610e32610aab60d954610c2586612b74565b60d76000828254610e439190614fdb565b90915550505b610e51613031565b610e5c836000613095565b6040518381527f3790a165ff2f50e94c75a18cb0e6c4051982eb91429bf8df117c046eb19c07cc9060200160405180910390a181158015610ea55750610ea0610b88565b60d254115b156110445760007f00000000000000000000000000000000000000000000000000000000000000006001600160a01b03166379502c556040518163ffffffff1660e01b815260040160206040518083038186803b158015610f0557600080fd5b505afa158015610f19573d6000803e3d6000fd5b505050506040513d601f19601f82011682018060405250810190610f3d9190614c87565b6001600160a01b0316631455cd286040518163ffffffff1660e01b815260040160206040518083038186803b158015610f7557600080fd5b505afa158015610f89573d6000803e3d6000fd5b505050506040513d601f19601f82011682018060405250810190610fad9190614c87565b90506001600160a01b0381161561104257806001600160a01b0316639950de5030610fd6610b88565b60d254610fe3919061505d565b6040516001600160e01b031960e085901b1681526001600160a01b0390921660048301526024820152604401600060405180830381600087803b15801561102957600080fd5b505af115801561103d573d6000803e3d6000fd5b505050505b505b5090919050565b60007f00000000000000000000000000000000000000000000000000000000000000006001600160a01b031663e5a6b10f6040518163ffffffff1660e01b815260040160206040518083038186803b1580156110a657600080fd5b505afa1580156110ba573d6000803e3d6000fd5b505050506040513d601f19601f820116820180604052508101906110de9190614c87565b6001600160a01b031663313ce5676040518163ffffffff1660e01b815260040160206040518083038186803b15801561111657600080fd5b505afa15801561112a573d6000803e3d6000fd5b505050506040513d601f19601f82011682018060405250810190610ba39190614dad565b600061115c60975460ff1690565b1561116957506000610b82565b6001600160a01b038316600090815260db602052604090205460da54600160281b900460ff90811615159116151514156111a557506000610b82565b60cf546111b99064ffffffffff1642614ff3565b64ffffffffff168264ffffffffff1610905092915050565b306001600160a01b037f000000000000000000000000000000000000000000000000000000000000000016141561121a5760405162461bcd60e51b8152600401610bf090614e3e565b7f00000000000000000000000000000000000000000000000000000000000000006001600160a01b031661124c613344565b6001600160a01b0316146112725760405162461bcd60e51b8152600401610bf090614e8a565b61127b81613372565b604080516000808252602082019092526112979183919061348e565b50565b33600081815260cb602090815260408083206001600160a01b03871684529091528120549091610b7e918590610d19908690614fdb565b6000805160206151f58339815191527fbf372ca3ebecfe59ac256f17697941bbe63302aced610e8b0e3646f743c7beb27f00000000000000000000000000000000000000000000000000000000000000006001600160a01b03166379502c556040518163ffffffff1660e01b815260040160206040518083038186803b15801561135a57600080fd5b505afa15801561136e573d6000803e3d6000fd5b505050506040513d601f19601f820116820180604052508101906113929190614c87565b6001600160a01b031663c5b8f5cf8383336040518463ffffffff1660e01b81526004016113c193929190614dec565b60006040518083038186803b1580156113d957600080fd5b505afa1580156113ed573d6000803e3d6000fd5b505050506113f96135d9565b5050565b337f00000000000000000000000000000000000000000000000000000000000000006001600160a01b0316146114455760405162461bcd60e51b8152600401610bf090614f4e565b60d2548111156114b35760405162461bcd60e51b815260206004820152603360248201527f43757272656e7420534352206c657373207468616e2074686520616d6f756e7460448201527220796f752077616e7420746f20756e6c6f636b60681b6064820152608401610bf0565b6114bb613031565b8060d25414156114d457600060d281905560d355611539565b60006114e160d254612b74565b90508160d260008282546114f5919061505d565b9250508190555061153461150a60d254612b74565b61151d61151685612b74565b8690612bf2565b60d35461152a9085612bf2565b610c25919061505d565b60d355505b60408051838152602081018390527f7b9d63ccbb37347ce0fe73e3663c640d22364d8c733839777f1729e59af1967f91015b60405180910390a16113f961366c565b6000337f00000000000000000000000000000000000000000000000000000000000000006001600160a01b0316146115c55760405162461bcd60e51b8152600401610bf090614f4e565b60975460ff16156115e85760405162461bcd60e51b8152600401610bf090614ed6565b60007f00000000000000000000000000000000000000000000000000000000000000006001600160a01b03166379502c556040518163ffffffff1660e01b815260040160206040518083038186803b15801561164357600080fd5b505afa158015611657573d6000803e3d6000fd5b505050506040513d601f19601f8201168201806040525081019061167b9190614c87565b6001600160a01b03166363b12da86040518163ffffffff1660e01b815260040160206040518083038186803b1580156116b357600080fd5b505afa1580156116c7573d6000803e3d6000fd5b505050506040513d601f19601f820116820180604052508101906116eb9190614c87565b6001600160a01b0316148061188457507f00000000000000000000000000000000000000000000000000000000000000006001600160a01b03166379502c556040518163ffffffff1660e01b815260040160206040518083038186803b15801561175457600080fd5b505afa158015611768573d6000803e3d6000fd5b505050506040513d601f19601f8201168201806040525081019061178c9190614c87565b6001600160a01b03166363b12da86040518163ffffffff1660e01b815260040160206040518083038186803b1580156117c457600080fd5b505afa1580156117d8573d6000803e3d6000fd5b505050506040513d601f19601f820116820180604052508101906117fc9190614c87565b6040516337ee20dd60e01b81523060048201526001600160a01b0385811660248301526044820185905291909116906337ee20dd9060640160206040518083038186803b15801561184c57600080fd5b505afa158015611860573d6000803e3d6000fd5b505050506040513d601f19601f820116820180604052508101906118849190614c6a565b6118db5760405162461bcd60e51b815260206004820152602260248201527f4c69717569646974792050726f7669646572206e6f742077686974656c697374604482015261195960f21b6064820152608401610bf0565b6118e3613031565b6118ed8383613712565b6118f561366c565b610d2483611e33565b6000805160206151d583398151915260008051602061518e8339815191527f00000000000000000000000000000000000000000000000000000000000000006001600160a01b03166379502c556040518163ffffffff1660e01b815260040160206040518083038186803b15801561197557600080fd5b505afa158015611989573d6000803e3d6000fd5b505050506040513d601f19601f820116820180604052508101906119ad9190614c87565b6001600160a01b031663c5b8f5cf8383336040518463ffffffff1660e01b81526004016119dc93929190614dec565b60006040518083038186803b1580156119f457600080fd5b505afa158015611a08573d6000803e3d6000fd5b505050506000611a256000805160206151d5833981519152613803565b159050801580611a485750611a4860d554856a52b7d2dcc80cd2e4000000613916565b611aba5760405162461bcd60e51b815260206004820152603a60248201527f547765616b2065786365656465643a206c69717569646974795265717569726560448201527f6d656e7420747765616b73206f6e6c7920757020746f203130250000000000006064820152608401610bf0565b60d5849055611acb601085836139a1565b50611ad46139fa565b505050565b306001600160a01b037f0000000000000000000000000000000000000000000000000000000000000000161415611b225760405162461bcd60e51b8152600401610bf090614e3e565b7f00000000000000000000000000000000000000000000000000000000000000006001600160a01b0316611b54613344565b6001600160a01b031614611b7a5760405162461bcd60e51b8152600401610bf090614e8a565b611b8382613372565b6113f98282600161348e565b600060d75460001415611ba25750600090565b610ba3610aab611bb0613b95565b610aa560d754612b74565b6000805160206151d583398151915260008051602061518e8339815191527f00000000000000000000000000000000000000000000000000000000000000006001600160a01b03166379502c556040518163ffffffff1660e01b815260040160206040518083038186803b158015611c3257600080fd5b505afa158015611c46573d6000803e3d6000fd5b505050506040513d601f19601f82011682018060405250810190611c6a9190614c87565b6001600160a01b031663c5b8f5cf8383336040518463ffffffff1660e01b8152600401611c9993929190614dec565b60006040518083038186803b158015611cb157600080fd5b505afa158015611cc5573d6000803e3d6000fd5b505050506000611ce26000805160206151d5833981519152613803565b159050801580611d055750611d0560d654856af8277896582678ac000000613916565b611d775760405162461bcd60e51b815260206004820152603860248201527f547765616b2065786365656465643a206d61785574696c697a6174696f6e526160448201527f746520747765616b73206f6e6c7920757020746f2033302500000000000000006064820152608401610bf0565b60d6849055611acb601185836139a1565b6000611d92611b8f565b611d9a612346565b60d254611da79190614fdb565b610ba39190614fdb565b6000610ba3610c20306001600160a01b03166318160ddd6040518163ffffffff1660e01b815260040160206040518083038186803b158015611df257600080fd5b505afa158015611e06573d6000803e3d6000fd5b505050506040513d601f19601f82011682018060405250810190611e2a9190614d4d565b60d25490613c0c565b6001600160a01b038116600090815260ca602052604081205480611e5a5750600092915050565b610d24610aab611e68612e79565b610aa584612b74565b60008115611e8157610b82612e79565b505060d05490565b919050565b337f00000000000000000000000000000000000000000000000000000000000000006001600160a01b031614611ed65760405162461bcd60e51b8152600401610bf090614f4e565b306001600160a01b031663a6ec335f6040518163ffffffff1660e01b815260040160206040518083038186803b158015611f0f57600080fd5b505afa158015611f23573d6000803e3d6000fd5b505050506040513d601f19601f82011682018060405250810190611f479190614d4d565b811115611fa15760405162461bcd60e51b815260206004820152602260248201527f4e6f7420656e6f75676874204f4345414e20746f20636f76657220746865205360448201526121a960f11b6064820152608401610bf0565b611fa9613031565b60d254611fbf5760d281905560d382905561201d565b6000611fcc60d254612b74565b90508160d26000828254611fe09190614fdb565b92505081905550612018611ff560d254612b74565b61200161151685612b74565b60d35461200e9085612bf2565b610c259190614fdb565b60d355505b60408051838152602081018390527f333478c2835efe2f226b0d334f71bdf18c977621845f20d21fff75321fc8ab27910161156b565b6000805160206151f58339815191527f00000000000000000000000000000000000000000000000000000000000000006001600160a01b03166379502c556040518163ffffffff1660e01b815260040160206040518083038186803b1580156120bb57600080fd5b505afa1580156120cf573d6000803e3d6000fd5b505050506040513d601f19601f820116820180604052508101906120f39190614c87565b6040516312d9a6ad60e01b8152600481018390523360248201526001600160a01b0391909116906312d9a6ad9060440160006040518083038186803b15801561213b57600080fd5b505afa15801561214f573d6000803e3d6000fd5b50505050611297613cf8565b6000805160206151d58339815191527f00000000000000000000000000000000000000000000000000000000000000006001600160a01b03166379502c556040518163ffffffff1660e01b815260040160206040518083038186803b1580156121c357600080fd5b505afa1580156121d7573d6000803e3d6000fd5b505050506040513d601f19601f820116820180604052508101906121fb9190614c87565b6040516312d9a6ad60e01b8152600481018390523360248201526001600160a01b0391909116906312d9a6ad9060440160006040518083038186803b15801561224357600080fd5b505afa158015612257573d6000803e3d6000fd5b505060da805465ff00000000001916600160281b86151502179055506122939050601983612286576000612289565b60015b60ff1660006139a1565b6113f96139fa565b606060ce8054610aee906150ed565b33600090815260cb602090815260408083206001600160a01b03861684529091528120548281101561232d5760405162461bcd60e51b815260206004820152602660248201527f45546f6b656e3a2064656372656173656420616c6c6f77616e63652062656c6f60448201526577207a65726f60d01b6064820152608401610bf0565b61233c3385610d19868561505d565b5060019392505050565b600080306001600160a01b03166318160ddd6040518163ffffffff1660e01b815260040160206040518083038186803b15801561238257600080fd5b505afa158015612396573d6000803e3d6000fd5b505050506040513d601f19601f820116820180604052508101906123ba9190614d4d565b905060d2548111156123d95760d2546123d3908261505d565b91505090565b600091505090565b5090565b6000610b7e338484613114565b337f00000000000000000000000000000000000000000000000000000000000000006001600160a01b03161461243a5760405162461bcd60e51b8152600401610bf090614f4e565b612442613031565b6113f98282613095565b7f00000000000000000000000000000000000000000000000000000000000000006001600160a01b03166379502c556040518163ffffffff1660e01b815260040160206040518083038186803b1580156124a557600080fd5b505afa1580156124b9573d6000803e3d6000fd5b505050506040513d601f19601f820116820180604052508101906124dd9190614c87565b6001600160a01b03166394217ad16040518163ffffffff1660e01b815260040160206040518083038186803b15801561251557600080fd5b505afa158015612529573d6000803e3d6000fd5b505050506040513d601f19601f8201168201806040525081019061254d9190614c87565b6001600160a01b0316336001600160a01b03161461243a5760405162461bcd60e51b815260206004820152603060248201527f5468652063616c6c6572206d7573742062652074686520506f6c696379506f6f60448201526f3613b99020b9b9b2ba26b0b730b3b2b960811b6064820152608401610bf0565b600054610100900460ff16806125df575060005460ff16155b6125fb5760405162461bcd60e51b8152600401610bf090614f00565b600054610100900460ff1615801561261d576000805461ffff19166101011790555b612625613d50565b612633878787878787613dcb565b8015612645576000805461ff00191690555b50505050505050565b6000805160206151d58339815191527f00000000000000000000000000000000000000000000000000000000000000006001600160a01b03166379502c556040518163ffffffff1660e01b815260040160206040518083038186803b1580156126b657600080fd5b505afa1580156126ca573d6000803e3d6000fd5b505050506040513d601f19601f820116820180604052508101906126ee9190614c87565b6040516312d9a6ad60e01b8152600481018390523360248201526001600160a01b0391909116906312d9a6ad9060440160006040518083038186803b15801561273657600080fd5b505afa15801561274a573d6000803e3d6000fd5b505050506001600160a01b038316600081815260db60205260409020805460ff19168415151790558261277e57600160ff1b175b611acb601a8260006139a1565b6000805160206151d583398151915260008051602061518e8339815191527f00000000000000000000000000000000000000000000000000000000000000006001600160a01b03166379502c556040518163ffffffff1660e01b815260040160206040518083038186803b15801561280257600080fd5b505afa158015612816573d6000803e3d6000fd5b505050506040513d601f19601f8201168201806040525081019061283a9190614c87565b6001600160a01b031663c5b8f5cf8383336040518463ffffffff1660e01b815260040161286993929190614dec565b60006040518083038186803b15801561288157600080fd5b505afa158015612895573d6000803e3d6000fd5b5050505060006128b26000805160206151d5833981519152613803565b1590508015806128d557506128d560d854856af8277896582678ac000000613916565b6129475760405162461bcd60e51b815260206004820152603a60248201527f547765616b2065786365656465643a20706f6f6c4c6f616e496e74657265737460448201527f5261746520747765616b73206f6e6c7920757020746f203330250000000000006064820152608401610bf0565b61294f612ef0565b60d8849055611acb601285836139a1565b60007f00000000000000000000000000000000000000000000000000000000000000006001600160a01b031663e5a6b10f6040518163ffffffff1660e01b815260040160206040518083038186803b1580156129bb57600080fd5b505afa1580156129cf573d6000803e3d6000fd5b505050506040513d601f19601f82011682018060405250810190610ba39190614c87565b600080306001600160a01b03166318160ddd6040518163ffffffff1660e01b815260040160206040518083038186803b158015612a2f57600080fd5b505afa158015612a43573d6000803e3d6000fd5b505050506040513d601f19601f82011682018060405250810190612a679190614d4d565b905060d2548111156123d9576123d3612a8160d654612cc9565b60d254612a8e908461505d565b90613eef565b6000337f00000000000000000000000000000000000000000000000000000000000000006001600160a01b031614612ade5760405162461bcd60e51b8152600401610bf090614f4e565b60975460ff1615612b015760405162461bcd60e51b8152600401610bf090614ed6565b612b09613031565b6000612b1484611e33565b905080612b25576000915050610b82565b80831115612b31578092505b6000612b3b610a6c565b905080841115612b49578093505b83612b5957600092505050610b82565b612b638585613fa2565b612b6b61366c565b50919392505050565b600080612b85633b9aca008461503e565b905082612b96633b9aca008361501c565b14610b825760405162461bcd60e51b815260206004820152602660248201527f776164546f5261643a204d617468204d756c7469706c69636174696f6e204f766044820152656572666c6f7760d01b6064820152608401610bf0565b6000821580612bff575081155b15612c0c57506000610b82565b81612c236002676765c793fa10079d601b1b61501c565b612c2f9060001961505d565b612c39919061501c565b831115612c945760405162461bcd60e51b8152602060048201526024808201527f7261794d756c3a204d617468204d756c7469706c69636174696f6e204f766572604482015263666c6f7760e01b6064820152608401610bf0565b676765c793fa10079d601b1b612cab60028261501c565b612cb5848661503e565b612cbf9190614fdb565b610d24919061501c565b600080612cdb6002633b9aca0061501c565b90506000612ce98483614fdb565b905081811015612d3b5760405162461bcd60e51b815260206004820181905260248201527f726179546f5761643a204d617468204164646974696f6e204f766572666c6f776044820152606401610bf0565b612d49633b9aca008261501c565b949350505050565b6001600160a01b038316612db55760405162461bcd60e51b815260206004820152602560248201527f45546f6b656e3a20617070726f76652066726f6d20746865207a65726f206164604482015264647265737360d81b6064820152608401610bf0565b6001600160a01b038216612e175760405162461bcd60e51b815260206004820152602360248201527f45546f6b656e3a20617070726f766520746f20746865207a65726f206164647260448201526265737360e81b6064820152608401610bf0565b6001600160a01b03838116600081815260cb602090815260408083209487168084529482529182902085905590518481527f8c5be1e5ebec7d5bd14f71427d1e84f3dd0314c0f7b2291e5b200ac8c7c3b92591015b60405180910390a3505050565b60d15460009064ffffffffff9081164290911611612e98575060d05490565b60d154600090612eaf9064ffffffffff164261505d565b90506123d3676765c793fa10079d601b1b6301e133808360d454612ed3919061503e565b612edd919061501c565b612ee79190614fdb565b60d05490612bf2565b60da544264ffffffffff90811691161415612f0757565b612f0f613b95565b60d95560da805464ffffffffff19164264ffffffffff16179055565b600081612f7a5760405162461bcd60e51b815260206004820152601860248201527f7261794469763a204469766973696f6e206279207a65726f00000000000000006044820152606401610bf0565b6000612f8760028461501c565b9050676765c793fa10079d601b1b612fa18260001961505d565b612fab919061501c565b8411156130065760405162461bcd60e51b8152602060048201526024808201527f7261794469763a204d617468204d756c7469706c69636174696f6e204f766572604482015263666c6f7760e01b6064820152608401610bf0565b828161301d676765c793fa10079d601b1b8761503e565b6130279190614fdb565b612d49919061501c565b60d1544264ffffffffff9081169116141561304857565b613050612e79565b60d081905567016345785d8a0000111561307c5760405162461bcd60e51b8152600401610bf090614f8f565b60d1805464ffffffffff19164264ffffffffff16179055565b6000816130b457826130a5610b88565b6130af919061505d565b6130c7565b826130bd610b88565b6130c79190614fdb565b90506130e06130d760cc54612b74565b610c2583612b74565b60d081905567016345785d8a0000111561310c5760405162461bcd60e51b8152600401610bf090614f8f565b611ad461366c565b6001600160a01b0383166131795760405162461bcd60e51b815260206004820152602660248201527f45546f6b656e3a207472616e736665722066726f6d20746865207a65726f206160448201526564647265737360d01b6064820152608401610bf0565b6001600160a01b0382166131db5760405162461bcd60e51b8152602060048201526024808201527f45546f6b656e3a207472616e7366657220746f20746865207a65726f206164646044820152637265737360e01b6064820152608401610bf0565b6131e6838383614116565b60006131f182614450565b6001600160a01b038516600090815260ca60205260409020549091508181101561326d5760405162461bcd60e51b815260206004820152602760248201527f45546f6b656e3a207472616e7366657220616d6f756e7420657863656564732060448201526662616c616e636560c81b6064820152608401610bf0565b613277828261505d565b6001600160a01b03808716600090815260ca602052604080822093909355908616815290812080548492906132ad908490614fdb565b92505081905550836001600160a01b0316856001600160a01b03167fddf252ad1be2c89b69c2b068fc378daa952ba7f163c4a11628f55a4df523b3ef856040516132f991815260200190565b60405180910390a35050505050565b600080613313610b88565b90506000613330610aab610b9867016345785d8a0000600a61503e565b905080821115610ad657610acf818361505d565b7f360894a13ba1a3210667c828492db98dca3e2076cc3735a920a3ca505d382bbc546001600160a01b031690565b6000805160206151f58339815191527fbf372ca3ebecfe59ac256f17697941bbe63302aced610e8b0e3646f743c7beb27f00000000000000000000000000000000000000000000000000000000000000006001600160a01b03166379502c556040518163ffffffff1660e01b815260040160206040518083038186803b1580156133fb57600080fd5b505afa15801561340f573d6000803e3d6000fd5b505050506040513d601f19601f820116820180604052508101906134339190614c87565b6001600160a01b031663c5b8f5cf8383336040518463ffffffff1660e01b815260040161346293929190614dec565b60006040518083038186803b15801561347a57600080fd5b505afa158015612645573d6000803e3d6000fd5b6000613498613344565b90506134a384614469565b6000835111806134b05750815b156134c1576134bf848461450e565b505b7f4910fdfa16fed3260ed0e7147f7cc6da11a60208b5b9406d12a635614ffd9143805460ff166135d257805460ff191660011781556040516001600160a01b038316602482015261354090869060440160408051601f198184030181529190526020810180516001600160e01b0316631b2ce7f360e11b17905261450e565b50805460ff19168155613551613344565b6001600160a01b0316826001600160a01b0316146135c95760405162461bcd60e51b815260206004820152602f60248201527f45524331393637557067726164653a207570677261646520627265616b73206660448201526e75727468657220757067726164657360881b6064820152608401610bf0565b6135d2856145f9565b5050505050565b60975460ff166136225760405162461bcd60e51b815260206004820152601460248201527314185d5cd8589b194e881b9bdd081c185d5cd95960621b6044820152606401610bf0565b6097805460ff191690557f5db9ee0a495bf2e6ff9c91a7834c1ba4fdd244a5e8aa4e537bd38aeae4b073aa335b6040516001600160a01b03909116815260200160405180910390a1565b60006136e2306001600160a01b03166318160ddd6040518163ffffffff1660e01b815260040160206040518083038186803b1580156136aa57600080fd5b505afa1580156136be573d6000803e3d6000fd5b505050506040513d601f19601f82011682018060405250810190610c209190614d4d565b9050806136f157600060d45550565b61370c81610c2561370360d254612b74565b60d35490612bf2565b60d45550565b6001600160a01b0382166137685760405162461bcd60e51b815260206004820181905260248201527f45546f6b656e3a206d696e7420746f20746865207a65726f20616464726573736044820152606401610bf0565b61377460008383614116565b600061377f82614450565b90508060cc60008282546137939190614fdb565b90915550506001600160a01b038316600090815260ca6020526040812080548392906137c0908490614fdb565b90915550506040518281526001600160a01b038416906000907fddf252ad1be2c89b69c2b068fc378daa952ba7f163c4a11628f55a4df523b3ef90602001612e6c565b60007f00000000000000000000000000000000000000000000000000000000000000006001600160a01b03166379502c556040518163ffffffff1660e01b815260040160206040518083038186803b15801561385e57600080fd5b505afa158015613872573d6000803e3d6000fd5b505050506040513d601f19601f820116820180604052508101906138969190614c87565b604051632474521560e21b8152600481018490523360248201526001600160a01b0391909116906391d148549060440160206040518083038186803b1580156138de57600080fd5b505afa1580156138f2573d6000803e3d6000fd5b505050506040513d601f19601f82011682018060405250810190610b829190614c6a565b60008284141561392857506001610d24565b836139425750676765c793fa10079d601b1b811015610d24565b8261394f57506000610d24565b828410156139815781676765c793fa10079d601b1b61396e8587612f2b565b613978919061505d565b11159050610d24565b8161398c8486612f2b565b61397890676765c793fa10079d601b1b61505d565b80156139b0576139b083614639565b82601b8111156139c2576139c261513e565b6040518381527f7bc647fe5043209e2019aa3503b79c1b0dd83eb61c56013d373a7584ff6bfb139060200160405180910390a2505050565b6b0295be96e64066972000000060d55410158015613a2657506b043355b53628a6b59400000060d55411155b613a8e5760405162461bcd60e51b815260206004820152603360248201527f56616c69646174696f6e3a206c6971756964697479526571756972656d656e74604482015272206d757374206265205b302e382c20312e335d60681b6064820152608401610bf0565b6b019d971e4fe8401e7400000060d65410158015613ab95750676765c793fa10079d601b1b60d65411155b613b1d5760405162461bcd60e51b815260206004820152602f60248201527f56616c69646174696f6e3a206d61785574696c697a6174696f6e52617465206d60448201526e757374206265205b302e352c20315d60881b6064820152608401610bf0565b6b019d971e4fe8401e7400000060d8541115613b935760405162461bcd60e51b815260206004820152602f60248201527f56616c69646174696f6e3a20706f6f6c4c6f616e496e7465726573745261746560448201526e206d757374206265203c3d2035302560881b6064820152608401610bf0565b565b60da5460009064ffffffffff9081164290911611613bb4575060d95490565b60da54600090613bcb9064ffffffffff164261505d565b90506123d3676765c793fa10079d601b1b6301e133808360d854613bef919061503e565b613bf9919061501c565b613c039190614fdb565b60d95490612bf2565b600081613c5b5760405162461bcd60e51b815260206004820152601860248201527f7761644469763a204469766973696f6e206279207a65726f00000000000000006044820152606401610bf0565b6000613c6860028461501c565b9050670de0b6b3a7640000613c7f8260001961505d565b613c89919061501c565b841115613ce45760405162461bcd60e51b8152602060048201526024808201527f7761644469763a204d617468204d756c7469706c69636174696f6e204f766572604482015263666c6f7760e01b6064820152608401610bf0565b828161301d670de0b6b3a76400008761503e565b60975460ff1615613d1b5760405162461bcd60e51b8152600401610bf090614ed6565b6097805460ff191660011790557f62e78cea01bee320cd4e420270b5ea74000d11b0c9f74754ebdbfc544b05a25861364f3390565b600054610100900460ff1680613d69575060005460ff16155b613d855760405162461bcd60e51b8152600401610bf090614f00565b600054610100900460ff16158015613da7576000805461ffff19166101011790555b613daf6147a2565b613db7614809565b8015611297576000805461ff001916905550565b600054610100900460ff1680613de4575060005460ff16155b613e005760405162461bcd60e51b8152600401610bf090614f00565b600054610100900460ff16158015613e22576000805461ffff19166101011790555b8651613e359060cd9060208a0190614988565b508551613e499060ce906020890190614988565b5060cf805464ffffffffff191664ffffffffff8716179055676765c793fa10079d601b1b60d05560d1805464ffffffffff19164264ffffffffff16179055600060d281905560d381905560d481905560d585905560d684905560da8054600160281b65ff00000000001990911617905560d75560d8829055676765c793fa10079d601b1b60d95560da805464ffffffffff19164264ffffffffff161790556126336139fa565b6000821580613efc575081155b15613f0957506000610b82565b81613f1d6002670de0b6b3a764000061501c565b613f299060001961505d565b613f33919061501c565b831115613f8e5760405162461bcd60e51b8152602060048201526024808201527f7761644d756c3a204d617468204d756c7469706c69636174696f6e204f766572604482015263666c6f7760e01b6064820152608401610bf0565b670de0b6b3a7640000612cab60028261501c565b6001600160a01b0382166140035760405162461bcd60e51b815260206004820152602260248201527f45546f6b656e3a206275726e2066726f6d20746865207a65726f206164647265604482015261737360f01b6064820152608401610bf0565b61400f82600083614116565b600061401a82614450565b6001600160a01b038416600090815260ca6020526040902054909150818110156140925760405162461bcd60e51b815260206004820152602360248201527f45546f6b656e3a206275726e20616d6f756e7420657863656564732062616c616044820152626e636560e81b6064820152608401610bf0565b61409c828261505d565b6001600160a01b038516600090815260ca602052604081209190915560cc80548492906140ca90849061505d565b90915550506040518381526000906001600160a01b038616907fddf252ad1be2c89b69c2b068fc378daa952ba7f163c4a11628f55a4df523b3ef9060200160405180910390a350505050565b6001600160a01b038316158061413357506001600160a01b038216155b80614247575060007f00000000000000000000000000000000000000000000000000000000000000006001600160a01b03166379502c556040518163ffffffff1660e01b815260040160206040518083038186803b15801561419457600080fd5b505afa1580156141a8573d6000803e3d6000fd5b505050506040513d601f19601f820116820180604052508101906141cc9190614c87565b6001600160a01b03166363b12da86040518163ffffffff1660e01b815260040160206040518083038186803b15801561420457600080fd5b505afa158015614218573d6000803e3d6000fd5b505050506040513d601f19601f8201168201806040525081019061423c9190614c87565b6001600160a01b0316145b806143de57507f00000000000000000000000000000000000000000000000000000000000000006001600160a01b03166379502c556040518163ffffffff1660e01b815260040160206040518083038186803b1580156142a657600080fd5b505afa1580156142ba573d6000803e3d6000fd5b505050506040513d601f19601f820116820180604052508101906142de9190614c87565b6001600160a01b03166363b12da86040518163ffffffff1660e01b815260040160206040518083038186803b15801561431657600080fd5b505afa15801561432a573d6000803e3d6000fd5b505050506040513d601f19601f8201168201806040525081019061434e9190614c87565b604051635fcdca3760e01b81523060048201526001600160a01b0385811660248301528481166044830152606482018490529190911690635fcdca379060840160206040518083038186803b1580156143a657600080fd5b505afa1580156143ba573d6000803e3d6000fd5b505050506040513d601f19601f820116820180604052508101906143de9190614c6a565b611ad45760405162461bcd60e51b815260206004820152603960248201527f5472616e73666572206e6f7420616c6c6f776564202d204c697175696469747960448201527f2050726f7669646572206e6f742077686974656c6973746564000000000000006064820152608401610bf0565b6000610b82610aab614460612e79565b610c2585612b74565b803b6144cd5760405162461bcd60e51b815260206004820152602d60248201527f455243313936373a206e657720696d706c656d656e746174696f6e206973206e60448201526c1bdd08184818dbdb9d1c9858dd609a1b6064820152608401610bf0565b7f360894a13ba1a3210667c828492db98dca3e2076cc3735a920a3ca505d382bbc80546001600160a01b0319166001600160a01b0392909216919091179055565b6060823b61456d5760405162461bcd60e51b815260206004820152602660248201527f416464726573733a2064656c65676174652063616c6c20746f206e6f6e2d636f6044820152651b9d1c9858dd60d21b6064820152608401610bf0565b600080846001600160a01b0316846040516145889190614dd0565b600060405180830381855af49150503d80600081146145c3576040519150601f19603f3d011682016040523d82523d6000602084013e6145c8565b606091505b50915091506145f082826040518060600160405280602781526020016151ae60279139614870565b95945050505050565b61460281614469565b6040516001600160a01b038216907fbc7cd75a20ee27fd9adebab32041f755214dbc6bffa90cc0225b39da2e5c2d3b90600090a250565b6000600182601b81111561464f5761464f61513e565b614659919061509a565b60c954600160ff929092169190911b915062015180906146809064ffffffffff1642615074565b64ffffffffff1611156146c25760c9805466ffffffffffffff8316600160281b026bffffffffffffffffffffffff1990911664ffffffffff4216171790555050565b60c954600160281b9004811666ffffffffffffff166147245760c9805464ffffffffff421664ffffffffff1966ffffffffffffff808616600160281b808604929092161702166bffffffffffffffffffffffff19909216919091171790555050565b60405162461bcd60e51b815260206004820152604760248201527f596f7520616c726561647920747765616b6564207468697320706172616d657460448201527f657220726563656e746c792e2057616974206265666f726520747765616b696e606482015266339030b3b0b4b760c91b608482015260a401610bf0565b600054610100900460ff16806147bb575060005460ff16155b6147d75760405162461bcd60e51b8152600401610bf090614f00565b600054610100900460ff161580156147f9576000805461ffff19166101011790555b6148016148a9565b613db76148a9565b600054610100900460ff1680614822575060005460ff16155b61483e5760405162461bcd60e51b8152600401610bf090614f00565b600054610100900460ff16158015614860576000805461ffff19166101011790555b6148686148a9565b613db7614913565b6060831561487f575081610d24565b82511561488f5782518084602001fd5b8160405162461bcd60e51b8152600401610bf09190614e0b565b600054610100900460ff16806148c2575060005460ff16155b6148de5760405162461bcd60e51b8152600401610bf090614f00565b600054610100900460ff16158015613db7576000805461ffff19166101011790558015611297576000805461ff001916905550565b600054610100900460ff168061492c575060005460ff16155b6149485760405162461bcd60e51b8152600401610bf090614f00565b600054610100900460ff1615801561496a576000805461ffff19166101011790555b6097805460ff191690558015611297576000805461ff001916905550565b828054614994906150ed565b90600052602060002090601f0160209004810192826149b657600085556149fc565b82601f106149cf57805160ff19168380011785556149fc565b828001600101855582156149fc579182015b828111156149fc5782518255916020019190600101906149e1565b506123e19291505b808211156123e15760008155600101614a04565b600067ffffffffffffffff80841115614a3357614a33615154565b604051601f8501601f19908116603f01168101908282118183101715614a5b57614a5b615154565b81604052809350858152868686011115614a7457600080fd5b858560208301376000602087830101525050509392505050565b600082601f830112614a9f57600080fd5b610d2483833560208501614a18565b803564ffffffffff81168114611e8957600080fd5b600060208284031215614ad557600080fd5b8135610d248161516a565b60008060408385031215614af357600080fd5b8235614afe8161516a565b91506020830135614b0e8161516a565b809150509250929050565b600080600060608486031215614b2e57600080fd5b8335614b398161516a565b92506020840135614b498161516a565b929592945050506040919091013590565b60008060408385031215614b6d57600080fd5b8235614b788161516a565b91506020830135614b0e8161517f565b60008060408385031215614b9b57600080fd5b8235614ba68161516a565b9150602083013567ffffffffffffffff811115614bc257600080fd5b8301601f81018513614bd357600080fd5b614be285823560208401614a18565b9150509250929050565b60008060408385031215614bff57600080fd5b8235614c0a8161516a565b946020939093013593505050565b60008060408385031215614c2b57600080fd5b8235614c368161516a565b9150614c4460208401614aae565b90509250929050565b600060208284031215614c5f57600080fd5b8135610d248161517f565b600060208284031215614c7c57600080fd5b8151610d248161517f565b600060208284031215614c9957600080fd5b8151610d248161516a565b60008060008060008060c08789031215614cbd57600080fd5b863567ffffffffffffffff80821115614cd557600080fd5b614ce18a838b01614a8e565b97506020890135915080821115614cf757600080fd5b50614d0489828a01614a8e565b955050614d1360408801614aae565b9350606087013592506080870135915060a087013590509295509295509295565b600060208284031215614d4657600080fd5b5035919050565b600060208284031215614d5f57600080fd5b5051919050565b60008060408385031215614d7957600080fd5b823591506020830135614b0e8161517f565b60008060408385031215614d9e57600080fd5b50508035926020909101359150565b600060208284031215614dbf57600080fd5b815160ff81168114610d2457600080fd5b60008251614de28184602087016150bd565b9190910192915050565b92835260208301919091526001600160a01b0316604082015260600190565b6020815260008251806020840152614e2a8160408501602087016150bd565b601f01601f19169190910160400192915050565b6020808252602c908201527f46756e6374696f6e206d7573742062652063616c6c6564207468726f7567682060408201526b19195b1959d85d1958d85b1b60a21b606082015260800190565b6020808252602c908201527f46756e6374696f6e206d7573742062652063616c6c6564207468726f7567682060408201526b6163746976652070726f787960a01b606082015260800190565b60208082526010908201526f14185d5cd8589b194e881c185d5cd95960821b604082015260600190565b6020808252602e908201527f496e697469616c697a61626c653a20636f6e747261637420697320616c72656160408201526d191e481a5b9a5d1a585b1a5e995960921b606082015260800190565b60208082526021908201527f5468652063616c6c6572206d7573742062652074686520506f6c696379506f6f6040820152601b60fa1b606082015260800190565b6020808252602c908201527f5363616c6520746f6f20736d616c6c2c2063616e206c65616420746f20726f7560408201526b6e64696e67206572726f727360a01b606082015260800190565b60008219821115614fee57614fee615128565b500190565b600064ffffffffff80831681851680830382111561501357615013615128565b01949350505050565b60008261503957634e487b7160e01b600052601260045260246000fd5b500490565b600081600019048311821515161561505857615058615128565b500290565b60008282101561506f5761506f615128565b500390565b600064ffffffffff8381169083168181101561509257615092615128565b039392505050565b600060ff821660ff8416808210156150b4576150b4615128565b90039392505050565b60005b838110156150d85781810151838201526020016150c0565b838111156150e7576000848401525b50505050565b600181811c9082168061510157607f821691505b6020821081141561512257634e487b7160e01b600052602260045260246000fd5b50919050565b634e487b7160e01b600052601160045260246000fd5b634e487b7160e01b600052602160045260246000fd5b634e487b7160e01b600052604160045260246000fd5b6001600160a01b038116811461129757600080fd5b801515811461129757600080fdfe5ec196419322369c6bac572d883f4d990ae5ec82f7d93cdf89b85dbb05b63c27416464726573733a206c6f772d6c6576656c2064656c65676174652063616c6c206661696c6564a82e22387fca439f316d78ca566f383218ab8ae1b3e830178c9c82cbd16749c055435dd261a4b9b3364963f7738a7a662ad9c84396d64be3365284bb7f0a5041a2646970667358221220f51ecd982df164f5ba215d4f887dd4e57675a1d37d3ad4343b5b7b10df46836564736f6c63430008060033",
  "linkReferences": {},
  "deployedLinkReferences": {}
}