{
  "_format": "hh-sol-artifact-1",
  "contractName": "FixedRateAssetManager",
  "sourceName": "contracts/mocks/FixedRateAssetManager.sol",
  "abi": [
    {
      "inputs": [
        {
          "internalType": "contract IPolicyPool",
          "name": "policyPool_",
          "type": "address"
        }
      ],
      "stateMutability": "nonpayable",
      "type": "constructor"
    },
    {
      "anonymous": false,
      "inputs": [
        {
          "indexed": false,
          "internalType": "address",
          "name": "previousAdmin",
          "type": "address"
        },
        {
          "indexed": false,
          "internalType": "address",
          "name": "newAdmin",
          "type": "address"
        }
      ],
      "name": "AdminChanged",
      "type": "event"
    },
    {
      "anonymous": false,
      "inputs": [
        {
          "indexed": true,
          "internalType": "address",
          "name": "beacon",
          "type": "address"
        }
      ],
      "name": "BeaconUpgraded",
      "type": "event"
    },
    {
      "anonymous": false,
      "inputs": [
        {
          "indexed": false,
          "internalType": "bool",
          "name": "positive",
          "type": "bool"
        },
        {
          "indexed": false,
          "internalType": "uint256",
          "name": "amount",
          "type": "uint256"
        }
      ],
      "name": "EarningsDistributed",
      "type": "event"
    },
    {
      "anonymous": false,
      "inputs": [
        {
          "indexed": true,
          "internalType": "enum IPolicyPoolConfig.GovernanceActions",
          "name": "action",
          "type": "uint8"
        },
        {
          "indexed": false,
          "internalType": "uint256",
          "name": "value",
          "type": "uint256"
        }
      ],
      "name": "GovernanceAction",
      "type": "event"
    },
    {
      "anonymous": false,
      "inputs": [
        {
          "indexed": false,
          "internalType": "uint256",
          "name": "amount",
          "type": "uint256"
        }
      ],
      "name": "MoneyDeinvested",
      "type": "event"
    },
    {
      "anonymous": false,
      "inputs": [
        {
          "indexed": false,
          "internalType": "uint256",
          "name": "amount",
          "type": "uint256"
        }
      ],
      "name": "MoneyInvested",
      "type": "event"
    },
    {
      "anonymous": false,
      "inputs": [
        {
          "indexed": false,
          "internalType": "address",
          "name": "account",
          "type": "address"
        }
      ],
      "name": "Paused",
      "type": "event"
    },
    {
      "anonymous": false,
      "inputs": [
        {
          "indexed": false,
          "internalType": "address",
          "name": "account",
          "type": "address"
        }
      ],
      "name": "Unpaused",
      "type": "event"
    },
    {
      "anonymous": false,
      "inputs": [
        {
          "indexed": true,
          "internalType": "address",
          "name": "implementation",
          "type": "address"
        }
      ],
      "name": "Upgraded",
      "type": "event"
    },
    {
      "inputs": [],
      "name": "GUARDIAN_ROLE",
      "outputs": [
        {
          "internalType": "bytes32",
          "name": "",
          "type": "bytes32"
        }
      ],
      "stateMutability": "view",
      "type": "function"
    },
    {
      "inputs": [],
      "name": "LEVEL1_ROLE",
      "outputs": [
        {
          "internalType": "bytes32",
          "name": "",
          "type": "bytes32"
        }
      ],
      "stateMutability": "view",
      "type": "function"
    },
    {
      "inputs": [],
      "name": "LEVEL2_ROLE",
      "outputs": [
        {
          "internalType": "bytes32",
          "name": "",
          "type": "bytes32"
        }
      ],
      "stateMutability": "view",
      "type": "function"
    },
    {
      "inputs": [],
      "name": "LEVEL3_ROLE",
      "outputs": [
        {
          "internalType": "bytes32",
          "name": "",
          "type": "bytes32"
        }
      ],
      "stateMutability": "view",
      "type": "function"
    },
    {
      "inputs": [],
      "name": "TWEAK_EXPIRATION",
      "outputs": [
        {
          "internalType": "uint40",
          "name": "",
          "type": "uint40"
        }
      ],
      "stateMutability": "view",
      "type": "function"
    },
    {
      "inputs": [],
      "name": "checkpoint",
      "outputs": [],
      "stateMutability": "nonpayable",
      "type": "function"
    },
    {
      "inputs": [],
      "name": "currency",
      "outputs": [
        {
          "internalType": "contract IERC20Metadata",
          "name": "",
          "type": "address"
        }
      ],
      "stateMutability": "view",
      "type": "function"
    },
    {
      "inputs": [],
      "name": "deinvestAll",
      "outputs": [],
      "stateMutability": "nonpayable",
      "type": "function"
    },
    {
      "inputs": [],
      "name": "distributeEarnings",
      "outputs": [],
      "stateMutability": "nonpayable",
      "type": "function"
    },
    {
      "inputs": [],
      "name": "getInvestmentValue",
      "outputs": [
        {
          "internalType": "uint256",
          "name": "",
          "type": "uint256"
        }
      ],
      "stateMutability": "view",
      "type": "function"
    },
    {
      "inputs": [
        {
          "internalType": "uint256",
          "name": "liquidityMin_",
          "type": "uint256"
        },
        {
          "internalType": "uint256",
          "name": "liquidityMiddle_",
          "type": "uint256"
        },
        {
          "internalType": "uint256",
          "name": "liquidityMax_",
          "type": "uint256"
        },
        {
          "internalType": "uint256",
          "name": "interestRate_",
          "type": "uint256"
        }
      ],
      "name": "initialize",
      "outputs": [],
      "stateMutability": "nonpayable",
      "type": "function"
    },
    {
      "inputs": [],
      "name": "interestRate",
      "outputs": [
        {
          "internalType": "uint256",
          "name": "",
          "type": "uint256"
        }
      ],
      "stateMutability": "view",
      "type": "function"
    },
    {
      "inputs": [],
      "name": "lastMintBurn",
      "outputs": [
        {
          "internalType": "uint256",
          "name": "",
          "type": "uint256"
        }
      ],
      "stateMutability": "view",
      "type": "function"
    },
    {
      "inputs": [],
      "name": "lastTweak",
      "outputs": [
        {
          "internalType": "uint40",
          "name": "",
          "type": "uint40"
        },
        {
          "internalType": "uint56",
          "name": "",
          "type": "uint56"
        }
      ],
      "stateMutability": "view",
      "type": "function"
    },
    {
      "inputs": [],
      "name": "liquidityMax",
      "outputs": [
        {
          "internalType": "uint256",
          "name": "",
          "type": "uint256"
        }
      ],
      "stateMutability": "view",
      "type": "function"
    },
    {
      "inputs": [],
      "name": "liquidityMiddle",
      "outputs": [
        {
          "internalType": "uint256",
          "name": "",
          "type": "uint256"
        }
      ],
      "stateMutability": "view",
      "type": "function"
    },
    {
      "inputs": [],
      "name": "liquidityMin",
      "outputs": [
        {
          "internalType": "uint256",
          "name": "",
          "type": "uint256"
        }
      ],
      "stateMutability": "view",
      "type": "function"
    },
    {
      "inputs": [],
      "name": "pause",
      "outputs": [],
      "stateMutability": "nonpayable",
      "type": "function"
    },
    {
      "inputs": [],
      "name": "paused",
      "outputs": [
        {
          "internalType": "bool",
          "name": "",
          "type": "bool"
        }
      ],
      "stateMutability": "view",
      "type": "function"
    },
    {
      "inputs": [],
      "name": "policyPool",
      "outputs": [
        {
          "internalType": "contract IPolicyPool",
          "name": "",
          "type": "address"
        }
      ],
      "stateMutability": "view",
      "type": "function"
    },
    {
      "inputs": [],
      "name": "positive",
      "outputs": [
        {
          "internalType": "bool",
          "name": "",
          "type": "bool"
        }
      ],
      "stateMutability": "view",
      "type": "function"
    },
    {
      "inputs": [],
      "name": "rebalance",
      "outputs": [],
      "stateMutability": "nonpayable",
      "type": "function"
    },
    {
      "inputs": [
        {
          "internalType": "uint256",
          "name": "paymentAmount",
          "type": "uint256"
        }
      ],
      "name": "refillWallet",
      "outputs": [],
      "stateMutability": "nonpayable",
      "type": "function"
    },
    {
      "inputs": [
        {
          "internalType": "uint256",
          "name": "newValue",
          "type": "uint256"
        }
      ],
      "name": "setLiquidityMax",
      "outputs": [],
      "stateMutability": "nonpayable",
      "type": "function"
    },
    {
      "inputs": [
        {
          "internalType": "uint256",
          "name": "newValue",
          "type": "uint256"
        }
      ],
      "name": "setLiquidityMiddle",
      "outputs": [],
      "stateMutability": "nonpayable",
      "type": "function"
    },
    {
      "inputs": [
        {
          "internalType": "uint256",
          "name": "newValue",
          "type": "uint256"
        }
      ],
      "name": "setLiquidityMin",
      "outputs": [],
      "stateMutability": "nonpayable",
      "type": "function"
    },
    {
      "inputs": [
        {
          "internalType": "uint256",
          "name": "min",
          "type": "uint256"
        },
        {
          "internalType": "uint256",
          "name": "middle",
          "type": "uint256"
        },
        {
          "internalType": "uint256",
          "name": "max",
          "type": "uint256"
        }
      ],
      "name": "setLiquidityMultiple",
      "outputs": [],
      "stateMutability": "nonpayable",
      "type": "function"
    },
    {
      "inputs": [
        {
          "internalType": "bool",
          "name": "positive_",
          "type": "bool"
        }
      ],
      "name": "setPositive",
      "outputs": [],
      "stateMutability": "nonpayable",
      "type": "function"
    },
    {
      "inputs": [],
      "name": "totalInvestable",
      "outputs": [
        {
          "internalType": "uint256",
          "name": "",
          "type": "uint256"
        }
      ],
      "stateMutability": "view",
      "type": "function"
    },
    {
      "inputs": [],
      "name": "unpause",
      "outputs": [],
      "stateMutability": "nonpayable",
      "type": "function"
    },
    {
      "inputs": [
        {
          "internalType": "address",
          "name": "newImplementation",
          "type": "address"
        }
      ],
      "name": "upgradeTo",
      "outputs": [],
      "stateMutability": "nonpayable",
      "type": "function"
    },
    {
      "inputs": [
        {
          "internalType": "address",
          "name": "newImplementation",
          "type": "address"
        },
        {
          "internalType": "bytes",
          "name": "data",
          "type": "bytes"
        }
      ],
      "name": "upgradeToAndCall",
      "outputs": [],
      "stateMutability": "payable",
      "type": "function"
    }
  ],
  "bytecode": "0x60c06040523060601b6080523480156200001857600080fd5b5060405162003b0038038062003b008339810160408190526200003b9162000051565b60601b6001600160601b03191660a05262000083565b6000602082840312156200006457600080fd5b81516001600160a01b03811681146200007c57600080fd5b9392505050565b60805160601c60a05160601c6139946200016c60003960008181610349015281816105c30152818161065a015281816107090152818161084e015281816108bd01528181610a0b01528181610c0a01528181610f180152818161106b0152818161126b0152818161135d015281816114740152818161157e015281816115e4015281816116930152818161176f015281816119d101528181611b9201528181612223015281816122d2015281816124900152818161255201528181612607015261276f015260008181610b1a01528181610b5a01528181610e4d0152610e8d01526139946000f3fe6080604052600436106101e35760003560e01c80635c975abb116101025780638d7ddd9011610095578063d7d24afa11610064578063d7d24afa14610546578063e5a6b10f14610560578063f67b2bad14610575578063f9c4fd1b146105a957600080fd5b80638d7ddd90146104f1578063bb79839114610506578063c2c4c5c11461051c578063cec16f3f1461053157600080fd5b80637d7c2a1c116100d15780637d7c2a1c1461047a5780637ed5acfa1461048f5780638456cb59146104bc57806385a5a1ae146104d157600080fd5b80635c975abb1461040b57806360a2da441461042f57806376577eae1461044f5780637c3a00fd1461046457600080fd5b8063468a8c9f1161017a5780634f1ef286116101495780634f1ef28614610396578063548d49ee146103a95780635a89c5ac146103c95780635b494dd5146103e957600080fd5b8063468a8c9f146102de5780634a47a3e0146103185780634d15eb031461033a5780634dd93bd31461038157600080fd5b806324ea54f4116101b657806324ea54f4146102725780633659cfe6146102945780633b6612c8146102b45780633f4ba83a146102c957600080fd5b806305400115146101e85780630ae65a21146102105780631014a0c2146102325780631a2afb1d14610252575b600080fd5b3480156101f457600080fd5b506101fd6105be565b6040519081526020015b60405180910390f35b34801561021c57600080fd5b5061023061022b3660046134cc565b610830565b005b34801561023e57600080fd5b5061023061024d366004613523565b61084b565b34801561025e57600080fd5b5061023061026d366004613523565b6109eb565b34801561027e57600080fd5b506101fd60008051602061393f83398151915281565b3480156102a057600080fd5b506102306102af3660046133eb565b610b0f565b3480156102c057600080fd5b5060cc546101fd565b3480156102d557600080fd5b50610230610bd8565b3480156102ea57600080fd5b5060c9546040805164ffffffffff83168152600160281b90920466ffffffffffffff16602083015201610207565b34801561032457600080fd5b506101fd60008051602061391f83398151915281565b34801561034657600080fd5b507f00000000000000000000000000000000000000000000000000000000000000005b6040516001600160a01b039091168152602001610207565b34801561038d57600080fd5b506101fd610d04565b6102306103a4366004613408565b610e42565b3480156103b557600080fd5b506102306103c4366004613555565b610ef8565b3480156103d557600080fd5b506102306103e4366004613523565b61104b565b3480156103f557600080fd5b506101fd6000805160206138d883398151915281565b34801561041757600080fd5b5060975460ff165b6040519015158152602001610207565b34801561043b57600080fd5b5061023061044a366004613581565b611162565b34801561045b57600080fd5b506102306111f2565b34801561047057600080fd5b506101fd60ce5481565b34801561048657600080fd5b50610230611227565b34801561049b57600080fd5b506104a66201518081565b60405164ffffffffff9091168152602001610207565b3480156104c857600080fd5b5061023061134c565b3480156104dd57600080fd5b506102306104ec366004613523565b611454565b3480156104fd57600080fd5b5060ca546101fd565b34801561051257600080fd5b506101fd60cf5481565b34801561052857600080fd5b5061023061156b565b34801561053d57600080fd5b5061023061157b565b34801561055257600080fd5b5060d05461041f9060ff1681565b34801561056c57600080fd5b5061036961176b565b34801561058157600080fd5b506101fd7fbf372ca3ebecfe59ac256f17697941bbe63302aced610e8b0e3646f743c7beb281565b3480156105b557600080fd5b5060cb546101fd565b6000807f00000000000000000000000000000000000000000000000000000000000000006001600160a01b03166365e29c7e6040518163ffffffff1660e01b815260040160206040518083038186803b15801561061a57600080fd5b505afa15801561062e573d6000803e3d6000fd5b505050506040513d601f19601f82011682018060405250810190610652919061353c565b90506000805b7f00000000000000000000000000000000000000000000000000000000000000006001600160a01b031663dea167d56040518163ffffffff1660e01b815260040160206040518083038186803b1580156106b157600080fd5b505afa1580156106c5573d6000803e3d6000fd5b505050506040513d601f19601f820116820180604052508101906106e9919061353c565b81101561081e5760405163b0ec4bcf60e01b8152600481018290526000907f00000000000000000000000000000000000000000000000000000000000000006001600160a01b03169063b0ec4bcf9060240160206040518083038186803b15801561075357600080fd5b505afa158015610767573d6000803e3d6000fd5b505050506040513d601f19601f8201168201806040525081019061078b9190613506565b9050806001600160a01b03166365e29c7e6040518163ffffffff1660e01b815260040160206040518083038186803b1580156107c657600080fd5b505afa1580156107da573d6000803e3d6000fd5b505050506040513d601f19601f820116820180604052508101906107fe919061353c565b6108089084613772565b925050808061081690613857565b915050610658565b506108298183613772565b9250505090565b610838611803565b60d0805460ff1916911515919091179055565b337f00000000000000000000000000000000000000000000000000000000000000006001600160a01b03161461089c5760405162461bcd60e51b815260040161089390613731565b60405180910390fd5b60006108a661176b565b6040516370a0823160e01b81526001600160a01b037f00000000000000000000000000000000000000000000000000000000000000008116600483015291909116906370a082319060240160206040518083038186803b15801561090957600080fd5b505afa15801561091d573d6000803e3d6000fd5b505050506040513d601f19601f82011682018060405250810190610941919061353c565b90508181106109a85760405162461bcd60e51b815260206004820152602d60248201527f4e6f206e65656420746f20726566696c6c207468652077616c6c657420666f7260448201526c081d1a1a5cc81c185e5b595b9d609a1b6064820152608401610893565b60006109b2610d04565b905060008260cb54856109c59190613772565b6109cf91906137cb565b9050818111156109dc5750805b6109e5816119bb565b50505050565b60008051602061391f8339815191526000805160206138d88339815191527f00000000000000000000000000000000000000000000000000000000000000006001600160a01b03166379502c556040518163ffffffff1660e01b815260040160206040518083038186803b158015610a6257600080fd5b505afa158015610a76573d6000803e3d6000fd5b505050506040513d601f19601f82011682018060405250810190610a9a9190613506565b6001600160a01b031663c5b8f5cf8383336040518463ffffffff1660e01b8152600401610ac9939291906135cf565b60006040518083038186803b158015610ae157600080fd5b505afa158015610af5573d6000803e3d6000fd5b50505050610b0283611a09565b610b0a611abd565b505050565b306001600160a01b037f0000000000000000000000000000000000000000000000000000000000000000161415610b585760405162461bcd60e51b815260040161089390613621565b7f00000000000000000000000000000000000000000000000000000000000000006001600160a01b0316610b8a611b32565b6001600160a01b031614610bb05760405162461bcd60e51b81526004016108939061366d565b610bb981611b60565b60408051600080825260208201909252610bd591839190611c85565b50565b60008051602061393f8339815191527fbf372ca3ebecfe59ac256f17697941bbe63302aced610e8b0e3646f743c7beb27f00000000000000000000000000000000000000000000000000000000000000006001600160a01b03166379502c556040518163ffffffff1660e01b815260040160206040518083038186803b158015610c6157600080fd5b505afa158015610c75573d6000803e3d6000fd5b505050506040513d601f19601f82011682018060405250810190610c999190613506565b6001600160a01b031663c5b8f5cf8383336040518463ffffffff1660e01b8152600401610cc8939291906135cf565b60006040518083038186803b158015610ce057600080fd5b505afa158015610cf4573d6000803e3d6000fd5b50505050610d00611dc9565b5050565b600080610d0f61176b565b6040516370a0823160e01b81523060048201526001600160a01b0391909116906370a082319060240160206040518083038186803b158015610d5057600080fd5b505afa158015610d64573d6000803e3d6000fd5b505050506040513d601f19601f82011682018060405250810190610d88919061353c565b90504260cf5410610d9857919050565b600060cf5442610da891906137cb565b60d05490915060009060ff1615610df2576301e133808260ce54610dcc91906137ac565b610dd6919061378a565b610deb90676765c793fa10079d601b1b613772565b9050610e27565b6301e133808260ce54610e0591906137ac565b610e0f919061378a565b610e2490676765c793fa10079d601b1b6137cb565b90505b610e3a610e3382611e5c565b8490611ee4565b935050505090565b306001600160a01b037f0000000000000000000000000000000000000000000000000000000000000000161415610e8b5760405162461bcd60e51b815260040161089390613621565b7f00000000000000000000000000000000000000000000000000000000000000006001600160a01b0316610ebd611b32565b6001600160a01b031614610ee35760405162461bcd60e51b81526004016108939061366d565b610eec82611b60565b610d0082826001611c85565b60008051602061391f8339815191526000805160206138d88339815191527f00000000000000000000000000000000000000000000000000000000000000006001600160a01b03166379502c556040518163ffffffff1660e01b815260040160206040518083038186803b158015610f6f57600080fd5b505afa158015610f83573d6000803e3d6000fd5b505050506040513d601f19601f82011682018060405250810190610fa79190613506565b6001600160a01b031663c5b8f5cf8383336040518463ffffffff1660e01b8152600401610fd6939291906135cf565b60006040518083038186803b158015610fee57600080fd5b505afa158015611002573d6000803e3d6000fd5b5050505060001985146110185761101885611a09565b600019841461102a5761102a84611fbe565b600019831461103c5761103c83612075565b611044611abd565b5050505050565b60008051602061391f8339815191526000805160206138d88339815191527f00000000000000000000000000000000000000000000000000000000000000006001600160a01b03166379502c556040518163ffffffff1660e01b815260040160206040518083038186803b1580156110c257600080fd5b505afa1580156110d6573d6000803e3d6000fd5b505050506040513d601f19601f820116820180604052508101906110fa9190613506565b6001600160a01b031663c5b8f5cf8383336040518463ffffffff1660e01b8152600401611129939291906135cf565b60006040518083038186803b15801561114157600080fd5b505afa158015611155573d6000803e3d6000fd5b50505050610b0283612075565b600054610100900460ff168061117b575060005460ff16155b6111975760405162461bcd60e51b8152600401610893906136e3565b600054610100900460ff161580156111b9576000805461ffff19166101011790555b6111c4858585612129565b60ce8290554260cf5560d0805460ff191660011790558015611044576000805461ff00191690555050505050565b60975460ff16156112155760405162461bcd60e51b8152600401610893906136b9565b611225611220610d04565b6121aa565b565b60975460ff161561124a5760405162461bcd60e51b8152600401610893906136b9565b600061125461176b565b6040516370a0823160e01b81526001600160a01b037f00000000000000000000000000000000000000000000000000000000000000008116600483015291909116906370a082319060240160206040518083038186803b1580156112b757600080fd5b505afa1580156112cb573d6000803e3d6000fd5b505050506040513d601f19601f820116820180604052508101906112ef919061353c565b905060cc5481111561131157610bd560cb548261130c91906137cb565b61253c565b60ca54811015610bd557600061133b611328610d04565b8360cb5461133691906137cb565b61258c565b90508015610d0057610d00816119bb565b60008051602061393f8339815191527f00000000000000000000000000000000000000000000000000000000000000006001600160a01b03166379502c556040518163ffffffff1660e01b815260040160206040518083038186803b1580156113b457600080fd5b505afa1580156113c8573d6000803e3d6000fd5b505050506040513d601f19601f820116820180604052508101906113ec9190613506565b6040516312d9a6ad60e01b8152600481018390523360248201526001600160a01b0391909116906312d9a6ad9060440160006040518083038186803b15801561143457600080fd5b505afa158015611448573d6000803e3d6000fd5b50505050610bd56125a2565b60008051602061391f8339815191526000805160206138d88339815191527f00000000000000000000000000000000000000000000000000000000000000006001600160a01b03166379502c556040518163ffffffff1660e01b815260040160206040518083038186803b1580156114cb57600080fd5b505afa1580156114df573d6000803e3d6000fd5b505050506040513d601f19601f820116820180604052508101906115039190613506565b6001600160a01b031663c5b8f5cf8383336040518463ffffffff1660e01b8152600401611532939291906135cf565b60006040518083038186803b15801561154a57600080fd5b505afa15801561155e573d6000803e3d6000fd5b50505050610b0283611fbe565b6115736111f2565b611225611227565b337f00000000000000000000000000000000000000000000000000000000000000006001600160a01b0316146115c35760405162461bcd60e51b815260040161089390613731565b60006115cd61176b565b6040516370a0823160e01b81526001600160a01b037f00000000000000000000000000000000000000000000000000000000000000008116600483015291909116906370a082319060240160206040518083038186803b15801561163057600080fd5b505afa158015611644573d6000803e3d6000fd5b505050506040513d601f19601f82011682018060405250810190611668919061353c565b90506116726125fa565b600061167c61176b565b6040516370a0823160e01b81526001600160a01b037f00000000000000000000000000000000000000000000000000000000000000008116600483015291909116906370a082319060240160206040518083038186803b1580156116df57600080fd5b505afa1580156116f3573d6000803e3d6000fd5b505050506040513d601f19601f82011682018060405250810190611717919061353c565b905061172661122083836137cb565b600060cd557fb82d4e0870bf4ae7236ad1de74d6612d04d1b805b47d98c2f40088a193d87c6561175683836137cb565b60405190815260200160405180910390a15050565b60007f00000000000000000000000000000000000000000000000000000000000000006001600160a01b031663e5a6b10f6040518163ffffffff1660e01b815260040160206040518083038186803b1580156117c657600080fd5b505afa1580156117da573d6000803e3d6000fd5b505050506040513d601f19601f820116820180604052508101906117fe9190613506565b905090565b4260cf541061180e57565b600061181861176b565b6040516370a0823160e01b81523060048201526001600160a01b0391909116906370a082319060240160206040518083038186803b15801561185957600080fd5b505afa15801561186d573d6000803e3d6000fd5b505050506040513d601f19601f82011682018060405250810190611891919061353c565b9050600061189d610d04565b90508181111561192b576118af61176b565b6001600160a01b03166340c10f19306118c885856137cb565b6040516001600160e01b031960e085901b1681526001600160a01b0390921660048301526024820152604401600060405180830381600087803b15801561190e57600080fd5b505af1158015611922573d6000803e3d6000fd5b505050506119b3565b818110156119b35761193b61176b565b6001600160a01b0316639dc29fac3061195484866137cb565b6040516001600160e01b031960e085901b1681526001600160a01b0390921660048301526024820152604401600060405180830381600087803b15801561199a57600080fd5b505af11580156119ae573d6000803e3d6000fd5b505050505b50504260cf55565b6119c3611803565b6119cc816126af565b610bd57f0000000000000000000000000000000000000000000000000000000000000000826119f961176b565b6001600160a01b03169190612708565b6000611a2260008051602061391f83398151915261276b565b159050801580611a455750611a4560ca54836af8277896582678ac00000061287e565b611aac5760405162461bcd60e51b815260206004820152603260248201527f547765616b2065786365656465643a206c69717569646974794d696e20747765604482015271616b73206f6e6c7920757020746f2033302560701b6064820152608401610893565b60ca829055610d0060138383612910565b60cb5460ca5411158015611ad5575060cc5460cb5411155b6112255760405162461bcd60e51b815260206004820152602860248201527f56616c69646174696f6e3a204c6971756964697479206c696d69747320617265604482015267081a5b9d985b1a5960c21b6064820152608401610893565b7f360894a13ba1a3210667c828492db98dca3e2076cc3735a920a3ca505d382bbc546001600160a01b031690565b60008051602061393f8339815191527fbf372ca3ebecfe59ac256f17697941bbe63302aced610e8b0e3646f743c7beb27f00000000000000000000000000000000000000000000000000000000000000006001600160a01b03166379502c556040518163ffffffff1660e01b815260040160206040518083038186803b158015611be957600080fd5b505afa158015611bfd573d6000803e3d6000fd5b505050506040513d601f19601f82011682018060405250810190611c219190613506565b6001600160a01b031663c5b8f5cf8383336040518463ffffffff1660e01b8152600401611c50939291906135cf565b60006040518083038186803b158015611c6857600080fd5b505afa158015611c7c573d6000803e3d6000fd5b50505050505050565b6000611c8f611b32565b9050611c9a84612969565b600083511180611ca75750815b15611cb857611cb68484612a0e565b505b7f4910fdfa16fed3260ed0e7147f7cc6da11a60208b5b9406d12a635614ffd9143805460ff1661104457805460ff191660011781556040516001600160a01b0383166024820152611d3790869060440160408051601f198184030181529190526020810180516001600160e01b0316631b2ce7f360e11b179052612a0e565b50805460ff19168155611d48611b32565b6001600160a01b0316826001600160a01b031614611dc05760405162461bcd60e51b815260206004820152602f60248201527f45524331393637557067726164653a207570677261646520627265616b73206660448201526e75727468657220757067726164657360881b6064820152608401610893565b61104485612af9565b60975460ff16611e125760405162461bcd60e51b815260206004820152601460248201527314185d5cd8589b194e881b9bdd081c185d5cd95960621b6044820152606401610893565b6097805460ff191690557f5db9ee0a495bf2e6ff9c91a7834c1ba4fdd244a5e8aa4e537bd38aeae4b073aa335b6040516001600160a01b03909116815260200160405180910390a1565b600080611e6e6002633b9aca0061378a565b90506000611e7c8483613772565b905081811015611ece5760405162461bcd60e51b815260206004820181905260248201527f726179546f5761643a204d617468204164646974696f6e204f766572666c6f776044820152606401610893565b611edc633b9aca008261378a565b949350505050565b6000821580611ef1575081155b15611efe57506000611fb8565b81611f126002670de0b6b3a764000061378a565b611f1e906000196137cb565b611f28919061378a565b831115611f835760405162461bcd60e51b8152602060048201526024808201527f7761644d756c3a204d617468204d756c7469706c69636174696f6e204f766572604482015263666c6f7760e01b6064820152608401610893565b670de0b6b3a7640000611f9760028261378a565b611fa184866137ac565b611fab9190613772565b611fb5919061378a565b90505b92915050565b6000611fd760008051602061391f83398151915261276b565b159050801580611ffa5750611ffa60cb54836af8277896582678ac00000061287e565b6120645760405162461bcd60e51b815260206004820152603560248201527f547765616b2065786365656465643a206c69717569646974794d6964646c6520604482015274747765616b73206f6e6c7920757020746f2033302560581b6064820152608401610893565b60cb829055610d0060148383612910565b600061208e60008051602061391f83398151915261276b565b1590508015806120b157506120b160cc54836af8277896582678ac00000061287e565b6121185760405162461bcd60e51b815260206004820152603260248201527f547765616b2065786365656465643a206c69717569646974794d617820747765604482015271616b73206f6e6c7920757020746f2033302560701b6064820152608401610893565b60cc829055610d0060158383612910565b600054610100900460ff1680612142575060005460ff16155b61215e5760405162461bcd60e51b8152600401610893906136e3565b600054610100900460ff16158015612180576000805461ffff19166101011790555b612188612b39565b612193848484612bb4565b80156109e5576000805461ff001916905550505050565b60975460ff16156121cd5760405162461bcd60e51b8152600401610893906136b9565b60008060cd548311156121f25760cd546121e790846137cb565b905060019150612211565b60cd54831015610b0a578260cd5461220a91906137cb565b9050600091505b600061221b6105be565b90508160005b7f00000000000000000000000000000000000000000000000000000000000000006001600160a01b031663dea167d56040518163ffffffff1660e01b815260040160206040518083038186803b15801561227a57600080fd5b505afa15801561228e573d6000803e3d6000fd5b505050506040513d601f19601f820116820180604052508101906122b2919061353c565b81101561246b5760405163b0ec4bcf60e01b8152600481018290526000907f00000000000000000000000000000000000000000000000000000000000000006001600160a01b03169063b0ec4bcf9060240160206040518083038186803b15801561231c57600080fd5b505afa158015612330573d6000803e3d6000fd5b505050506040513d601f19601f820116820180604052508101906123549190613506565b905060006123dd6123d686846001600160a01b03166365e29c7e6040518163ffffffff1660e01b815260040160206040518083038186803b15801561239857600080fd5b505afa1580156123ac573d6000803e3d6000fd5b505050506040513d601f19601f820116820180604052508101906123d0919061353c565b90612c22565b8790611ee4565b905080156124565760405163ab60016960e01b81526004810182905287151560248201526001600160a01b0383169063ab60016990604401600060405180830381600087803b15801561242f57600080fd5b505af1158015612443573d6000803e3d6000fd5b50505050808461245391906137cb565b93505b5050808061246390613857565b915050612221565b5080156124f55760405163ab60016960e01b81526004810182905284151560248201527f00000000000000000000000000000000000000000000000000000000000000006001600160a01b03169063ab60016990604401600060405180830381600087803b1580156124dc57600080fd5b505af11580156124f0573d6000803e3d6000fd5b505050505b60cd859055604080518515158152602081018590527f91a6cbd27bc7cdd21da57fbb08ebfaf5cece633ca7dd5f1741bff39f4be3ad4f910160405180910390a15050505050565b612544611803565b61254d81612d22565b610bd57f0000000000000000000000000000000000000000000000000000000000000000308361257b61176b565b6001600160a01b0316929190612d69565b600081831061259b5781611fb5565b5090919050565b60975460ff16156125c55760405162461bcd60e51b8152600401610893906136b9565b6097805460ff191660011790557f62e78cea01bee320cd4e420270b5ea74000d11b0c9f74754ebdbfc544b05a258611e3f3390565b612602611803565b6112257f000000000000000000000000000000000000000000000000000000000000000061262e61176b565b6040516370a0823160e01b81523060048201526001600160a01b0391909116906370a082319060240160206040518083038186803b15801561266f57600080fd5b505afa158015612683573d6000803e3d6000fd5b505050506040513d601f19601f820116820180604052508101906126a7919061353c565b6119f961176b565b6126bb60cd548261258c565b60cd60008282546126cc91906137cb565b90915550506040518181527fb82d4e0870bf4ae7236ad1de74d6612d04d1b805b47d98c2f40088a193d87c65906020015b60405180910390a150565b6040516001600160a01b038316602482015260448101829052610b0a90849063a9059cbb60e01b906064015b60408051601f198184030181529190526020810180516001600160e01b03166001600160e01b031990931692909217909152612da1565b60007f00000000000000000000000000000000000000000000000000000000000000006001600160a01b03166379502c556040518163ffffffff1660e01b815260040160206040518083038186803b1580156127c657600080fd5b505afa1580156127da573d6000803e3d6000fd5b505050506040513d601f19601f820116820180604052508101906127fe9190613506565b604051632474521560e21b8152600481018490523360248201526001600160a01b0391909116906391d148549060440160206040518083038186803b15801561284657600080fd5b505afa15801561285a573d6000803e3d6000fd5b505050506040513d601f19601f82011682018060405250810190611fb891906134e9565b60008284141561289057506001612909565b836128aa5750676765c793fa10079d601b1b811015612909565b826128b757506000612909565b828410156128e95781676765c793fa10079d601b1b6128d68587612e73565b6128e091906137cb565b11159050612909565b816128f48486612e73565b6128e090676765c793fa10079d601b1b6137cb565b9392505050565b801561291f5761291f83612f65565b82601b81111561293157612931613888565b6040518381527f7bc647fe5043209e2019aa3503b79c1b0dd83eb61c56013d373a7584ff6bfb139060200160405180910390a2505050565b803b6129cd5760405162461bcd60e51b815260206004820152602d60248201527f455243313936373a206e657720696d706c656d656e746174696f6e206973206e60448201526c1bdd08184818dbdb9d1c9858dd609a1b6064820152608401610893565b7f360894a13ba1a3210667c828492db98dca3e2076cc3735a920a3ca505d382bbc80546001600160a01b0319166001600160a01b0392909216919091179055565b6060823b612a6d5760405162461bcd60e51b815260206004820152602660248201527f416464726573733a2064656c65676174652063616c6c20746f206e6f6e2d636f6044820152651b9d1c9858dd60d21b6064820152608401610893565b600080846001600160a01b031684604051612a8891906135b3565b600060405180830381855af49150503d8060008114612ac3576040519150601f19603f3d011682016040523d82523d6000602084013e612ac8565b606091505b5091509150612af082826040518060600160405280602781526020016138f8602791396130ce565b95945050505050565b612b0281612969565b6040516001600160a01b038216907fbc7cd75a20ee27fd9adebab32041f755214dbc6bffa90cc0225b39da2e5c2d3b90600090a250565b600054610100900460ff1680612b52575060005460ff16155b612b6e5760405162461bcd60e51b8152600401610893906136e3565b600054610100900460ff16158015612b90576000805461ffff19166101011790555b612b98613107565b612ba061316e565b8015610bd5576000805461ff001916905550565b600054610100900460ff1680612bcd575060005460ff16155b612be95760405162461bcd60e51b8152600401610893906136e3565b600054610100900460ff16158015612c0b576000805461ffff19166101011790555b60ca84905560cb83905560cc829055612193611abd565b600081612c715760405162461bcd60e51b815260206004820152601860248201527f7761644469763a204469766973696f6e206279207a65726f00000000000000006044820152606401610893565b6000612c7e60028461378a565b9050670de0b6b3a7640000612c95826000196137cb565b612c9f919061378a565b841115612cfa5760405162461bcd60e51b8152602060048201526024808201527f7761644469763a204d617468204d756c7469706c69636174696f6e204f766572604482015263666c6f7760e01b6064820152608401610893565b8281612d0e670de0b6b3a7640000876137ac565b612d189190613772565b611edc919061378a565b8060cd6000828254612d349190613772565b90915550506040518181527f0f0cdeac88e111e1dd9b9f043e8c671053dedfbaeccabfb144fd51a4f870fcf4906020016126fd565b6040516001600160a01b03808516602483015283166044820152606481018290526109e59085906323b872dd60e01b90608401612734565b6000612df6826040518060400160405280602081526020017f5361666545524332303a206c6f772d6c6576656c2063616c6c206661696c6564815250856001600160a01b03166131d59092919063ffffffff16565b805190915015610b0a5780806020019051810190612e1491906134e9565b610b0a5760405162461bcd60e51b815260206004820152602a60248201527f5361666545524332303a204552433230206f7065726174696f6e20646964206e6044820152691bdd081cdd58d8d9595960b21b6064820152608401610893565b600081612ec25760405162461bcd60e51b815260206004820152601860248201527f7261794469763a204469766973696f6e206279207a65726f00000000000000006044820152606401610893565b6000612ecf60028461378a565b9050676765c793fa10079d601b1b612ee9826000196137cb565b612ef3919061378a565b841115612f4e5760405162461bcd60e51b8152602060048201526024808201527f7261794469763a204d617468204d756c7469706c69636174696f6e204f766572604482015263666c6f7760e01b6064820152608401610893565b8281612d0e676765c793fa10079d601b1b876137ac565b6000600182601b811115612f7b57612f7b613888565b612f859190613808565b60c954600160ff929092169190911b91506201518090612fac9064ffffffffff16426137e2565b64ffffffffff161115612fee5760c9805466ffffffffffffff8316600160281b026bffffffffffffffffffffffff1990911664ffffffffff4216171790555050565b60c954600160281b9004811666ffffffffffffff166130505760c9805464ffffffffff421664ffffffffff1966ffffffffffffff808616600160281b808604929092161702166bffffffffffffffffffffffff19909216919091171790555050565b60405162461bcd60e51b815260206004820152604760248201527f596f7520616c726561647920747765616b6564207468697320706172616d657460448201527f657220726563656e746c792e2057616974206265666f726520747765616b696e606482015266339030b3b0b4b760c91b608482015260a401610893565b606083156130dd575081612909565b8251156130ed5782518084602001fd5b8160405162461bcd60e51b815260040161089391906135ee565b600054610100900460ff1680613120575060005460ff16155b61313c5760405162461bcd60e51b8152600401610893906136e3565b600054610100900460ff1615801561315e576000805461ffff19166101011790555b6131666131e4565b612ba06131e4565b600054610100900460ff1680613187575060005460ff16155b6131a35760405162461bcd60e51b8152600401610893906136e3565b600054610100900460ff161580156131c5576000805461ffff19166101011790555b6131cd6131e4565b612ba061324e565b6060611edc84846000856132c3565b600054610100900460ff16806131fd575060005460ff16155b6132195760405162461bcd60e51b8152600401610893906136e3565b600054610100900460ff16158015612ba0576000805461ffff19166101011790558015610bd5576000805461ff001916905550565b600054610100900460ff1680613267575060005460ff16155b6132835760405162461bcd60e51b8152600401610893906136e3565b600054610100900460ff161580156132a5576000805461ffff19166101011790555b6097805460ff191690558015610bd5576000805461ff001916905550565b6060824710156133245760405162461bcd60e51b815260206004820152602660248201527f416464726573733a20696e73756666696369656e742062616c616e636520666f6044820152651c8818d85b1b60d21b6064820152608401610893565b843b6133725760405162461bcd60e51b815260206004820152601d60248201527f416464726573733a2063616c6c20746f206e6f6e2d636f6e74726163740000006044820152606401610893565b600080866001600160a01b0316858760405161338e91906135b3565b60006040518083038185875af1925050503d80600081146133cb576040519150601f19603f3d011682016040523d82523d6000602084013e6133d0565b606091505b50915091506133e08282866130ce565b979650505050505050565b6000602082840312156133fd57600080fd5b8135612909816138b4565b6000806040838503121561341b57600080fd5b8235613426816138b4565b9150602083013567ffffffffffffffff8082111561344357600080fd5b818501915085601f83011261345757600080fd5b8135818111156134695761346961389e565b604051601f8201601f19908116603f011681019083821181831017156134915761349161389e565b816040528281528860208487010111156134aa57600080fd5b8260208601602083013760006020848301015280955050505050509250929050565b6000602082840312156134de57600080fd5b8135612909816138c9565b6000602082840312156134fb57600080fd5b8151612909816138c9565b60006020828403121561351857600080fd5b8151612909816138b4565b60006020828403121561353557600080fd5b5035919050565b60006020828403121561354e57600080fd5b5051919050565b60008060006060848603121561356a57600080fd5b505081359360208301359350604090920135919050565b6000806000806080858703121561359757600080fd5b5050823594602084013594506040840135936060013592509050565b600082516135c581846020870161382b565b9190910192915050565b92835260208301919091526001600160a01b0316604082015260600190565b602081526000825180602084015261360d81604085016020870161382b565b601f01601f19169190910160400192915050565b6020808252602c908201527f46756e6374696f6e206d7573742062652063616c6c6564207468726f7567682060408201526b19195b1959d85d1958d85b1b60a21b606082015260800190565b6020808252602c908201527f46756e6374696f6e206d7573742062652063616c6c6564207468726f7567682060408201526b6163746976652070726f787960a01b606082015260800190565b60208082526010908201526f14185d5cd8589b194e881c185d5cd95960821b604082015260600190565b6020808252602e908201527f496e697469616c697a61626c653a20636f6e747261637420697320616c72656160408201526d191e481a5b9a5d1a585b1a5e995960921b606082015260800190565b60208082526021908201527f5468652063616c6c6572206d7573742062652074686520506f6c696379506f6f6040820152601b60fa1b606082015260800190565b6000821982111561378557613785613872565b500190565b6000826137a757634e487b7160e01b600052601260045260246000fd5b500490565b60008160001904831182151516156137c6576137c6613872565b500290565b6000828210156137dd576137dd613872565b500390565b600064ffffffffff8381169083168181101561380057613800613872565b039392505050565b600060ff821660ff84168082101561382257613822613872565b90039392505050565b60005b8381101561384657818101518382015260200161382e565b838111156109e55750506000910152565b600060001982141561386b5761386b613872565b5060010190565b634e487b7160e01b600052601160045260246000fd5b634e487b7160e01b600052602160045260246000fd5b634e487b7160e01b600052604160045260246000fd5b6001600160a01b0381168114610bd557600080fd5b8015158114610bd557600080fdfe5ec196419322369c6bac572d883f4d990ae5ec82f7d93cdf89b85dbb05b63c27416464726573733a206c6f772d6c6576656c2064656c65676174652063616c6c206661696c6564a82e22387fca439f316d78ca566f383218ab8ae1b3e830178c9c82cbd16749c055435dd261a4b9b3364963f7738a7a662ad9c84396d64be3365284bb7f0a5041a2646970667358221220395bf33e9918eeb3769182471c2da05cc227f12765d31d7cb1bbaf680864b7b764736f6c63430008060033",
  "linkReferences": {},
  "deployedLinkReferences": {}
}