{
  "_format": "hh-sol-artifact-1",
  "contractName": "ForwardProxy",
  "sourceName": "contracts/mocks/ForwardProxy.sol",
  "abi": [
    {
      "inputs": [
        {
          "internalType": "address",
          "name": "forwardTo",
          "type": "address"
        }
      ],
      "stateMutability": "nonpayable",
      "type": "constructor"
    },
    {
      "stateMutability": "payable",
      "type": "fallback"
    },
    {
      "inputs": [
        {
          "internalType": "address",
          "name": "forwardTo",
          "type": "address"
        }
      ],
      "name": "setForwardTo",
      "outputs": [],
      "stateMutability": "nonpayable",
      "type": "function"
    },
    {
      "stateMutability": "payable",
      "type": "receive"
    }
  ],
  "bytecode": "0x608060405234801561001057600080fd5b5060405161019e38038061019e83398101604081905261002f91610054565b600080546001600160a01b0319166001600160a01b0392909216919091179055610084565b60006020828403121561006657600080fd5b81516001600160a01b038116811461007d57600080fd5b9392505050565b61010b806100936000396000f3fe608060405260043610601f5760003560e01c8063d4b2700114603157602b565b36602b576029606a565b005b6029606a565b348015603c57600080fd5b506029604836600460a7565b600080546001600160a01b0319166001600160a01b0392909216919091179055565b6081607d6000546001600160a01b031690565b6083565b565b366000803760008036600080855af13d6000803e80801560a2573d6000f35b3d6000fd5b60006020828403121560b857600080fd5b81356001600160a01b038116811460ce57600080fd5b939250505056fea26469706673582212200eb15ce413f38b398accd84fc6d399665a37c5aef751eab20c83f36556d4b0db64736f6c63430008060033",
  "linkReferences": {},
  "deployedLinkReferences": {}
}