{
  "_format": "hh-sol-artifact-1",
  "contractName": "LPInsolvencyHook",
  "sourceName": "contracts/mocks/LPInsolvencyHook.sol",
  "abi": [
    {
      "inputs": [
        {
          "internalType": "contract IPolicyPool",
          "name": "policyPool_",
          "type": "address"
        },
        {
          "internalType": "contract IEToken",
          "name": "eToken_",
          "type": "address"
        },
        {
          "internalType": "bool",
          "name": "coverEToken_",
          "type": "bool"
        }
      ],
      "stateMutability": "nonpayable",
      "type": "constructor"
    },
    {
      "anonymous": false,
      "inputs": [
        {
          "indexed": false,
          "internalType": "uint256",
          "name": "amount",
          "type": "uint256"
        }
      ],
      "name": "OutOfCashDeposited",
      "type": "event"
    },
    {
      "inputs": [],
      "name": "cashDeposited",
      "outputs": [
        {
          "internalType": "uint256",
          "name": "",
          "type": "uint256"
        }
      ],
      "stateMutability": "view",
      "type": "function"
    },
    {
      "inputs": [
        {
          "internalType": "contract IEToken",
          "name": "eToken",
          "type": "address"
        },
        {
          "internalType": "uint256",
          "name": "paymentAmount",
          "type": "uint256"
        }
      ],
      "name": "insolventEToken",
      "outputs": [],
      "stateMutability": "nonpayable",
      "type": "function"
    },
    {
      "inputs": [
        {
          "internalType": "uint256",
          "name": "paymentAmount",
          "type": "uint256"
        }
      ],
      "name": "outOfCash",
      "outputs": [],
      "stateMutability": "nonpayable",
      "type": "function"
    },
    {
      "inputs": [],
      "name": "policyPool",
      "outputs": [
        {
          "internalType": "contract IPolicyPool",
          "name": "",
          "type": "address"
        }
      ],
      "stateMutability": "view",
      "type": "function"
    }
  ],
  "bytecode": "0x608060405234801561001057600080fd5b5060405161079638038061079683398101604081905261002f91610076565b600080546001600160a01b03199081166001600160a01b03958616179091556001805490911692909316919091179091556003805460ff19169115159190911790556100e0565b60008060006060848603121561008b57600080fd5b8351610096816100c8565b60208501519093506100a7816100c8565b604085015190925080151581146100bd57600080fd5b809150509250925092565b6001600160a01b03811681146100dd57600080fd5b50565b6106a7806100ef6000396000f3fe608060405234801561001057600080fd5b506004361061004c5760003560e01c80634d15eb03146100515780639950de5014610071578063b8450c1614610086578063ee842dda1461009d575b600080fd5b6000546040516001600160a01b0390911681526020015b60405180910390f35b61008461007f366004610578565b6100b0565b005b61008f60025481565b604051908152602001610068565b6100846100ab3660046105a4565b6101b5565b6001600160a01b038216331461010d5760405162461bcd60e51b815260206004820152601e60248201527f4d7573742062652063616c6c65642066726f6d207468652065546f6b656e000060448201526064015b60405180910390fd5b60035460ff16156101b15761019b67016345785d8a0000836001600160a01b0316636c6f45426040518163ffffffff1660e01b815260040160206040518083038186803b15801561015d57600080fd5b505afa158015610171573d6000803e3d6000fd5b505050506040513d601f19601f8201168201806040525081019061019591906105bd565b90610232565b6101a590826105d6565b90506101b1828261030c565b5050565b6000546001600160a01b031633146102195760405162461bcd60e51b815260206004820152602160248201527f5468652063616c6c6572206d7573742062652074686520506f6c696379506f6f6044820152601b60fa1b6064820152608401610104565b60015461022f906001600160a01b03168261030c565b50565b600082158061023f575081155b1561024c57506000610306565b816102606002670de0b6b3a76400006105ee565b61026c9060001961062f565b61027691906105ee565b8311156102d15760405162461bcd60e51b8152602060048201526024808201527f7761644d756c3a204d617468204d756c7469706c69636174696f6e204f766572604482015263666c6f7760e01b6064820152608401610104565b670de0b6b3a76400006102e56002826105ee565b6102ef8486610610565b6102f991906105d6565b61030391906105ee565b90505b92915050565b60008060009054906101000a90046001600160a01b03166001600160a01b031663e5a6b10f6040518163ffffffff1660e01b815260040160206040518083038186803b15801561035b57600080fd5b505afa15801561036f573d6000803e3d6000fd5b505050506040513d601f19601f82011682018060405250810190610393919061055b565b6040516340c10f1960e01b8152306004820152602481018490529091506001600160a01b038216906340c10f1990604401600060405180830381600087803b1580156103de57600080fd5b505af11580156103f2573d6000803e3d6000fd5b505060005460405163095ea7b360e01b81526001600160a01b03918216600482015260248101869052908416925063095ea7b39150604401602060405180830381600087803b15801561044457600080fd5b505af1158015610458573d6000803e3d6000fd5b505050506040513d601f19601f8201168201806040525081019061047c9190610532565b506000546040516311f9fbc960e21b81526001600160a01b03858116600483015260248201859052909116906347e7ef2490604401600060405180830381600087803b1580156104cb57600080fd5b505af11580156104df573d6000803e3d6000fd5b5050505081600260008282546104f591906105d6565b90915550506040518281527f28a7a02b94fe63dfc578a7e4f11e0ab08cb4b17e7c89018726c0d0deb1dc46769060200160405180910390a1505050565b60006020828403121561054457600080fd5b8151801515811461055457600080fd5b9392505050565b60006020828403121561056d57600080fd5b81516105548161065c565b6000806040838503121561058b57600080fd5b82356105968161065c565b946020939093013593505050565b6000602082840312156105b657600080fd5b5035919050565b6000602082840312156105cf57600080fd5b5051919050565b600082198211156105e9576105e9610646565b500190565b60008261060b57634e487b7160e01b600052601260045260246000fd5b500490565b600081600019048311821515161561062a5761062a610646565b500290565b60008282101561064157610641610646565b500390565b634e487b7160e01b600052601160045260246000fd5b6001600160a01b038116811461022f57600080fdfea2646970667358221220f8befad27db9ec62471ff41a1658449b57ca0d509cb0b59380d1dbbaee1df21264736f6c63430008060033",
  "linkReferences": {},
  "deployedLinkReferences": {}
}