{
  "_format": "hh-sol-artifact-1",
  "contractName": "LPManualWhitelist",
  "sourceName": "contracts/LPManualWhitelist.sol",
  "abi": [
    {
      "inputs": [
        {
          "internalType": "contract IPolicyPool",
          "name": "policyPool_",
          "type": "address"
        }
      ],
      "stateMutability": "nonpayable",
      "type": "constructor"
    },
    {
      "anonymous": false,
      "inputs": [
        {
          "indexed": false,
          "internalType": "address",
          "name": "previousAdmin",
          "type": "address"
        },
        {
          "indexed": false,
          "internalType": "address",
          "name": "newAdmin",
          "type": "address"
        }
      ],
      "name": "AdminChanged",
      "type": "event"
    },
    {
      "anonymous": false,
      "inputs": [
        {
          "indexed": true,
          "internalType": "address",
          "name": "beacon",
          "type": "address"
        }
      ],
      "name": "BeaconUpgraded",
      "type": "event"
    },
    {
      "anonymous": false,
      "inputs": [
        {
          "indexed": true,
          "internalType": "enum IPolicyPoolConfig.GovernanceActions",
          "name": "action",
          "type": "uint8"
        },
        {
          "indexed": false,
          "internalType": "uint256",
          "name": "value",
          "type": "uint256"
        }
      ],
      "name": "GovernanceAction",
      "type": "event"
    },
    {
      "anonymous": false,
      "inputs": [
        {
          "indexed": false,
          "internalType": "address",
          "name": "provider",
          "type": "address"
        },
        {
          "indexed": false,
          "internalType": "bool",
          "name": "whitelisted",
          "type": "bool"
        }
      ],
      "name": "LPWhitelisted",
      "type": "event"
    },
    {
      "anonymous": false,
      "inputs": [
        {
          "indexed": false,
          "internalType": "address",
          "name": "account",
          "type": "address"
        }
      ],
      "name": "Paused",
      "type": "event"
    },
    {
      "anonymous": false,
      "inputs": [
        {
          "indexed": false,
          "internalType": "address",
          "name": "account",
          "type": "address"
        }
      ],
      "name": "Unpaused",
      "type": "event"
    },
    {
      "anonymous": false,
      "inputs": [
        {
          "indexed": true,
          "internalType": "address",
          "name": "implementation",
          "type": "address"
        }
      ],
      "name": "Upgraded",
      "type": "event"
    },
    {
      "inputs": [],
      "name": "GUARDIAN_ROLE",
      "outputs": [
        {
          "internalType": "bytes32",
          "name": "",
          "type": "bytes32"
        }
      ],
      "stateMutability": "view",
      "type": "function"
    },
    {
      "inputs": [],
      "name": "LEVEL1_ROLE",
      "outputs": [
        {
          "internalType": "bytes32",
          "name": "",
          "type": "bytes32"
        }
      ],
      "stateMutability": "view",
      "type": "function"
    },
    {
      "inputs": [],
      "name": "LEVEL2_ROLE",
      "outputs": [
        {
          "internalType": "bytes32",
          "name": "",
          "type": "bytes32"
        }
      ],
      "stateMutability": "view",
      "type": "function"
    },
    {
      "inputs": [],
      "name": "LEVEL3_ROLE",
      "outputs": [
        {
          "internalType": "bytes32",
          "name": "",
          "type": "bytes32"
        }
      ],
      "stateMutability": "view",
      "type": "function"
    },
    {
      "inputs": [],
      "name": "LP_WHITELIST_ROLE",
      "outputs": [
        {
          "internalType": "bytes32",
          "name": "",
          "type": "bytes32"
        }
      ],
      "stateMutability": "view",
      "type": "function"
    },
    {
      "inputs": [],
      "name": "TWEAK_EXPIRATION",
      "outputs": [
        {
          "internalType": "uint40",
          "name": "",
          "type": "uint40"
        }
      ],
      "stateMutability": "view",
      "type": "function"
    },
    {
      "inputs": [
        {
          "internalType": "contract IEToken",
          "name": "",
          "type": "address"
        },
        {
          "internalType": "address",
          "name": "provider",
          "type": "address"
        },
        {
          "internalType": "uint256",
          "name": "",
          "type": "uint256"
        }
      ],
      "name": "acceptsDeposit",
      "outputs": [
        {
          "internalType": "bool",
          "name": "",
          "type": "bool"
        }
      ],
      "stateMutability": "view",
      "type": "function"
    },
    {
      "inputs": [
        {
          "internalType": "contract IEToken",
          "name": "",
          "type": "address"
        },
        {
          "internalType": "address",
          "name": "",
          "type": "address"
        },
        {
          "internalType": "address",
          "name": "providerTo",
          "type": "address"
        },
        {
          "internalType": "uint256",
          "name": "",
          "type": "uint256"
        }
      ],
      "name": "acceptsTransfer",
      "outputs": [
        {
          "internalType": "bool",
          "name": "",
          "type": "bool"
        }
      ],
      "stateMutability": "view",
      "type": "function"
    },
    {
      "inputs": [],
      "name": "currency",
      "outputs": [
        {
          "internalType": "contract IERC20Metadata",
          "name": "",
          "type": "address"
        }
      ],
      "stateMutability": "view",
      "type": "function"
    },
    {
      "inputs": [],
      "name": "initialize",
      "outputs": [],
      "stateMutability": "nonpayable",
      "type": "function"
    },
    {
      "inputs": [],
      "name": "lastTweak",
      "outputs": [
        {
          "internalType": "uint40",
          "name": "",
          "type": "uint40"
        },
        {
          "internalType": "uint56",
          "name": "",
          "type": "uint56"
        }
      ],
      "stateMutability": "view",
      "type": "function"
    },
    {
      "inputs": [],
      "name": "pause",
      "outputs": [],
      "stateMutability": "nonpayable",
      "type": "function"
    },
    {
      "inputs": [],
      "name": "paused",
      "outputs": [
        {
          "internalType": "bool",
          "name": "",
          "type": "bool"
        }
      ],
      "stateMutability": "view",
      "type": "function"
    },
    {
      "inputs": [],
      "name": "policyPool",
      "outputs": [
        {
          "internalType": "contract IPolicyPool",
          "name": "",
          "type": "address"
        }
      ],
      "stateMutability": "view",
      "type": "function"
    },
    {
      "inputs": [],
      "name": "unpause",
      "outputs": [],
      "stateMutability": "nonpayable",
      "type": "function"
    },
    {
      "inputs": [
        {
          "internalType": "address",
          "name": "newImplementation",
          "type": "address"
        }
      ],
      "name": "upgradeTo",
      "outputs": [],
      "stateMutability": "nonpayable",
      "type": "function"
    },
    {
      "inputs": [
        {
          "internalType": "address",
          "name": "newImplementation",
          "type": "address"
        },
        {
          "internalType": "bytes",
          "name": "data",
          "type": "bytes"
        }
      ],
      "name": "upgradeToAndCall",
      "outputs": [],
      "stateMutability": "payable",
      "type": "function"
    },
    {
      "inputs": [
        {
          "internalType": "address",
          "name": "provider",
          "type": "address"
        },
        {
          "internalType": "bool",
          "name": "whitelisted",
          "type": "bool"
        }
      ],
      "name": "whitelistAddress",
      "outputs": [],
      "stateMutability": "nonpayable",
      "type": "function"
    }
  ],
  "bytecode": "0x60c06040523060601b60805234801561001757600080fd5b506040516116e43803806116e48339810160408190526100369161004b565b60601b6001600160601b03191660a05261007b565b60006020828403121561005d57600080fd5b81516001600160a01b038116811461007457600080fd5b9392505050565b60805160601c60a05160601c6116066100de6000396000818161022901528181610519015281816107550152818161086f015281816109c60152610aba0152600081816103fc0152818161044501528181610626015261066601526116066000f3fe6080604052600436106101095760003560e01c80635c975abb116100955780638456cb59116100645780638456cb591461033f578063aad4148c14610354578063b9a45aac14610388578063e5a6b10f146103a8578063f67b2bad146103bd57600080fd5b80635c975abb146102a85780635fcdca37146102c05780637ed5acfa146102fd5780638129fc1c1461032a57600080fd5b8063468a8c9f116100dc578063468a8c9f146101aa5780634a47a3e0146101e65780634d15eb031461021a5780634f1ef286146102615780635b494dd51461027457600080fd5b806324ea54f41461010e5780633659cfe61461014357806337ee20dd146101655780633f4ba83a14610195575b600080fd5b34801561011a57600080fd5b506101306000805160206115b183398151915281565b6040519081526020015b60405180910390f35b34801561014f57600080fd5b5061016361015e36600461122b565b6103f1565b005b34801561017157600080fd5b506101856101803660046113b8565b6104c3565b604051901515815260200161013a565b3480156101a157600080fd5b506101636104e7565b3480156101b657600080fd5b5060c9546040805164ffffffffff831681526501000000000090920466ffffffffffffff1660208301520161013a565b3480156101f257600080fd5b506101307fa82e22387fca439f316d78ca566f383218ab8ae1b3e830178c9c82cbd16749c081565b34801561022657600080fd5b507f00000000000000000000000000000000000000000000000000000000000000005b6040516001600160a01b03909116815260200161013a565b61016361026f366004611286565b61061b565b34801561028057600080fd5b506101307f5ec196419322369c6bac572d883f4d990ae5ec82f7d93cdf89b85dbb05b63c2781565b3480156102b457600080fd5b5060975460ff16610185565b3480156102cc57600080fd5b506101856102db366004611367565b506001600160a01b0316600090815260ca602052604090205460ff1692915050565b34801561030957600080fd5b506103146201518081565b60405164ffffffffff909116815260200161013a565b34801561033657600080fd5b506101636106d1565b34801561034b57600080fd5b50610163610744565b34801561036057600080fd5b506101307fb494869573b0a0ce9caac5394e1d0d255d146ec7e2d30d643a4e1d78980f323581565b34801561039457600080fd5b506101636103a3366004611248565b61084c565b3480156103b457600080fd5b506102496109c2565b3480156103c957600080fd5b506101307fbf372ca3ebecfe59ac256f17697941bbe63302aced610e8b0e3646f743c7beb281565b306001600160a01b037f00000000000000000000000000000000000000000000000000000000000000001614156104435760405162461bcd60e51b815260040161043a90611448565b60405180910390fd5b7f00000000000000000000000000000000000000000000000000000000000000006001600160a01b0316610475610a5a565b6001600160a01b03161461049b5760405162461bcd60e51b815260040161043a90611494565b6104a481610a88565b604080516000808252602082019092526104c091839190610bb5565b50565b6001600160a01b038216600090815260ca602052604090205460ff165b9392505050565b6000805160206115b18339815191527fbf372ca3ebecfe59ac256f17697941bbe63302aced610e8b0e3646f743c7beb27f00000000000000000000000000000000000000000000000000000000000000006001600160a01b03166379502c556040518163ffffffff1660e01b815260040160206040518083038186803b15801561057057600080fd5b505afa158015610584573d6000803e3d6000fd5b505050506040513d601f19601f820116820180604052508101906105a8919061134a565b60405163c5b8f5cf60e01b815260048101849052602481018390523360448201526001600160a01b03919091169063c5b8f5cf9060640160006040518083038186803b1580156105f757600080fd5b505afa15801561060b573d6000803e3d6000fd5b50505050610617610d00565b5050565b306001600160a01b037f00000000000000000000000000000000000000000000000000000000000000001614156106645760405162461bcd60e51b815260040161043a90611448565b7f00000000000000000000000000000000000000000000000000000000000000006001600160a01b0316610696610a5a565b6001600160a01b0316146106bc5760405162461bcd60e51b815260040161043a90611494565b6106c582610a88565b61061782826001610bb5565b600054610100900460ff16806106ea575060005460ff16155b6107065760405162461bcd60e51b815260040161043a906114e0565b600054610100900460ff16158015610728576000805461ffff19166101011790555b610730610d93565b80156104c0576000805461ff001916905550565b6000805160206115b18339815191527f00000000000000000000000000000000000000000000000000000000000000006001600160a01b03166379502c556040518163ffffffff1660e01b815260040160206040518083038186803b1580156107ac57600080fd5b505afa1580156107c0573d6000803e3d6000fd5b505050506040513d601f19601f820116820180604052508101906107e4919061134a565b6040516312d9a6ad60e01b8152600481018390523360248201526001600160a01b0391909116906312d9a6ad9060440160006040518083038186803b15801561082c57600080fd5b505afa158015610840573d6000803e3d6000fd5b505050506104c0610dfa565b7fb494869573b0a0ce9caac5394e1d0d255d146ec7e2d30d643a4e1d78980f32357f00000000000000000000000000000000000000000000000000000000000000006001600160a01b03166379502c556040518163ffffffff1660e01b815260040160206040518083038186803b1580156108c657600080fd5b505afa1580156108da573d6000803e3d6000fd5b505050506040513d601f19601f820116820180604052508101906108fe919061134a565b6040516312d9a6ad60e01b8152600481018390523360248201526001600160a01b0391909116906312d9a6ad9060440160006040518083038186803b15801561094657600080fd5b505afa15801561095a573d6000803e3d6000fd5b505050506001600160a01b038316600081815260ca6020908152604091829020805460ff19168615159081179091558251938452908301527f8ef34cf5cfaa6ce2f80f1ba2912749c912a8b07c4fb8e9949e928e7cb592918f910160405180910390a1505050565b60007f00000000000000000000000000000000000000000000000000000000000000006001600160a01b031663e5a6b10f6040518163ffffffff1660e01b815260040160206040518083038186803b158015610a1d57600080fd5b505afa158015610a31573d6000803e3d6000fd5b505050506040513d601f19601f82011682018060405250810190610a55919061134a565b905090565b7f360894a13ba1a3210667c828492db98dca3e2076cc3735a920a3ca505d382bbc546001600160a01b031690565b6000805160206115b18339815191527fbf372ca3ebecfe59ac256f17697941bbe63302aced610e8b0e3646f743c7beb27f00000000000000000000000000000000000000000000000000000000000000006001600160a01b03166379502c556040518163ffffffff1660e01b815260040160206040518083038186803b158015610b1157600080fd5b505afa158015610b25573d6000803e3d6000fd5b505050506040513d601f19601f82011682018060405250810190610b49919061134a565b60405163c5b8f5cf60e01b815260048101849052602481018390523360448201526001600160a01b03919091169063c5b8f5cf9060640160006040518083038186803b158015610b9857600080fd5b505afa158015610bac573d6000803e3d6000fd5b50505050505050565b6000610bbf610a5a565b9050610bca84610e75565b600083511180610bd75750815b15610be857610be68484610f1a565b505b7f4910fdfa16fed3260ed0e7147f7cc6da11a60208b5b9406d12a635614ffd9143805460ff16610cf957805460ff191660011781556040516001600160a01b0383166024820152610c6790869060440160408051601f198184030181529190526020810180516001600160e01b0316631b2ce7f360e11b179052610f1a565b50805460ff19168155610c78610a5a565b6001600160a01b0316826001600160a01b031614610cf05760405162461bcd60e51b815260206004820152602f60248201527f45524331393637557067726164653a207570677261646520627265616b73206660448201526e75727468657220757067726164657360881b606482015260840161043a565b610cf985611005565b5050505050565b60975460ff16610d495760405162461bcd60e51b815260206004820152601460248201527314185d5cd8589b194e881b9bdd081c185d5cd95960621b604482015260640161043a565b6097805460ff191690557f5db9ee0a495bf2e6ff9c91a7834c1ba4fdd244a5e8aa4e537bd38aeae4b073aa335b6040516001600160a01b03909116815260200160405180910390a1565b600054610100900460ff1680610dac575060005460ff16155b610dc85760405162461bcd60e51b815260040161043a906114e0565b600054610100900460ff16158015610dea576000805461ffff19166101011790555b610df2611045565b6107306110ac565b60975460ff1615610e405760405162461bcd60e51b815260206004820152601060248201526f14185d5cd8589b194e881c185d5cd95960821b604482015260640161043a565b6097805460ff191660011790557f62e78cea01bee320cd4e420270b5ea74000d11b0c9f74754ebdbfc544b05a258610d763390565b803b610ed95760405162461bcd60e51b815260206004820152602d60248201527f455243313936373a206e657720696d706c656d656e746174696f6e206973206e60448201526c1bdd08184818dbdb9d1c9858dd609a1b606482015260840161043a565b7f360894a13ba1a3210667c828492db98dca3e2076cc3735a920a3ca505d382bbc80546001600160a01b0319166001600160a01b0392909216919091179055565b6060823b610f795760405162461bcd60e51b815260206004820152602660248201527f416464726573733a2064656c65676174652063616c6c20746f206e6f6e2d636f6044820152651b9d1c9858dd60d21b606482015260840161043a565b600080846001600160a01b031684604051610f9491906113f9565b600060405180830381855af49150503d8060008114610fcf576040519150601f19603f3d011682016040523d82523d6000602084013e610fd4565b606091505b5091509150610ffc828260405180606001604052806027815260200161158a60279139611113565b95945050505050565b61100e81610e75565b6040516001600160a01b038216907fbc7cd75a20ee27fd9adebab32041f755214dbc6bffa90cc0225b39da2e5c2d3b90600090a250565b600054610100900460ff168061105e575060005460ff16155b61107a5760405162461bcd60e51b815260040161043a906114e0565b600054610100900460ff1615801561109c576000805461ffff19166101011790555b6110a461114c565b61073061114c565b600054610100900460ff16806110c5575060005460ff16155b6110e15760405162461bcd60e51b815260040161043a906114e0565b600054610100900460ff16158015611103576000805461ffff19166101011790555b61110b61114c565b6107306111b6565b606083156111225750816104e0565b8251156111325782518084602001fd5b8160405162461bcd60e51b815260040161043a9190611415565b600054610100900460ff1680611165575060005460ff16155b6111815760405162461bcd60e51b815260040161043a906114e0565b600054610100900460ff16158015610730576000805461ffff191661010117905580156104c0576000805461ff001916905550565b600054610100900460ff16806111cf575060005460ff16155b6111eb5760405162461bcd60e51b815260040161043a906114e0565b600054610100900460ff1615801561120d576000805461ffff19166101011790555b6097805460ff1916905580156104c0576000805461ff001916905550565b60006020828403121561123d57600080fd5b81356104e081611574565b6000806040838503121561125b57600080fd5b823561126681611574565b91506020830135801515811461127b57600080fd5b809150509250929050565b6000806040838503121561129957600080fd5b82356112a481611574565b9150602083013567ffffffffffffffff808211156112c157600080fd5b818501915085601f8301126112d557600080fd5b8135818111156112e7576112e761155e565b604051601f8201601f19908116603f0116810190838211818310171561130f5761130f61155e565b8160405282815288602084870101111561132857600080fd5b8260208601602083013760006020848301015280955050505050509250929050565b60006020828403121561135c57600080fd5b81516104e081611574565b6000806000806080858703121561137d57600080fd5b843561138881611574565b9350602085013561139881611574565b925060408501356113a881611574565b9396929550929360600135925050565b6000806000606084860312156113cd57600080fd5b83356113d881611574565b925060208401356113e881611574565b929592945050506040919091013590565b6000825161140b81846020870161152e565b9190910192915050565b602081526000825180602084015261143481604085016020870161152e565b601f01601f19169190910160400192915050565b6020808252602c908201527f46756e6374696f6e206d7573742062652063616c6c6564207468726f7567682060408201526b19195b1959d85d1958d85b1b60a21b606082015260800190565b6020808252602c908201527f46756e6374696f6e206d7573742062652063616c6c6564207468726f7567682060408201526b6163746976652070726f787960a01b606082015260800190565b6020808252602e908201527f496e697469616c697a61626c653a20636f6e747261637420697320616c72656160408201526d191e481a5b9a5d1a585b1a5e995960921b606082015260800190565b60005b83811015611549578181015183820152602001611531565b83811115611558576000848401525b50505050565b634e487b7160e01b600052604160045260246000fd5b6001600160a01b03811681146104c057600080fdfe416464726573733a206c6f772d6c6576656c2064656c65676174652063616c6c206661696c656455435dd261a4b9b3364963f7738a7a662ad9c84396d64be3365284bb7f0a5041a264697066735822122037248903142cf568056f71ecc03061f1d8fcb77fe054a3d95cab8f3a16d6dab864736f6c63430008060033",
  "linkReferences": {},
  "deployedLinkReferences": {}
}