{
  "_format": "hh-sol-artifact-1",
  "contractName": "PolicyPoolMockForward",
  "sourceName": "contracts/mocks/PolicyPoolMock.sol",
  "abi": [
    {
      "inputs": [
        {
          "internalType": "address",
          "name": "forwardTo",
          "type": "address"
        },
        {
          "internalType": "contract IERC20Metadata",
          "name": "currency_",
          "type": "address"
        },
        {
          "internalType": "contract IPolicyPoolConfig",
          "name": "config_",
          "type": "address"
        }
      ],
      "stateMutability": "nonpayable",
      "type": "constructor"
    },
    {
      "stateMutability": "payable",
      "type": "fallback"
    },
    {
      "inputs": [],
      "name": "MAX_INT",
      "outputs": [
        {
          "internalType": "uint256",
          "name": "",
          "type": "uint256"
        }
      ],
      "stateMutability": "view",
      "type": "function"
    },
    {
      "inputs": [
        {
          "internalType": "uint256",
          "name": "amount",
          "type": "uint256"
        },
        {
          "internalType": "bool",
          "name": "positive",
          "type": "bool"
        }
      ],
      "name": "assetEarnings",
      "outputs": [],
      "stateMutability": "nonpayable",
      "type": "function"
    },
    {
      "inputs": [],
      "name": "config",
      "outputs": [
        {
          "internalType": "contract IPolicyPoolConfig",
          "name": "",
          "type": "address"
        }
      ],
      "stateMutability": "view",
      "type": "function"
    },
    {
      "inputs": [],
      "name": "currency",
      "outputs": [
        {
          "internalType": "contract IERC20Metadata",
          "name": "",
          "type": "address"
        }
      ],
      "stateMutability": "view",
      "type": "function"
    },
    {
      "inputs": [
        {
          "internalType": "uint256",
          "name": "",
          "type": "uint256"
        }
      ],
      "name": "getETokenAt",
      "outputs": [
        {
          "internalType": "contract IEToken",
          "name": "",
          "type": "address"
        }
      ],
      "stateMutability": "pure",
      "type": "function"
    },
    {
      "inputs": [],
      "name": "getETokenCount",
      "outputs": [
        {
          "internalType": "uint256",
          "name": "",
          "type": "uint256"
        }
      ],
      "stateMutability": "pure",
      "type": "function"
    },
    {
      "inputs": [],
      "name": "getInvestable",
      "outputs": [
        {
          "internalType": "uint256",
          "name": "",
          "type": "uint256"
        }
      ],
      "stateMutability": "view",
      "type": "function"
    },
    {
      "inputs": [
        {
          "internalType": "contract IAssetManager",
          "name": "newAssetManager",
          "type": "address"
        }
      ],
      "name": "setAssetManager",
      "outputs": [],
      "stateMutability": "nonpayable",
      "type": "function"
    },
    {
      "inputs": [
        {
          "internalType": "address",
          "name": "forwardTo",
          "type": "address"
        }
      ],
      "name": "setForwardTo",
      "outputs": [],
      "stateMutability": "nonpayable",
      "type": "function"
    },
    {
      "stateMutability": "payable",
      "type": "receive"
    }
  ],
  "bytecode": "0x608060405234801561001057600080fd5b5060405161086f38038061086f83398101604081905261002f916100bd565b600080546001600160a01b038086166001600160a01b031992831617835560018054868316908416179055600280549185169190921681179091556040805163948cb71960e01b81529051919263948cb7199260048084019382900301818387803b15801561009d57600080fd5b505af11580156100b1573d6000803e3d6000fd5b50505050505050610122565b6000806000606084860312156100d257600080fd5b83516100dd8161010a565b60208501519093506100ee8161010a565b60408501519092506100ff8161010a565b809150509250925092565b6001600160a01b038116811461011f57600080fd5b50565b61073e806101316000396000f3fe60806040526004361061008a5760003560e01c8063ab60016911610059578063ab60016914610131578063b0ec4bcf14610151578063d4b2700114610172578063dea167d5146101af578063e5a6b10f146101c357610099565b8063098d3228146100a157806343060237146100ca57806365e29c7e146100ea57806379502c55146100ff57610099565b36610099576100976101e1565b005b6100976101e1565b3480156100ad57600080fd5b506100b760001981565b6040519081526020015b60405180910390f35b3480156100d657600080fd5b506100976100e5366004610625565b6101fd565b3480156100f657600080fd5b506100b761057f565b34801561010b57600080fd5b506002546001600160a01b03165b6040516001600160a01b0390911681526020016100c1565b34801561013d57600080fd5b5061009761014c3660046106b5565b61057a565b34801561015d57600080fd5b5061011961016c366004610683565b50600090565b34801561017e57600080fd5b5061009761018d366004610625565b600080546001600160a01b0319166001600160a01b0392909216919091179055565b3480156101bb57600080fd5b5060006100b7565b3480156101cf57600080fd5b506001546001600160a01b0316610119565b6101fb6101f66000546001600160a01b031690565b610600565b565b6002546001600160a01b031633146102755760405162461bcd60e51b815260206004820152603160248201527f4f6e6c792074686520506f6c696379506f6f6c436f6e6669672063616e20636860448201527030b733b29030b9b9b2ba26b0b730b3b2b960791b606482015260840160405180910390fd5b600254604080516394217ad160e01b815290516000926001600160a01b0316916394217ad1916004808301926020929190829003018186803b1580156102ba57600080fd5b505afa1580156102ce573d6000803e3d6000fd5b505050506040513d601f19601f820116820180604052508101906102f29190610666565b6001600160a01b0316146104e457600260009054906101000a90046001600160a01b03166001600160a01b03166394217ad16040518163ffffffff1660e01b815260040160206040518083038186803b15801561034e57600080fd5b505afa158015610362573d6000803e3d6000fd5b505050506040513d601f19601f820116820180604052508101906103869190610666565b6001600160a01b031663cec16f3f6040518163ffffffff1660e01b8152600401600060405180830381600087803b1580156103c057600080fd5b505af11580156103d4573d6000803e3d6000fd5b5050600154600254604080516394217ad160e01b815290516001600160a01b03938416955063095ea7b3945091909216916394217ad1916004808301926020929190829003018186803b15801561042a57600080fd5b505afa15801561043e573d6000803e3d6000fd5b505050506040513d601f19601f820116820180604052508101906104629190610666565b6040516001600160e01b031960e084901b1681526001600160a01b03909116600482015260006024820152604401602060405180830381600087803b1580156104aa57600080fd5b505af11580156104be573d6000803e3d6000fd5b505050506040513d601f19601f820116820180604052508101906104e29190610649565b505b6001600160a01b0381161561057c5760015460405163095ea7b360e01b81526001600160a01b03838116600483015260001960248301529091169063095ea7b390604401602060405180830381600087803b15801561054257600080fd5b505af1158015610556573d6000803e3d6000fd5b505050506040513d601f19601f8201168201806040525081019061057a9190610649565b505b50565b6001546040516370a0823160e01b81523060048201526000916001600160a01b0316906370a082319060240160206040518083038186803b1580156105c357600080fd5b505afa1580156105d7573d6000803e3d6000fd5b505050506040513d601f19601f820116820180604052508101906105fb919061069c565b905090565b366000803760008036600080855af13d6000803e808015610620573d6000f35b3d6000fd5b60006020828403121561063757600080fd5b8135610642816106e5565b9392505050565b60006020828403121561065b57600080fd5b8151610642816106fa565b60006020828403121561067857600080fd5b8151610642816106e5565b60006020828403121561069557600080fd5b5035919050565b6000602082840312156106ae57600080fd5b5051919050565b600080604083850312156106c857600080fd5b8235915060208301356106da816106fa565b809150509250929050565b6001600160a01b038116811461057c57600080fd5b801515811461057c57600080fdfea2646970667358221220756ee579649e7d5cd9044431b127c301d15199212ce6cf315416d84d6cef70fe64736f6c63430008060033",
  "linkReferences": {},
  "deployedLinkReferences": {}
}