{
  "_format": "hh-sol-artifact-1",
  "contractName": "PolicyPoolConfig",
  "sourceName": "contracts/PolicyPoolConfig.sol",
  "abi": [
    {
      "anonymous": false,
      "inputs": [
        {
          "indexed": false,
          "internalType": "address",
          "name": "previousAdmin",
          "type": "address"
        },
        {
          "indexed": false,
          "internalType": "address",
          "name": "newAdmin",
          "type": "address"
        }
      ],
      "name": "AdminChanged",
      "type": "event"
    },
    {
      "anonymous": false,
      "inputs": [
        {
          "indexed": true,
          "internalType": "address",
          "name": "beacon",
          "type": "address"
        }
      ],
      "name": "BeaconUpgraded",
      "type": "event"
    },
    {
      "anonymous": false,
      "inputs": [
        {
          "indexed": true,
          "internalType": "enum IPolicyPoolConfig.GovernanceActions",
          "name": "action",
          "type": "uint8"
        },
        {
          "indexed": false,
          "internalType": "address",
          "name": "value",
          "type": "address"
        }
      ],
      "name": "ComponentChanged",
      "type": "event"
    },
    {
      "anonymous": false,
      "inputs": [
        {
          "indexed": true,
          "internalType": "contract IRiskModule",
          "name": "riskModule",
          "type": "address"
        },
        {
          "indexed": false,
          "internalType": "enum IPolicyPoolConfig.RiskModuleStatus",
          "name": "newStatus",
          "type": "uint8"
        }
      ],
      "name": "RiskModuleStatusChanged",
      "type": "event"
    },
    {
      "anonymous": false,
      "inputs": [
        {
          "indexed": true,
          "internalType": "bytes32",
          "name": "role",
          "type": "bytes32"
        },
        {
          "indexed": true,
          "internalType": "bytes32",
          "name": "previousAdminRole",
          "type": "bytes32"
        },
        {
          "indexed": true,
          "internalType": "bytes32",
          "name": "newAdminRole",
          "type": "bytes32"
        }
      ],
      "name": "RoleAdminChanged",
      "type": "event"
    },
    {
      "anonymous": false,
      "inputs": [
        {
          "indexed": true,
          "internalType": "bytes32",
          "name": "role",
          "type": "bytes32"
        },
        {
          "indexed": true,
          "internalType": "address",
          "name": "account",
          "type": "address"
        },
        {
          "indexed": true,
          "internalType": "address",
          "name": "sender",
          "type": "address"
        }
      ],
      "name": "RoleGranted",
      "type": "event"
    },
    {
      "anonymous": false,
      "inputs": [
        {
          "indexed": true,
          "internalType": "bytes32",
          "name": "role",
          "type": "bytes32"
        },
        {
          "indexed": true,
          "internalType": "address",
          "name": "account",
          "type": "address"
        },
        {
          "indexed": true,
          "internalType": "address",
          "name": "sender",
          "type": "address"
        }
      ],
      "name": "RoleRevoked",
      "type": "event"
    },
    {
      "anonymous": false,
      "inputs": [
        {
          "indexed": true,
          "internalType": "address",
          "name": "implementation",
          "type": "address"
        }
      ],
      "name": "Upgraded",
      "type": "event"
    },
    {
      "inputs": [],
      "name": "DEFAULT_ADMIN_ROLE",
      "outputs": [
        {
          "internalType": "bytes32",
          "name": "",
          "type": "bytes32"
        }
      ],
      "stateMutability": "view",
      "type": "function"
    },
    {
      "inputs": [],
      "name": "GUARDIAN_ROLE",
      "outputs": [
        {
          "internalType": "bytes32",
          "name": "",
          "type": "bytes32"
        }
      ],
      "stateMutability": "view",
      "type": "function"
    },
    {
      "inputs": [],
      "name": "L2_RM_LIMIT",
      "outputs": [
        {
          "internalType": "uint256",
          "name": "",
          "type": "uint256"
        }
      ],
      "stateMutability": "view",
      "type": "function"
    },
    {
      "inputs": [],
      "name": "LEVEL1_ROLE",
      "outputs": [
        {
          "internalType": "bytes32",
          "name": "",
          "type": "bytes32"
        }
      ],
      "stateMutability": "view",
      "type": "function"
    },
    {
      "inputs": [],
      "name": "LEVEL2_ROLE",
      "outputs": [
        {
          "internalType": "bytes32",
          "name": "",
          "type": "bytes32"
        }
      ],
      "stateMutability": "view",
      "type": "function"
    },
    {
      "inputs": [],
      "name": "LEVEL3_ROLE",
      "outputs": [
        {
          "internalType": "bytes32",
          "name": "",
          "type": "bytes32"
        }
      ],
      "stateMutability": "view",
      "type": "function"
    },
    {
      "inputs": [
        {
          "internalType": "contract IRiskModule",
          "name": "riskModule",
          "type": "address"
        }
      ],
      "name": "addRiskModule",
      "outputs": [],
      "stateMutability": "nonpayable",
      "type": "function"
    },
    {
      "inputs": [],
      "name": "assetManager",
      "outputs": [
        {
          "internalType": "contract IAssetManager",
          "name": "",
          "type": "address"
        }
      ],
      "stateMutability": "view",
      "type": "function"
    },
    {
      "inputs": [
        {
          "internalType": "contract IRiskModule",
          "name": "riskModule",
          "type": "address"
        },
        {
          "internalType": "enum IPolicyPoolConfig.RiskModuleStatus",
          "name": "newStatus",
          "type": "uint8"
        }
      ],
      "name": "changeRiskModuleStatus",
      "outputs": [],
      "stateMutability": "nonpayable",
      "type": "function"
    },
    {
      "inputs": [
        {
          "internalType": "contract IRiskModule",
          "name": "riskModule",
          "type": "address"
        }
      ],
      "name": "checkAcceptsNewPolicy",
      "outputs": [],
      "stateMutability": "view",
      "type": "function"
    },
    {
      "inputs": [
        {
          "internalType": "contract IRiskModule",
          "name": "riskModule",
          "type": "address"
        }
      ],
      "name": "checkAcceptsResolvePolicy",
      "outputs": [],
      "stateMutability": "view",
      "type": "function"
    },
    {
      "inputs": [
        {
          "internalType": "bytes32",
          "name": "role",
          "type": "bytes32"
        },
        {
          "internalType": "address",
          "name": "account",
          "type": "address"
        }
      ],
      "name": "checkRole",
      "outputs": [],
      "stateMutability": "view",
      "type": "function"
    },
    {
      "inputs": [
        {
          "internalType": "bytes32",
          "name": "role1",
          "type": "bytes32"
        },
        {
          "internalType": "bytes32",
          "name": "role2",
          "type": "bytes32"
        },
        {
          "internalType": "address",
          "name": "account",
          "type": "address"
        }
      ],
      "name": "checkRole2",
      "outputs": [],
      "stateMutability": "view",
      "type": "function"
    },
    {
      "inputs": [],
      "name": "connect",
      "outputs": [],
      "stateMutability": "nonpayable",
      "type": "function"
    },
    {
      "inputs": [
        {
          "internalType": "bytes32",
          "name": "role",
          "type": "bytes32"
        }
      ],
      "name": "getRoleAdmin",
      "outputs": [
        {
          "internalType": "bytes32",
          "name": "",
          "type": "bytes32"
        }
      ],
      "stateMutability": "view",
      "type": "function"
    },
    {
      "inputs": [
        {
          "internalType": "bytes32",
          "name": "role",
          "type": "bytes32"
        },
        {
          "internalType": "address",
          "name": "account",
          "type": "address"
        }
      ],
      "name": "grantRole",
      "outputs": [],
      "stateMutability": "nonpayable",
      "type": "function"
    },
    {
      "inputs": [
        {
          "internalType": "bytes32",
          "name": "role",
          "type": "bytes32"
        },
        {
          "internalType": "address",
          "name": "account",
          "type": "address"
        }
      ],
      "name": "hasRole",
      "outputs": [
        {
          "internalType": "bool",
          "name": "",
          "type": "bool"
        }
      ],
      "stateMutability": "view",
      "type": "function"
    },
    {
      "inputs": [
        {
          "internalType": "contract IPolicyPool",
          "name": "policyPool_",
          "type": "address"
        },
        {
          "internalType": "address",
          "name": "treasury_",
          "type": "address"
        }
      ],
      "name": "initialize",
      "outputs": [],
      "stateMutability": "nonpayable",
      "type": "function"
    },
    {
      "inputs": [],
      "name": "insolvencyHook",
      "outputs": [
        {
          "internalType": "contract IInsolvencyHook",
          "name": "",
          "type": "address"
        }
      ],
      "stateMutability": "view",
      "type": "function"
    },
    {
      "inputs": [],
      "name": "lpWhitelist",
      "outputs": [
        {
          "internalType": "contract ILPWhitelist",
          "name": "",
          "type": "address"
        }
      ],
      "stateMutability": "view",
      "type": "function"
    },
    {
      "inputs": [],
      "name": "policyPool",
      "outputs": [
        {
          "internalType": "contract IPolicyPool",
          "name": "",
          "type": "address"
        }
      ],
      "stateMutability": "view",
      "type": "function"
    },
    {
      "inputs": [
        {
          "internalType": "contract IRiskModule",
          "name": "riskModule",
          "type": "address"
        }
      ],
      "name": "removeRiskModule",
      "outputs": [],
      "stateMutability": "nonpayable",
      "type": "function"
    },
    {
      "inputs": [
        {
          "internalType": "bytes32",
          "name": "role",
          "type": "bytes32"
        },
        {
          "internalType": "address",
          "name": "account",
          "type": "address"
        }
      ],
      "name": "renounceRole",
      "outputs": [],
      "stateMutability": "nonpayable",
      "type": "function"
    },
    {
      "inputs": [
        {
          "internalType": "bytes32",
          "name": "role",
          "type": "bytes32"
        },
        {
          "internalType": "address",
          "name": "account",
          "type": "address"
        }
      ],
      "name": "revokeRole",
      "outputs": [],
      "stateMutability": "nonpayable",
      "type": "function"
    },
    {
      "inputs": [
        {
          "internalType": "contract IAssetManager",
          "name": "assetManager_",
          "type": "address"
        }
      ],
      "name": "setAssetManager",
      "outputs": [],
      "stateMutability": "nonpayable",
      "type": "function"
    },
    {
      "inputs": [
        {
          "internalType": "contract IInsolvencyHook",
          "name": "insolvencyHook_",
          "type": "address"
        }
      ],
      "name": "setInsolvencyHook",
      "outputs": [],
      "stateMutability": "nonpayable",
      "type": "function"
    },
    {
      "inputs": [
        {
          "internalType": "contract ILPWhitelist",
          "name": "lpWhitelist_",
          "type": "address"
        }
      ],
      "name": "setLPWhitelist",
      "outputs": [],
      "stateMutability": "nonpayable",
      "type": "function"
    },
    {
      "inputs": [
        {
          "internalType": "address",
          "name": "treasury_",
          "type": "address"
        }
      ],
      "name": "setTreasury",
      "outputs": [],
      "stateMutability": "nonpayable",
      "type": "function"
    },
    {
      "inputs": [
        {
          "internalType": "bytes4",
          "name": "interfaceId",
          "type": "bytes4"
        }
      ],
      "name": "supportsInterface",
      "outputs": [
        {
          "internalType": "bool",
          "name": "",
          "type": "bool"
        }
      ],
      "stateMutability": "view",
      "type": "function"
    },
    {
      "inputs": [],
      "name": "treasury",
      "outputs": [
        {
          "internalType": "address",
          "name": "",
          "type": "address"
        }
      ],
      "stateMutability": "view",
      "type": "function"
    },
    {
      "inputs": [
        {
          "internalType": "address",
          "name": "newImplementation",
          "type": "address"
        }
      ],
      "name": "upgradeTo",
      "outputs": [],
      "stateMutability": "nonpayable",
      "type": "function"
    },
    {
      "inputs": [
        {
          "internalType": "address",
          "name": "newImplementation",
          "type": "address"
        },
        {
          "internalType": "bytes",
          "name": "data",
          "type": "bytes"
        }
      ],
      "name": "upgradeToAndCall",
      "outputs": [],
      "stateMutability": "payable",
      "type": "function"
    }
  ],
  "bytecode": "0x60a06040523060601b60805234801561001757600080fd5b5060805160601c6127c661004b600039600081816108550152818161089501528181610c500152610c9001526127c66000f3fe6080604052600436106101e35760003560e01c806361d027b311610102578063a217fddf11610095578063d547741f11610064578063d547741f14610597578063f0f44260146105b7578063f67b2bad146105d7578063f7d72a25146105f957600080fd5b8063a217fddf14610522578063bbfb8bae14610537578063c5b8f5cf14610557578063ccdcd9cf1461057757600080fd5b80639042cf68116100d15780639042cf68146104af57806391d14854146104cf57806394217ad1146104ef578063948cb7191461050d57600080fd5b806361d027b31461043857806363b12da814610456578063878ccf78146104745780638def80e31461049457600080fd5b80633659cfe61161017a5780634a47a3e0116101495780634a47a3e0146103b15780634d15eb03146103d35780634f1ef286146103f15780635b494dd51461040457600080fd5b80633659cfe614610331578063398ae8e6146103515780634306023714610371578063485cc9551461039157600080fd5b806324ea54f4116101b657806324ea54f4146102af5780632c08296b146102d15780632f2ff15d146102f157806336568abe1461031157600080fd5b806301ffc9a7146101e857806312d9a6ad1461021d5780631455cd281461023f578063248a9ca314610271575b600080fd5b3480156101f457600080fd5b50610208610203366004612296565b610619565b60405190151581526020015b60405180910390f35b34801561022957600080fd5b5061023d61023836600461222d565b610650565b005b34801561024b57600080fd5b5060fd546001600160a01b03165b6040516001600160a01b039091168152602001610214565b34801561027d57600080fd5b506102a161028c366004612214565b60009081526065602052604090206001015490565b604051908152602001610214565b3480156102bb57600080fd5b506102a160008051602061277183398151915281565b3480156102dd57600080fd5b5061023d6102ec366004612133565b61065e565b3480156102fd57600080fd5b5061023d61030c36600461222d565b6107a5565b34801561031d57600080fd5b5061023d61032c36600461222d565b6107d0565b34801561033d57600080fd5b5061023d61034c366004612133565b61084a565b34801561035d57600080fd5b5061023d61036c366004612133565b610913565b34801561037d57600080fd5b5061023d61038c366004612133565b610a48565b34801561039d57600080fd5b5061023d6103ac3660046122dd565b610bbe565b3480156103bd57600080fd5b506102a160008051602061275183398151915281565b3480156103df57600080fd5b5060fe546001600160a01b0316610259565b61023d6103ff366004612150565b610c45565b34801561041057600080fd5b506102a17f5ec196419322369c6bac572d883f4d990ae5ec82f7d93cdf89b85dbb05b63c2781565b34801561044457600080fd5b5060fb546001600160a01b0316610259565b34801561046257600080fd5b5060ff546001600160a01b0316610259565b34801561048057600080fd5b5061023d61048f366004612133565b610cfb565b3480156104a057600080fd5b506102a166b1a2bc2ec5000081565b3480156104bb57600080fd5b5061023d6104ca366004612133565b610dbb565b3480156104db57600080fd5b506102086104ea36600461222d565b61113c565b3480156104fb57600080fd5b5060fc546001600160a01b0316610259565b34801561051957600080fd5b5061023d611167565b34801561052e57600080fd5b506102a1600081565b34801561054357600080fd5b5061023d610552366004612133565b6111e9565b34801561056357600080fd5b5061023d61057236600461225d565b611271565b34801561058357600080fd5b5061023d610592366004612133565b611289565b3480156105a357600080fd5b5061023d6105b236600461222d565b611435565b3480156105c357600080fd5b5061023d6105d2366004612133565b61145b565b3480156105e357600080fd5b506102a160008051602061270a83398151915281565b34801561060557600080fd5b5061023d61061436600461230b565b6114bc565b60006001600160e01b03198216637965db0b60e01b148061064a57506301ffc9a760e01b6001600160e01b03198316145b92915050565b61065a82826117b9565b5050565b60008051602061277183398151915260008051602061270a833981519152610686823361113c565b6106945761069481336117b9565b6001600160a01b038316158061072f575060fe5460408051634d15eb0360e01b815290516001600160a01b0392831692861691634d15eb03916004808301926020929190829003018186803b1580156106ec57600080fd5b505afa158015610700573d6000803e3d6000fd5b505050506040513d601f19601f8201168201806040525081019061072491906122c0565b6001600160a01b0316145b6107545760405162461bcd60e51b815260040161074b90612442565b60405180910390fd5b60fd80546001600160a01b0319166001600160a01b038516179055600360fd546040516001600160a01b0390911681526000805160206126ea833981519152906020015b60405180910390a2505050565b6000828152606560205260409020600101546107c181336117b9565b6107cb838361181d565b505050565b6001600160a01b03811633146108405760405162461bcd60e51b815260206004820152602f60248201527f416363657373436f6e74726f6c3a2063616e206f6e6c792072656e6f756e636560448201526e103937b632b9903337b91039b2b63360891b606482015260840161074b565b61065a82826118a3565b306001600160a01b037f00000000000000000000000000000000000000000000000000000000000000001614156108935760405162461bcd60e51b815260040161074b90612489565b7f00000000000000000000000000000000000000000000000000000000000000006001600160a01b03166108c561190a565b6001600160a01b0316146108eb5760405162461bcd60e51b815260040161074b9061252b565b6108f481611938565b604080516000808252602082019092526109109183919061196e565b50565b60008051602061277183398151915260008051602061270a83398151915261093b823361113c565b6109495761094981336117b9565b6001600160a01b03831615806109e4575060fe5460408051634d15eb0360e01b815290516001600160a01b0392831692861691634d15eb03916004808301926020929190829003018186803b1580156109a157600080fd5b505afa1580156109b5573d6000803e3d6000fd5b505050506040513d601f19601f820116820180604052508101906109d991906122c0565b6001600160a01b0316145b610a005760405162461bcd60e51b815260040161074b90612442565b60ff80546001600160a01b0319166001600160a01b038516179055600460ff546040516001600160a01b0390911681526000805160206126ea83398151915290602001610798565b60008051602061270a833981519152610a6181336117b9565b6001600160a01b0382161580610afc575060fe5460408051634d15eb0360e01b815290516001600160a01b0392831692851691634d15eb03916004808301926020929190829003018186803b158015610ab957600080fd5b505afa158015610acd573d6000803e3d6000fd5b505050506040513d601f19601f82011682018060405250810190610af191906122c0565b6001600160a01b0316145b610b185760405162461bcd60e51b815260040161074b90612442565b60fe54604051634306023760e01b81526001600160a01b03848116600483015290911690634306023790602401600060405180830381600087803b158015610b5f57600080fd5b505af1158015610b73573d6000803e3d6000fd5b505060fc80546001600160a01b0319166001600160a01b038616908117909155604051908152600292506000805160206126ea83398151915291506020015b60405180910390a25050565b600054610100900460ff1680610bd7575060005460ff16155b610bf35760405162461bcd60e51b815260040161074b90612577565b600054610100900460ff16158015610c15576000805461ffff19166101011790555b610c1d611ab9565b610c25611b3c565b610c2f8383611b9a565b80156107cb576000805461ff0019169055505050565b306001600160a01b037f0000000000000000000000000000000000000000000000000000000000000000161415610c8e5760405162461bcd60e51b815260040161074b90612489565b7f00000000000000000000000000000000000000000000000000000000000000006001600160a01b0316610cc061190a565b6001600160a01b031614610ce65760405162461bcd60e51b815260040161074b9061252b565b610cef82611938565b61065a8282600161196e565b6001600160a01b0381166000908152610100602052604090205460ff166001816003811115610d2c57610d2c612692565b1480610d4957506002816003811115610d4757610d47612692565b145b61065a5760405162461bcd60e51b815260206004820152603a60248201527f4d6f64756c65206d75737420626520616374697665206f72206465707265636160448201527f74656420746f2070726f63657373207265736f6c7574696f6e73000000000000606482015260840161074b565b60008051602061270a833981519152600080516020612751833981519152610de3823361113c565b610df157610df181336117b9565b6001600160a01b0383166000908152610100602052604081205460ff166003811115610e1f57610e1f612692565b14610e6c5760405162461bcd60e51b815260206004820152601f60248201527f5269736b204d6f64756c6520616c726561647920696e2074686520706f6f6c00604482015260640161074b565b6001600160a01b038316610ec25760405162461bcd60e51b815260206004820152601860248201527f7269736b4d6f64756c652063616e2774206265207a65726f0000000000000000604482015260640161074b565b60fe5460408051634d15eb0360e01b815290516001600160a01b0392831692861691634d15eb03916004808301926020929190829003018186803b158015610f0957600080fd5b505afa158015610f1d573d6000803e3d6000fd5b505050506040513d601f19601f82011682018060405250810190610f4191906122c0565b6001600160a01b031614610fa25760405162461bcd60e51b815260206004820152602260248201527f5269736b4d6f64756c65206e6f74206c696e6b656420746f207468697320706f6044820152611bdb60f21b606482015260840161074b565b610fba60008051602061270a8339815191523361113c565b806110ca575061104266b1a2bc2ec50000846001600160a01b03166341ea6a0f6040518163ffffffff1660e01b815260040160206040518083038186803b15801561100457600080fd5b505afa158015611018573d6000803e3d6000fd5b505050506040513d601f19601f8201168201806040525081019061103c919061233d565b90611c42565b60fe60009054906101000a90046001600160a01b03166001600160a01b031663b77ddfea6040518163ffffffff1660e01b815260040160206040518083038186803b15801561109057600080fd5b505afa1580156110a4573d6000803e3d6000fd5b505050506040513d601f19601f820116820180604052508101906110c8919061233d565b115b6110e65760405162461bcd60e51b815260040161074b906124d5565b6001600160a01b0383166000818152610100602052604090819020805460ff1916600190811790915590517fd53eb6b3f6b4537d457cf1ef5020afc3e8cef610aa1472d19e442e9a62fef4b291610798916123e7565b60009182526065602090815260408084206001600160a01b0393909316845291905290205460ff1690565b60fe546001600160a01b03161580611189575060fe546001600160a01b031633145b6111d55760405162461bcd60e51b815260206004820152601c60248201527f506f6c696379506f6f6c20616c726561647920636f6e6e656374656400000000604482015260640161074b565b60fe80546001600160a01b03191633179055565b6001600160a01b0381166000908152610100602052604090205460ff16600181600381111561121a5761121a612692565b1461065a5760405162461bcd60e51b815260206004820152602160248201527f524d206d6f64756c65206e6f7420666f756e64206f72206e6f742061637469766044820152606560f81b606482015260840161074b565b61127b838261113c565b6107cb576107cb82826117b9565b6000805160206127518339815191526112a281336117b9565b6001600160a01b0382166000908152610100602052604081205460ff1660038111156112d0576112d0612692565b14156113165760405162461bcd60e51b8152602060048201526015602482015274149a5cdac8135bd91d5b19481b9bdd08199bdd5b99605a1b604482015260640161074b565b816001600160a01b031663ca996de36040518163ffffffff1660e01b815260040160206040518083038186803b15801561134f57600080fd5b505afa158015611363573d6000803e3d6000fd5b505050506040513d601f19601f82011682018060405250810190611387919061233d565b156113e75760405162461bcd60e51b815260206004820152602a60248201527f43616e27742072656d6f76652061206d6f64756c6520776974682061637469766044820152696520706f6c696369657360b01b606482015260840161074b565b6001600160a01b03821660008181526101006020526040808220805460ff19169055517fd53eb6b3f6b4537d457cf1ef5020afc3e8cef610aa1472d19e442e9a62fef4b291610bb2916123e7565b60008281526065602052604090206001015461145181336117b9565b6107cb83836118a3565b60008051602061270a83398151915261147481336117b9565b60fb80546001600160a01b0319166001600160a01b038416179055600160fb546040516001600160a01b0390911681526000805160206126ea83398151915290602001610bb2565b60008051602061277183398151915260008051602061270a8339815191526000805160206127518339815191526114f3833361113c565b1580156115075750611505823361113c565b155b156115165761151681336117b9565b6001600160a01b0385166000908152610100602052604081205460ff16600381111561154457611544612692565b141561158a5760405162461bcd60e51b8152602060048201526015602482015274149a5cdac8135bd91d5b19481b9bdd08199bdd5b99605a1b604482015260640161074b565b600384600381111561159e5761159e612692565b1415806115be57506115be6000805160206127718339815191523361113c565b6116145760405162461bcd60e51b815260206004820152602160248201527f4f6e6c7920475541524449414e2063616e2073757370656e64206d6f64756c656044820152607360f81b606482015260840161074b565b600184600381111561162857611628612692565b141580611648575061164860008051602061270a8339815191523361113c565b8061171a575061169266b1a2bc2ec50000866001600160a01b03166341ea6a0f6040518163ffffffff1660e01b815260040160206040518083038186803b15801561100457600080fd5b60fe60009054906101000a90046001600160a01b03166001600160a01b031663b77ddfea6040518163ffffffff1660e01b815260040160206040518083038186803b1580156116e057600080fd5b505afa1580156116f4573d6000803e3d6000fd5b505050506040513d601f19601f82011682018060405250810190611718919061233d565b115b6117365760405162461bcd60e51b815260040161074b906124d5565b6001600160a01b038516600090815261010060205260409020805485919060ff1916600183600381111561176c5761176c612692565b0217905550846001600160a01b03167fd53eb6b3f6b4537d457cf1ef5020afc3e8cef610aa1472d19e442e9a62fef4b2856040516117aa91906123e7565b60405180910390a25050505050565b6117c3828261113c565b61065a576117db816001600160a01b03166014611d1a565b6117e6836020611d1a565b6040516020016117f7929190612372565b60408051601f198184030181529082905262461bcd60e51b825261074b9160040161240f565b611827828261113c565b61065a5760008281526065602090815260408083206001600160a01b03851684529091529020805460ff1916600117905561185f3390565b6001600160a01b0316816001600160a01b0316837f2f8788117e7eff1d82e926ec794901d17c78024a50270940304540a733656f0d60405160405180910390a45050565b6118ad828261113c565b1561065a5760008281526065602090815260408083206001600160a01b0385168085529252808320805460ff1916905551339285917ff6391f5c32d9c69d2a47ea670b442974b53935d1edc7fd64eb21e047a839171b9190a45050565b7f360894a13ba1a3210667c828492db98dca3e2076cc3735a920a3ca505d382bbc546001600160a01b031690565b60008051602061277183398151915260008051602061270a833981519152611960823361113c565b6107cb576107cb81336117b9565b600061197861190a565b905061198384611eb6565b6000835111806119905750815b156119a15761199f8484611f5b565b505b7f4910fdfa16fed3260ed0e7147f7cc6da11a60208b5b9406d12a635614ffd9143805460ff16611ab257805460ff191660011781556040516001600160a01b0383166024820152611a2090869060440160408051601f198184030181529190526020810180516001600160e01b0316631b2ce7f360e11b179052611f5b565b50805460ff19168155611a3161190a565b6001600160a01b0316826001600160a01b031614611aa95760405162461bcd60e51b815260206004820152602f60248201527f45524331393637557067726164653a207570677261646520627265616b73206660448201526e75727468657220757067726164657360881b606482015260840161074b565b611ab285612046565b5050505050565b600054610100900460ff1680611ad2575060005460ff16155b611aee5760405162461bcd60e51b815260040161074b90612577565b600054610100900460ff16158015611b10576000805461ffff19166101011790555b611b18612086565b611b20612086565b611b28612086565b8015610910576000805461ff001916905550565b600054610100900460ff1680611b55575060005460ff16155b611b715760405162461bcd60e51b815260040161074b90612577565b600054610100900460ff16158015611b18576000805461ffff1916610101179055611b20612086565b600054610100900460ff1680611bb3575060005460ff16155b611bcf5760405162461bcd60e51b815260040161074b90612577565b600054610100900460ff16158015611bf1576000805461ffff19166101011790555b611bfc6000336120f0565b60fe80546001600160a01b038086166001600160a01b03199283161790925560fb80549285169290911691909117905580156107cb576000805461ff0019169055505050565b6000821580611c4f575081155b15611c5c5750600061064a565b81611c706002670de0b6b3a76400006125dd565b611c7c9060001961261e565b611c8691906125dd565b831115611ce15760405162461bcd60e51b8152602060048201526024808201527f7761644d756c3a204d617468204d756c7469706c69636174696f6e204f766572604482015263666c6f7760e01b606482015260840161074b565b670de0b6b3a7640000611cf56002826125dd565b611cff84866125ff565b611d0991906125c5565b611d1391906125dd565b9392505050565b60606000611d298360026125ff565b611d349060026125c5565b67ffffffffffffffff811115611d4c57611d4c6126be565b6040519080825280601f01601f191660200182016040528015611d76576020820181803683370190505b509050600360fc1b81600081518110611d9157611d916126a8565b60200101906001600160f81b031916908160001a905350600f60fb1b81600181518110611dc057611dc06126a8565b60200101906001600160f81b031916908160001a9053506000611de48460026125ff565b611def9060016125c5565b90505b6001811115611e67576f181899199a1a9b1b9c1cb0b131b232b360811b85600f1660108110611e2357611e236126a8565b1a60f81b828281518110611e3957611e396126a8565b60200101906001600160f81b031916908160001a90535060049490941c93611e6081612665565b9050611df2565b508315611d135760405162461bcd60e51b815260206004820181905260248201527f537472696e67733a20686578206c656e67746820696e73756666696369656e74604482015260640161074b565b803b611f1a5760405162461bcd60e51b815260206004820152602d60248201527f455243313936373a206e657720696d706c656d656e746174696f6e206973206e60448201526c1bdd08184818dbdb9d1c9858dd609a1b606482015260840161074b565b7f360894a13ba1a3210667c828492db98dca3e2076cc3735a920a3ca505d382bbc80546001600160a01b0319166001600160a01b0392909216919091179055565b6060823b611fba5760405162461bcd60e51b815260206004820152602660248201527f416464726573733a2064656c65676174652063616c6c20746f206e6f6e2d636f6044820152651b9d1c9858dd60d21b606482015260840161074b565b600080846001600160a01b031684604051611fd59190612356565b600060405180830381855af49150503d8060008114612010576040519150601f19603f3d011682016040523d82523d6000602084013e612015565b606091505b509150915061203d828260405180606001604052806027815260200161272a602791396120fa565b95945050505050565b61204f81611eb6565b6040516001600160a01b038216907fbc7cd75a20ee27fd9adebab32041f755214dbc6bffa90cc0225b39da2e5c2d3b90600090a250565b600054610100900460ff168061209f575060005460ff16155b6120bb5760405162461bcd60e51b815260040161074b90612577565b600054610100900460ff16158015611b28576000805461ffff19166101011790558015610910576000805461ff001916905550565b61065a828261181d565b60608315612109575081611d13565b8251156121195782518084602001fd5b8160405162461bcd60e51b815260040161074b919061240f565b60006020828403121561214557600080fd5b8135611d13816126d4565b6000806040838503121561216357600080fd5b823561216e816126d4565b9150602083013567ffffffffffffffff8082111561218b57600080fd5b818501915085601f83011261219f57600080fd5b8135818111156121b1576121b16126be565b604051601f8201601f19908116603f011681019083821181831017156121d9576121d96126be565b816040528281528860208487010111156121f257600080fd5b8260208601602083013760006020848301015280955050505050509250929050565b60006020828403121561222657600080fd5b5035919050565b6000806040838503121561224057600080fd5b823591506020830135612252816126d4565b809150509250929050565b60008060006060848603121561227257600080fd5b8335925060208401359150604084013561228b816126d4565b809150509250925092565b6000602082840312156122a857600080fd5b81356001600160e01b031981168114611d1357600080fd5b6000602082840312156122d257600080fd5b8151611d13816126d4565b600080604083850312156122f057600080fd5b82356122fb816126d4565b91506020830135612252816126d4565b6000806040838503121561231e57600080fd5b8235612329816126d4565b915060208301356004811061225257600080fd5b60006020828403121561234f57600080fd5b5051919050565b60008251612368818460208701612635565b9190910192915050565b7f416363657373436f6e74726f6c3a206163636f756e74200000000000000000008152600083516123aa816017850160208801612635565b7001034b99036b4b9b9b4b733903937b6329607d1b60179184019182015283516123db816028840160208801612635565b01602801949350505050565b602081016004831061240957634e487b7160e01b600052602160045260246000fd5b91905290565b602081526000825180602084015261242e816040850160208701612635565b601f01601f19169190910160400192915050565b60208082526027908201527f436f6d706f6e656e74206e6f74206c696e6b656420746f207468697320506f6c6040820152661a58de541bdbdb60ca1b606082015260800190565b6020808252602c908201527f46756e6374696f6e206d7573742062652063616c6c6564207468726f7567682060408201526b19195b1959d85d1958d85b1b60a21b606082015260800190565b60208082526036908201527f5269736b4d6f64756c6520534352204c696d6974206578636565647320746865604082015275103634b6b4ba103337b9102622ab22a619103ab9b2b960511b606082015260800190565b6020808252602c908201527f46756e6374696f6e206d7573742062652063616c6c6564207468726f7567682060408201526b6163746976652070726f787960a01b606082015260800190565b6020808252602e908201527f496e697469616c697a61626c653a20636f6e747261637420697320616c72656160408201526d191e481a5b9a5d1a585b1a5e995960921b606082015260800190565b600082198211156125d8576125d861267c565b500190565b6000826125fa57634e487b7160e01b600052601260045260246000fd5b500490565b60008160001904831182151516156126195761261961267c565b500290565b6000828210156126305761263061267c565b500390565b60005b83811015612650578181015183820152602001612638565b8381111561265f576000848401525b50505050565b6000816126745761267461267c565b506000190190565b634e487b7160e01b600052601160045260246000fd5b634e487b7160e01b600052602160045260246000fd5b634e487b7160e01b600052603260045260246000fd5b634e487b7160e01b600052604160045260246000fd5b6001600160a01b038116811461091057600080fdfeb6bdbd44472629fc24a00b6f4ee3348b72c9eff333d0e9c16d78c49da1323c8fbf372ca3ebecfe59ac256f17697941bbe63302aced610e8b0e3646f743c7beb2416464726573733a206c6f772d6c6576656c2064656c65676174652063616c6c206661696c6564a82e22387fca439f316d78ca566f383218ab8ae1b3e830178c9c82cbd16749c055435dd261a4b9b3364963f7738a7a662ad9c84396d64be3365284bb7f0a5041a2646970667358221220b4d39f0a8362a2643c1784b7fee9bd1891fb36d87b437e1ac66c4f1b6d9a949164736f6c63430008060033",
  "linkReferences": {},
  "deployedLinkReferences": {}
}