{
  "_format": "hh-sol-artifact-1",
  "contractName": "PolicyPoolMock",
  "sourceName": "contracts/mocks/PolicyPoolMock.sol",
  "abi": [
    {
      "inputs": [
        {
          "internalType": "contract IERC20Metadata",
          "name": "currency_",
          "type": "address"
        },
        {
          "internalType": "contract IPolicyPoolConfig",
          "name": "config_",
          "type": "address"
        }
      ],
      "stateMutability": "nonpayable",
      "type": "constructor"
    },
    {
      "anonymous": false,
      "inputs": [
        {
          "indexed": true,
          "internalType": "contract IRiskModule",
          "name": "riskModule",
          "type": "address"
        },
        {
          "components": [
            {
              "internalType": "uint256",
              "name": "id",
              "type": "uint256"
            },
            {
              "internalType": "uint256",
              "name": "payout",
              "type": "uint256"
            },
            {
              "internalType": "uint256",
              "name": "premium",
              "type": "uint256"
            },
            {
              "internalType": "uint256",
              "name": "scr",
              "type": "uint256"
            },
            {
              "internalType": "uint256",
              "name": "lossProb",
              "type": "uint256"
            },
            {
              "internalType": "uint256",
              "name": "purePremium",
              "type": "uint256"
            },
            {
              "internalType": "uint256",
              "name": "premiumForEnsuro",
              "type": "uint256"
            },
            {
              "internalType": "uint256",
              "name": "premiumForRm",
              "type": "uint256"
            },
            {
              "internalType": "uint256",
              "name": "premiumForLps",
              "type": "uint256"
            },
            {
              "internalType": "contract IRiskModule",
              "name": "riskModule",
              "type": "address"
            },
            {
              "internalType": "uint40",
              "name": "start",
              "type": "uint40"
            },
            {
              "internalType": "uint40",
              "name": "expiration",
              "type": "uint40"
            }
          ],
          "indexed": false,
          "internalType": "struct Policy.PolicyData",
          "name": "policy",
          "type": "tuple"
        }
      ],
      "name": "NewPolicy",
      "type": "event"
    },
    {
      "anonymous": false,
      "inputs": [
        {
          "indexed": true,
          "internalType": "contract IRiskModule",
          "name": "riskModule",
          "type": "address"
        },
        {
          "indexed": true,
          "internalType": "uint256",
          "name": "policyId",
          "type": "uint256"
        },
        {
          "indexed": false,
          "internalType": "uint256",
          "name": "payout",
          "type": "uint256"
        }
      ],
      "name": "PolicyResolved",
      "type": "event"
    },
    {
      "inputs": [],
      "name": "MAX_INT",
      "outputs": [
        {
          "internalType": "uint256",
          "name": "",
          "type": "uint256"
        }
      ],
      "stateMutability": "view",
      "type": "function"
    },
    {
      "inputs": [
        {
          "internalType": "uint256",
          "name": "",
          "type": "uint256"
        },
        {
          "internalType": "bool",
          "name": "",
          "type": "bool"
        }
      ],
      "name": "assetEarnings",
      "outputs": [],
      "stateMutability": "pure",
      "type": "function"
    },
    {
      "inputs": [],
      "name": "config",
      "outputs": [
        {
          "internalType": "contract IPolicyPoolConfig",
          "name": "",
          "type": "address"
        }
      ],
      "stateMutability": "view",
      "type": "function"
    },
    {
      "inputs": [],
      "name": "currency",
      "outputs": [
        {
          "internalType": "contract IERC20Metadata",
          "name": "",
          "type": "address"
        }
      ],
      "stateMutability": "view",
      "type": "function"
    },
    {
      "inputs": [
        {
          "internalType": "contract IEToken",
          "name": "",
          "type": "address"
        },
        {
          "internalType": "uint256",
          "name": "",
          "type": "uint256"
        }
      ],
      "name": "deposit",
      "outputs": [],
      "stateMutability": "pure",
      "type": "function"
    },
    {
      "inputs": [
        {
          "internalType": "uint256",
          "name": "",
          "type": "uint256"
        }
      ],
      "name": "getETokenAt",
      "outputs": [
        {
          "internalType": "contract IEToken",
          "name": "",
          "type": "address"
        }
      ],
      "stateMutability": "pure",
      "type": "function"
    },
    {
      "inputs": [],
      "name": "getETokenCount",
      "outputs": [
        {
          "internalType": "uint256",
          "name": "",
          "type": "uint256"
        }
      ],
      "stateMutability": "pure",
      "type": "function"
    },
    {
      "inputs": [],
      "name": "getInvestable",
      "outputs": [
        {
          "internalType": "uint256",
          "name": "",
          "type": "uint256"
        }
      ],
      "stateMutability": "pure",
      "type": "function"
    },
    {
      "inputs": [
        {
          "components": [
            {
              "internalType": "uint256",
              "name": "id",
              "type": "uint256"
            },
            {
              "internalType": "uint256",
              "name": "payout",
              "type": "uint256"
            },
            {
              "internalType": "uint256",
              "name": "premium",
              "type": "uint256"
            },
            {
              "internalType": "uint256",
              "name": "scr",
              "type": "uint256"
            },
            {
              "internalType": "uint256",
              "name": "lossProb",
              "type": "uint256"
            },
            {
              "internalType": "uint256",
              "name": "purePremium",
              "type": "uint256"
            },
            {
              "internalType": "uint256",
              "name": "premiumForEnsuro",
              "type": "uint256"
            },
            {
              "internalType": "uint256",
              "name": "premiumForRm",
              "type": "uint256"
            },
            {
              "internalType": "uint256",
              "name": "premiumForLps",
              "type": "uint256"
            },
            {
              "internalType": "contract IRiskModule",
              "name": "riskModule",
              "type": "address"
            },
            {
              "internalType": "uint40",
              "name": "start",
              "type": "uint40"
            },
            {
              "internalType": "uint40",
              "name": "expiration",
              "type": "uint40"
            }
          ],
          "internalType": "struct Policy.PolicyData",
          "name": "policy",
          "type": "tuple"
        },
        {
          "internalType": "address",
          "name": "",
          "type": "address"
        },
        {
          "internalType": "uint96",
          "name": "internalId",
          "type": "uint96"
        }
      ],
      "name": "newPolicy",
      "outputs": [
        {
          "internalType": "uint256",
          "name": "",
          "type": "uint256"
        }
      ],
      "stateMutability": "nonpayable",
      "type": "function"
    },
    {
      "inputs": [],
      "name": "policyNFT",
      "outputs": [
        {
          "internalType": "address",
          "name": "",
          "type": "address"
        }
      ],
      "stateMutability": "pure",
      "type": "function"
    },
    {
      "inputs": [
        {
          "internalType": "uint256",
          "name": "",
          "type": "uint256"
        }
      ],
      "name": "receiveGrant",
      "outputs": [],
      "stateMutability": "pure",
      "type": "function"
    },
    {
      "inputs": [
        {
          "components": [
            {
              "internalType": "uint256",
              "name": "id",
              "type": "uint256"
            },
            {
              "internalType": "uint256",
              "name": "payout",
              "type": "uint256"
            },
            {
              "internalType": "uint256",
              "name": "premium",
              "type": "uint256"
            },
            {
              "internalType": "uint256",
              "name": "scr",
              "type": "uint256"
            },
            {
              "internalType": "uint256",
              "name": "lossProb",
              "type": "uint256"
            },
            {
              "internalType": "uint256",
              "name": "purePremium",
              "type": "uint256"
            },
            {
              "internalType": "uint256",
              "name": "premiumForEnsuro",
              "type": "uint256"
            },
            {
              "internalType": "uint256",
              "name": "premiumForRm",
              "type": "uint256"
            },
            {
              "internalType": "uint256",
              "name": "premiumForLps",
              "type": "uint256"
            },
            {
              "internalType": "contract IRiskModule",
              "name": "riskModule",
              "type": "address"
            },
            {
              "internalType": "uint40",
              "name": "start",
              "type": "uint40"
            },
            {
              "internalType": "uint40",
              "name": "expiration",
              "type": "uint40"
            }
          ],
          "internalType": "struct Policy.PolicyData",
          "name": "policy",
          "type": "tuple"
        },
        {
          "internalType": "uint256",
          "name": "payout",
          "type": "uint256"
        }
      ],
      "name": "resolvePolicy",
      "outputs": [],
      "stateMutability": "nonpayable",
      "type": "function"
    },
    {
      "inputs": [
        {
          "components": [
            {
              "internalType": "uint256",
              "name": "id",
              "type": "uint256"
            },
            {
              "internalType": "uint256",
              "name": "payout",
              "type": "uint256"
            },
            {
              "internalType": "uint256",
              "name": "premium",
              "type": "uint256"
            },
            {
              "internalType": "uint256",
              "name": "scr",
              "type": "uint256"
            },
            {
              "internalType": "uint256",
              "name": "lossProb",
              "type": "uint256"
            },
            {
              "internalType": "uint256",
              "name": "purePremium",
              "type": "uint256"
            },
            {
              "internalType": "uint256",
              "name": "premiumForEnsuro",
              "type": "uint256"
            },
            {
              "internalType": "uint256",
              "name": "premiumForRm",
              "type": "uint256"
            },
            {
              "internalType": "uint256",
              "name": "premiumForLps",
              "type": "uint256"
            },
            {
              "internalType": "contract IRiskModule",
              "name": "riskModule",
              "type": "address"
            },
            {
              "internalType": "uint40",
              "name": "start",
              "type": "uint40"
            },
            {
              "internalType": "uint40",
              "name": "expiration",
              "type": "uint40"
            }
          ],
          "internalType": "struct Policy.PolicyData",
          "name": "policy",
          "type": "tuple"
        },
        {
          "internalType": "bool",
          "name": "customerWon",
          "type": "bool"
        }
      ],
      "name": "resolvePolicyFullPayout",
      "outputs": [],
      "stateMutability": "nonpayable",
      "type": "function"
    },
    {
      "inputs": [
        {
          "internalType": "contract IAssetManager",
          "name": "newAssetManager",
          "type": "address"
        }
      ],
      "name": "setAssetManager",
      "outputs": [],
      "stateMutability": "nonpayable",
      "type": "function"
    },
    {
      "inputs": [
        {
          "internalType": "uint256",
          "name": "value",
          "type": "uint256"
        }
      ],
      "name": "setTotalETokenSupply",
      "outputs": [],
      "stateMutability": "nonpayable",
      "type": "function"
    },
    {
      "inputs": [],
      "name": "totalETokenSupply",
      "outputs": [
        {
          "internalType": "uint256",
          "name": "",
          "type": "uint256"
        }
      ],
      "stateMutability": "view",
      "type": "function"
    },
    {
      "inputs": [
        {
          "internalType": "contract IEToken",
          "name": "",
          "type": "address"
        },
        {
          "internalType": "uint256",
          "name": "",
          "type": "uint256"
        }
      ],
      "name": "withdraw",
      "outputs": [
        {
          "internalType": "uint256",
          "name": "",
          "type": "uint256"
        }
      ],
      "stateMutability": "pure",
      "type": "function"
    }
  ],
  "bytecode": "0x60806040523480156200001157600080fd5b5060405162000fa138038062000fa18339810160408190526200003491620001f7565b600080546001600160a01b038085166001600160a01b0319928316178355600180549185169190921681179091556040805163948cb71960e01b81529051919263948cb7199260048084019382900301818387803b1580156200009657600080fd5b505af1158015620000ab573d6000803e3d6000fd5b5050600154604080516394217ad160e01b81529051600094506001600160a01b0390921692506394217ad1916004808301926020929190829003018186803b158015620000f757600080fd5b505afa1580156200010c573d6000803e3d6000fd5b505050506040513d601f19601f82011682018060405250810190620001329190620001d0565b6001600160a01b031614620001b35760405162461bcd60e51b815260206004820152603a60248201527f41737365744d616e616765722063616e277420626520736574206265666f726560448201527f20506f6c696379506f6f6c20696e697469616c697a6174696f6e000000000000606482015260840160405180910390fd5b5050701d6329f1c35ca4bfabb9f56100000000006002556200024f565b600060208284031215620001e357600080fd5b8151620001f08162000236565b9392505050565b600080604083850312156200020b57600080fd5b8251620002188162000236565b60208401519092506200022b8162000236565b809150509250929050565b6001600160a01b03811681146200024c57600080fd5b50565b610d42806200025f6000396000f3fe608060405234801561001057600080fd5b506004361061010b5760003560e01c806381ced71f116100a2578063b0ec4bcf11610071578063b0ec4bcf146101f4578063b77ddfea14610208578063dea167d51461018d578063e5a6b10f14610210578063f3fef3a31461022157600080fd5b806381ced71f146101b95780639e556b2b146101cc578063ab600169146101df578063af02808a146101ed57600080fd5b806343060237116100de578063430602371461016757806347e7ef241461017a57806365e29c7e1461018d57806379502c551461019457600080fd5b8063066dda0e14610110578063098d3228146101255780631440912b1461014157806319704a3a14610154575b600080fd5b61012361011e366004610ac5565b610234565b005b61012e60001981565b6040519081526020015b60405180910390f35b61012361014f366004610ba7565b600255565b61012e610162366004610b49565b610260565b610123610175366004610a5f565b6102f0565b610123610188366004610a99565b610671565b600061012e565b6001546001600160a01b03165b6040516001600160a01b039091168152602001610138565b6101236101c7366004610ba7565b6106b9565b6101236101da366004610aff565b6106f3565b6101236101c7366004610bc0565b60006101a1565b6101a1610202366004610ba7565b50600090565b60025461012e565b6000546001600160a01b03166101a1565b61012e61022f366004610a99565b61070b565b61025c61024636849003840184610b2c565b82610252576000610756565b8360200135610756565b5050565b6000816bffffffffffffffffffffffff1660608561012001516001600160a01b0316901b61028e9190610cc3565b84526102998461091e565b845160009081526004602052604090819020919091555133907ff8da20dc84e4c9850943fcd1a0587142b2bac3fef70840ccee41f5edd22bc477906102df908790610be5565b60405180910390a250509051919050565b6001546001600160a01b031633146103695760405162461bcd60e51b815260206004820152603160248201527f4f6e6c792074686520506f6c696379506f6f6c436f6e6669672063616e20636860448201527030b733b29030b9b9b2ba26b0b730b3b2b960791b60648201526084015b60405180910390fd5b600154604080516394217ad160e01b815290516000926001600160a01b0316916394217ad1916004808301926020929190829003018186803b1580156103ae57600080fd5b505afa1580156103c2573d6000803e3d6000fd5b505050506040513d601f19601f820116820180604052508101906103e69190610a7c565b6001600160a01b0316146105d857600160009054906101000a90046001600160a01b03166001600160a01b03166394217ad16040518163ffffffff1660e01b815260040160206040518083038186803b15801561044257600080fd5b505afa158015610456573d6000803e3d6000fd5b505050506040513d601f19601f8201168201806040525081019061047a9190610a7c565b6001600160a01b031663cec16f3f6040518163ffffffff1660e01b8152600401600060405180830381600087803b1580156104b457600080fd5b505af11580156104c8573d6000803e3d6000fd5b5050600054600154604080516394217ad160e01b815290516001600160a01b03938416955063095ea7b3945091909216916394217ad1916004808301926020929190829003018186803b15801561051e57600080fd5b505afa158015610532573d6000803e3d6000fd5b505050506040513d601f19601f820116820180604052508101906105569190610a7c565b6040516001600160e01b031960e084901b1681526001600160a01b03909116600482015260006024820152604401602060405180830381600087803b15801561059e57600080fd5b505af11580156105b2573d6000803e3d6000fd5b505050506040513d601f19601f820116820180604052508101906105d69190610a3b565b505b6001600160a01b0381161561066e5760005460405163095ea7b360e01b81526001600160a01b03838116600483015260001960248301529091169063095ea7b390604401602060405180830381600087803b15801561063657600080fd5b505af115801561064a573d6000803e3d6000fd5b505050506040513d601f19601f8201168201806040525081019061025c9190610a3b565b50565b60405162461bcd60e51b815260206004820152601760248201527f4e6f7420496d706c656d656e746564206465706f7369740000000000000000006044820152606401610360565b60405162461bcd60e51b815260206004820152600f60248201526e139bdd08125b5c1b195b595b9d1959608a1b6044820152606401610360565b61025c61070536849003840184610b2c565b82610756565b60405162461bcd60e51b815260206004820152601860248201527f4e6f7420496d706c656d656e74656420776974686472617700000000000000006044820152600090606401610360565b81516107975760405162461bcd60e51b815260206004820152601060248201526f141bdb1a58de481b9bdd08199bdd5b9960821b6044820152606401610360565b81516000908152600460205260409020546107b18361091e565b146107f35760405162461bcd60e51b8152602060048201526012602482015271090c2e6d040c8decae6dc4ee840dac2e8c6d60731b6044820152606401610360565b8161012001516001600160a01b0316336001600160a01b0316146108755760405162461bcd60e51b815260206004820152603360248201527f4f6e6c79207269736b4d6f64756c6520697320617574686f72697a656420746f604482015272207265736f6c76652074686520706f6c69637960681b6064820152608401610360565b815160009081526003602081815260408084208481556001810185905560028101859055928301849055600480840185905560058401859055600684018590556007840185905560088401859055600990930180546001600160f01b0319169055855184529181528183209290925583519051838152909133917f54f4a270ea08f88dc23b2520d6b063fecb24d956c4496f447926d736338f545e910160405180910390a35050565b6000816040516020016109319190610be5565b604051602081830303815290604052805190602001209050919050565b803561095981610ce9565b919050565b6000610180828403121561097157600080fd5b50919050565b6000610180828403121561098a57600080fd5b610992610c8b565b9050813581526020820135602082015260408201356040820152606082013560608201526080820135608082015260a082013560a082015260c082013560c082015260e082013560e08201526101008083013581830152506101206109f881840161094e565b90820152610140610a0a838201610a26565b90820152610160610a1c838201610a26565b9082015292915050565b803564ffffffffff8116811461095957600080fd5b600060208284031215610a4d57600080fd5b8151610a5881610cfe565b9392505050565b600060208284031215610a7157600080fd5b8135610a5881610ce9565b600060208284031215610a8e57600080fd5b8151610a5881610ce9565b60008060408385031215610aac57600080fd5b8235610ab781610ce9565b946020939093013593505050565b6000806101a08385031215610ad957600080fd5b610ae3848461095e565b9150610180830135610af481610cfe565b809150509250929050565b6000806101a08385031215610b1357600080fd5b610b1d848461095e565b94610180939093013593505050565b60006101808284031215610b3f57600080fd5b610a588383610977565b60008060006101c08486031215610b5f57600080fd5b610b698585610977565b9250610180840135610b7a81610ce9565b91506101a08401356bffffffffffffffffffffffff81168114610b9c57600080fd5b809150509250925092565b600060208284031215610bb957600080fd5b5035919050565b60008060408385031215610bd357600080fd5b823591506020830135610af481610cfe565b600061018082019050825182526020830151602083015260408301516040830152606083015160608301526080830151608083015260a083015160a083015260c083015160c083015260e083015160e083015261010080840151818401525061012080840151610c5f828501826001600160a01b03169052565b50506101408381015164ffffffffff908116918401919091526101609384015116929091019190915290565b604051610180810167ffffffffffffffff81118282101715610cbd57634e487b7160e01b600052604160045260246000fd5b60405290565b60008219821115610ce457634e487b7160e01b600052601160045260246000fd5b500190565b6001600160a01b038116811461066e57600080fd5b801515811461066e57600080fdfea26469706673582212203a5390ed8e9c11bdf66a941f47adc671f7a9c377c78ef3b4ee18673f2c920e1164736f6c63430008060033",
  "linkReferences": {},
  "deployedLinkReferences": {}
}