{
  "_format": "hh-sol-artifact-1",
  "contractName": "PolicyNFT",
  "sourceName": "contracts/PolicyNFT.sol",
  "abi": [
    {
      "anonymous": false,
      "inputs": [
        {
          "indexed": false,
          "internalType": "address",
          "name": "previousAdmin",
          "type": "address"
        },
        {
          "indexed": false,
          "internalType": "address",
          "name": "newAdmin",
          "type": "address"
        }
      ],
      "name": "AdminChanged",
      "type": "event"
    },
    {
      "anonymous": false,
      "inputs": [
        {
          "indexed": true,
          "internalType": "address",
          "name": "owner",
          "type": "address"
        },
        {
          "indexed": true,
          "internalType": "address",
          "name": "approved",
          "type": "address"
        },
        {
          "indexed": true,
          "internalType": "uint256",
          "name": "tokenId",
          "type": "uint256"
        }
      ],
      "name": "Approval",
      "type": "event"
    },
    {
      "anonymous": false,
      "inputs": [
        {
          "indexed": true,
          "internalType": "address",
          "name": "owner",
          "type": "address"
        },
        {
          "indexed": true,
          "internalType": "address",
          "name": "operator",
          "type": "address"
        },
        {
          "indexed": false,
          "internalType": "bool",
          "name": "approved",
          "type": "bool"
        }
      ],
      "name": "ApprovalForAll",
      "type": "event"
    },
    {
      "anonymous": false,
      "inputs": [
        {
          "indexed": true,
          "internalType": "address",
          "name": "beacon",
          "type": "address"
        }
      ],
      "name": "BeaconUpgraded",
      "type": "event"
    },
    {
      "anonymous": false,
      "inputs": [
        {
          "indexed": false,
          "internalType": "address",
          "name": "account",
          "type": "address"
        }
      ],
      "name": "Paused",
      "type": "event"
    },
    {
      "anonymous": false,
      "inputs": [
        {
          "indexed": true,
          "internalType": "address",
          "name": "from",
          "type": "address"
        },
        {
          "indexed": true,
          "internalType": "address",
          "name": "to",
          "type": "address"
        },
        {
          "indexed": true,
          "internalType": "uint256",
          "name": "tokenId",
          "type": "uint256"
        }
      ],
      "name": "Transfer",
      "type": "event"
    },
    {
      "anonymous": false,
      "inputs": [
        {
          "indexed": false,
          "internalType": "address",
          "name": "account",
          "type": "address"
        }
      ],
      "name": "Unpaused",
      "type": "event"
    },
    {
      "anonymous": false,
      "inputs": [
        {
          "indexed": true,
          "internalType": "address",
          "name": "implementation",
          "type": "address"
        }
      ],
      "name": "Upgraded",
      "type": "event"
    },
    {
      "inputs": [],
      "name": "GUARDIAN_ROLE",
      "outputs": [
        {
          "internalType": "bytes32",
          "name": "",
          "type": "bytes32"
        }
      ],
      "stateMutability": "view",
      "type": "function"
    },
    {
      "inputs": [],
      "name": "LEVEL1_ROLE",
      "outputs": [
        {
          "internalType": "bytes32",
          "name": "",
          "type": "bytes32"
        }
      ],
      "stateMutability": "view",
      "type": "function"
    },
    {
      "inputs": [
        {
          "internalType": "address",
          "name": "to",
          "type": "address"
        },
        {
          "internalType": "uint256",
          "name": "tokenId",
          "type": "uint256"
        }
      ],
      "name": "approve",
      "outputs": [],
      "stateMutability": "nonpayable",
      "type": "function"
    },
    {
      "inputs": [
        {
          "internalType": "address",
          "name": "owner",
          "type": "address"
        }
      ],
      "name": "balanceOf",
      "outputs": [
        {
          "internalType": "uint256",
          "name": "",
          "type": "uint256"
        }
      ],
      "stateMutability": "view",
      "type": "function"
    },
    {
      "inputs": [],
      "name": "connect",
      "outputs": [],
      "stateMutability": "nonpayable",
      "type": "function"
    },
    {
      "inputs": [
        {
          "internalType": "uint256",
          "name": "tokenId",
          "type": "uint256"
        }
      ],
      "name": "getApproved",
      "outputs": [
        {
          "internalType": "address",
          "name": "",
          "type": "address"
        }
      ],
      "stateMutability": "view",
      "type": "function"
    },
    {
      "inputs": [
        {
          "internalType": "string",
          "name": "name_",
          "type": "string"
        },
        {
          "internalType": "string",
          "name": "symbol_",
          "type": "string"
        },
        {
          "internalType": "contract IPolicyPool",
          "name": "policyPool_",
          "type": "address"
        }
      ],
      "name": "initialize",
      "outputs": [],
      "stateMutability": "nonpayable",
      "type": "function"
    },
    {
      "inputs": [
        {
          "internalType": "address",
          "name": "owner",
          "type": "address"
        },
        {
          "internalType": "address",
          "name": "operator",
          "type": "address"
        }
      ],
      "name": "isApprovedForAll",
      "outputs": [
        {
          "internalType": "bool",
          "name": "",
          "type": "bool"
        }
      ],
      "stateMutability": "view",
      "type": "function"
    },
    {
      "inputs": [],
      "name": "name",
      "outputs": [
        {
          "internalType": "string",
          "name": "",
          "type": "string"
        }
      ],
      "stateMutability": "view",
      "type": "function"
    },
    {
      "inputs": [
        {
          "internalType": "uint256",
          "name": "tokenId",
          "type": "uint256"
        }
      ],
      "name": "ownerOf",
      "outputs": [
        {
          "internalType": "address",
          "name": "",
          "type": "address"
        }
      ],
      "stateMutability": "view",
      "type": "function"
    },
    {
      "inputs": [],
      "name": "pause",
      "outputs": [],
      "stateMutability": "nonpayable",
      "type": "function"
    },
    {
      "inputs": [],
      "name": "paused",
      "outputs": [
        {
          "internalType": "bool",
          "name": "",
          "type": "bool"
        }
      ],
      "stateMutability": "view",
      "type": "function"
    },
    {
      "inputs": [],
      "name": "policyPool",
      "outputs": [
        {
          "internalType": "contract IPolicyPool",
          "name": "",
          "type": "address"
        }
      ],
      "stateMutability": "view",
      "type": "function"
    },
    {
      "inputs": [
        {
          "internalType": "address",
          "name": "to",
          "type": "address"
        },
        {
          "internalType": "uint256",
          "name": "policyId",
          "type": "uint256"
        }
      ],
      "name": "safeMint",
      "outputs": [],
      "stateMutability": "nonpayable",
      "type": "function"
    },
    {
      "inputs": [
        {
          "internalType": "address",
          "name": "from",
          "type": "address"
        },
        {
          "internalType": "address",
          "name": "to",
          "type": "address"
        },
        {
          "internalType": "uint256",
          "name": "tokenId",
          "type": "uint256"
        }
      ],
      "name": "safeTransferFrom",
      "outputs": [],
      "stateMutability": "nonpayable",
      "type": "function"
    },
    {
      "inputs": [
        {
          "internalType": "address",
          "name": "from",
          "type": "address"
        },
        {
          "internalType": "address",
          "name": "to",
          "type": "address"
        },
        {
          "internalType": "uint256",
          "name": "tokenId",
          "type": "uint256"
        },
        {
          "internalType": "bytes",
          "name": "_data",
          "type": "bytes"
        }
      ],
      "name": "safeTransferFrom",
      "outputs": [],
      "stateMutability": "nonpayable",
      "type": "function"
    },
    {
      "inputs": [
        {
          "internalType": "address",
          "name": "operator",
          "type": "address"
        },
        {
          "internalType": "bool",
          "name": "approved",
          "type": "bool"
        }
      ],
      "name": "setApprovalForAll",
      "outputs": [],
      "stateMutability": "nonpayable",
      "type": "function"
    },
    {
      "inputs": [
        {
          "internalType": "bytes4",
          "name": "interfaceId",
          "type": "bytes4"
        }
      ],
      "name": "supportsInterface",
      "outputs": [
        {
          "internalType": "bool",
          "name": "",
          "type": "bool"
        }
      ],
      "stateMutability": "view",
      "type": "function"
    },
    {
      "inputs": [],
      "name": "symbol",
      "outputs": [
        {
          "internalType": "string",
          "name": "",
          "type": "string"
        }
      ],
      "stateMutability": "view",
      "type": "function"
    },
    {
      "inputs": [
        {
          "internalType": "uint256",
          "name": "tokenId",
          "type": "uint256"
        }
      ],
      "name": "tokenURI",
      "outputs": [
        {
          "internalType": "string",
          "name": "",
          "type": "string"
        }
      ],
      "stateMutability": "view",
      "type": "function"
    },
    {
      "inputs": [
        {
          "internalType": "address",
          "name": "from",
          "type": "address"
        },
        {
          "internalType": "address",
          "name": "to",
          "type": "address"
        },
        {
          "internalType": "uint256",
          "name": "tokenId",
          "type": "uint256"
        }
      ],
      "name": "transferFrom",
      "outputs": [],
      "stateMutability": "nonpayable",
      "type": "function"
    },
    {
      "inputs": [],
      "name": "unpause",
      "outputs": [],
      "stateMutability": "nonpayable",
      "type": "function"
    },
    {
      "inputs": [
        {
          "internalType": "address",
          "name": "newImplementation",
          "type": "address"
        }
      ],
      "name": "upgradeTo",
      "outputs": [],
      "stateMutability": "nonpayable",
      "type": "function"
    },
    {
      "inputs": [
        {
          "internalType": "address",
          "name": "newImplementation",
          "type": "address"
        },
        {
          "internalType": "bytes",
          "name": "data",
          "type": "bytes"
        }
      ],
      "name": "upgradeToAndCall",
      "outputs": [],
      "stateMutability": "payable",
      "type": "function"
    }
  ],
  "bytecode": "0x60a06040523060601b60805234801561001757600080fd5b5060805160601c6127b461004b600039600081816107f20152818161083201528181610a000152610a4001526127b46000f3fe60806040526004361061014b5760003560e01c80635c975abb116100b6578063a14481941161006f578063a14481941461038f578063a22cb465146103af578063b88d4fde146103cf578063c87b56dd146103ef578063e985e9c51461040f578063f67b2bad1461045857600080fd5b80635c975abb146102f85780636352211e1461031057806370a08231146103305780638456cb5914610350578063948cb7191461036557806395d89b411461037a57600080fd5b806324ea54f41161010857806324ea54f4146102415780633659cfe6146102715780633f4ba83a1461029157806342842e0e146102a65780634d15eb03146102c65780634f1ef286146102e557600080fd5b806301ffc9a71461015057806306fdde0314610185578063077f224a146101a7578063081812fc146101c9578063095ea7b31461020157806323b872dd14610221575b600080fd5b34801561015c57600080fd5b5061017061016b366004612279565b61048c565b60405190151581526020015b60405180910390f35b34801561019157600080fd5b5061019a6104de565b60405161017c9190612415565b3480156101b357600080fd5b506101c76101c23660046122d0565b610570565b005b3480156101d557600080fd5b506101e96101e4366004612348565b61060b565b6040516001600160a01b03909116815260200161017c565b34801561020d57600080fd5b506101c761021c36600461224d565b6106a0565b34801561022d57600080fd5b506101c761023c36600461211d565b6107b6565b34801561024d57600080fd5b5061026360008051602061275f83398151915281565b60405190815260200161017c565b34801561027d57600080fd5b506101c761028c3660046120c7565b6107e7565b34801561029d57600080fd5b506101c76108b0565b3480156102b257600080fd5b506101c76102c136600461211d565b6109da565b3480156102d257600080fd5b5061012d546001600160a01b03166101e9565b6101c76102f33660046121fd565b6109f5565b34801561030457600080fd5b5060fb5460ff16610170565b34801561031c57600080fd5b506101e961032b366004612348565b610aab565b34801561033c57600080fd5b5061026361034b3660046120c7565b610b22565b34801561035c57600080fd5b506101c7610ba9565b34801561037157600080fd5b506101c7610c9c565b34801561038657600080fd5b5061019a610d21565b34801561039b57600080fd5b506101c76103aa36600461224d565b610d30565b3480156103bb57600080fd5b506101c76103ca3660046121ca565b610ddb565b3480156103db57600080fd5b506101c76103ea36600461215e565b610ea0565b3480156103fb57600080fd5b5061019a61040a366004612348565b610ed2565b34801561041b57600080fd5b5061017061042a3660046120e4565b6001600160a01b03918216600090815260ce6020908152604080832093909416825291909152205460ff1690565b34801561046457600080fd5b506102637fbf372ca3ebecfe59ac256f17697941bbe63302aced610e8b0e3646f743c7beb281565b60006001600160e01b031982166380ac58cd60e01b14806104bd57506001600160e01b03198216635b5e139f60e01b145b806104d857506301ffc9a760e01b6001600160e01b03198316145b92915050565b606060c980546104ed9061264a565b80601f01602080910402602001604051908101604052809291908181526020018280546105199061264a565b80156105665780601f1061053b57610100808354040283529160200191610566565b820191906000526020600020905b81548152906001019060200180831161054957829003601f168201915b5050505050905090565b600054610100900460ff1680610589575060005460ff16155b6105ae5760405162461bcd60e51b81526004016105a59061253c565b60405180910390fd5b600054610100900460ff161580156105d0576000805461ffff19166101011790555b6105d8610fba565b6105e0611035565b6105ea848461109c565b6105f382611123565b8015610605576000805461ff00191690555b50505050565b600081815260cb60205260408120546001600160a01b03166106845760405162461bcd60e51b815260206004820152602c60248201527f4552433732313a20617070726f76656420717565727920666f72206e6f6e657860448201526b34b9ba32b73a103a37b5b2b760a11b60648201526084016105a5565b50600090815260cd60205260409020546001600160a01b031690565b60006106ab82610aab565b9050806001600160a01b0316836001600160a01b031614156107195760405162461bcd60e51b815260206004820152602160248201527f4552433732313a20617070726f76616c20746f2063757272656e74206f776e656044820152603960f91b60648201526084016105a5565b336001600160a01b03821614806107355750610735813361042a565b6107a75760405162461bcd60e51b815260206004820152603860248201527f4552433732313a20617070726f76652063616c6c6572206973206e6f74206f7760448201527f6e6572206e6f7220617070726f76656420666f7220616c6c000000000000000060648201526084016105a5565b6107b183836111ab565b505050565b6107c03382611219565b6107dc5760405162461bcd60e51b81526004016105a59061258a565b6107b1838383611310565b306001600160a01b037f00000000000000000000000000000000000000000000000000000000000000001614156108305760405162461bcd60e51b81526004016105a59061247a565b7f00000000000000000000000000000000000000000000000000000000000000006001600160a01b03166108626114bb565b6001600160a01b0316146108885760405162461bcd60e51b81526004016105a5906124c6565b610891816114e9565b604080516000808252602082019092526108ad9183919061160c565b50565b60008051602061275f8339815191527fbf372ca3ebecfe59ac256f17697941bbe63302aced610e8b0e3646f743c7beb261012d60009054906101000a90046001600160a01b03166001600160a01b03166379502c556040518163ffffffff1660e01b815260040160206040518083038186803b15801561092f57600080fd5b505afa158015610943573d6000803e3d6000fd5b505050506040513d601f19601f8201168201806040525081019061096791906122b3565b60405163c5b8f5cf60e01b815260048101849052602481018390523360448201526001600160a01b03919091169063c5b8f5cf9060640160006040518083038186803b1580156109b657600080fd5b505afa1580156109ca573d6000803e3d6000fd5b505050506109d6611757565b5050565b6107b183838360405180602001604052806000815250610ea0565b306001600160a01b037f0000000000000000000000000000000000000000000000000000000000000000161415610a3e5760405162461bcd60e51b81526004016105a59061247a565b7f00000000000000000000000000000000000000000000000000000000000000006001600160a01b0316610a706114bb565b6001600160a01b031614610a965760405162461bcd60e51b81526004016105a5906124c6565b610a9f826114e9565b6109d68282600161160c565b600081815260cb60205260408120546001600160a01b0316806104d85760405162461bcd60e51b815260206004820152602960248201527f4552433732313a206f776e657220717565727920666f72206e6f6e657869737460448201526832b73a103a37b5b2b760b91b60648201526084016105a5565b60006001600160a01b038216610b8d5760405162461bcd60e51b815260206004820152602a60248201527f4552433732313a2062616c616e636520717565727920666f7220746865207a65604482015269726f206164647265737360b01b60648201526084016105a5565b506001600160a01b0316600090815260cc602052604090205490565b61012d54604080516379502c5560e01b8152905160008051602061275f833981519152926001600160a01b0316916379502c55916004808301926020929190829003018186803b158015610bfc57600080fd5b505afa158015610c10573d6000803e3d6000fd5b505050506040513d601f19601f82011682018060405250810190610c3491906122b3565b6040516312d9a6ad60e01b8152600481018390523360248201526001600160a01b0391909116906312d9a6ad9060440160006040518083038186803b158015610c7c57600080fd5b505afa158015610c90573d6000803e3d6000fd5b505050506108ad6117ea565b61012d546001600160a01b03161580610cc0575061012d546001600160a01b031633145b610d0c5760405162461bcd60e51b815260206004820152601c60248201527f506f6c696379506f6f6c20616c726561647920636f6e6e65637465640000000060448201526064016105a5565b61012d80546001600160a01b03191633179055565b606060ca80546104ed9061264a565b61012d546001600160a01b0316336001600160a01b031614610d9e5760405162461bcd60e51b815260206004820152602160248201527f5468652063616c6c6572206d7573742062652074686520506f6c696379506f6f6044820152601b60fa1b60648201526084016105a5565b60fb5460ff1615610dc15760405162461bcd60e51b81526004016105a590612512565b6109d6828260405180602001604052806000815250611842565b6001600160a01b038216331415610e345760405162461bcd60e51b815260206004820152601960248201527f4552433732313a20617070726f766520746f2063616c6c65720000000000000060448201526064016105a5565b33600081815260ce602090815260408083206001600160a01b03871680855290835292819020805460ff191686151590811790915590519081529192917f17307eab39ab6107e8899845ad3d59bd9653f200f220920489ca2b5937696c31910160405180910390a35050565b610eaa3383611219565b610ec65760405162461bcd60e51b81526004016105a59061258a565b61060584848484611875565b600081815260cb60205260409020546060906001600160a01b0316610f515760405162461bcd60e51b815260206004820152602f60248201527f4552433732314d657461646174613a2055524920717565727920666f72206e6f60448201526e3732bc34b9ba32b73a103a37b5b2b760891b60648201526084016105a5565b6000610f6860408051602081019091526000815290565b90506000815111610f885760405180602001604052806000815250610fb3565b80610f92846118a8565b604051602001610fa39291906123a9565b6040516020818303038152906040525b9392505050565b600054610100900460ff1680610fd3575060005460ff16155b610fef5760405162461bcd60e51b81526004016105a59061253c565b600054610100900460ff16158015611011576000805461ffff19166101011790555b6110196119a6565b6110216119a6565b80156108ad576000805461ff001916905550565b600054610100900460ff168061104e575060005460ff16155b61106a5760405162461bcd60e51b81526004016105a59061253c565b600054610100900460ff1615801561108c576000805461ffff19166101011790555b6110946119a6565b611021611a10565b600054610100900460ff16806110b5575060005460ff16155b6110d15760405162461bcd60e51b81526004016105a59061253c565b600054610100900460ff161580156110f3576000805461ffff19166101011790555b6110fb6119a6565b6111036119a6565b61110d8383611a85565b80156107b1576000805461ff0019169055505050565b600054610100900460ff168061113c575060005460ff16155b6111585760405162461bcd60e51b81526004016105a59061253c565b600054610100900460ff1615801561117a576000805461ffff19166101011790555b61012d80546001600160a01b0319166001600160a01b03841617905580156109d6576000805461ff00191690555050565b600081815260cd6020526040902080546001600160a01b0319166001600160a01b03841690811790915581906111e082610aab565b6001600160a01b03167f8c5be1e5ebec7d5bd14f71427d1e84f3dd0314c0f7b2291e5b200ac8c7c3b92560405160405180910390a45050565b600081815260cb60205260408120546001600160a01b03166112925760405162461bcd60e51b815260206004820152602c60248201527f4552433732313a206f70657261746f7220717565727920666f72206e6f6e657860448201526b34b9ba32b73a103a37b5b2b760a11b60648201526084016105a5565b600061129d83610aab565b9050806001600160a01b0316846001600160a01b031614806112d85750836001600160a01b03166112cd8461060b565b6001600160a01b0316145b8061130857506001600160a01b03808216600090815260ce602090815260408083209388168352929052205460ff165b949350505050565b826001600160a01b031661132382610aab565b6001600160a01b03161461138b5760405162461bcd60e51b815260206004820152602960248201527f4552433732313a207472616e73666572206f6620746f6b656e2074686174206960448201526839903737ba1037bbb760b91b60648201526084016105a5565b6001600160a01b0382166113ed5760405162461bcd60e51b8152602060048201526024808201527f4552433732313a207472616e7366657220746f20746865207a65726f206164646044820152637265737360e01b60648201526084016105a5565b6113f8838383611b1a565b6114036000826111ab565b6001600160a01b038316600090815260cc6020526040812080546001929061142c908490612607565b90915550506001600160a01b038216600090815260cc6020526040812080546001929061145a9084906125db565b9091555050600081815260cb602052604080822080546001600160a01b0319166001600160a01b0386811691821790925591518493918716917fddf252ad1be2c89b69c2b068fc378daa952ba7f163c4a11628f55a4df523b3ef91a4505050565b7f360894a13ba1a3210667c828492db98dca3e2076cc3735a920a3ca505d382bbc546001600160a01b031690565b60008051602061275f8339815191527fbf372ca3ebecfe59ac256f17697941bbe63302aced610e8b0e3646f743c7beb261012d60009054906101000a90046001600160a01b03166001600160a01b03166379502c556040518163ffffffff1660e01b815260040160206040518083038186803b15801561156857600080fd5b505afa15801561157c573d6000803e3d6000fd5b505050506040513d601f19601f820116820180604052508101906115a091906122b3565b60405163c5b8f5cf60e01b815260048101849052602481018390523360448201526001600160a01b03919091169063c5b8f5cf9060640160006040518083038186803b1580156115ef57600080fd5b505afa158015611603573d6000803e3d6000fd5b50505050505050565b60006116166114bb565b905061162184611b3d565b60008351118061162e5750815b1561163f5761163d8484611be2565b505b7f4910fdfa16fed3260ed0e7147f7cc6da11a60208b5b9406d12a635614ffd9143805460ff1661175057805460ff191660011781556040516001600160a01b03831660248201526116be90869060440160408051601f198184030181529190526020810180516001600160e01b0316631b2ce7f360e11b179052611be2565b50805460ff191681556116cf6114bb565b6001600160a01b0316826001600160a01b0316146117475760405162461bcd60e51b815260206004820152602f60248201527f45524331393637557067726164653a207570677261646520627265616b73206660448201526e75727468657220757067726164657360881b60648201526084016105a5565b61175085611ccd565b5050505050565b60fb5460ff166117a05760405162461bcd60e51b815260206004820152601460248201527314185d5cd8589b194e881b9bdd081c185d5cd95960621b60448201526064016105a5565b60fb805460ff191690557f5db9ee0a495bf2e6ff9c91a7834c1ba4fdd244a5e8aa4e537bd38aeae4b073aa335b6040516001600160a01b03909116815260200160405180910390a1565b60fb5460ff161561180d5760405162461bcd60e51b81526004016105a590612512565b60fb805460ff191660011790557f62e78cea01bee320cd4e420270b5ea74000d11b0c9f74754ebdbfc544b05a2586117cd3390565b61184c8383611d0d565b6118596000848484611e5b565b6107b15760405162461bcd60e51b81526004016105a590612428565b611880848484611310565b61188c84848484611e5b565b6106055760405162461bcd60e51b81526004016105a590612428565b6060816118cc5750506040805180820190915260018152600360fc1b602082015290565b8160005b81156118f657806118e081612685565b91506118ef9050600a836125f3565b91506118d0565b60008167ffffffffffffffff811115611911576119116126f6565b6040519080825280601f01601f19166020018201604052801561193b576020820181803683370190505b5090505b841561130857611950600183612607565b915061195d600a866126a0565b6119689060306125db565b60f81b81838151811061197d5761197d6126e0565b60200101906001600160f81b031916908160001a90535061199f600a866125f3565b945061193f565b600054610100900460ff16806119bf575060005460ff16155b6119db5760405162461bcd60e51b81526004016105a59061253c565b600054610100900460ff16158015611021576000805461ffff191661010117905580156108ad576000805461ff001916905550565b600054610100900460ff1680611a29575060005460ff16155b611a455760405162461bcd60e51b81526004016105a59061253c565b600054610100900460ff16158015611a67576000805461ffff19166101011790555b60fb805460ff1916905580156108ad576000805461ff001916905550565b600054610100900460ff1680611a9e575060005460ff16155b611aba5760405162461bcd60e51b81526004016105a59061253c565b600054610100900460ff16158015611adc576000805461ffff19166101011790555b8251611aef9060c9906020860190611fa1565b508151611b039060ca906020850190611fa1565b5080156107b1576000805461ff0019169055505050565b60fb5460ff16156107b15760405162461bcd60e51b81526004016105a590612512565b803b611ba15760405162461bcd60e51b815260206004820152602d60248201527f455243313936373a206e657720696d706c656d656e746174696f6e206973206e60448201526c1bdd08184818dbdb9d1c9858dd609a1b60648201526084016105a5565b7f360894a13ba1a3210667c828492db98dca3e2076cc3735a920a3ca505d382bbc80546001600160a01b0319166001600160a01b0392909216919091179055565b6060823b611c415760405162461bcd60e51b815260206004820152602660248201527f416464726573733a2064656c65676174652063616c6c20746f206e6f6e2d636f6044820152651b9d1c9858dd60d21b60648201526084016105a5565b600080846001600160a01b031684604051611c5c919061238d565b600060405180830381855af49150503d8060008114611c97576040519150601f19603f3d011682016040523d82523d6000602084013e611c9c565b606091505b5091509150611cc4828260405180606001604052806027815260200161273860279139611f68565b95945050505050565b611cd681611b3d565b6040516001600160a01b038216907fbc7cd75a20ee27fd9adebab32041f755214dbc6bffa90cc0225b39da2e5c2d3b90600090a250565b6001600160a01b038216611d635760405162461bcd60e51b815260206004820181905260248201527f4552433732313a206d696e7420746f20746865207a65726f206164647265737360448201526064016105a5565b600081815260cb60205260409020546001600160a01b031615611dc85760405162461bcd60e51b815260206004820152601c60248201527f4552433732313a20746f6b656e20616c7265616479206d696e7465640000000060448201526064016105a5565b611dd460008383611b1a565b6001600160a01b038216600090815260cc60205260408120805460019290611dfd9084906125db565b9091555050600081815260cb602052604080822080546001600160a01b0319166001600160a01b03861690811790915590518392907fddf252ad1be2c89b69c2b068fc378daa952ba7f163c4a11628f55a4df523b3ef908290a45050565b60006001600160a01b0384163b15611f5d57604051630a85bd0160e11b81526001600160a01b0385169063150b7a0290611e9f9033908990889088906004016123d8565b602060405180830381600087803b158015611eb957600080fd5b505af1925050508015611ee9575060408051601f3d908101601f19168201909252611ee691810190612296565b60015b611f43573d808015611f17576040519150601f19603f3d011682016040523d82523d6000602084013e611f1c565b606091505b508051611f3b5760405162461bcd60e51b81526004016105a590612428565b805181602001fd5b6001600160e01b031916630a85bd0160e11b149050611308565b506001949350505050565b60608315611f77575081610fb3565b825115611f875782518084602001fd5b8160405162461bcd60e51b81526004016105a59190612415565b828054611fad9061264a565b90600052602060002090601f016020900481019282611fcf5760008555612015565b82601f10611fe857805160ff1916838001178555612015565b82800160010185558215612015579182015b82811115612015578251825591602001919060010190611ffa565b50612021929150612025565b5090565b5b808211156120215760008155600101612026565b600082601f83011261204b57600080fd5b813567ffffffffffffffff80821115612066576120666126f6565b604051601f8301601f19908116603f0116810190828211818310171561208e5761208e6126f6565b816040528381528660208588010111156120a757600080fd5b836020870160208301376000602085830101528094505050505092915050565b6000602082840312156120d957600080fd5b8135610fb38161270c565b600080604083850312156120f757600080fd5b82356121028161270c565b915060208301356121128161270c565b809150509250929050565b60008060006060848603121561213257600080fd5b833561213d8161270c565b9250602084013561214d8161270c565b929592945050506040919091013590565b6000806000806080858703121561217457600080fd5b843561217f8161270c565b9350602085013561218f8161270c565b925060408501359150606085013567ffffffffffffffff8111156121b257600080fd5b6121be8782880161203a565b91505092959194509250565b600080604083850312156121dd57600080fd5b82356121e88161270c565b91506020830135801515811461211257600080fd5b6000806040838503121561221057600080fd5b823561221b8161270c565b9150602083013567ffffffffffffffff81111561223757600080fd5b6122438582860161203a565b9150509250929050565b6000806040838503121561226057600080fd5b823561226b8161270c565b946020939093013593505050565b60006020828403121561228b57600080fd5b8135610fb381612721565b6000602082840312156122a857600080fd5b8151610fb381612721565b6000602082840312156122c557600080fd5b8151610fb38161270c565b6000806000606084860312156122e557600080fd5b833567ffffffffffffffff808211156122fd57600080fd5b6123098783880161203a565b9450602086013591508082111561231f57600080fd5b5061232c8682870161203a565b925050604084013561233d8161270c565b809150509250925092565b60006020828403121561235a57600080fd5b5035919050565b6000815180845261237981602086016020860161261e565b601f01601f19169290920160200192915050565b6000825161239f81846020870161261e565b9190910192915050565b600083516123bb81846020880161261e565b8351908301906123cf81836020880161261e565b01949350505050565b6001600160a01b038581168252841660208201526040810183905260806060820181905260009061240b90830184612361565b9695505050505050565b602081526000610fb36020830184612361565b60208082526032908201527f4552433732313a207472616e7366657220746f206e6f6e20455243373231526560408201527131b2b4bb32b91034b6b83632b6b2b73a32b960711b606082015260800190565b6020808252602c908201527f46756e6374696f6e206d7573742062652063616c6c6564207468726f7567682060408201526b19195b1959d85d1958d85b1b60a21b606082015260800190565b6020808252602c908201527f46756e6374696f6e206d7573742062652063616c6c6564207468726f7567682060408201526b6163746976652070726f787960a01b606082015260800190565b60208082526010908201526f14185d5cd8589b194e881c185d5cd95960821b604082015260600190565b6020808252602e908201527f496e697469616c697a61626c653a20636f6e747261637420697320616c72656160408201526d191e481a5b9a5d1a585b1a5e995960921b606082015260800190565b60208082526031908201527f4552433732313a207472616e736665722063616c6c6572206973206e6f74206f6040820152701ddb995c881b9bdc88185c1c1c9bdd9959607a1b606082015260800190565b600082198211156125ee576125ee6126b4565b500190565b600082612602576126026126ca565b500490565b600082821015612619576126196126b4565b500390565b60005b83811015612639578181015183820152602001612621565b838111156106055750506000910152565b600181811c9082168061265e57607f821691505b6020821081141561267f57634e487b7160e01b600052602260045260246000fd5b50919050565b6000600019821415612699576126996126b4565b5060010190565b6000826126af576126af6126ca565b500690565b634e487b7160e01b600052601160045260246000fd5b634e487b7160e01b600052601260045260246000fd5b634e487b7160e01b600052603260045260246000fd5b634e487b7160e01b600052604160045260246000fd5b6001600160a01b03811681146108ad57600080fd5b6001600160e01b0319811681146108ad57600080fdfe416464726573733a206c6f772d6c6576656c2064656c65676174652063616c6c206661696c656455435dd261a4b9b3364963f7738a7a662ad9c84396d64be3365284bb7f0a5041a2646970667358221220cca2104a8cb668d83d13fd9829554b518e206ca88d073fb28f7bc5a0fb9fa41d64736f6c63430008060033",
  "linkReferences": {},
  "deployedLinkReferences": {}
}