{
  "_format": "hh-sol-artifact-1",
  "contractName": "Marionette",
  "sourceName": "contracts/Marionette.sol",
  "abi": [
    {
      "anonymous": false,
      "inputs": [
        {
          "indexed": false,
          "internalType": "address",
          "name": "sender",
          "type": "address"
        },
        {
          "indexed": false,
          "internalType": "uint256",
          "name": "amount",
          "type": "uint256"
        }
      ],
      "name": "EtherReceived",
      "type": "event"
    },
    {
      "anonymous": false,
      "inputs": [
        {
          "indexed": false,
          "internalType": "address",
          "name": "receiver",
          "type": "address"
        },
        {
          "indexed": false,
          "internalType": "uint256",
          "name": "amount",
          "type": "uint256"
        }
      ],
      "name": "EtherSent",
      "type": "event"
    },
    {
      "anonymous": false,
      "inputs": [
        {
          "indexed": false,
          "internalType": "bytes",
          "name": "output",
          "type": "bytes"
        }
      ],
      "name": "FunctionCallResult",
      "type": "event"
    },
    {
      "anonymous": false,
      "inputs": [
        {
          "indexed": true,
          "internalType": "bytes32",
          "name": "role",
          "type": "bytes32"
        },
        {
          "indexed": true,
          "internalType": "bytes32",
          "name": "previousAdminRole",
          "type": "bytes32"
        },
        {
          "indexed": true,
          "internalType": "bytes32",
          "name": "newAdminRole",
          "type": "bytes32"
        }
      ],
      "name": "RoleAdminChanged",
      "type": "event"
    },
    {
      "anonymous": false,
      "inputs": [
        {
          "indexed": true,
          "internalType": "bytes32",
          "name": "role",
          "type": "bytes32"
        },
        {
          "indexed": true,
          "internalType": "address",
          "name": "account",
          "type": "address"
        },
        {
          "indexed": true,
          "internalType": "address",
          "name": "sender",
          "type": "address"
        }
      ],
      "name": "RoleGranted",
      "type": "event"
    },
    {
      "anonymous": false,
      "inputs": [
        {
          "indexed": true,
          "internalType": "bytes32",
          "name": "role",
          "type": "bytes32"
        },
        {
          "indexed": true,
          "internalType": "address",
          "name": "account",
          "type": "address"
        },
        {
          "indexed": true,
          "internalType": "address",
          "name": "sender",
          "type": "address"
        }
      ],
      "name": "RoleRevoked",
      "type": "event"
    },
    {
      "inputs": [],
      "name": "ACCESS_VIOLATION",
      "outputs": [
        {
          "internalType": "string",
          "name": "",
          "type": "string"
        }
      ],
      "stateMutability": "view",
      "type": "function"
    },
    {
      "inputs": [],
      "name": "DEFAULT_ADMIN_ROLE",
      "outputs": [
        {
          "internalType": "bytes32",
          "name": "",
          "type": "bytes32"
        }
      ],
      "stateMutability": "view",
      "type": "function"
    },
    {
      "inputs": [],
      "name": "IMA_ROLE",
      "outputs": [
        {
          "internalType": "bytes32",
          "name": "",
          "type": "bytes32"
        }
      ],
      "stateMutability": "view",
      "type": "function"
    },
    {
      "inputs": [],
      "name": "PUPPETEER_ROLE",
      "outputs": [
        {
          "internalType": "bytes32",
          "name": "",
          "type": "bytes32"
        }
      ],
      "stateMutability": "view",
      "type": "function"
    },
    {
      "inputs": [
        {
          "internalType": "address",
          "name": "receiver",
          "type": "address"
        },
        {
          "internalType": "uint256",
          "name": "value",
          "type": "uint256"
        },
        {
          "internalType": "bytes",
          "name": "data",
          "type": "bytes"
        }
      ],
      "name": "encodeFunctionCall",
      "outputs": [
        {
          "internalType": "bytes",
          "name": "",
          "type": "bytes"
        }
      ],
      "stateMutability": "pure",
      "type": "function"
    },
    {
      "inputs": [
        {
          "internalType": "address payable",
          "name": "target",
          "type": "address"
        },
        {
          "internalType": "uint256",
          "name": "value",
          "type": "uint256"
        },
        {
          "internalType": "bytes",
          "name": "data",
          "type": "bytes"
        }
      ],
      "name": "execute",
      "outputs": [
        {
          "internalType": "bytes",
          "name": "",
          "type": "bytes"
        }
      ],
      "stateMutability": "payable",
      "type": "function"
    },
    {
      "inputs": [
        {
          "internalType": "bytes32",
          "name": "role",
          "type": "bytes32"
        }
      ],
      "name": "getRoleAdmin",
      "outputs": [
        {
          "internalType": "bytes32",
          "name": "",
          "type": "bytes32"
        }
      ],
      "stateMutability": "view",
      "type": "function"
    },
    {
      "inputs": [
        {
          "internalType": "bytes32",
          "name": "role",
          "type": "bytes32"
        },
        {
          "internalType": "uint256",
          "name": "index",
          "type": "uint256"
        }
      ],
      "name": "getRoleMember",
      "outputs": [
        {
          "internalType": "address",
          "name": "",
          "type": "address"
        }
      ],
      "stateMutability": "view",
      "type": "function"
    },
    {
      "inputs": [
        {
          "internalType": "bytes32",
          "name": "role",
          "type": "bytes32"
        }
      ],
      "name": "getRoleMemberCount",
      "outputs": [
        {
          "internalType": "uint256",
          "name": "",
          "type": "uint256"
        }
      ],
      "stateMutability": "view",
      "type": "function"
    },
    {
      "inputs": [
        {
          "internalType": "bytes32",
          "name": "role",
          "type": "bytes32"
        },
        {
          "internalType": "address",
          "name": "account",
          "type": "address"
        }
      ],
      "name": "grantRole",
      "outputs": [],
      "stateMutability": "nonpayable",
      "type": "function"
    },
    {
      "inputs": [
        {
          "internalType": "bytes32",
          "name": "role",
          "type": "bytes32"
        },
        {
          "internalType": "address",
          "name": "account",
          "type": "address"
        }
      ],
      "name": "hasRole",
      "outputs": [
        {
          "internalType": "bool",
          "name": "",
          "type": "bool"
        }
      ],
      "stateMutability": "view",
      "type": "function"
    },
    {
      "inputs": [
        {
          "internalType": "address",
          "name": "owner",
          "type": "address"
        },
        {
          "internalType": "address",
          "name": "ima",
          "type": "address"
        }
      ],
      "name": "initialize",
      "outputs": [],
      "stateMutability": "nonpayable",
      "type": "function"
    },
    {
      "inputs": [
        {
          "internalType": "bytes32",
          "name": "",
          "type": "bytes32"
        },
        {
          "internalType": "address",
          "name": "sender",
          "type": "address"
        },
        {
          "internalType": "bytes",
          "name": "data",
          "type": "bytes"
        }
      ],
      "name": "postMessage",
      "outputs": [
        {
          "internalType": "address",
          "name": "",
          "type": "address"
        }
      ],
      "stateMutability": "nonpayable",
      "type": "function"
    },
    {
      "inputs": [
        {
          "internalType": "bytes32",
          "name": "role",
          "type": "bytes32"
        },
        {
          "internalType": "address",
          "name": "account",
          "type": "address"
        }
      ],
      "name": "renounceRole",
      "outputs": [],
      "stateMutability": "nonpayable",
      "type": "function"
    },
    {
      "inputs": [
        {
          "internalType": "bytes32",
          "name": "role",
          "type": "bytes32"
        },
        {
          "internalType": "address",
          "name": "account",
          "type": "address"
        }
      ],
      "name": "revokeRole",
      "outputs": [],
      "stateMutability": "nonpayable",
      "type": "function"
    },
    {
      "inputs": [
        {
          "internalType": "address payable",
          "name": "target",
          "type": "address"
        },
        {
          "internalType": "uint256",
          "name": "value",
          "type": "uint256"
        }
      ],
      "name": "sendEth",
      "outputs": [],
      "stateMutability": "payable",
      "type": "function"
    },
    {
      "inputs": [
        {
          "internalType": "bytes4",
          "name": "interfaceId",
          "type": "bytes4"
        }
      ],
      "name": "supportsInterface",
      "outputs": [
        {
          "internalType": "bool",
          "name": "",
          "type": "bool"
        }
      ],
      "stateMutability": "view",
      "type": "function"
    },
    {
      "stateMutability": "payable",
      "type": "receive"
    }
  ],
  "bytecode": "0x608060405234801561001057600080fd5b506117dc806100206000396000f3fe6080604052600436106101025760003560e01c8063884cee5a11610095578063a217fddf11610064578063a217fddf14610331578063b61d27f614610346578063ca15c87314610359578063d547741f14610379578063f81299b91461039957600080fd5b8063884cee5a1461027d5780639010d07c146102b557806391d14854146102d55780639bba6b78146102f557600080fd5b806334216d62116100d157806334216d621461020857806336568abe1461022a578063485cc9551461024a57806349dcbc5e1461026a57600080fd5b806301ffc9a7146101465780631e6995911461017b578063248a9ca3146101a85780632f2ff15d146101e657600080fd5b3661014157604080513381523460208201527f1e57e3bb474320be3d2c77138f75b7c3941292d647f5f9634e33a8e94e0e069b910160405180910390a1005b600080fd5b34801561015257600080fd5b50610166610161366004611250565b6103cd565b60405190151581526020015b60405180910390f35b34801561018757600080fd5b5061019b6101963660046112db565b6103f8565b6040516101729190611393565b3480156101b457600080fd5b506101d86101c33660046113a6565b60009081526065602052604090206001015490565b604051908152602001610172565b3480156101f257600080fd5b506102066102013660046113bf565b61042a565b005b34801561021457600080fd5b506101d860008051602061178783398151915281565b34801561023657600080fd5b506102066102453660046113bf565b610455565b34801561025657600080fd5b506102066102653660046113ef565b6104d8565b61020661027836600461141d565b6105f6565b34801561028957600080fd5b5061029d610298366004611449565b61067b565b6040516001600160a01b039091168152602001610172565b3480156102c157600080fd5b5061029d6102d036600461148d565b6107b4565b3480156102e157600080fd5b506101666102f03660046113bf565b6107d3565b34801561030157600080fd5b5061019b6040518060400160405280601081526020016f20b1b1b2b9b9903b34b7b630ba34b7b760811b81525081565b34801561033d57600080fd5b506101d8600081565b61019b6103543660046112db565b6107fe565b34801561036557600080fd5b506101d86103743660046113a6565b6108aa565b34801561038557600080fd5b506102066103943660046113bf565b6108c1565b3480156103a557600080fd5b506101d87f18f7915ceb1a15dd0c3170ef6d30ba89e0bcb07f4fb55858579385663709107e81565b60006001600160e01b03198216635a05180f60e01b14806103f257506103f2826108e7565b92915050565b60608484848460405160200161041194939291906114af565b6040516020818303038152906040529050949350505050565b600082815260656020526040902060010154610446813361091c565b6104508383610980565b505050565b6001600160a01b03811633146104ca5760405162461bcd60e51b815260206004820152602f60248201527f416363657373436f6e74726f6c3a2063616e206f6e6c792072656e6f756e636560448201526e103937b632b9903337b91039b2b63360891b60648201526084015b60405180910390fd5b6104d482826109a2565b5050565b600054610100900460ff166104f35760005460ff16156104f7565b303b155b61055a5760405162461bcd60e51b815260206004820152602e60248201527f496e697469616c697a61626c653a20636f6e747261637420697320616c72656160448201526d191e481a5b9a5d1a585b1a5e995960921b60648201526084016104c1565b600054610100900460ff1615801561057c576000805461ffff19166101011790555b6105846109c4565b61058f600030610a0d565b6105a760008051602061178783398151915284610a0d565b6001600160a01b038216156105e0576105e07f18f7915ceb1a15dd0c3170ef6d30ba89e0bcb07f4fb55858579385663709107e83610a0d565b8015610450576000805461ff0019169055505050565b61060e600080516020611787833981519152336107d3565b6040518060400160405280601081526020016f20b1b1b2b9b9903b34b7b630ba34b7b760811b815250906106555760405162461bcd60e51b81526004016104c19190611393565b50610450828260405180604001604052806002815260200161060f60f31b815250610a17565b60006106a77f18f7915ceb1a15dd0c3170ef6d30ba89e0bcb07f4fb55858579385663709107e336107d3565b6106e75760405162461bcd60e51b815260206004820152601160248201527053656e646572206973206e6f7420494d4160781b60448201526064016104c1565b6106ff600080516020611787833981519152856107d3565b6040518060400160405280601081526020016f20b1b1b2b9b9903b34b7b630ba34b7b760811b815250906107465760405162461bcd60e51b81526004016104c19190611393565b5060006107538484610b09565b9050600061076e826000015183602001518460400151610a17565b90507f96dfc08ca2be84df03b6ba50ac467a2e3cfa446eebcc623851fbee1ba03017848160405161079f9190611393565b60405180910390a15060009695505050505050565b60008281526097602052604081206107cc9083610b4c565b9392505050565b60009182526065602090815260408084206001600160a01b0393909316845291905290205460ff1690565b6060610818600080516020611787833981519152336107d3565b6040518060400160405280601081526020016f20b1b1b2b9b9903b34b7b630ba34b7b760811b8152509061085f5760405162461bcd60e51b81526004016104c19190611393565b506108a1858585858080601f016020809104026020016040519081016040528093929190818152602001838380828437600092019190915250610a1792505050565b95945050505050565b60008181526097602052604081206103f290610b58565b6000828152606560205260409020600101546108dd813361091c565b61045083836109a2565b60006001600160e01b03198216637965db0b60e01b14806103f257506301ffc9a760e01b6001600160e01b03198316146103f2565b61092682826107d3565b6104d45761093e816001600160a01b03166014610b62565b610949836020610b62565b60405160200161095a9291906114f7565b60408051601f198184030181529082905262461bcd60e51b82526104c191600401611393565b61098a8282610cfe565b60008281526097602052604090206104509082610d84565b6109ac8282610d99565b60008281526097602052604090206104509082610e00565b600054610100900460ff166109eb5760405162461bcd60e51b81526004016104c19061156c565b6109f3610e15565b6109fb610e15565b610a03610e15565b610a0b610e15565b565b6104d48282610980565b60603415610a5857604080513381523460208201527f1e57e3bb474320be3d2c77138f75b7c3941292d647f5f9634e33a8e94e0e069b910160405180910390a15b8215610aa157604080516001600160a01b0386168152602081018590527f6109e2559dfa766aaec7118351d48a523f0a4157f49c8d68749c8ac41318ad12910160405180910390a15b6001600160a01b0384163b15610ad5576004825110610ad557610ace6001600160a01b0385168385610e3c565b90506107cc565b610ae86001600160a01b03851684610e6a565b50604080518082019091526002815261060f60f31b60208201529392505050565b60408051606080820183526000808352602083015291810191909152610b31828401846115cd565b604084015260208301526001600160a01b0316815292915050565b60006107cc8383610f83565b60006103f2825490565b60606000610b718360026116b0565b610b7c9060026116cf565b67ffffffffffffffff811115610b9457610b946115b7565b6040519080825280601f01601f191660200182016040528015610bbe576020820181803683370190505b509050600360fc1b81600081518110610bd957610bd96116e7565b60200101906001600160f81b031916908160001a905350600f60fb1b81600181518110610c0857610c086116e7565b60200101906001600160f81b031916908160001a9053506000610c2c8460026116b0565b610c379060016116cf565b90505b6001811115610caf576f181899199a1a9b1b9c1cb0b131b232b360811b85600f1660108110610c6b57610c6b6116e7565b1a60f81b828281518110610c8157610c816116e7565b60200101906001600160f81b031916908160001a90535060049490941c93610ca8816116fd565b9050610c3a565b5083156107cc5760405162461bcd60e51b815260206004820181905260248201527f537472696e67733a20686578206c656e67746820696e73756666696369656e7460448201526064016104c1565b610d0882826107d3565b6104d45760008281526065602090815260408083206001600160a01b03851684529091529020805460ff19166001179055610d403390565b6001600160a01b0316816001600160a01b0316837f2f8788117e7eff1d82e926ec794901d17c78024a50270940304540a733656f0d60405160405180910390a45050565b60006107cc836001600160a01b038416610fad565b610da382826107d3565b156104d45760008281526065602090815260408083206001600160a01b0385168085529252808320805460ff1916905551339285917ff6391f5c32d9c69d2a47ea670b442974b53935d1edc7fd64eb21e047a839171b9190a45050565b60006107cc836001600160a01b038416610ffc565b600054610100900460ff16610a0b5760405162461bcd60e51b81526004016104c19061156c565b6060610e6284848460405180606001604052806029815260200161175e602991396110ef565b949350505050565b80471015610eba5760405162461bcd60e51b815260206004820152601d60248201527f416464726573733a20696e73756666696369656e742062616c616e636500000060448201526064016104c1565b6000826001600160a01b03168260405160006040518083038185875af1925050503d8060008114610f07576040519150601f19603f3d011682016040523d82523d6000602084013e610f0c565b606091505b50509050806104505760405162461bcd60e51b815260206004820152603a60248201527f416464726573733a20756e61626c6520746f2073656e642076616c75652c207260448201527f6563697069656e74206d6179206861766520726576657274656400000000000060648201526084016104c1565b6000826000018281548110610f9a57610f9a6116e7565b9060005260206000200154905092915050565b6000818152600183016020526040812054610ff4575081546001818101845560008481526020808220909301849055845484825282860190935260409020919091556103f2565b5060006103f2565b600081815260018301602052604081205480156110e5576000611020600183611714565b855490915060009061103490600190611714565b9050818114611099576000866000018281548110611054576110546116e7565b9060005260206000200154905080876000018481548110611077576110776116e7565b6000918252602080832090910192909255918252600188019052604090208390555b85548690806110aa576110aa61172b565b6001900381819060005260206000200160009055905585600101600086815260200190815260200160002060009055600193505050506103f2565b60009150506103f2565b6060824710156111505760405162461bcd60e51b815260206004820152602660248201527f416464726573733a20696e73756666696369656e742062616c616e636520666f6044820152651c8818d85b1b60d21b60648201526084016104c1565b843b61119e5760405162461bcd60e51b815260206004820152601d60248201527f416464726573733a2063616c6c20746f206e6f6e2d636f6e747261637400000060448201526064016104c1565b600080866001600160a01b031685876040516111ba9190611741565b60006040518083038185875af1925050503d80600081146111f7576040519150601f19603f3d011682016040523d82523d6000602084013e6111fc565b606091505b509150915061120c828286611217565b979650505050505050565b606083156112265750816107cc565b8251156112365782518084602001fd5b8160405162461bcd60e51b81526004016104c19190611393565b60006020828403121561126257600080fd5b81356001600160e01b0319811681146107cc57600080fd5b6001600160a01b038116811461128f57600080fd5b50565b60008083601f8401126112a457600080fd5b50813567ffffffffffffffff8111156112bc57600080fd5b6020830191508360208285010111156112d457600080fd5b9250929050565b600080600080606085870312156112f157600080fd5b84356112fc8161127a565b935060208501359250604085013567ffffffffffffffff81111561131f57600080fd5b61132b87828801611292565b95989497509550505050565b60005b8381101561135257818101518382015260200161133a565b83811115611361576000848401525b50505050565b6000815180845261137f816020860160208601611337565b601f01601f19169290920160200192915050565b6020815260006107cc6020830184611367565b6000602082840312156113b857600080fd5b5035919050565b600080604083850312156113d257600080fd5b8235915060208301356113e48161127a565b809150509250929050565b6000806040838503121561140257600080fd5b823561140d8161127a565b915060208301356113e48161127a565b6000806040838503121561143057600080fd5b823561143b8161127a565b946020939093013593505050565b6000806000806060858703121561145f57600080fd5b8435935060208501356114718161127a565b9250604085013567ffffffffffffffff81111561131f57600080fd5b600080604083850312156114a057600080fd5b50508035926020909101359150565b6001600160a01b0385168152602081018490526060604082018190528101829052818360808301376000818301608090810191909152601f909201601f191601019392505050565b7f416363657373436f6e74726f6c3a206163636f756e742000000000000000000081526000835161152f816017850160208801611337565b7001034b99036b4b9b9b4b733903937b6329607d1b6017918401918201528351611560816028840160208801611337565b01602801949350505050565b6020808252602b908201527f496e697469616c697a61626c653a20636f6e7472616374206973206e6f74206960408201526a6e697469616c697a696e6760a81b606082015260800190565b634e487b7160e01b600052604160045260246000fd5b6000806000606084860312156115e257600080fd5b83356115ed8161127a565b925060208401359150604084013567ffffffffffffffff8082111561161157600080fd5b818601915086601f83011261162557600080fd5b813581811115611637576116376115b7565b604051601f8201601f19908116603f0116810190838211818310171561165f5761165f6115b7565b8160405282815289602084870101111561167857600080fd5b8260208601602083013760006020848301015280955050505050509250925092565b634e487b7160e01b600052601160045260246000fd5b60008160001904831182151516156116ca576116ca61169a565b500290565b600082198211156116e2576116e261169a565b500190565b634e487b7160e01b600052603260045260246000fd5b60008161170c5761170c61169a565b506000190190565b6000828210156117265761172661169a565b500390565b634e487b7160e01b600052603160045260246000fd5b60008251611753818460208701611337565b919091019291505056fe416464726573733a206c6f772d6c6576656c2063616c6c20776974682076616c7565206661696c6564dbe8b307f60c9ed0e3764e9100b17f1d4c5fd58ba7889d208d166f481302d4cfa2646970667358221220c5b1054d6dc679bd27c45daf827ffa9751b8f3bf8c5d2970c76a862e414f11f564736f6c634300080b0033",
  "linkReferences": {},
  "deployedLinkReferences": {}
}